{
  "contractName": "Cassino",
  "abi": [
    {
      "inputs": [],
      "stateMutability": "payable",
      "type": "constructor"
    },
    {
      "anonymous": false,
      "inputs": [
        {
          "indexed": true,
          "internalType": "address payable",
          "name": "jogador",
          "type": "address"
        },
        {
          "indexed": false,
          "internalType": "uint256",
          "name": "tamanhoAposta",
          "type": "uint256"
        },
        {
          "indexed": false,
          "internalType": "uint8",
          "name": "numeroAposta",
          "type": "uint8"
        },
        {
          "indexed": false,
          "internalType": "uint8",
          "name": "numeroVencedor",
          "type": "uint8"
        }
      ],
      "name": "Apostar",
      "type": "event"
    },
    {
      "anonymous": false,
      "inputs": [
        {
          "indexed": true,
          "internalType": "address",
          "name": "previousOwner",
          "type": "address"
        },
        {
          "indexed": true,
          "internalType": "address",
          "name": "newOwner",
          "type": "address"
        }
      ],
      "name": "OwnershipTransferred",
      "type": "event"
    },
    {
      "anonymous": false,
      "inputs": [
        {
          "indexed": false,
          "internalType": "address payable",
          "name": "vencedor",
          "type": "address"
        },
        {
          "indexed": false,
          "internalType": "uint256",
          "name": "valor",
          "type": "uint256"
        }
      ],
      "name": "Pagar",
      "type": "event"
    },
    {
      "inputs": [],
      "name": "owner",
      "outputs": [
        {
          "internalType": "address",
          "name": "",
          "type": "address"
        }
      ],
      "stateMutability": "view",
      "type": "function"
    },
    {
      "inputs": [],
      "name": "renounceOwnership",
      "outputs": [],
      "stateMutability": "nonpayable",
      "type": "function"
    },
    {
      "inputs": [
        {
          "internalType": "address",
          "name": "newOwner",
          "type": "address"
        }
      ],
      "name": "transferOwnership",
      "outputs": [],
      "stateMutability": "nonpayable",
      "type": "function"
    },
    {
      "inputs": [],
      "name": "coletar",
      "outputs": [],
      "stateMutability": "payable",
      "type": "function"
    },
    {
      "inputs": [
        {
          "internalType": "address payable",
          "name": "owner",
          "type": "address"
        }
      ],
      "name": "fechar",
      "outputs": [],
      "stateMutability": "payable",
      "type": "function"
    },
    {
      "inputs": [
        {
          "internalType": "uint8",
          "name": "numero",
          "type": "uint8"
        },
        {
          "internalType": "address payable",
          "name": "jogador",
          "type": "address"
        },
        {
          "internalType": "uint256",
          "name": "tamanhoAposta",
          "type": "uint256"
        }
      ],
      "name": "apostar",
      "outputs": [],
      "stateMutability": "payable",
      "type": "function"
    },
    {
      "inputs": [],
      "name": "obterCoeficiente",
      "outputs": [
        {
          "internalType": "uint256",
          "name": "",
          "type": "uint256"
        }
      ],
      "stateMutability": "view",
      "type": "function"
    }
  ],
  "bytecode": "0x608060405261002061001561007960201b60201c565b61008160201b60201c565b33600160006101000a81548173ffffffffffffffffffffffffffffffffffffffff021916908373ffffffffffffffffffffffffffffffffffffffff160217905550600a4761006e9190610145565b6002819055506101af565b600033905090565b60008060009054906101000a900473ffffffffffffffffffffffffffffffffffffffff169050816000806101000a81548173ffffffffffffffffffffffffffffffffffffffff021916908373ffffffffffffffffffffffffffffffffffffffff1602179055508173ffffffffffffffffffffffffffffffffffffffff168173ffffffffffffffffffffffffffffffffffffffff167f8be0079c531659141344cd1fd0a4f28419497f9722a3daafe3b4186f6b6457e060405160405180910390a35050565b600061015082610176565b915061015b83610176565b92508261016b5761016a610180565b5b828204905092915050565b6000819050919050565b7f4e487b7100000000000000000000000000000000000000000000000000000000600052601260045260246000fd5b610c8b806101be6000396000f3fe6080604052600436106100705760003560e01c80639036dceb1161004e5780639036dceb146100e2578063da2966fb146100fe578063eafb14bc1461011a578063f2fde38b1461012457610070565b80633fa430d914610075578063715018a6146100a05780638da5cb5b146100b7575b600080fd5b34801561008157600080fd5b5061008a61014d565b60405161009791906108d8565b60405180910390f35b3480156100ac57600080fd5b506100b5610157565b005b3480156100c357600080fd5b506100cc6101df565b6040516100d99190610814565b60405180910390f35b6100fc60048036038101906100f791906106f9565b610208565b005b610118600480360381019061011391906106cc565b610329565b005b6101226103be565b005b34801561013057600080fd5b5061014b6004803603810190610146919061069f565b6103c0565b005b6000600254905090565b61015f6104b8565b73ffffffffffffffffffffffffffffffffffffffff1661017d6101df565b73ffffffffffffffffffffffffffffffffffffffff16146101d3576040517f08c379a00000000000000000000000000000000000000000000000000000000081526004016101ca90610898565b60405180910390fd5b6101dd60006104c0565b565b60008060009054906101000a900473ffffffffffffffffffffffffffffffffffffffff16905090565b806000811161024c576040517f08c379a0000000000000000000000000000000000000000000000000000000008152600401610243906108b8565b60405180910390fd5b81476002548261025c9190610991565b111561029d576040517f08c379a000000000000000000000000000000000000000000000000000000000815260040161029490610878565b60405180910390fd5b60006102a7610584565b90508473ffffffffffffffffffffffffffffffffffffffff167fcdfd1e6333cab98dd2a8788d68b60d7db914d3ac88f3eacb78a3251a9fdc03108588846040516102f3939291906108f3565b60405180910390a28060ff168660ff16141561032157610320856002548661031b9190610991565b6105a5565b5b505050505050565b6103316104b8565b73ffffffffffffffffffffffffffffffffffffffff1661034f6101df565b73ffffffffffffffffffffffffffffffffffffffff16146103a5576040517f08c379a000000000000000000000000000000000000000000000000000000000815260040161039c90610898565b60405180910390fd5b8073ffffffffffffffffffffffffffffffffffffffff16ff5b565b6103c86104b8565b73ffffffffffffffffffffffffffffffffffffffff166103e66101df565b73ffffffffffffffffffffffffffffffffffffffff161461043c576040517f08c379a000000000000000000000000000000000000000000000000000000000815260040161043390610898565b60405180910390fd5b600073ffffffffffffffffffffffffffffffffffffffff168173ffffffffffffffffffffffffffffffffffffffff1614156104ac576040517f08c379a00000000000000000000000000000000000000000000000000000000081526004016104a390610858565b60405180910390fd5b6104b5816104c0565b50565b600033905090565b60008060009054906101000a900473ffffffffffffffffffffffffffffffffffffffff169050816000806101000a81548173ffffffffffffffffffffffffffffffffffffffff021916908373ffffffffffffffffffffffffffffffffffffffff1602179055508173ffffffffffffffffffffffffffffffffffffffff168173ffffffffffffffffffffffffffffffffffffffff167f8be0079c531659141344cd1fd0a4f28419497f9722a3daafe3b4186f6b6457e060405160405180910390a35050565b60006001600254436105969190610a46565b6105a0919061093b565b905090565b600081116105b6576105b5610a77565b5b478111156105c7576105c6610a77565b5b8173ffffffffffffffffffffffffffffffffffffffff166108fc829081150290604051600060405180830381858888f1935050505015801561060d573d6000803e3d6000fd5b507fff65f9e1b5e0571329b7886a472dde1882873681284190b5876a71c61433587f828260405161063f92919061082f565b60405180910390a15050565b60008135905061065a81610bf9565b92915050565b60008135905061066f81610c10565b92915050565b60008135905061068481610c27565b92915050565b60008135905061069981610c3e565b92915050565b6000602082840312156106b5576106b4610b04565b5b60006106c38482850161064b565b91505092915050565b6000602082840312156106e2576106e1610b04565b5b60006106f084828501610660565b91505092915050565b60008060006060848603121561071257610711610b04565b5b60006107208682870161068a565b935050602061073186828701610660565b925050604061074286828701610675565b9150509250925092565b610755816109fd565b82525050565b610764816109eb565b82525050565b600061077760268361092a565b915061078282610b09565b604082019050919050565b600061079a603d8361092a565b91506107a582610b58565b604082019050919050565b60006107bd60208361092a565b91506107c882610ba7565b602082019050919050565b60006107e0600f8361092a565b91506107eb82610bd0565b602082019050919050565b6107ff81610a2f565b82525050565b61080e81610a39565b82525050565b6000602082019050610829600083018461075b565b92915050565b6000604082019050610844600083018561074c565b61085160208301846107f6565b9392505050565b600060208201905081810360008301526108718161076a565b9050919050565b600060208201905081810360008301526108918161078d565b9050919050565b600060208201905081810360008301526108b1816107b0565b9050919050565b600060208201905081810360008301526108d1816107d3565b9050919050565b60006020820190506108ed60008301846107f6565b92915050565b600060608201905061090860008301866107f6565b6109156020830185610805565b6109226040830184610805565b949350505050565b600082825260208201905092915050565b600061094682610a2f565b915061095183610a2f565b9250827fffffffffffffffffffffffffffffffffffffffffffffffffffffffffffffffff0382111561098657610985610aa6565b5b828201905092915050565b600061099c82610a2f565b91506109a783610a2f565b9250817fffffffffffffffffffffffffffffffffffffffffffffffffffffffffffffffff04831182151516156109e0576109df610aa6565b5b828202905092915050565b60006109f682610a0f565b9050919050565b6000610a0882610a0f565b9050919050565b600073ffffffffffffffffffffffffffffffffffffffff82169050919050565b6000819050919050565b600060ff82169050919050565b6000610a5182610a2f565b9150610a5c83610a2f565b925082610a6c57610a6b610ad5565b5b828206905092915050565b7f4e487b7100000000000000000000000000000000000000000000000000000000600052600160045260246000fd5b7f4e487b7100000000000000000000000000000000000000000000000000000000600052601160045260246000fd5b7f4e487b7100000000000000000000000000000000000000000000000000000000600052601260045260246000fd5b600080fd5b7f4f776e61626c653a206e6577206f776e657220697320746865207a65726f206160008201527f6464726573730000000000000000000000000000000000000000000000000000602082015250565b7f6f2076616c6f722064612061706f737461206e616f20706f646520657863656460008201527f6572206f2074616d616e686f206d6178696d6f2064612061706f737461000000602082015250565b7f4f776e61626c653a2063616c6c6572206973206e6f7420746865206f776e6572600082015250565b7f61706f73746120696e76616c6964610000000000000000000000000000000000600082015250565b610c02816109eb565b8114610c0d57600080fd5b50565b610c19816109fd565b8114610c2457600080fd5b50565b610c3081610a2f565b8114610c3b57600080fd5b50565b610c4781610a39565b8114610c5257600080fd5b5056fea26469706673582212202a7be0734e3cbe299b3b1c29ebfff1ac21e3c066455d4c045afffdc6f53b872664736f6c63430008070033",
  "immutableReferences": {},
  "source": "// SPDX-License-Identifier: MIT\r\npragma solidity ^0.8.0;\r\n\r\nimport \"@openzeppelin/contracts/access/Ownable.sol\";\r\n\r\ncontract Cassino is Ownable {\r\n    address private _owner;\r\n    uint256 private _coeficiente;\r\n    // address[] public _players;\r\n    \r\n    event Apostar(address payable indexed jogador, uint256 tamanhoAposta, uint8 numeroAposta, uint8 numeroVencedor);\r\n    event Pagar(address payable vencedor, uint256 valor);\r\n \r\n    constructor() payable {\r\n        _owner = msg.sender;\r\n        _coeficiente = address(this).balance / 10; \r\n    }\r\n\r\n    modifier ApostaValida(uint256 tamanhoAposta){\r\n        require(tamanhoAposta > 0, 'aposta invalida');\r\n        _;\r\n    }    \r\n\r\n    modifier LimiteAposta(uint256 tamanhoAposta){\r\n        require(tamanhoAposta*_coeficiente <= address(this).balance, 'o valor da aposta nao pode exceder o tamanho maximo da aposta');\r\n        _;\r\n    }\r\n\r\n    function coletar() external payable {}    \r\n\r\n    function fechar\r\n    (\r\n        address payable owner\r\n    )\r\n        external\r\n        payable\r\n        onlyOwner\r\n    {\r\n        selfdestruct(owner);\r\n    }\r\n\r\n    function apostar\r\n    (\r\n        uint8 numero,\r\n        address payable jogador,\r\n        uint256 tamanhoAposta\r\n    )\r\n        external\r\n        ApostaValida(tamanhoAposta)\r\n        LimiteAposta(tamanhoAposta)\r\n        payable\r\n    {\r\n        // _players.push(jogador);\r\n\r\n        uint8 numeroVencedor = gerarNumeroVencedor();\r\n        emit Apostar(jogador, tamanhoAposta, numero, numeroVencedor);\r\n\r\n        if (numero == numeroVencedor) {\r\n            pagar(jogador, tamanhoAposta * _coeficiente);\r\n        }\r\n    }\r\n\r\n    function pagar\r\n    (\r\n        address payable vencedor,\r\n        uint256 premio\r\n    )\r\n        internal\r\n    {\r\n        assert(premio > 0);\r\n        assert(premio <= address(this).balance);\r\n\r\n        vencedor.transfer(premio);\r\n        emit Pagar(vencedor, premio);            \r\n    }\r\n\r\n    function gerarNumeroVencedor() internal view returns (uint8) {\r\n        return uint8(block.number % _coeficiente + 1); //TODO: NO FAZER ISSO EM PRODUO!!!\r\n    }\r\n\r\n    function obterCoeficiente() public view returns (uint256) {\r\n        return _coeficiente;\r\n    }\r\n\r\n    // function obterJogadores() public view returns (address[] memory) {\r\n    //     return _players;\r\n    // }\r\n}",
  "sourcePath": "C:/Dev/Projetos/git/smart-contract/contracts/Cassino.sol",
  "compiler": {
    "name": "solc",
    "version": "0.8.7+commit.e28d00a7.Emscripten.clang"
  },
  "schemaVersion": "3.3.4",
  "updatedAt": "2021-09-18T22:51:22.716Z",
  "devdoc": {
    "kind": "dev",
    "methods": {
      "owner()": {
        "details": "Returns the address of the current owner."
      },
      "renounceOwnership()": {
        "details": "Leaves the contract without owner. It will not be possible to call `onlyOwner` functions anymore. Can only be called by the current owner. NOTE: Renouncing ownership will leave the contract without an owner, thereby removing any functionality that is only available to the owner."
      },
      "transferOwnership(address)": {
        "details": "Transfers ownership of the contract to a new account (`newOwner`). Can only be called by the current owner."
      }
    },
    "version": 1
  },
  "userdoc": {
    "kind": "user",
    "methods": {},
    "version": 1
  }
}