{
  "contractName": "Cassino",
  "abi": [
    {
      "inputs": [],
      "stateMutability": "payable",
      "type": "constructor"
    },
    {
      "anonymous": false,
      "inputs": [
        {
          "indexed": true,
          "internalType": "address payable",
          "name": "jogador",
          "type": "address"
        },
        {
          "indexed": false,
          "internalType": "uint256",
          "name": "tamanhoAposta",
          "type": "uint256"
        },
        {
          "indexed": false,
          "internalType": "uint8",
          "name": "numeroAposta",
          "type": "uint8"
        },
        {
          "indexed": false,
          "internalType": "uint8",
          "name": "numeroVencedor",
          "type": "uint8"
        }
      ],
      "name": "Apostar",
      "type": "event"
    },
    {
      "anonymous": false,
      "inputs": [
        {
          "indexed": true,
          "internalType": "address",
          "name": "previousOwner",
          "type": "address"
        },
        {
          "indexed": true,
          "internalType": "address",
          "name": "newOwner",
          "type": "address"
        }
      ],
      "name": "OwnershipTransferred",
      "type": "event"
    },
    {
      "anonymous": false,
      "inputs": [
        {
          "indexed": false,
          "internalType": "address payable",
          "name": "vencedor",
          "type": "address"
        },
        {
          "indexed": false,
          "internalType": "uint256",
          "name": "valor",
          "type": "uint256"
        }
      ],
      "name": "Pagar",
      "type": "event"
    },
    {
      "inputs": [],
      "name": "owner",
      "outputs": [
        {
          "internalType": "address",
          "name": "",
          "type": "address"
        }
      ],
      "stateMutability": "view",
      "type": "function"
    },
    {
      "inputs": [],
      "name": "renounceOwnership",
      "outputs": [],
      "stateMutability": "nonpayable",
      "type": "function"
    },
    {
      "inputs": [
        {
          "internalType": "address",
          "name": "newOwner",
          "type": "address"
        }
      ],
      "name": "transferOwnership",
      "outputs": [],
      "stateMutability": "nonpayable",
      "type": "function"
    },
    {
      "inputs": [],
      "name": "coletar",
      "outputs": [],
      "stateMutability": "payable",
      "type": "function"
    },
    {
      "inputs": [
        {
          "internalType": "address payable",
          "name": "owner",
          "type": "address"
        }
      ],
      "name": "fechar",
      "outputs": [],
      "stateMutability": "payable",
      "type": "function"
    },
    {
      "inputs": [
        {
          "internalType": "uint8",
          "name": "numero",
          "type": "uint8"
        },
        {
          "internalType": "address payable",
          "name": "jogador",
          "type": "address"
        },
        {
          "internalType": "uint256",
          "name": "tamanhoAposta",
          "type": "uint256"
        }
      ],
      "name": "apostar",
      "outputs": [
        {
          "internalType": "bool",
          "name": "",
          "type": "bool"
        }
      ],
      "stateMutability": "payable",
      "type": "function"
    },
    {
      "inputs": [],
      "name": "gerarNumeroVencedor",
      "outputs": [
        {
          "internalType": "uint8",
          "name": "",
          "type": "uint8"
        }
      ],
      "stateMutability": "view",
      "type": "function"
    },
    {
      "inputs": [],
      "name": "obterCoeficiente",
      "outputs": [
        {
          "internalType": "uint256",
          "name": "",
          "type": "uint256"
        }
      ],
      "stateMutability": "view",
      "type": "function"
    }
  ],
  "bytecode": "0x608060405261002061001561008260201b60201c565b61008a60201b60201c565b33600160006101000a81548173ffffffffffffffffffffffffffffffffffffffff021916908373ffffffffffffffffffffffffffffffffffffffff16021790555034600381905550600a600354610077919061014e565b6002819055506101b8565b600033905090565b60008060009054906101000a900473ffffffffffffffffffffffffffffffffffffffff169050816000806101000a81548173ffffffffffffffffffffffffffffffffffffffff021916908373ffffffffffffffffffffffffffffffffffffffff1602179055508173ffffffffffffffffffffffffffffffffffffffff168173ffffffffffffffffffffffffffffffffffffffff167f8be0079c531659141344cd1fd0a4f28419497f9722a3daafe3b4186f6b6457e060405160405180910390a35050565b60006101598261017f565b91506101648361017f565b92508261017457610173610189565b5b828204905092915050565b6000819050919050565b7f4e487b7100000000000000000000000000000000000000000000000000000000600052601260045260246000fd5b610d6f806101c76000396000f3fe60806040526004361061007b5760003560e01c8063da2966fb1161004e578063da2966fb1461011d578063eafb14bc14610139578063f2fde38b14610143578063f67b30901461016c5761007b565b80633fa430d914610080578063715018a6146100ab5780638da5cb5b146100c25780639036dceb146100ed575b600080fd5b34801561008c57600080fd5b50610095610197565b6040516100a29190610964565b60405180910390f35b3480156100b757600080fd5b506100c06101a1565b005b3480156100ce57600080fd5b506100d7610229565b6040516100e49190610885565b60405180910390f35b6101076004803603810190610102919061075b565b610252565b60405161011491906108c9565b60405180910390f35b6101376004803603810190610132919061072e565b61038b565b005b610141610420565b005b34801561014f57600080fd5b5061016a60048036038101906101659190610701565b610422565b005b34801561017857600080fd5b5061018161051a565b60405161018e91906109b6565b60405180910390f35b6000600254905090565b6101a961053b565b73ffffffffffffffffffffffffffffffffffffffff166101c7610229565b73ffffffffffffffffffffffffffffffffffffffff161461021d576040517f08c379a000000000000000000000000000000000000000000000000000000000815260040161021490610924565b60405180910390fd5b6102276000610543565b565b60008060009054906101000a900473ffffffffffffffffffffffffffffffffffffffff16905090565b60008160008111610298576040517f08c379a000000000000000000000000000000000000000000000000000000000815260040161028f90610944565b60405180910390fd5b826000600354476102a99190610a38565b9050808211156102ee576040517f08c379a00000000000000000000000000000000000000000000000000000000081526004016102e590610904565b60405180910390fd5b60006102f861051a565b90508673ffffffffffffffffffffffffffffffffffffffff167fcdfd1e6333cab98dd2a8788d68b60d7db914d3ac88f3eacb78a3251a9fdc0310878a846040516103449392919061097f565b60405180910390a28060ff168860ff16141561037b57610371876002548861036c9190610a69565b610607565b6001945050610381565b60009450505b5050509392505050565b61039361053b565b73ffffffffffffffffffffffffffffffffffffffff166103b1610229565b73ffffffffffffffffffffffffffffffffffffffff1614610407576040517f08c379a00000000000000000000000000000000000000000000000000000000081526004016103fe90610924565b60405180910390fd5b8073ffffffffffffffffffffffffffffffffffffffff16ff5b565b61042a61053b565b73ffffffffffffffffffffffffffffffffffffffff16610448610229565b73ffffffffffffffffffffffffffffffffffffffff161461049e576040517f08c379a000000000000000000000000000000000000000000000000000000000815260040161049590610924565b60405180910390fd5b600073ffffffffffffffffffffffffffffffffffffffff168173ffffffffffffffffffffffffffffffffffffffff16141561050e576040517f08c379a0000000000000000000000000000000000000000000000000000000008152600401610505906108e4565b60405180910390fd5b61051781610543565b50565b600060016002544361052c9190610b2a565b61053691906109e2565b905090565b600033905090565b60008060009054906101000a900473ffffffffffffffffffffffffffffffffffffffff169050816000806101000a81548173ffffffffffffffffffffffffffffffffffffffff021916908373ffffffffffffffffffffffffffffffffffffffff1602179055508173ffffffffffffffffffffffffffffffffffffffff168173ffffffffffffffffffffffffffffffffffffffff167f8be0079c531659141344cd1fd0a4f28419497f9722a3daafe3b4186f6b6457e060405160405180910390a35050565b6000811161061857610617610b5b565b5b4781111561062957610628610b5b565b5b8173ffffffffffffffffffffffffffffffffffffffff166108fc829081150290604051600060405180830381858888f1935050505015801561066f573d6000803e3d6000fd5b507fff65f9e1b5e0571329b7886a472dde1882873681284190b5876a71c61433587f82826040516106a19291906108a0565b60405180910390a15050565b6000813590506106bc81610cdd565b92915050565b6000813590506106d181610cf4565b92915050565b6000813590506106e681610d0b565b92915050565b6000813590506106fb81610d22565b92915050565b60006020828403121561071757610716610be8565b5b6000610725848285016106ad565b91505092915050565b60006020828403121561074457610743610be8565b5b6000610752848285016106c2565b91505092915050565b60008060006060848603121561077457610773610be8565b5b6000610782868287016106ec565b9350506020610793868287016106c2565b92505060406107a4868287016106d7565b9150509250925092565b6107b781610ad5565b82525050565b6107c681610ac3565b82525050565b6107d581610ae7565b82525050565b60006107e86026836109d1565b91506107f382610bed565b604082019050919050565b600061080b603d836109d1565b915061081682610c3c565b604082019050919050565b600061082e6020836109d1565b915061083982610c8b565b602082019050919050565b6000610851600f836109d1565b915061085c82610cb4565b602082019050919050565b61087081610b13565b82525050565b61087f81610b1d565b82525050565b600060208201905061089a60008301846107bd565b92915050565b60006040820190506108b560008301856107ae565b6108c26020830184610867565b9392505050565b60006020820190506108de60008301846107cc565b92915050565b600060208201905081810360008301526108fd816107db565b9050919050565b6000602082019050818103600083015261091d816107fe565b9050919050565b6000602082019050818103600083015261093d81610821565b9050919050565b6000602082019050818103600083015261095d81610844565b9050919050565b60006020820190506109796000830184610867565b92915050565b60006060820190506109946000830186610867565b6109a16020830185610876565b6109ae6040830184610876565b949350505050565b60006020820190506109cb6000830184610876565b92915050565b600082825260208201905092915050565b60006109ed82610b13565b91506109f883610b13565b9250827fffffffffffffffffffffffffffffffffffffffffffffffffffffffffffffffff03821115610a2d57610a2c610b8a565b5b828201905092915050565b6000610a4382610b13565b9150610a4e83610b13565b925082610a5e57610a5d610bb9565b5b828204905092915050565b6000610a7482610b13565b9150610a7f83610b13565b9250817fffffffffffffffffffffffffffffffffffffffffffffffffffffffffffffffff0483118215151615610ab857610ab7610b8a565b5b828202905092915050565b6000610ace82610af3565b9050919050565b6000610ae082610af3565b9050919050565b60008115159050919050565b600073ffffffffffffffffffffffffffffffffffffffff82169050919050565b6000819050919050565b600060ff82169050919050565b6000610b3582610b13565b9150610b4083610b13565b925082610b5057610b4f610bb9565b5b828206905092915050565b7f4e487b7100000000000000000000000000000000000000000000000000000000600052600160045260246000fd5b7f4e487b7100000000000000000000000000000000000000000000000000000000600052601160045260246000fd5b7f4e487b7100000000000000000000000000000000000000000000000000000000600052601260045260246000fd5b600080fd5b7f4f776e61626c653a206e6577206f776e657220697320746865207a65726f206160008201527f6464726573730000000000000000000000000000000000000000000000000000602082015250565b7f6f2076616c6f722064612061706f737461206e616f20706f646520657863656460008201527f6572206f2074616d616e686f206d6178696d6f2064612061706f737461000000602082015250565b7f4f776e61626c653a2063616c6c6572206973206e6f7420746865206f776e6572600082015250565b7f61706f73746120696e76616c6964610000000000000000000000000000000000600082015250565b610ce681610ac3565b8114610cf157600080fd5b50565b610cfd81610ad5565b8114610d0857600080fd5b50565b610d1481610b13565b8114610d1f57600080fd5b50565b610d2b81610b1d565b8114610d3657600080fd5b5056fea2646970667358221220f9a8831d9927d9b0a050f390139ed7cb96ec465b3dce0fe145bb2d661c550ae964736f6c63430008060033",
  "immutableReferences": {},
  "source": "// SPDX-License-Identifier: MIT\r\npragma solidity ^0.8.0;\r\n\r\nimport \"@openzeppelin/contracts/access/Ownable.sol\";\r\n\r\ncontract Cassino is Ownable {\r\n    address private _owner;\r\n    uint256 private _coeficiente;\r\n    uint256 private _saldo;\r\n\r\n    event Apostar(address payable indexed jogador, uint256 tamanhoAposta, uint8 numeroAposta, uint8 numeroVencedor);\r\n    event Pagar(address payable vencedor, uint256 valor);\r\n \r\n    constructor() payable {\r\n        _owner = msg.sender;\r\n        _saldo = msg.value;\r\n        _coeficiente = _saldo / 10; \r\n    }\r\n\r\n    modifier ApostaValida(uint256 tamanhoAposta){\r\n        require(tamanhoAposta > 0, 'aposta invalida');\r\n        _;\r\n    }    \r\n\r\n    modifier LimiteAposta(uint256 tamanhoAposta){\r\n        uint256 limite = address(this).balance / _saldo;\r\n        require(tamanhoAposta <= limite, 'o valor da aposta nao pode exceder o tamanho maximo da aposta');\r\n        _;\r\n    }\r\n\r\n    function coletar() external payable {}    \r\n\r\n    function fechar\r\n    (\r\n        address payable owner\r\n    )\r\n        external\r\n        payable\r\n        onlyOwner\r\n    {\r\n        selfdestruct(owner);\r\n    }\r\n\r\n    function apostar\r\n    (\r\n        uint8 numero,\r\n        address payable jogador,\r\n        uint256 tamanhoAposta\r\n    )\r\n        external\r\n        ApostaValida(tamanhoAposta)\r\n        LimiteAposta(tamanhoAposta)\r\n        payable\r\n        returns (bool)\r\n    {\r\n        uint8 numeroVencedor = gerarNumeroVencedor();\r\n        emit Apostar(jogador, tamanhoAposta, numero, numeroVencedor);\r\n\r\n        if (numero == numeroVencedor) {\r\n            pagar(jogador, tamanhoAposta * _coeficiente);\r\n            return true;\r\n        }\r\n        \r\n        return false;\r\n    }\r\n\r\n    function pagar\r\n    (\r\n        address payable vencedor,\r\n        uint256 premio\r\n    )\r\n        internal\r\n    {\r\n        assert(premio > 0);\r\n        assert(premio <= address(this).balance);\r\n\r\n        vencedor.transfer(premio);\r\n        emit Pagar(vencedor, premio);            \r\n    }\r\n\r\n    function gerarNumeroVencedor() public view returns (uint8) {\r\n        return uint8(block.number % _coeficiente + 1); //TODO: NO FAZER ISSO EM PRODUO!!!\r\n    }\r\n\r\n    function obterCoeficiente() public view returns (uint256) {\r\n        return _coeficiente;\r\n    }\r\n}",
  "sourcePath": "C:/Dev/Projetos/git/smart-contract/contracts/Cassino.sol",
  "compiler": {
    "name": "solc",
    "version": "0.8.6+commit.11564f7e.Emscripten.clang"
  },
  "schemaVersion": "3.3.4",
  "updatedAt": "2021-07-25T14:46:53.389Z",
  "devdoc": {
    "kind": "dev",
    "methods": {
      "owner()": {
        "details": "Returns the address of the current owner."
      },
      "renounceOwnership()": {
        "details": "Leaves the contract without owner. It will not be possible to call `onlyOwner` functions anymore. Can only be called by the current owner. NOTE: Renouncing ownership will leave the contract without an owner, thereby removing any functionality that is only available to the owner."
      },
      "transferOwnership(address)": {
        "details": "Transfers ownership of the contract to a new account (`newOwner`). Can only be called by the current owner."
      }
    },
    "version": 1
  },
  "userdoc": {
    "kind": "user",
    "methods": {},
    "version": 1
  }
}