{
  "contractName": "Cassino",
  "abi": [
    {
      "inputs": [],
      "stateMutability": "nonpayable",
      "type": "constructor"
    },
    {
      "anonymous": false,
      "inputs": [
        {
          "indexed": true,
          "internalType": "address payable",
          "name": "jogador",
          "type": "address"
        },
        {
          "indexed": false,
          "internalType": "uint256",
          "name": "tamanhoAposta",
          "type": "uint256"
        },
        {
          "indexed": false,
          "internalType": "uint8",
          "name": "numeroAposta",
          "type": "uint8"
        },
        {
          "indexed": false,
          "internalType": "uint8",
          "name": "numeroVencedor",
          "type": "uint8"
        }
      ],
      "name": "Apostar",
      "type": "event"
    },
    {
      "anonymous": false,
      "inputs": [
        {
          "indexed": true,
          "internalType": "address",
          "name": "previousOwner",
          "type": "address"
        },
        {
          "indexed": true,
          "internalType": "address",
          "name": "newOwner",
          "type": "address"
        }
      ],
      "name": "OwnershipTransferred",
      "type": "event"
    },
    {
      "anonymous": false,
      "inputs": [
        {
          "indexed": false,
          "internalType": "address payable",
          "name": "jogador",
          "type": "address"
        },
        {
          "indexed": false,
          "internalType": "uint256",
          "name": "valor",
          "type": "uint256"
        }
      ],
      "name": "Pagar",
      "type": "event"
    },
    {
      "inputs": [],
      "name": "owner",
      "outputs": [
        {
          "internalType": "address",
          "name": "",
          "type": "address"
        }
      ],
      "stateMutability": "view",
      "type": "function",
      "constant": true
    },
    {
      "inputs": [],
      "name": "renounceOwnership",
      "outputs": [],
      "stateMutability": "nonpayable",
      "type": "function"
    },
    {
      "inputs": [
        {
          "internalType": "address",
          "name": "newOwner",
          "type": "address"
        }
      ],
      "name": "transferOwnership",
      "outputs": [],
      "stateMutability": "nonpayable",
      "type": "function"
    },
    {
      "inputs": [
        {
          "internalType": "address payable",
          "name": "owner",
          "type": "address"
        }
      ],
      "name": "fechar",
      "outputs": [],
      "stateMutability": "payable",
      "type": "function",
      "payable": true
    },
    {
      "inputs": [],
      "name": "reserva",
      "outputs": [],
      "stateMutability": "payable",
      "type": "function",
      "payable": true
    },
    {
      "inputs": [
        {
          "internalType": "uint8",
          "name": "numero",
          "type": "uint8"
        },
        {
          "internalType": "address payable",
          "name": "jogador",
          "type": "address"
        },
        {
          "internalType": "uint256",
          "name": "tamanhoAposta",
          "type": "uint256"
        }
      ],
      "name": "apostar",
      "outputs": [],
      "stateMutability": "payable",
      "type": "function",
      "payable": true
    }
  ],
  "bytecode": "0x608060405234801561001057600080fd5b5061002d61002261003260201b60201c565b61003a60201b60201c565b6100fe565b600033905090565b60008060009054906101000a900473ffffffffffffffffffffffffffffffffffffffff169050816000806101000a81548173ffffffffffffffffffffffffffffffffffffffff021916908373ffffffffffffffffffffffffffffffffffffffff1602179055508173ffffffffffffffffffffffffffffffffffffffff168173ffffffffffffffffffffffffffffffffffffffff167f8be0079c531659141344cd1fd0a4f28419497f9722a3daafe3b4186f6b6457e060405160405180910390a35050565b610ac48061010d6000396000f3fe6080604052600436106100555760003560e01c8063715018a61461005a5780638da5cb5b146100715780639036dceb1461009c578063aa2e93cc146100b8578063da2966fb146100c2578063f2fde38b146100de575b600080fd5b34801561006657600080fd5b5061006f610107565b005b34801561007d57600080fd5b5061008661018f565b60405161009391906106e9565b60405180910390f35b6100b660048036038101906100b191906105dd565b6101b8565b005b6100c06102b4565b005b6100dc60048036038101906100d791906105b0565b6102b6565b005b3480156100ea57600080fd5b5061010560048036038101906101009190610583565b61034b565b005b61010f610443565b73ffffffffffffffffffffffffffffffffffffffff1661012d61018f565b73ffffffffffffffffffffffffffffffffffffffff1614610183576040517f08c379a000000000000000000000000000000000000000000000000000000000815260040161017a90610744565b60405180910390fd5b61018d600061044b565b565b60008060009054906101000a900473ffffffffffffffffffffffffffffffffffffffff16905090565b600034116101fb576040517f08c379a00000000000000000000000000000000000000000000000000000000081526004016101f290610764565b60405180910390fd5b600060644761020a9190610822565b90508034111561024f576040517f08c379a000000000000000000000000000000000000000000000000000000000815260040161024690610724565b60405180910390fd5b600061025961050f565b90508373ffffffffffffffffffffffffffffffffffffffff167fcdfd1e6333cab98dd2a8788d68b60d7db914d3ac88f3eacb78a3251a9fdc03108487846040516102a593929190610784565b60405180910390a25050505050565b565b6102be610443565b73ffffffffffffffffffffffffffffffffffffffff166102dc61018f565b73ffffffffffffffffffffffffffffffffffffffff1614610332576040517f08c379a000000000000000000000000000000000000000000000000000000000815260040161032990610744565b60405180910390fd5b8073ffffffffffffffffffffffffffffffffffffffff16ff5b610353610443565b73ffffffffffffffffffffffffffffffffffffffff1661037161018f565b73ffffffffffffffffffffffffffffffffffffffff16146103c7576040517f08c379a00000000000000000000000000000000000000000000000000000000081526004016103be90610744565b60405180910390fd5b600073ffffffffffffffffffffffffffffffffffffffff168173ffffffffffffffffffffffffffffffffffffffff161415610437576040517f08c379a000000000000000000000000000000000000000000000000000000000815260040161042e90610704565b60405180910390fd5b6104408161044b565b50565b600033905090565b60008060009054906101000a900473ffffffffffffffffffffffffffffffffffffffff169050816000806101000a81548173ffffffffffffffffffffffffffffffffffffffff021916908373ffffffffffffffffffffffffffffffffffffffff1602179055508173ffffffffffffffffffffffffffffffffffffffff168173ffffffffffffffffffffffffffffffffffffffff167f8be0079c531659141344cd1fd0a4f28419497f9722a3daafe3b4186f6b6457e060405160405180910390a35050565b60006001600a4361052091906108ae565b61052a91906107cc565b905090565b60008135905061053e81610a32565b92915050565b60008135905061055381610a49565b92915050565b60008135905061056881610a60565b92915050565b60008135905061057d81610a77565b92915050565b6000602082840312156105995761059861093d565b5b60006105a78482850161052f565b91505092915050565b6000602082840312156105c6576105c561093d565b5b60006105d484828501610544565b91505092915050565b6000806000606084860312156105f6576105f561093d565b5b60006106048682870161056e565b935050602061061586828701610544565b925050604061062686828701610559565b9150509250925092565b61063981610853565b82525050565b600061064c6026836107bb565b915061065782610942565b604082019050919050565b600061066f603d836107bb565b915061067a82610991565b604082019050919050565b60006106926020836107bb565b915061069d826109e0565b602082019050919050565b60006106b5600f836107bb565b91506106c082610a09565b602082019050919050565b6106d481610897565b82525050565b6106e3816108a1565b82525050565b60006020820190506106fe6000830184610630565b92915050565b6000602082019050818103600083015261071d8161063f565b9050919050565b6000602082019050818103600083015261073d81610662565b9050919050565b6000602082019050818103600083015261075d81610685565b9050919050565b6000602082019050818103600083015261077d816106a8565b9050919050565b600060608201905061079960008301866106cb565b6107a660208301856106da565b6107b360408301846106da565b949350505050565b600082825260208201905092915050565b60006107d782610897565b91506107e283610897565b9250827fffffffffffffffffffffffffffffffffffffffffffffffffffffffffffffffff03821115610817576108166108df565b5b828201905092915050565b600061082d82610897565b915061083883610897565b9250826108485761084761090e565b5b828204905092915050565b600061085e82610877565b9050919050565b600061087082610877565b9050919050565b600073ffffffffffffffffffffffffffffffffffffffff82169050919050565b6000819050919050565b600060ff82169050919050565b60006108b982610897565b91506108c483610897565b9250826108d4576108d361090e565b5b828206905092915050565b7f4e487b7100000000000000000000000000000000000000000000000000000000600052601160045260246000fd5b7f4e487b7100000000000000000000000000000000000000000000000000000000600052601260045260246000fd5b600080fd5b7f4f776e61626c653a206e6577206f776e657220697320746865207a65726f206160008201527f6464726573730000000000000000000000000000000000000000000000000000602082015250565b7f6f2076616c6f722064612061706f737461206e616f20706f646520657863656460008201527f6572206f2074616d616e686f206d6178696d6f2064612061706f737461000000602082015250565b7f4f776e61626c653a2063616c6c6572206973206e6f7420746865206f776e6572600082015250565b7f61706f73746120696e76616c6964610000000000000000000000000000000000600082015250565b610a3b81610853565b8114610a4657600080fd5b50565b610a5281610865565b8114610a5d57600080fd5b50565b610a6981610897565b8114610a7457600080fd5b50565b610a80816108a1565b8114610a8b57600080fd5b5056fea2646970667358221220093cf5d4d59a10d9c9a6e2912650cdc519df0bf2bdb329406267c8ee421f181864736f6c63430008060033",
  "immutableReferences": {},
  "source": "// SPDX-License-Identifier: MIT\r\npragma solidity ^0.8.0;\r\n\r\nimport \"@openzeppelin/contracts/access/Ownable.sol\";\r\n\r\ncontract Cassino is Ownable {\r\n    event Apostar(address payable indexed jogador, uint256 tamanhoAposta, uint8 numeroAposta, uint8 numeroVencedor);\r\n    event Pagar(address payable jogador, uint256 valor);\r\n \r\n    constructor() {\r\n\r\n    }\r\n\r\n    modifier ApostaValida(){\r\n        require(msg.value > 0, 'aposta invalida');\r\n        _;\r\n    }    \r\n\r\n    modifier LimiteAposta(){\r\n        uint256 limite = address(this).balance / 100;\r\n        require(msg.value <= limite, 'o valor da aposta nao pode exceder o tamanho maximo da aposta');\r\n        _;\r\n    }\r\n\r\n    function fechar\r\n    (\r\n        address payable owner\r\n    )\r\n        external\r\n        payable\r\n        onlyOwner\r\n    {\r\n        selfdestruct(owner);\r\n    }\r\n\r\n    function reserva() external payable {}\r\n\r\n    function apostar\r\n    (\r\n        uint8 numero,\r\n        address payable jogador,\r\n        uint256 tamanhoAposta\r\n    )\r\n        external\r\n        ApostaValida()\r\n        LimiteAposta()\r\n        payable\r\n    {\r\n        uint8 numeroVencedor = gerarNumeroVencedor();\r\n        emit Apostar(jogador, tamanhoAposta, numero, numeroVencedor);\r\n    }\r\n\r\n    function pagar\r\n    (\r\n        address payable vencedor,\r\n        uint256 premio\r\n    )\r\n        internal\r\n    {\r\n        assert(premio > 0);\r\n        assert(premio <= address(this).balance);\r\n\r\n        vencedor.transfer(premio);\r\n        emit Pagar(vencedor, premio);            \r\n    }\r\n\r\n    function gerarNumeroVencedor() internal view returns (uint8) {\r\n        return uint8(block.number % 10 + 1); //TODO: NO FAZER ISSO EM PRODUO!!!\r\n    }\r\n}",
  "sourcePath": "C:/Dev/Projetos/git/smart-contract/contracts/Cassino.sol",
  "compiler": {
    "name": "solc",
    "version": "0.8.6+commit.11564f7e.Emscripten.clang"
  },
  "schemaVersion": "3.3.4",
  "updatedAt": "2021-07-24T16:10:11.098Z",
  "networkType": "ethereum",
  "devdoc": {
    "kind": "dev",
    "methods": {
      "owner()": {
        "details": "Returns the address of the current owner."
      },
      "renounceOwnership()": {
        "details": "Leaves the contract without owner. It will not be possible to call `onlyOwner` functions anymore. Can only be called by the current owner. NOTE: Renouncing ownership will leave the contract without an owner, thereby removing any functionality that is only available to the owner."
      },
      "transferOwnership(address)": {
        "details": "Transfers ownership of the contract to a new account (`newOwner`). Can only be called by the current owner."
      }
    },
    "version": 1
  },
  "userdoc": {
    "kind": "user",
    "methods": {},
    "version": 1
  }
}