{
  "contractName": "FileManager",
  "abi": [
    {
      "anonymous": false,
      "inputs": [
        {
          "indexed": false,
          "internalType": "uint32",
          "name": "id",
          "type": "uint32"
        },
        {
          "indexed": false,
          "internalType": "string",
          "name": "hashh",
          "type": "string"
        },
        {
          "indexed": false,
          "internalType": "address",
          "name": "remetente",
          "type": "address"
        }
      ],
      "name": "Salvo",
      "type": "event"
    },
    {
      "inputs": [
        {
          "internalType": "string",
          "name": "hashh",
          "type": "string"
        },
        {
          "internalType": "string",
          "name": "nome",
          "type": "string"
        },
        {
          "internalType": "uint256",
          "name": "data",
          "type": "uint256"
        }
      ],
      "name": "adicionar",
      "outputs": [
        {
          "internalType": "uint32",
          "name": "",
          "type": "uint32"
        }
      ],
      "stateMutability": "nonpayable",
      "type": "function"
    },
    {
      "inputs": [
        {
          "internalType": "uint32",
          "name": "id",
          "type": "uint32"
        }
      ],
      "name": "ler",
      "outputs": [
        {
          "internalType": "string",
          "name": "nome",
          "type": "string"
        },
        {
          "internalType": "string",
          "name": "hashh",
          "type": "string"
        },
        {
          "internalType": "uint256",
          "name": "data",
          "type": "uint256"
        }
      ],
      "stateMutability": "view",
      "type": "function"
    }
  ],
  "bytecode": "0x608060405234801561001057600080fd5b50610936806100206000396000f3fe608060405234801561001057600080fd5b50600436106100365760003560e01c8063408f8cef1461003b578063699b0d191461006b575b600080fd5b610055600480360381019061005091906104d4565b61009d565b6040516100629190610637565b60405180910390f35b6100856004803603810190610080919061055f565b6101c4565b604051610094939291906105f2565b60405180910390f35b60008060008081819054906101000a900463ffffffff166100bd906107f3565b91906101000a81548163ffffffff021916908363ffffffff160217905590506000600160008363ffffffff1663ffffffff168152602001908152602001600020905084816001019080519060200190610117929190610397565b5085816000019080519060200190610130929190610397565b50838160020181905550338160030160006101000a81548173ffffffffffffffffffffffffffffffffffffffff021916908373ffffffffffffffffffffffffffffffffffffffff1602179055507f536559d017746a8dc02ea4a862e89e8e21ac936ae89d059e88892bd5f609ed048287336040516101b093929190610652565b60405180910390a181925050509392505050565b606080600080600160008663ffffffff1663ffffffff16815260200190815260200160002060405180608001604052908160008201805461020490610790565b80601f016020809104026020016040519081016040528092919081815260200182805461023090610790565b801561027d5780601f106102525761010080835404028352916020019161027d565b820191906000526020600020905b81548152906001019060200180831161026057829003601f168201915b5050505050815260200160018201805461029690610790565b80601f01602080910402602001604051908101604052809291908181526020018280546102c290610790565b801561030f5780601f106102e45761010080835404028352916020019161030f565b820191906000526020600020905b8154815290600101906020018083116102f257829003601f168201915b50505050508152602001600282015481526020016003820160009054906101000a900473ffffffffffffffffffffffffffffffffffffffff1673ffffffffffffffffffffffffffffffffffffffff1673ffffffffffffffffffffffffffffffffffffffff16815250509050806020015181600001518260400151935093509350509193909250565b8280546103a390610790565b90600052602060002090601f0160209004810192826103c5576000855561040c565b82601f106103de57805160ff191683800117855561040c565b8280016001018555821561040c579182015b8281111561040b5782518255916020019190600101906103f0565b5b509050610419919061041d565b5090565b5b8082111561043657600081600090555060010161041e565b5090565b600061044d610448846106b5565b610690565b905082815260208101848484011115610469576104686108b2565b5b61047484828561074e565b509392505050565b600082601f830112610491576104906108ad565b5b81356104a184826020860161043a565b91505092915050565b6000813590506104b9816108d2565b92915050565b6000813590506104ce816108e9565b92915050565b6000806000606084860312156104ed576104ec6108bc565b5b600084013567ffffffffffffffff81111561050b5761050a6108b7565b5b6105178682870161047c565b935050602084013567ffffffffffffffff811115610538576105376108b7565b5b6105448682870161047c565b9250506040610555868287016104aa565b9150509250925092565b600060208284031215610575576105746108bc565b5b6000610583848285016104bf565b91505092915050565b61059581610702565b82525050565b60006105a6826106e6565b6105b081856106f1565b93506105c081856020860161075d565b6105c9816108c1565b840191505092915050565b6105dd81610734565b82525050565b6105ec8161073e565b82525050565b6000606082019050818103600083015261060c818661059b565b90508181036020830152610620818561059b565b905061062f60408301846105d4565b949350505050565b600060208201905061064c60008301846105e3565b92915050565b600060608201905061066760008301866105e3565b8181036020830152610679818561059b565b9050610688604083018461058c565b949350505050565b600061069a6106ab565b90506106a682826107c2565b919050565b6000604051905090565b600067ffffffffffffffff8211156106d0576106cf61087e565b5b6106d9826108c1565b9050602081019050919050565b600081519050919050565b600082825260208201905092915050565b600061070d82610714565b9050919050565b600073ffffffffffffffffffffffffffffffffffffffff82169050919050565b6000819050919050565b600063ffffffff82169050919050565b82818337600083830152505050565b60005b8381101561077b578082015181840152602081019050610760565b8381111561078a576000848401525b50505050565b600060028204905060018216806107a857607f821691505b602082108114156107bc576107bb61084f565b5b50919050565b6107cb826108c1565b810181811067ffffffffffffffff821117156107ea576107e961087e565b5b80604052505050565b60006107fe8261073e565b915063ffffffff82141561081557610814610820565b5b600182019050919050565b7f4e487b7100000000000000000000000000000000000000000000000000000000600052601160045260246000fd5b7f4e487b7100000000000000000000000000000000000000000000000000000000600052602260045260246000fd5b7f4e487b7100000000000000000000000000000000000000000000000000000000600052604160045260246000fd5b600080fd5b600080fd5b600080fd5b600080fd5b6000601f19601f8301169050919050565b6108db81610734565b81146108e657600080fd5b50565b6108f28161073e565b81146108fd57600080fd5b5056fea2646970667358221220327e17343576d3067c14339ef2cf6d7ce19bde0bfc70bd22a26ccabe7eb40a5564736f6c63430008060033",
  "immutableReferences": {},
  "source": "// SPDX-License-Identifier: GPL-3.0\r\npragma solidity ^0.8.0;\r\n\r\ncontract FileManager {\r\n    uint32 private _Id;\r\n    mapping(uint32 => Informacao) private _Arquivos;\r\n\r\n    struct Informacao {\r\n        string Hash;\r\n        string Nome;\r\n        uint Data;\r\n        address Remetente;\r\n    }    \r\n\r\n    event Salvo(uint32 id, string hashh, address remetente);\r\n\r\n    function adicionar(\r\n        string memory hashh,\r\n        string memory nome,\r\n        uint data\r\n    )\r\n        public\r\n        returns (uint32)\r\n    {\r\n        uint32 id = ++_Id;\r\n\r\n        Informacao storage arquivo = _Arquivos[id];\r\n\r\n        arquivo.Nome = nome;\r\n        arquivo.Hash = hashh;\r\n        arquivo.Data = data;\r\n        arquivo.Remetente = msg.sender;\r\n\r\n        emit Salvo(id, hashh, msg.sender);\r\n        return id;\r\n    }\r\n\r\n    function ler(uint32 id)\r\n        public\r\n        view\r\n        returns\r\n        (\r\n            string memory nome,\r\n            string memory hashh,\r\n            uint data\r\n        )\r\n    {\r\n        Informacao memory arquivo = _Arquivos[id];\r\n        return (\r\n            arquivo.Nome,\r\n            arquivo.Hash,\r\n            arquivo.Data\r\n        );\r\n    }\r\n}",
  "sourcePath": "C:/Dev/Projetos/git/smart-contract/contracts/FileManager.sol",
  "compiler": {
    "name": "solc",
    "version": "0.8.6+commit.11564f7e.Emscripten.clang"
  },
  "schemaVersion": "3.3.4",
  "updatedAt": "2021-08-09T23:23:46.518Z",
  "devdoc": {
    "kind": "dev",
    "methods": {},
    "version": 1
  },
  "userdoc": {
    "kind": "user",
    "methods": {},
    "version": 1
  }
}