{
  "contractName": "FileManage",
  "abi": [
    {
      "inputs": [],
      "stateMutability": "nonpayable",
      "type": "constructor"
    },
    {
      "anonymous": false,
      "inputs": [
        {
          "indexed": false,
          "internalType": "address",
          "name": "sender",
          "type": "address"
        },
        {
          "indexed": false,
          "internalType": "string",
          "name": "name",
          "type": "string"
        }
      ],
      "name": "fileAdded",
      "type": "event"
    },
    {
      "inputs": [
        {
          "internalType": "string",
          "name": "fileContent",
          "type": "string"
        },
        {
          "internalType": "string",
          "name": "fileHash",
          "type": "string"
        },
        {
          "internalType": "string",
          "name": "fileName",
          "type": "string"
        },
        {
          "internalType": "string",
          "name": "fileDescription",
          "type": "string"
        },
        {
          "internalType": "string",
          "name": "fileType",
          "type": "string"
        },
        {
          "internalType": "uint256",
          "name": "dateTime",
          "type": "uint256"
        }
      ],
      "name": "add",
      "outputs": [],
      "stateMutability": "nonpayable",
      "type": "function"
    },
    {
      "inputs": [
        {
          "internalType": "uint256",
          "name": "index",
          "type": "uint256"
        }
      ],
      "name": "read",
      "outputs": [
        {
          "internalType": "string",
          "name": "fileContent",
          "type": "string"
        },
        {
          "internalType": "string",
          "name": "fileHash",
          "type": "string"
        },
        {
          "internalType": "string",
          "name": "fileName",
          "type": "string"
        },
        {
          "internalType": "string",
          "name": "fileDescription",
          "type": "string"
        },
        {
          "internalType": "string",
          "name": "fileType",
          "type": "string"
        },
        {
          "internalType": "uint256",
          "name": "dateTime",
          "type": "uint256"
        }
      ],
      "stateMutability": "view",
      "type": "function"
    },
    {
      "inputs": [],
      "name": "total",
      "outputs": [
        {
          "internalType": "uint256",
          "name": "",
          "type": "uint256"
        }
      ],
      "stateMutability": "view",
      "type": "function"
    }
  ],
  "bytecode": "0x608060405234801561001057600080fd5b50610cca806100206000396000f3fe608060405234801561001057600080fd5b50600436106100415760003560e01c80632ddbd13a1461004657806332482c9414610064578063ed2e5a9714610080575b600080fd5b61004e6100b5565b60405161005b9190610734565b60405180910390f35b61007e600480360381019061007991906108d5565b6100fe565b005b61009a600480360381019061009591906109ee565b6102ea565b6040516100ac96959493929190610aa3565b60405180910390f35b60008060003373ffffffffffffffffffffffffffffffffffffffff1673ffffffffffffffffffffffffffffffffffffffff16815260200190815260200160002080549050905090565b85858560008390506000839050600083905060008084511480610122575060008351145b8061012e575060008251145b90508015610171576040517f08c379a000000000000000000000000000000000000000000000000000000000815260040161016890610b73565b60405180910390fd5b6000803373ffffffffffffffffffffffffffffffffffffffff1673ffffffffffffffffffffffffffffffffffffffff1681526020019081526020016000206040518060c001604052808f81526020018e81526020018d81526020018c81526020018b81526020018a81525090806001815401808255809150506001900390600052602060002090600602016000909190919091506000820151816000019080519060200190610221929190610678565b50602082015181600101908051906020019061023e929190610678565b50604082015181600201908051906020019061025b929190610678565b506060820151816003019080519060200190610278929190610678565b506080820151816004019080519060200190610295929190610678565b5060a0820151816005015550507f1da8e28e528020f0bb9de07bec909ed9f712b58a70ed5d38fb10932d04e0ebc4338c6040516102d3929190610bd4565b60405180910390a150505050505050505050505050565b60608060608060606000806000803373ffffffffffffffffffffffffffffffffffffffff1673ffffffffffffffffffffffffffffffffffffffff168152602001908152602001600020888154811061034557610344610c04565b5b90600052602060002090600602016040518060c001604052908160008201805461036e90610c62565b80601f016020809104026020016040519081016040528092919081815260200182805461039a90610c62565b80156103e75780601f106103bc576101008083540402835291602001916103e7565b820191906000526020600020905b8154815290600101906020018083116103ca57829003601f168201915b5050505050815260200160018201805461040090610c62565b80601f016020809104026020016040519081016040528092919081815260200182805461042c90610c62565b80156104795780601f1061044e57610100808354040283529160200191610479565b820191906000526020600020905b81548152906001019060200180831161045c57829003601f168201915b5050505050815260200160028201805461049290610c62565b80601f01602080910402602001604051908101604052809291908181526020018280546104be90610c62565b801561050b5780601f106104e05761010080835404028352916020019161050b565b820191906000526020600020905b8154815290600101906020018083116104ee57829003601f168201915b5050505050815260200160038201805461052490610c62565b80601f016020809104026020016040519081016040528092919081815260200182805461055090610c62565b801561059d5780601f106105725761010080835404028352916020019161059d565b820191906000526020600020905b81548152906001019060200180831161058057829003601f168201915b505050505081526020016004820180546105b690610c62565b80601f01602080910402602001604051908101604052809291908181526020018280546105e290610c62565b801561062f5780601f106106045761010080835404028352916020019161062f565b820191906000526020600020905b81548152906001019060200180831161061257829003601f168201915b505050505081526020016005820154815250509050806000015181602001518260400151836060015184608001518560a001519650965096509650965096505091939550919395565b82805461068490610c62565b90600052602060002090601f0160209004810192826106a657600085556106ed565b82601f106106bf57805160ff19168380011785556106ed565b828001600101855582156106ed579182015b828111156106ec5782518255916020019190600101906106d1565b5b5090506106fa91906106fe565b5090565b5b808211156107175760008160009055506001016106ff565b5090565b6000819050919050565b61072e8161071b565b82525050565b60006020820190506107496000830184610725565b92915050565b6000604051905090565b600080fd5b600080fd5b600080fd5b600080fd5b6000601f19601f8301169050919050565b7f4e487b7100000000000000000000000000000000000000000000000000000000600052604160045260246000fd5b6107b68261076d565b810181811067ffffffffffffffff821117156107d5576107d461077e565b5b80604052505050565b60006107e861074f565b90506107f482826107ad565b919050565b600067ffffffffffffffff8211156108145761081361077e565b5b61081d8261076d565b9050602081019050919050565b82818337600083830152505050565b600061084c610847846107f9565b6107de565b90508281526020810184848401111561086857610867610768565b5b61087384828561082a565b509392505050565b600082601f8301126108905761088f610763565b5b81356108a0848260208601610839565b91505092915050565b6108b28161071b565b81146108bd57600080fd5b50565b6000813590506108cf816108a9565b92915050565b60008060008060008060c087890312156108f2576108f1610759565b5b600087013567ffffffffffffffff8111156109105761090f61075e565b5b61091c89828a0161087b565b965050602087013567ffffffffffffffff81111561093d5761093c61075e565b5b61094989828a0161087b565b955050604087013567ffffffffffffffff81111561096a5761096961075e565b5b61097689828a0161087b565b945050606087013567ffffffffffffffff8111156109975761099661075e565b5b6109a389828a0161087b565b935050608087013567ffffffffffffffff8111156109c4576109c361075e565b5b6109d089828a0161087b565b92505060a06109e189828a016108c0565b9150509295509295509295565b600060208284031215610a0457610a03610759565b5b6000610a12848285016108c0565b91505092915050565b600081519050919050565b600082825260208201905092915050565b60005b83811015610a55578082015181840152602081019050610a3a565b83811115610a64576000848401525b50505050565b6000610a7582610a1b565b610a7f8185610a26565b9350610a8f818560208601610a37565b610a988161076d565b840191505092915050565b600060c0820190508181036000830152610abd8189610a6a565b90508181036020830152610ad18188610a6a565b90508181036040830152610ae58187610a6a565b90508181036060830152610af98186610a6a565b90508181036080830152610b0d8185610a6a565b9050610b1c60a0830184610725565b979650505050505050565b7f696e666f726d6163616f20696e76616c69646100000000000000000000000000600082015250565b6000610b5d601383610a26565b9150610b6882610b27565b602082019050919050565b60006020820190508181036000830152610b8c81610b50565b9050919050565b600073ffffffffffffffffffffffffffffffffffffffff82169050919050565b6000610bbe82610b93565b9050919050565b610bce81610bb3565b82525050565b6000604082019050610be96000830185610bc5565b8181036020830152610bfb8184610a6a565b90509392505050565b7f4e487b7100000000000000000000000000000000000000000000000000000000600052603260045260246000fd5b7f4e487b7100000000000000000000000000000000000000000000000000000000600052602260045260246000fd5b60006002820490506001821680610c7a57607f821691505b60208210811415610c8e57610c8d610c33565b5b5091905056fea2646970667358221220d6817692a8a55aebfb7e1a705f9af11b6e4c43913cfdbea13575721fba30677f64736f6c63430008090033",
  "immutableReferences": {},
  "source": "// SPDX-License-Identifier: GPL-3.0\r\npragma solidity ^0.8.9;\r\n\r\ncontract FileManage {\r\n    struct File {\r\n        string Content;\r\n        string Hash;\r\n        string Name;\r\n        string Description;\r\n        string Type;\r\n        uint DateTime;\r\n    }\r\n    mapping(address => File[]) _files;\r\n\r\n    event fileAdded(address sender, string name);\r\n\r\n    constructor() { }\r\n\r\n    modifier onlyValidInformation\r\n    (\r\n        string memory fileContent,\r\n        string memory fileHash,\r\n        string memory fileName\r\n    )\r\n    {\r\n        bytes memory fileContentTemp = bytes(fileContent);\r\n        bytes memory fileHashTemp = bytes(fileHash);\r\n        bytes memory fileNameTemp = bytes(fileName);\r\n\r\n        bool informacaoValida = fileContentTemp.length == 0 || fileHashTemp.length == 0 || fileNameTemp.length == 0;\r\n        require(!informacaoValida, 'informacao invalida');\r\n        _;\r\n    }\r\n\r\n    function add\r\n    (\r\n        string memory fileContent,\r\n        string memory fileHash,\r\n        string memory fileName,\r\n        string memory fileDescription,\r\n        string memory fileType,\r\n        uint dateTime\r\n    )\r\n        public\r\n        onlyValidInformation(fileContent, fileHash, fileName)\r\n    {\r\n        _files[msg.sender].push(File({\r\n            Content: fileContent,\r\n            Hash: fileHash,\r\n            Name: fileName,\r\n            Description: fileDescription,\r\n            Type: fileType,\r\n            DateTime: dateTime\r\n        }));\r\n\r\n        emit fileAdded(msg.sender, fileName);\r\n    }\r\n\r\n    function read\r\n    (\r\n        uint index\r\n    )\r\n        public\r\n        view\r\n        returns\r\n        (\r\n            string memory fileContent,\r\n            string memory fileHash,\r\n            string memory fileName,\r\n            string memory fileDescription,\r\n            string memory fileType,\r\n            uint dateTime\r\n        )\r\n    {\r\n        File memory file = _files[msg.sender][index];\r\n        return (\r\n            file.Content,\r\n            file.Hash,\r\n            file.Name,\r\n            file.Description,\r\n            file.Type,\r\n            file.DateTime\r\n        );\r\n    }\r\n\r\n    function total()\r\n        public\r\n        view\r\n        returns (uint)\r\n    {\r\n        return _files[msg.sender].length;\r\n    }\r\n}",
  "sourcePath": "C:/Dev/Projetos/git/smart-contract/contracts/FileManage.sol",
  "compiler": {
    "name": "solc",
    "version": "0.8.9+commit.e5eed63a.Emscripten.clang"
  },
  "schemaVersion": "3.3.4",
  "updatedAt": "2021-10-22T13:20:49.381Z",
  "devdoc": {
    "kind": "dev",
    "methods": {},
    "version": 1
  },
  "userdoc": {
    "kind": "user",
    "methods": {},
    "version": 1
  }
}