{
  "contractName": "Loja",
  "abi": [
    {
      "inputs": [
        {
          "internalType": "address",
          "name": "comprador",
          "type": "address"
        }
      ],
      "stateMutability": "payable",
      "type": "constructor"
    },
    {
      "anonymous": false,
      "inputs": [
        {
          "indexed": false,
          "internalType": "address",
          "name": "cliente",
          "type": "address"
        },
        {
          "indexed": false,
          "internalType": "uint256",
          "name": "idFatura",
          "type": "uint256"
        },
        {
          "indexed": false,
          "internalType": "uint256",
          "name": "idPedido",
          "type": "uint256"
        },
        {
          "indexed": false,
          "internalType": "uint256",
          "name": "dataEntrega",
          "type": "uint256"
        }
      ],
      "name": "FaturaEnviada",
      "type": "event"
    },
    {
      "anonymous": false,
      "inputs": [
        {
          "indexed": true,
          "internalType": "address",
          "name": "previousOwner",
          "type": "address"
        },
        {
          "indexed": true,
          "internalType": "address",
          "name": "newOwner",
          "type": "address"
        }
      ],
      "name": "OwnershipTransferred",
      "type": "event"
    },
    {
      "anonymous": false,
      "inputs": [
        {
          "indexed": false,
          "internalType": "address",
          "name": "cliente",
          "type": "address"
        },
        {
          "indexed": false,
          "internalType": "uint256",
          "name": "idPedido",
          "type": "uint256"
        },
        {
          "indexed": false,
          "internalType": "uint256",
          "name": "valor",
          "type": "uint256"
        },
        {
          "indexed": false,
          "internalType": "uint256",
          "name": "now",
          "type": "uint256"
        }
      ],
      "name": "PagamentoSeguroEnviado",
      "type": "event"
    },
    {
      "anonymous": false,
      "inputs": [
        {
          "indexed": false,
          "internalType": "address",
          "name": "cliente",
          "type": "address"
        },
        {
          "indexed": false,
          "internalType": "uint256",
          "name": "idFatura",
          "type": "uint256"
        },
        {
          "indexed": false,
          "internalType": "uint256",
          "name": "numeroPedido",
          "type": "uint256"
        },
        {
          "indexed": false,
          "internalType": "uint256",
          "name": "dataEntregueVerdadeira",
          "type": "uint256"
        }
      ],
      "name": "PedidoEntregue",
      "type": "event"
    },
    {
      "anonymous": false,
      "inputs": [
        {
          "indexed": false,
          "internalType": "address",
          "name": "cliente",
          "type": "address"
        },
        {
          "indexed": false,
          "internalType": "string",
          "name": "itemMenu",
          "type": "string"
        },
        {
          "indexed": false,
          "internalType": "uint256",
          "name": "quantidade",
          "type": "uint256"
        },
        {
          "indexed": false,
          "internalType": "uint256",
          "name": "numeroPedido",
          "type": "uint256"
        }
      ],
      "name": "PedidoEnviado",
      "type": "event"
    },
    {
      "anonymous": false,
      "inputs": [
        {
          "indexed": false,
          "internalType": "address",
          "name": "Cliente",
          "type": "address"
        },
        {
          "indexed": false,
          "internalType": "uint256",
          "name": "idPedido",
          "type": "uint256"
        },
        {
          "indexed": false,
          "internalType": "uint256",
          "name": "preco",
          "type": "uint256"
        }
      ],
      "name": "PrecoEnviado",
      "type": "event"
    },
    {
      "inputs": [],
      "name": "_cliente",
      "outputs": [
        {
          "internalType": "address",
          "name": "",
          "type": "address"
        }
      ],
      "stateMutability": "view",
      "type": "function"
    },
    {
      "inputs": [],
      "name": "_dono",
      "outputs": [
        {
          "internalType": "address",
          "name": "",
          "type": "address"
        }
      ],
      "stateMutability": "view",
      "type": "function"
    },
    {
      "inputs": [],
      "name": "owner",
      "outputs": [
        {
          "internalType": "address",
          "name": "",
          "type": "address"
        }
      ],
      "stateMutability": "view",
      "type": "function"
    },
    {
      "inputs": [],
      "name": "renounceOwnership",
      "outputs": [],
      "stateMutability": "nonpayable",
      "type": "function"
    },
    {
      "inputs": [
        {
          "internalType": "address",
          "name": "newOwner",
          "type": "address"
        }
      ],
      "name": "transferOwnership",
      "outputs": [],
      "stateMutability": "nonpayable",
      "type": "function"
    },
    {
      "inputs": [
        {
          "internalType": "string",
          "name": "itemMenu",
          "type": "string"
        },
        {
          "internalType": "uint256",
          "name": "quantidade",
          "type": "uint256"
        }
      ],
      "name": "enviarPedido",
      "outputs": [],
      "stateMutability": "payable",
      "type": "function"
    },
    {
      "inputs": [
        {
          "internalType": "uint256",
          "name": "idPedido",
          "type": "uint256"
        }
      ],
      "name": "verificarPedido",
      "outputs": [
        {
          "internalType": "address",
          "name": "cliente",
          "type": "address"
        },
        {
          "internalType": "string",
          "name": "itemMenu",
          "type": "string"
        },
        {
          "internalType": "uint256",
          "name": "quantidade",
          "type": "uint256"
        },
        {
          "internalType": "uint256",
          "name": "preco",
          "type": "uint256"
        },
        {
          "internalType": "uint256",
          "name": "pagmentoSeguro",
          "type": "uint256"
        }
      ],
      "stateMutability": "view",
      "type": "function"
    },
    {
      "inputs": [
        {
          "internalType": "uint256",
          "name": "idPedido",
          "type": "uint256"
        },
        {
          "internalType": "uint256",
          "name": "preco",
          "type": "uint256"
        }
      ],
      "name": "enviarPreco",
      "outputs": [],
      "stateMutability": "payable",
      "type": "function"
    },
    {
      "inputs": [
        {
          "internalType": "uint256",
          "name": "idPedido",
          "type": "uint256"
        }
      ],
      "name": "enviarPagamentoSeguro",
      "outputs": [],
      "stateMutability": "payable",
      "type": "function"
    },
    {
      "inputs": [
        {
          "internalType": "uint256",
          "name": "idPedido",
          "type": "uint256"
        },
        {
          "internalType": "uint256",
          "name": "dataPedido",
          "type": "uint256"
        }
      ],
      "name": "enviarFatura",
      "outputs": [],
      "stateMutability": "payable",
      "type": "function"
    },
    {
      "inputs": [
        {
          "internalType": "uint256",
          "name": "idFatura",
          "type": "uint256"
        }
      ],
      "name": "obterFatura",
      "outputs": [
        {
          "internalType": "address",
          "name": "cliente",
          "type": "address"
        },
        {
          "internalType": "uint256",
          "name": "idPedido",
          "type": "uint256"
        },
        {
          "internalType": "uint256",
          "name": "dataFatura",
          "type": "uint256"
        }
      ],
      "stateMutability": "view",
      "type": "function"
    },
    {
      "inputs": [
        {
          "internalType": "uint256",
          "name": "idFatura",
          "type": "uint256"
        },
        {
          "internalType": "uint256",
          "name": "dataEntrega",
          "type": "uint256"
        }
      ],
      "name": "MarcarPedidoEntregue",
      "outputs": [],
      "stateMutability": "payable",
      "type": "function"
    }
  ],
  "bytecode": "0x608060405260405162001b1f38038062001b1f833981810160405281019062000029919062000208565b620000496200003d620000d260201b60201c565b620000da60201b60201c565b33600160006101000a81548173ffffffffffffffffffffffffffffffffffffffff021916908373ffffffffffffffffffffffffffffffffffffffff16021790555080600260006101000a81548173ffffffffffffffffffffffffffffffffffffffff021916908373ffffffffffffffffffffffffffffffffffffffff160217905550506200023a565b600033905090565b60008060009054906101000a900473ffffffffffffffffffffffffffffffffffffffff169050816000806101000a81548173ffffffffffffffffffffffffffffffffffffffff021916908373ffffffffffffffffffffffffffffffffffffffff1602179055508173ffffffffffffffffffffffffffffffffffffffff168173ffffffffffffffffffffffffffffffffffffffff167f8be0079c531659141344cd1fd0a4f28419497f9722a3daafe3b4186f6b6457e060405160405180910390a35050565b600080fd5b600073ffffffffffffffffffffffffffffffffffffffff82169050919050565b6000620001d082620001a3565b9050919050565b620001e281620001c3565b8114620001ee57600080fd5b50565b6000815190506200020281620001d7565b92915050565b6000602082840312156200022157620002206200019e565b5b60006200023184828501620001f1565b91505092915050565b6118d5806200024a6000396000f3fe6080604052600436106100a75760003560e01c806381273ada1161006457806381273ada14610192578063868cf194146101ae57806389586d31146101ed5780638da5cb5b14610209578063dd93006914610234578063f2fde38b14610250576100a7565b80630d1adfc6146100ac578063327f428c146100d75780634e81efd4146101185780635b4eb8c814610134578063657f57241461015f578063715018a61461017b575b600080fd5b3480156100b857600080fd5b506100c1610279565b6040516100ce91906110d8565b60405180910390f35b3480156100e357600080fd5b506100fe60048036038101906100f9919061113d565b61029f565b60405161010f959493929190611212565b60405180910390f35b610132600480360381019061012d919061126c565b61042a565b005b34801561014057600080fd5b5061014961060f565b60405161015691906110d8565b60405180910390f35b6101796004803603810190610174919061126c565b610635565b005b34801561018757600080fd5b5061019061083b565b005b6101ac60048036038101906101a791906113e1565b6108c3565b005b3480156101ba57600080fd5b506101d560048036038101906101d0919061113d565b610a82565b6040516101e49392919061143d565b60405180910390f35b6102076004803603810190610202919061126c565b610b5a565b005b34801561021557600080fd5b5061021e610cb7565b60405161022b91906110d8565b60405180910390f35b61024e6004803603810190610249919061113d565b610ce0565b005b34801561025c57600080fd5b50610277600480360381019061027291906114a0565b610e30565b005b600160009054906101000a900473ffffffffffffffffffffffffffffffffffffffff1681565b600060606000806000856003600082815260200190815260200160002060070160009054906101000a900460ff1661030c576040517f08c379a000000000000000000000000000000000000000000000000000000000815260040161030390611519565b60405180910390fd5b600260009054906101000a900473ffffffffffffffffffffffffffffffffffffffff1660036000898152602001908152602001600020600101600360008a815260200190815260200160002060020154600360008b815260200190815260200160002060030154600360008c81526020019081526020016000206004015483805461039690611568565b80601f01602080910402602001604051908101604052809291908181526020018280546103c290611568565b801561040f5780601f106103e45761010080835404028352916020019161040f565b820191906000526020600020905b8154815290600101906020018083116103f257829003601f168201915b50505050509350955095509550955095505091939590929450565b610432610f28565b73ffffffffffffffffffffffffffffffffffffffff16610450610cb7565b73ffffffffffffffffffffffffffffffffffffffff16146104a6576040517f08c379a000000000000000000000000000000000000000000000000000000000815260040161049d906115e6565b60405180910390fd5b816003600082815260200190815260200160002060070160009054906101000a900460ff1661050a576040517f08c379a000000000000000000000000000000000000000000000000000000000815260040161050190611519565b60405180910390fd5b6006600081548092919061051d90611635565b91905055506040518060600160405280600654815260200184815260200160011515815250600460006006548152602001908152602001600020600082015181600001556020820151816001015560408201518160020160006101000a81548160ff0219169083151502179055509050508160036000858152602001908152602001600020600501819055507f335e12469f563c54fc602082f94165d63c6b568fcb15c550d874d5d4870e2c09600260009054906101000a900473ffffffffffffffffffffffffffffffffffffffff166006548585604051610602949392919061167e565b60405180910390a1505050565b600260009054906101000a900473ffffffffffffffffffffffffffffffffffffffff1681565b600260009054906101000a900473ffffffffffffffffffffffffffffffffffffffff1673ffffffffffffffffffffffffffffffffffffffff163373ffffffffffffffffffffffffffffffffffffffff16146106c5576040517f08c379a00000000000000000000000000000000000000000000000000000000081526004016106bc90611735565b60405180910390fd5b816004600082815260200190815260200160002060020160009054906101000a900460ff16610729576040517f08c379a0000000000000000000000000000000000000000000000000000000008152600401610720906117a1565b60405180910390fd5b6000600460008581526020019081526020016000209050600060036000836001015481526020019081526020016000209050838160060181905550600160009054906101000a900473ffffffffffffffffffffffffffffffffffffffff1673ffffffffffffffffffffffffffffffffffffffff166108fc82600401549081150290604051600060405180830381858888f193505050501580156107d0573d6000803e3d6000fd5b507f450048e84af159f98ca2d3e50de26f2f4ef97c137a88a21ce8cbb9256de0f10b600260009054906101000a900473ffffffffffffffffffffffffffffffffffffffff168683600001548760405161082c949392919061167e565b60405180910390a15050505050565b610843610f28565b73ffffffffffffffffffffffffffffffffffffffff16610861610cb7565b73ffffffffffffffffffffffffffffffffffffffff16146108b7576040517f08c379a00000000000000000000000000000000000000000000000000000000081526004016108ae906115e6565b60405180910390fd5b6108c16000610f30565b565b600260009054906101000a900473ffffffffffffffffffffffffffffffffffffffff1673ffffffffffffffffffffffffffffffffffffffff163373ffffffffffffffffffffffffffffffffffffffff1614610953576040517f08c379a000000000000000000000000000000000000000000000000000000000815260040161094a90611735565b60405180910390fd5b6005600081548092919061096690611635565b9190505550604051806101000160405280600554815260200183815260200182815260200160008152602001600081526020016000815260200160008152602001600115158152506003600060055481526020019081526020016000206000820151816000015560208201518160010190805190602001906109e9929190610ff4565b5060408201518160020155606082015181600301556080820151816004015560a0820151816005015560c0820151816006015560e08201518160070160006101000a81548160ff0219169083151502179055509050507f344fc0fc332280d3d3fd524767f0cce4e750985589f5a405826695f4babd73c0338383600554604051610a7694939291906117c1565b60405180910390a15050565b6000806000836004600082815260200190815260200160002060020160009054906101000a900460ff16610aeb576040517f08c379a0000000000000000000000000000000000000000000000000000000008152600401610ae2906117a1565b60405180910390fd5b6000600460008781526020019081526020016000209050600060036000836001015481526020019081526020016000209050600260009054906101000a900473ffffffffffffffffffffffffffffffffffffffff16816000015482600501549550955095505050509193909250565b610b62610f28565b73ffffffffffffffffffffffffffffffffffffffff16610b80610cb7565b73ffffffffffffffffffffffffffffffffffffffff1614610bd6576040517f08c379a0000000000000000000000000000000000000000000000000000000008152600401610bcd906115e6565b60405180910390fd5b816003600082815260200190815260200160002060070160009054906101000a900460ff16610c3a576040517f08c379a0000000000000000000000000000000000000000000000000000000008152600401610c3190611519565b60405180910390fd5b8160036000858152602001908152602001600020600301819055507ffe1785d0e5a9dd33f5cae88dad34e559a9605433859f5672bec9d7874d923bbb600260009054906101000a900473ffffffffffffffffffffffffffffffffffffffff168484604051610caa9392919061143d565b60405180910390a1505050565b60008060009054906101000a900473ffffffffffffffffffffffffffffffffffffffff16905090565b600260009054906101000a900473ffffffffffffffffffffffffffffffffffffffff1673ffffffffffffffffffffffffffffffffffffffff163373ffffffffffffffffffffffffffffffffffffffff1614610d70576040517f08c379a0000000000000000000000000000000000000000000000000000000008152600401610d6790611735565b60405180910390fd5b806003600082815260200190815260200160002060070160009054906101000a900460ff16610dd4576040517f08c379a0000000000000000000000000000000000000000000000000000000008152600401610dcb90611519565b60405180910390fd5b3460036000848152602001908152602001600020600401819055507ffb84bf691dce46d6bb9654e6ddb09b168a050e1305cf6fb995de76bd5e4e8d3933833442604051610e24949392919061167e565b60405180910390a15050565b610e38610f28565b73ffffffffffffffffffffffffffffffffffffffff16610e56610cb7565b73ffffffffffffffffffffffffffffffffffffffff1614610eac576040517f08c379a0000000000000000000000000000000000000000000000000000000008152600401610ea3906115e6565b60405180910390fd5b600073ffffffffffffffffffffffffffffffffffffffff168173ffffffffffffffffffffffffffffffffffffffff161415610f1c576040517f08c379a0000000000000000000000000000000000000000000000000000000008152600401610f139061187f565b60405180910390fd5b610f2581610f30565b50565b600033905090565b60008060009054906101000a900473ffffffffffffffffffffffffffffffffffffffff169050816000806101000a81548173ffffffffffffffffffffffffffffffffffffffff021916908373ffffffffffffffffffffffffffffffffffffffff1602179055508173ffffffffffffffffffffffffffffffffffffffff168173ffffffffffffffffffffffffffffffffffffffff167f8be0079c531659141344cd1fd0a4f28419497f9722a3daafe3b4186f6b6457e060405160405180910390a35050565b82805461100090611568565b90600052602060002090601f0160209004810192826110225760008555611069565b82601f1061103b57805160ff1916838001178555611069565b82800160010185558215611069579182015b8281111561106857825182559160200191906001019061104d565b5b509050611076919061107a565b5090565b5b8082111561109357600081600090555060010161107b565b5090565b600073ffffffffffffffffffffffffffffffffffffffff82169050919050565b60006110c282611097565b9050919050565b6110d2816110b7565b82525050565b60006020820190506110ed60008301846110c9565b92915050565b6000604051905090565b600080fd5b600080fd5b6000819050919050565b61111a81611107565b811461112557600080fd5b50565b60008135905061113781611111565b92915050565b600060208284031215611153576111526110fd565b5b600061116184828501611128565b91505092915050565b600081519050919050565b600082825260208201905092915050565b60005b838110156111a4578082015181840152602081019050611189565b838111156111b3576000848401525b50505050565b6000601f19601f8301169050919050565b60006111d58261116a565b6111df8185611175565b93506111ef818560208601611186565b6111f8816111b9565b840191505092915050565b61120c81611107565b82525050565b600060a08201905061122760008301886110c9565b818103602083015261123981876111ca565b90506112486040830186611203565b6112556060830185611203565b6112626080830184611203565b9695505050505050565b60008060408385031215611283576112826110fd565b5b600061129185828601611128565b92505060206112a285828601611128565b9150509250929050565b600080fd5b600080fd5b7f4e487b7100000000000000000000000000000000000000000000000000000000600052604160045260246000fd5b6112ee826111b9565b810181811067ffffffffffffffff8211171561130d5761130c6112b6565b5b80604052505050565b60006113206110f3565b905061132c82826112e5565b919050565b600067ffffffffffffffff82111561134c5761134b6112b6565b5b611355826111b9565b9050602081019050919050565b82818337600083830152505050565b600061138461137f84611331565b611316565b9050828152602081018484840111156113a05761139f6112b1565b5b6113ab848285611362565b509392505050565b600082601f8301126113c8576113c76112ac565b5b81356113d8848260208601611371565b91505092915050565b600080604083850312156113f8576113f76110fd565b5b600083013567ffffffffffffffff81111561141657611415611102565b5b611422858286016113b3565b925050602061143385828601611128565b9150509250929050565b600060608201905061145260008301866110c9565b61145f6020830185611203565b61146c6040830184611203565b949350505050565b61147d816110b7565b811461148857600080fd5b50565b60008135905061149a81611474565b92915050565b6000602082840312156114b6576114b56110fd565b5b60006114c48482850161148b565b91505092915050565b7f70656469646f206e616f20657869737465000000000000000000000000000000600082015250565b6000611503601183611175565b915061150e826114cd565b602082019050919050565b60006020820190508181036000830152611532816114f6565b9050919050565b7f4e487b7100000000000000000000000000000000000000000000000000000000600052602260045260246000fd5b6000600282049050600182168061158057607f821691505b6020821081141561159457611593611539565b5b50919050565b7f4f776e61626c653a2063616c6c6572206973206e6f7420746865206f776e6572600082015250565b60006115d0602083611175565b91506115db8261159a565b602082019050919050565b600060208201905081810360008301526115ff816115c3565b9050919050565b7f4e487b7100000000000000000000000000000000000000000000000000000000600052601160045260246000fd5b600061164082611107565b91507fffffffffffffffffffffffffffffffffffffffffffffffffffffffffffffffff82141561167357611672611606565b5b600182019050919050565b600060808201905061169360008301876110c9565b6116a06020830186611203565b6116ad6040830185611203565b6116ba6060830184611203565b95945050505050565b7f736f6d656e7465206f20636c69656e746520706f64652065786563757461722060008201527f657373612066756e63616f000000000000000000000000000000000000000000602082015250565b600061171f602b83611175565b915061172a826116c3565b604082019050919050565b6000602082019050818103600083015261174e81611712565b9050919050565b7f666174757261206e616f20657869737465000000000000000000000000000000600082015250565b600061178b601183611175565b915061179682611755565b602082019050919050565b600060208201905081810360008301526117ba8161177e565b9050919050565b60006080820190506117d660008301876110c9565b81810360208301526117e881866111ca565b90506117f76040830185611203565b6118046060830184611203565b95945050505050565b7f4f776e61626c653a206e6577206f776e657220697320746865207a65726f206160008201527f6464726573730000000000000000000000000000000000000000000000000000602082015250565b6000611869602683611175565b91506118748261180d565b604082019050919050565b600060208201905081810360008301526118988161185c565b905091905056fea2646970667358221220bc0c846d571644d7dfcf784812ff53b5b62dacf9cc3185f3afbedfade8d81a9364736f6c63430008090033",
  "immutableReferences": {},
  "source": "// SPDX-License-Identifier: MIT\r\npragma solidity ^0.8.0;\r\n\r\nimport \"@openzeppelin/contracts/access/Ownable.sol\";\r\n\r\ncontract Loja is Ownable {\r\n    address public _dono;\r\n    address public _cliente;\r\n\r\n\tstruct ItemMenu {\r\n\t\tuint Id;\r\n\t}\r\n\r\n    struct Pedido {\r\n\t\tuint Id;\r\n\t\tstring ItemMenu;\r\n\t\tuint Quantidade;\t\t\r\n\t\tuint Preco;\r\n\t\tuint PagamentoSeguro;\r\n\t\tuint DataPedido;\r\n\t\tuint DataEntrega;\r\n\t\tbool Criado;\r\n\t}\r\n\r\n    struct Fatura {\r\n\t\tuint Id;\r\n\t\tuint IdPedido;\r\n\t\tbool Criada;\r\n\t}\r\n\r\n\tmapping (uint => Pedido) _pedidos;\r\n\tmapping (uint => Fatura) _faturas;\r\n\t\t\r\n\tuint _sequencialPedido;\r\n\tuint _sequencialFatura;\r\n    \r\n\tevent PedidoEnviado(address cliente, string itemMenu, uint quantidade, uint numeroPedido);\r\n\tevent PrecoEnviado(address Cliente, uint idPedido, uint preco);     \r\n\tevent PagamentoSeguroEnviado(address cliente, uint idPedido, uint valor, uint now);\r\n\tevent FaturaEnviada(address cliente, uint idFatura, uint idPedido, uint dataEntrega);\r\n\tevent PedidoEntregue(address cliente, uint idFatura, uint numeroPedido, uint dataEntregueVerdadeira);\r\n\r\n    constructor(address comprador) payable {\r\n\t\t_dono = msg.sender;\r\n\t\t_cliente = comprador;\r\n\t}\r\n\r\n\tmodifier SomenteCliente() {\r\n\t\trequire(\r\n\t\t\tmsg.sender == _cliente,\r\n\t\t\t\"somente o cliente pode executar essa funcao\"\r\n\t\t\t);\r\n\t\t_;\r\n\t}\r\n\r\n\tmodifier PedidoExiste(uint id) {\r\n\t\trequire(\r\n\t\t\t_pedidos[id].Criado,\r\n\t\t\t\"pedido nao existe\"\r\n\t\t\t);\r\n\t\t_;\r\n\t}\r\n\r\n\tmodifier FaturaExiste(uint id) {\r\n\t\trequire(\r\n\t\t\t_faturas[id].Criada,\r\n\t\t\t\"fatura nao existe\"\r\n\t\t\t);\r\n\t\t_;\r\n\t}\t\r\n\r\n    function enviarPedido\r\n\t(\r\n\t\tstring memory itemMenu,\r\n\t\tuint quantidade\r\n\t)\r\n\t\tpayable\r\n\t\tpublic\r\n\t\tSomenteCliente\r\n\t{\r\n\t\t_sequencialPedido++;\r\n\t\t_pedidos[_sequencialPedido] = Pedido(_sequencialPedido, itemMenu, quantidade, 0, 0, 0, 0, true);\r\n\t\temit PedidoEnviado(msg.sender, itemMenu, quantidade, _sequencialPedido);\r\n\t}\r\n\r\n    function verificarPedido\r\n\t(\r\n\t\tuint idPedido\r\n\t)\r\n\t\tview\r\n\t\tpublic\r\n\t\tPedidoExiste(idPedido)\r\n\t\treturns (address cliente, string memory itemMenu, uint quantidade, uint preco, uint pagmentoSeguro) {\t\t\r\n\t\treturn(\r\n\t\t\t_cliente,\r\n\t\t\t_pedidos[idPedido].ItemMenu,\r\n\t\t\t_pedidos[idPedido].Quantidade,\r\n\t\t\t_pedidos[idPedido].Preco,\r\n\t\t\t_pedidos[idPedido].PagamentoSeguro\r\n\t\t\t);\r\n\t}\r\n\r\n\tfunction enviarPreco\r\n\t(\r\n\t\tuint idPedido,\r\n\t\tuint preco\r\n\t)\r\n\t\tpublic\r\n\t\tonlyOwner\r\n\t\tPedidoExiste(idPedido)\r\n\t\tpayable\r\n\t{\r\n\t\t_pedidos[idPedido].Preco = preco;\r\n\t\temit PrecoEnviado(_cliente, idPedido, preco);\r\n\t}\r\n\r\n    function enviarPagamentoSeguro\r\n\t(\r\n\t\tuint idPedido\r\n\t)\r\n\t\tpublic\r\n\t\tSomenteCliente\r\n\t\tPedidoExiste(idPedido)\r\n\t\tpayable\r\n\t{\r\n\t\t_pedidos[idPedido].PagamentoSeguro = msg.value;\r\n\t\temit PagamentoSeguroEnviado(msg.sender, idPedido, msg.value, block.timestamp);\r\n\t}\r\n\r\n    function enviarFatura\r\n\t(\r\n\t\tuint idPedido,\r\n\t\tuint dataPedido\r\n\t)\r\n\t\tpublic\r\n\t\tonlyOwner\r\n\t\tPedidoExiste(idPedido)\r\n\t\tpayable\r\n\t{\r\n\t\t_sequencialFatura++;\r\n\t\t_faturas[_sequencialFatura] = Fatura(_sequencialFatura, idPedido, true);\r\n\t\t_pedidos[idPedido].DataPedido = dataPedido;\r\n\t\temit FaturaEnviada(_cliente, _sequencialFatura, idPedido, dataPedido);\r\n\t}\r\n\r\n    function obterFatura\r\n\t(\r\n\t\tuint idFatura\r\n\t)\r\n\t\tpublic\r\n\t\tview\r\n\t\tFaturaExiste(idFatura)\r\n\t\treturns (address cliente, uint idPedido, uint dataFatura)\r\n\t{\r\n\t\tFatura storage fatura = _faturas[idFatura];\r\n\t\tPedido storage pedido = _pedidos[fatura.IdPedido];\r\n\t\treturn (_cliente, pedido.Id, pedido.DataPedido);\r\n\t}\r\n\r\n    function MarcarPedidoEntregue\r\n\t(\r\n\t\tuint idFatura,\r\n\t\tuint dataEntrega\r\n\t)\r\n\t\tpublic\r\n\t\tSomenteCliente\r\n\t\tFaturaExiste(idFatura)\r\n\t\tpayable\r\n\t{\r\n\t\tFatura storage fatura = _faturas[idFatura];\r\n\t\tPedido storage pedido = _pedidos[fatura.IdPedido];\r\n\t\tpedido.DataEntrega = dataEntrega;\r\n\t\tpayable(_dono).transfer(pedido.PagamentoSeguro);\r\n\t\temit PedidoEntregue(_cliente, idFatura, pedido.Id, dataEntrega); \r\n\t}    \r\n}",
  "sourcePath": "C:/Dev/Projetos/git/smart-contract/contracts/Loja.sol",
  "compiler": {
    "name": "solc",
    "version": "0.8.9+commit.e5eed63a.Emscripten.clang"
  },
  "schemaVersion": "3.3.4",
  "updatedAt": "2021-10-19T14:04:04.241Z",
  "devdoc": {
    "kind": "dev",
    "methods": {
      "owner()": {
        "details": "Returns the address of the current owner."
      },
      "renounceOwnership()": {
        "details": "Leaves the contract without owner. It will not be possible to call `onlyOwner` functions anymore. Can only be called by the current owner. NOTE: Renouncing ownership will leave the contract without an owner, thereby removing any functionality that is only available to the owner."
      },
      "transferOwnership(address)": {
        "details": "Transfers ownership of the contract to a new account (`newOwner`). Can only be called by the current owner."
      }
    },
    "version": 1
  },
  "userdoc": {
    "kind": "user",
    "methods": {},
    "version": 1
  }
}