{
  "contractName": "Madeira",
  "abi": [
    {
      "inputs": [],
      "stateMutability": "nonpayable",
      "type": "constructor"
    },
    {
      "anonymous": false,
      "inputs": [
        {
          "indexed": false,
          "internalType": "string",
          "name": "descricao",
          "type": "string"
        },
        {
          "indexed": false,
          "internalType": "string",
          "name": "nomeFazenda",
          "type": "string"
        },
        {
          "indexed": false,
          "internalType": "uint256",
          "name": "quantidade",
          "type": "uint256"
        }
      ],
      "name": "LoteAdicionado",
      "type": "event"
    },
    {
      "anonymous": false,
      "inputs": [
        {
          "indexed": false,
          "internalType": "uint256",
          "name": "idLote",
          "type": "uint256"
        },
        {
          "indexed": false,
          "internalType": "string",
          "name": "destino",
          "type": "string"
        },
        {
          "indexed": false,
          "internalType": "string",
          "name": "descricao",
          "type": "string"
        },
        {
          "indexed": false,
          "internalType": "uint256",
          "name": "dataHora",
          "type": "uint256"
        },
        {
          "indexed": false,
          "internalType": "enum Madeira.SituacaoRemessa",
          "name": "situacao",
          "type": "uint8"
        }
      ],
      "name": "RemessaRegistrada",
      "type": "event"
    },
    {
      "inputs": [
        {
          "internalType": "uint256",
          "name": "",
          "type": "uint256"
        }
      ],
      "name": "_lotes",
      "outputs": [
        {
          "internalType": "string",
          "name": "Descricao",
          "type": "string"
        },
        {
          "internalType": "string",
          "name": "NomeFazenda",
          "type": "string"
        },
        {
          "internalType": "uint256",
          "name": "Quantidade",
          "type": "uint256"
        },
        {
          "internalType": "uint256",
          "name": "DataHora",
          "type": "uint256"
        },
        {
          "internalType": "uint256",
          "name": "TotalRemessa",
          "type": "uint256"
        },
        {
          "internalType": "enum Madeira.SituacaoLote",
          "name": "Situacao",
          "type": "uint8"
        }
      ],
      "stateMutability": "view",
      "type": "function"
    },
    {
      "inputs": [
        {
          "internalType": "string",
          "name": "descricao",
          "type": "string"
        },
        {
          "internalType": "string",
          "name": "nomeFazenda",
          "type": "string"
        },
        {
          "internalType": "uint256",
          "name": "quantidade",
          "type": "uint256"
        }
      ],
      "name": "adicionarLote",
      "outputs": [
        {
          "internalType": "uint256",
          "name": "",
          "type": "uint256"
        }
      ],
      "stateMutability": "nonpayable",
      "type": "function"
    },
    {
      "inputs": [
        {
          "internalType": "uint256",
          "name": "id",
          "type": "uint256"
        }
      ],
      "name": "obterLote",
      "outputs": [
        {
          "internalType": "string",
          "name": "descricao",
          "type": "string"
        },
        {
          "internalType": "string",
          "name": "nomeFazenda",
          "type": "string"
        },
        {
          "internalType": "uint256",
          "name": "quantidade",
          "type": "uint256"
        },
        {
          "internalType": "enum Madeira.SituacaoLote",
          "name": "situacao",
          "type": "uint8"
        }
      ],
      "stateMutability": "view",
      "type": "function"
    },
    {
      "inputs": [],
      "name": "contabilizarLotes",
      "outputs": [
        {
          "internalType": "uint256",
          "name": "",
          "type": "uint256"
        }
      ],
      "stateMutability": "view",
      "type": "function"
    },
    {
      "inputs": [
        {
          "internalType": "uint256",
          "name": "idLote",
          "type": "uint256"
        },
        {
          "internalType": "string",
          "name": "destino",
          "type": "string"
        },
        {
          "internalType": "string",
          "name": "descricao",
          "type": "string"
        },
        {
          "internalType": "enum Madeira.SituacaoRemessa",
          "name": "situacao",
          "type": "uint8"
        }
      ],
      "name": "registrarRemessa",
      "outputs": [
        {
          "internalType": "bool",
          "name": "",
          "type": "bool"
        }
      ],
      "stateMutability": "nonpayable",
      "type": "function"
    },
    {
      "inputs": [],
      "name": "informacaoRemessa",
      "outputs": [],
      "stateMutability": "nonpayable",
      "type": "function"
    }
  ],
  "bytecode": "0x608060405234801561001057600080fd5b506110d5806100206000396000f3fe608060405234801561001057600080fd5b50600436106100625760003560e01c8063440f90651461006757806368ef02881461009c5780637edad0e6146100ba578063876f9a9a146100ea5780639639565f1461011d578063fa6a812d1461014d575b600080fd5b610081600480360381019061007c91906108ba565b610157565b60405161009396959493929190610a06565b60405180910390f35b6100a46102c0565b6040516100b19190610a75565b60405180910390f35b6100d460048036038101906100cf9190610bea565b6102cc565b6040516100e19190610ca4565b60405180910390f35b61010460048036038101906100ff91906108ba565b610538565b6040516101149493929190610cbf565b60405180910390f35b61013760048036038101906101329190610d12565b610700565b6040516101449190610a75565b60405180910390f35b6101556107cb565b005b6000818154811061016757600080fd5b906000526020600020906007020160009150905080600001805461018a90610dcc565b80601f01602080910402602001604051908101604052809291908181526020018280546101b690610dcc565b80156102035780601f106101d857610100808354040283529160200191610203565b820191906000526020600020905b8154815290600101906020018083116101e657829003601f168201915b50505050509080600101805461021890610dcc565b80601f016020809104026020016040519081016040528092919081815260200182805461024490610dcc565b80156102915780601f1061026657610100808354040283529160200191610291565b820191906000526020600020905b81548152906001019060200180831161027457829003601f168201915b5050505050908060020154908060030154908060040154908060050160009054906101000a900460ff16905086565b60008080549050905090565b600084600081101580156102e4575060008054905081105b610323576040517f08c379a000000000000000000000000000000000000000000000000000000000815260040161031a90610e4a565b60405180910390fd5b600080878154811061033857610337610e6a565b5b9060005260206000209060070201905060004290506000604051806080016040528089815260200188815260200183815260200187600281111561037f5761037e61098f565b5b8152509050600060028111156103985761039761098f565b5b8660028111156103ab576103aa61098f565b5b14156103e35760018360050160006101000a81548160ff021916908360028111156103d9576103d861098f565b5b021790555061043e565b6002808111156103f6576103f561098f565b5b8660028111156104095761040861098f565b5b141561043d5760028360050160006101000a81548160ff021916908360028111156104375761043661098f565b5b02179055505b5b808360060160008560040154815260200190815260200160002060008201518160000190805190602001906104749291906107cd565b5060208201518160010190805190602001906104919291906107cd565b506040820151816002015560608201518160030160006101000a81548160ff021916908360028111156104c7576104c661098f565b5b02179055509050508260040160008154809291906104e490610ec8565b91905055507fe79b9558d86a5b3dea3b04616d26f09f295e093f2bb46b18752dae32b8c127a3898989858a604051610520959493929190610f59565b60405180910390a16001945050505050949350505050565b6060806000808460008110158015610554575060008054905081105b610593576040517f08c379a000000000000000000000000000000000000000000000000000000000815260040161058a90610e4a565b60405180910390fd5b60008087815481106105a8576105a7610e6a565b5b90600052602060002090600702019050806000018160010182600201548360050160009054906101000a900460ff168380546105e390610dcc565b80601f016020809104026020016040519081016040528092919081815260200182805461060f90610dcc565b801561065c5780601f106106315761010080835404028352916020019161065c565b820191906000526020600020905b81548152906001019060200180831161063f57829003601f168201915b5050505050935082805461066f90610dcc565b80601f016020809104026020016040519081016040528092919081815260200182805461069b90610dcc565b80156106e85780601f106106bd576101008083540402835291602001916106e8565b820191906000526020600020905b8154815290600101906020018083116106cb57829003601f168201915b50505050509250955095509550955050509193509193565b60008383836000839050600083905060008083511480610721575060008251145b8061072c5750600084145b9050801561076f576040517f08c379a000000000000000000000000000000000000000000000000000000000815260040161076690611006565b60405180910390fd5b7f70458b99eff4482e44dafd4e68eaf5ef75c1f297743af308e66eb55a0232b24f8a8a8a6040516107a293929190611026565b60405180910390a160016000805490506107bc919061106b565b96505050505050509392505050565b565b8280546107d990610dcc565b90600052602060002090601f0160209004810192826107fb5760008555610842565b82601f1061081457805160ff1916838001178555610842565b82800160010185558215610842579182015b82811115610841578251825591602001919060010190610826565b5b50905061084f9190610853565b5090565b5b8082111561086c576000816000905550600101610854565b5090565b6000604051905090565b600080fd5b600080fd5b6000819050919050565b61089781610884565b81146108a257600080fd5b50565b6000813590506108b48161088e565b92915050565b6000602082840312156108d0576108cf61087a565b5b60006108de848285016108a5565b91505092915050565b600081519050919050565b600082825260208201905092915050565b60005b83811015610921578082015181840152602081019050610906565b83811115610930576000848401525b50505050565b6000601f19601f8301169050919050565b6000610952826108e7565b61095c81856108f2565b935061096c818560208601610903565b61097581610936565b840191505092915050565b61098981610884565b82525050565b7f4e487b7100000000000000000000000000000000000000000000000000000000600052602160045260246000fd5b600381106109cf576109ce61098f565b5b50565b60008190506109e0826109be565b919050565b60006109f0826109d2565b9050919050565b610a00816109e5565b82525050565b600060c0820190508181036000830152610a208189610947565b90508181036020830152610a348188610947565b9050610a436040830187610980565b610a506060830186610980565b610a5d6080830185610980565b610a6a60a08301846109f7565b979650505050505050565b6000602082019050610a8a6000830184610980565b92915050565b600080fd5b600080fd5b7f4e487b7100000000000000000000000000000000000000000000000000000000600052604160045260246000fd5b610ad282610936565b810181811067ffffffffffffffff82111715610af157610af0610a9a565b5b80604052505050565b6000610b04610870565b9050610b108282610ac9565b919050565b600067ffffffffffffffff821115610b3057610b2f610a9a565b5b610b3982610936565b9050602081019050919050565b82818337600083830152505050565b6000610b68610b6384610b15565b610afa565b905082815260208101848484011115610b8457610b83610a95565b5b610b8f848285610b46565b509392505050565b600082601f830112610bac57610bab610a90565b5b8135610bbc848260208601610b55565b91505092915050565b60038110610bd257600080fd5b50565b600081359050610be481610bc5565b92915050565b60008060008060808587031215610c0457610c0361087a565b5b6000610c12878288016108a5565b945050602085013567ffffffffffffffff811115610c3357610c3261087f565b5b610c3f87828801610b97565b935050604085013567ffffffffffffffff811115610c6057610c5f61087f565b5b610c6c87828801610b97565b9250506060610c7d87828801610bd5565b91505092959194509250565b60008115159050919050565b610c9e81610c89565b82525050565b6000602082019050610cb96000830184610c95565b92915050565b60006080820190508181036000830152610cd98187610947565b90508181036020830152610ced8186610947565b9050610cfc6040830185610980565b610d0960608301846109f7565b95945050505050565b600080600060608486031215610d2b57610d2a61087a565b5b600084013567ffffffffffffffff811115610d4957610d4861087f565b5b610d5586828701610b97565b935050602084013567ffffffffffffffff811115610d7657610d7561087f565b5b610d8286828701610b97565b9250506040610d93868287016108a5565b9150509250925092565b7f4e487b7100000000000000000000000000000000000000000000000000000000600052602260045260246000fd5b60006002820490506001821680610de457607f821691505b60208210811415610df857610df7610d9d565b5b50919050565b7f6c6f7465206e616f20656e636f6e747261646f00000000000000000000000000600082015250565b6000610e346013836108f2565b9150610e3f82610dfe565b602082019050919050565b60006020820190508181036000830152610e6381610e27565b9050919050565b7f4e487b7100000000000000000000000000000000000000000000000000000000600052603260045260246000fd5b7f4e487b7100000000000000000000000000000000000000000000000000000000600052601160045260246000fd5b6000610ed382610884565b91507fffffffffffffffffffffffffffffffffffffffffffffffffffffffffffffffff821415610f0657610f05610e99565b5b600182019050919050565b60038110610f2257610f2161098f565b5b50565b6000819050610f3382610f11565b919050565b6000610f4382610f25565b9050919050565b610f5381610f38565b82525050565b600060a082019050610f6e6000830188610980565b8181036020830152610f808187610947565b90508181036040830152610f948186610947565b9050610fa36060830185610980565b610fb06080830184610f4a565b9695505050505050565b7f696e666f726d6163616f20696e76616c69646100000000000000000000000000600082015250565b6000610ff06013836108f2565b9150610ffb82610fba565b602082019050919050565b6000602082019050818103600083015261101f81610fe3565b9050919050565b600060608201905081810360008301526110408186610947565b905081810360208301526110548185610947565b90506110636040830184610980565b949350505050565b600061107682610884565b915061108183610884565b92508282101561109457611093610e99565b5b82820390509291505056fea2646970667358221220d30098288422d6c0387671bb941a0d1c891c3a64f709b8cad4b4cd3089fd364764736f6c63430008090033",
  "immutableReferences": {},
  "source": "// SPDX-License-Identifier: MIT\r\npragma solidity >=0.4.22 <0.9.0;\r\n\r\ncontract Madeira {\r\n    enum SituacaoLote {\r\n        Disponivel,\r\n        Transito,\r\n        Entregue\r\n    }\r\n\r\n    enum SituacaoRemessa {\r\n        Iniciada,\r\n        Transito,\r\n        Entregue\r\n    }    \r\n\r\n    struct Lote {\r\n        string Descricao;\r\n        string NomeFazenda; //TODO: esse campodever ser trocado pelo address da fazenda\r\n        uint Quantidade;\r\n        uint DataHora;\r\n        uint TotalRemessa;\r\n        SituacaoLote Situacao;\r\n        mapping (uint => Remessa) Envio; //TODO: Struct containing a (nested) mapping cannot be constructed.\r\n    }    \r\n    Lote[] public _lotes;\r\n    \r\n    struct Remessa {\r\n        string Destino;\r\n        string Descricao;\r\n        uint DataHora;\r\n        SituacaoRemessa Situacao;\r\n    }\r\n\r\n    event LoteAdicionado(string descricao, string nomeFazenda, uint quantidade);\r\n    event RemessaRegistrada(uint idLote, string destino, string descricao, uint dataHora, SituacaoRemessa situacao);\r\n\r\n    constructor() {}\r\n\r\n    modifier somenteInformacaoValida\r\n    (\r\n        string memory descricao,\r\n        string memory nomeFazenda,\r\n        uint quantidade\r\n    )\r\n    {\r\n        bytes memory descricaoTemp = bytes(descricao);\r\n        bytes memory nomeFazendaTemp = bytes(nomeFazenda);\r\n\r\n        bool informacaoValida = descricaoTemp.length == 0 || nomeFazendaTemp.length == 0 || quantidade == 0;\r\n        require(!informacaoValida, 'informacao invalida');\r\n        _;\r\n    }    \r\n\r\n    modifier somenteLoteValido(uint id) {\r\n        require(id >= 0 && id < _lotes.length, \"lote nao encontrado\");\r\n        _;\r\n    }\r\n\r\n    modifier somenteRemessaValida() {\r\n        _;\r\n    }    \r\n\r\n    function adicionarLote\r\n    (\r\n        string memory descricao,\r\n        string memory nomeFazenda,\r\n        uint quantidade\r\n    )\r\n        public\r\n        somenteInformacaoValida(descricao, nomeFazenda, quantidade)\r\n        returns(uint)\r\n    {\r\n        //uint dataHora = block.timestamp;\r\n        \r\n        // Lote memory novoLote = Lote(descricao, nomeFazenda, quantidade, dataHora, 0, SituacaoLote.Disponivel);\r\n        // _lotes.push(novoLote);\r\n        \r\n        emit LoteAdicionado(descricao, nomeFazenda, quantidade);\r\n        \r\n        return _lotes.length - 1;\r\n    }\r\n\r\n    function obterLote\r\n    (\r\n        uint id\r\n    )\r\n        public\r\n        view\r\n        somenteLoteValido(id)\r\n        returns(string memory descricao, string memory nomeFazenda, uint quantidade, SituacaoLote situacao)\r\n    {\r\n        Lote storage lote = _lotes[id];\r\n        return (lote.Descricao, lote.NomeFazenda, lote.Quantidade, lote.Situacao);\r\n    }\r\n\r\n    function contabilizarLotes() public view returns(uint) {\r\n        return _lotes.length;\r\n    }\r\n\r\n    function registrarRemessa\r\n    (\r\n        uint idLote,\r\n        string memory destino,\r\n        string memory descricao,\r\n        SituacaoRemessa situacao\r\n    )\r\n        public\r\n        somenteLoteValido(idLote)\r\n        returns (bool)\r\n    {\r\n        Lote storage lote = _lotes[idLote];\r\n        uint dataHora = block.timestamp;\r\n        Remessa memory novaRemessa = Remessa(destino, descricao, dataHora, situacao);\r\n\r\n        if(situacao == SituacaoRemessa.Iniciada) {\r\n            lote.Situacao = SituacaoLote.Transito;\r\n        } else if(situacao == SituacaoRemessa.Entregue) {\r\n            lote.Situacao = SituacaoLote.Entregue;\r\n        }\r\n\r\n        lote.Envio[lote.TotalRemessa] = novaRemessa;\r\n        lote.TotalRemessa++;\r\n\r\n        emit RemessaRegistrada(idLote, destino, descricao, dataHora, situacao);\r\n        \r\n        return true;\r\n    }\r\n\r\n    function informacaoRemessa() public {\r\n        \r\n    }\r\n}",
  "sourcePath": "C:/Dev/Projetos/git/smart-contract/contracts/Madeira.sol",
  "compiler": {
    "name": "solc",
    "version": "0.8.9+commit.e5eed63a.Emscripten.clang"
  },
  "schemaVersion": "3.3.4",
  "updatedAt": "2021-10-18T22:45:04.798Z",
  "devdoc": {
    "kind": "dev",
    "methods": {},
    "version": 1
  },
  "userdoc": {
    "kind": "user",
    "methods": {},
    "version": 1
  }
}