{
  "contractName": "Madeira",
  "abi": [
    {
      "inputs": [],
      "stateMutability": "nonpayable",
      "type": "constructor"
    },
    {
      "anonymous": false,
      "inputs": [
        {
          "indexed": false,
          "internalType": "string",
          "name": "descricao",
          "type": "string"
        },
        {
          "indexed": false,
          "internalType": "string",
          "name": "nomeFazenda",
          "type": "string"
        },
        {
          "indexed": false,
          "internalType": "uint256",
          "name": "quantidade",
          "type": "uint256"
        }
      ],
      "name": "LoteAdicionado",
      "type": "event"
    },
    {
      "anonymous": false,
      "inputs": [
        {
          "indexed": false,
          "internalType": "uint256",
          "name": "idLote",
          "type": "uint256"
        },
        {
          "indexed": false,
          "internalType": "string",
          "name": "destino",
          "type": "string"
        },
        {
          "indexed": false,
          "internalType": "string",
          "name": "descricao",
          "type": "string"
        },
        {
          "indexed": false,
          "internalType": "uint256",
          "name": "dataHora",
          "type": "uint256"
        },
        {
          "indexed": false,
          "internalType": "enum Madeira.SituacaoRemessa",
          "name": "situacao",
          "type": "uint8"
        }
      ],
      "name": "RemessaRegistrada",
      "type": "event"
    },
    {
      "inputs": [
        {
          "internalType": "uint256",
          "name": "",
          "type": "uint256"
        }
      ],
      "name": "_lotes",
      "outputs": [
        {
          "internalType": "string",
          "name": "Descricao",
          "type": "string"
        },
        {
          "internalType": "string",
          "name": "NomeFazenda",
          "type": "string"
        },
        {
          "internalType": "uint256",
          "name": "Quantidade",
          "type": "uint256"
        },
        {
          "internalType": "uint256",
          "name": "DataHora",
          "type": "uint256"
        },
        {
          "internalType": "uint256",
          "name": "TotalRemessa",
          "type": "uint256"
        },
        {
          "internalType": "enum Madeira.SituacaoLote",
          "name": "Situacao",
          "type": "uint8"
        }
      ],
      "stateMutability": "view",
      "type": "function"
    },
    {
      "inputs": [
        {
          "internalType": "uint256",
          "name": "",
          "type": "uint256"
        }
      ],
      "name": "_remessas",
      "outputs": [
        {
          "internalType": "string",
          "name": "Destino",
          "type": "string"
        },
        {
          "internalType": "string",
          "name": "Descricao",
          "type": "string"
        },
        {
          "internalType": "uint256",
          "name": "DataHora",
          "type": "uint256"
        },
        {
          "internalType": "enum Madeira.SituacaoRemessa",
          "name": "Situacao",
          "type": "uint8"
        }
      ],
      "stateMutability": "view",
      "type": "function"
    },
    {
      "inputs": [
        {
          "internalType": "string",
          "name": "descricao",
          "type": "string"
        },
        {
          "internalType": "string",
          "name": "nomeFazenda",
          "type": "string"
        },
        {
          "internalType": "uint256",
          "name": "quantidade",
          "type": "uint256"
        }
      ],
      "name": "adicionarLote",
      "outputs": [
        {
          "internalType": "uint256",
          "name": "",
          "type": "uint256"
        }
      ],
      "stateMutability": "nonpayable",
      "type": "function"
    },
    {
      "inputs": [
        {
          "internalType": "uint256",
          "name": "id",
          "type": "uint256"
        }
      ],
      "name": "obterLote",
      "outputs": [
        {
          "internalType": "string",
          "name": "descricao",
          "type": "string"
        },
        {
          "internalType": "string",
          "name": "nomeFazenda",
          "type": "string"
        },
        {
          "internalType": "uint256",
          "name": "quantidade",
          "type": "uint256"
        },
        {
          "internalType": "enum Madeira.SituacaoLote",
          "name": "situacao",
          "type": "uint8"
        }
      ],
      "stateMutability": "view",
      "type": "function"
    },
    {
      "inputs": [],
      "name": "contabilizarLotes",
      "outputs": [
        {
          "internalType": "uint256",
          "name": "",
          "type": "uint256"
        }
      ],
      "stateMutability": "view",
      "type": "function"
    }
  ],
  "bytecode": "0x608060405234801561001057600080fd5b50610fb8806100206000396000f3fe608060405234801561001057600080fd5b50600436106100575760003560e01c8063440f90651461005c57806368ef028814610091578063876f9a9a146100af5780639639565f146100e2578063c902538914610112575b600080fd5b610076600480360381019061007191906108ee565b610145565b60405161008896959493929190610a3a565b60405180910390f35b6100996102ae565b6040516100a69190610aa9565b60405180910390f35b6100c960048036038101906100c491906108ee565b6102ba565b6040516100d99493929190610ac4565b60405180910390f35b6100fc60048036038101906100f79190610c4c565b6104e7565b6040516101099190610aa9565b60405180910390f35b61012c600480360381019061012791906108ee565b6106b4565b60405161013c9493929190610d1f565b60405180910390f35b6000818154811061015557600080fd5b906000526020600020906006020160009150905080600001805461017890610da1565b80601f01602080910402602001604051908101604052809291908181526020018280546101a490610da1565b80156101f15780601f106101c6576101008083540402835291602001916101f1565b820191906000526020600020905b8154815290600101906020018083116101d457829003601f168201915b50505050509080600101805461020690610da1565b80601f016020809104026020016040519081016040528092919081815260200182805461023290610da1565b801561027f5780601f106102545761010080835404028352916020019161027f565b820191906000526020600020905b81548152906001019060200180831161026257829003601f168201915b5050505050908060020154908060030154908060040154908060050160009054906101000a900460ff16905086565b60008080549050905090565b60608060008084600081101580156102d6575060008054905081105b610315576040517f08c379a000000000000000000000000000000000000000000000000000000000815260040161030c90610e1f565b60405180910390fd5b600080878154811061032a57610329610e3f565b5b90600052602060002090600602016040518060c001604052908160008201805461035390610da1565b80601f016020809104026020016040519081016040528092919081815260200182805461037f90610da1565b80156103cc5780601f106103a1576101008083540402835291602001916103cc565b820191906000526020600020905b8154815290600101906020018083116103af57829003601f168201915b505050505081526020016001820180546103e590610da1565b80601f016020809104026020016040519081016040528092919081815260200182805461041190610da1565b801561045e5780601f106104335761010080835404028352916020019161045e565b820191906000526020600020905b81548152906001019060200180831161044157829003601f168201915b505050505081526020016002820154815260200160038201548152602001600482015481526020016005820160009054906101000a900460ff1660028111156104aa576104a96109c3565b5b60028111156104bc576104bb6109c3565b5b8152505090508060000151816020015182604001518360a00151955095509550955050509193509193565b60008383836000839050600083905060008083511480610508575060008251145b806105135750600084145b90508015610556576040517f08c379a000000000000000000000000000000000000000000000000000000000815260040161054d90610eba565b60405180910390fd5b600042905060006040518060c001604052808d81526020018c81526020018b8152602001838152602001600081526020016000600281111561059b5761059a6109c3565b5b8152509050600081908060018154018082558091505060019003906000526020600020906006020160009091909190915060008201518160000190805190602001906105e8929190610801565b506020820151816001019080519060200190610605929190610801565b5060408201518160020155606082015181600301556080820151816004015560a08201518160050160006101000a81548160ff0219169083600281111561064f5761064e6109c3565b5b021790555050507f70458b99eff4482e44dafd4e68eaf5ef75c1f297743af308e66eb55a0232b24f8c8c8c60405161068993929190610eda565b60405180910390a160016000805490506106a39190610f4e565b985050505050505050509392505050565b60016020528060005260406000206000915090508060000180546106d790610da1565b80601f016020809104026020016040519081016040528092919081815260200182805461070390610da1565b80156107505780601f1061072557610100808354040283529160200191610750565b820191906000526020600020905b81548152906001019060200180831161073357829003601f168201915b50505050509080600101805461076590610da1565b80601f016020809104026020016040519081016040528092919081815260200182805461079190610da1565b80156107de5780601f106107b3576101008083540402835291602001916107de565b820191906000526020600020905b8154815290600101906020018083116107c157829003601f168201915b5050505050908060020154908060030160009054906101000a900460ff16905084565b82805461080d90610da1565b90600052602060002090601f01602090048101928261082f5760008555610876565b82601f1061084857805160ff1916838001178555610876565b82800160010185558215610876579182015b8281111561087557825182559160200191906001019061085a565b5b5090506108839190610887565b5090565b5b808211156108a0576000816000905550600101610888565b5090565b6000604051905090565b600080fd5b600080fd5b6000819050919050565b6108cb816108b8565b81146108d657600080fd5b50565b6000813590506108e8816108c2565b92915050565b600060208284031215610904576109036108ae565b5b6000610912848285016108d9565b91505092915050565b600081519050919050565b600082825260208201905092915050565b60005b8381101561095557808201518184015260208101905061093a565b83811115610964576000848401525b50505050565b6000601f19601f8301169050919050565b60006109868261091b565b6109908185610926565b93506109a0818560208601610937565b6109a98161096a565b840191505092915050565b6109bd816108b8565b82525050565b7f4e487b7100000000000000000000000000000000000000000000000000000000600052602160045260246000fd5b60038110610a0357610a026109c3565b5b50565b6000819050610a14826109f2565b919050565b6000610a2482610a06565b9050919050565b610a3481610a19565b82525050565b600060c0820190508181036000830152610a54818961097b565b90508181036020830152610a68818861097b565b9050610a7760408301876109b4565b610a8460608301866109b4565b610a9160808301856109b4565b610a9e60a0830184610a2b565b979650505050505050565b6000602082019050610abe60008301846109b4565b92915050565b60006080820190508181036000830152610ade818761097b565b90508181036020830152610af2818661097b565b9050610b0160408301856109b4565b610b0e6060830184610a2b565b95945050505050565b600080fd5b600080fd5b7f4e487b7100000000000000000000000000000000000000000000000000000000600052604160045260246000fd5b610b598261096a565b810181811067ffffffffffffffff82111715610b7857610b77610b21565b5b80604052505050565b6000610b8b6108a4565b9050610b978282610b50565b919050565b600067ffffffffffffffff821115610bb757610bb6610b21565b5b610bc08261096a565b9050602081019050919050565b82818337600083830152505050565b6000610bef610bea84610b9c565b610b81565b905082815260208101848484011115610c0b57610c0a610b1c565b5b610c16848285610bcd565b509392505050565b600082601f830112610c3357610c32610b17565b5b8135610c43848260208601610bdc565b91505092915050565b600080600060608486031215610c6557610c646108ae565b5b600084013567ffffffffffffffff811115610c8357610c826108b3565b5b610c8f86828701610c1e565b935050602084013567ffffffffffffffff811115610cb057610caf6108b3565b5b610cbc86828701610c1e565b9250506040610ccd868287016108d9565b9150509250925092565b60038110610ce857610ce76109c3565b5b50565b6000819050610cf982610cd7565b919050565b6000610d0982610ceb565b9050919050565b610d1981610cfe565b82525050565b60006080820190508181036000830152610d39818761097b565b90508181036020830152610d4d818661097b565b9050610d5c60408301856109b4565b610d696060830184610d10565b95945050505050565b7f4e487b7100000000000000000000000000000000000000000000000000000000600052602260045260246000fd5b60006002820490506001821680610db957607f821691505b60208210811415610dcd57610dcc610d72565b5b50919050565b7f6c6f7465206e616f20656e636f6e747261646f00000000000000000000000000600082015250565b6000610e09601383610926565b9150610e1482610dd3565b602082019050919050565b60006020820190508181036000830152610e3881610dfc565b9050919050565b7f4e487b7100000000000000000000000000000000000000000000000000000000600052603260045260246000fd5b7f696e666f726d6163616f20696e76616c69646100000000000000000000000000600082015250565b6000610ea4601383610926565b9150610eaf82610e6e565b602082019050919050565b60006020820190508181036000830152610ed381610e97565b9050919050565b60006060820190508181036000830152610ef4818661097b565b90508181036020830152610f08818561097b565b9050610f1760408301846109b4565b949350505050565b7f4e487b7100000000000000000000000000000000000000000000000000000000600052601160045260246000fd5b6000610f59826108b8565b9150610f64836108b8565b925082821015610f7757610f76610f1f565b5b82820390509291505056fea264697066735822122019128a1eea8b2a4d1e199430c522cb97522fada5733f8a27055bbeab528659be64736f6c63430008090033",
  "immutableReferences": {},
  "source": "// SPDX-License-Identifier: MIT\r\npragma solidity >=0.4.22 <0.9.0;\r\n\r\ncontract Madeira {\r\n    enum SituacaoLote {\r\n        Disponivel,\r\n        Transito,\r\n        Entregue\r\n    }\r\n\r\n    enum SituacaoRemessa {\r\n        Iniciada,\r\n        Transito,\r\n        Entregue\r\n    }    \r\n\r\n    struct Lote {\r\n        string Descricao;\r\n        string NomeFazenda; //TODO: esse campodever ser trocado pelo address da fazenda\r\n        uint Quantidade;\r\n        uint DataHora;\r\n        uint TotalRemessa;\r\n        SituacaoLote Situacao;\r\n        //mapping (uint=>Remessa) Envio; //TODO: Struct containing a (nested) mapping cannot be constructed.\r\n    }    \r\n    // mapping (uint => Lote[]) public _lotes;\r\n    Lote[] public _lotes;\r\n    \r\n    struct Remessa {\r\n        string Destino;\r\n        string Descricao;\r\n        uint DataHora;\r\n        SituacaoRemessa Situacao;\r\n    }\r\n    mapping (uint => Remessa) public _remessas;   \r\n\r\n    event LoteAdicionado(string descricao, string nomeFazenda, uint quantidade);\r\n    event RemessaRegistrada(uint idLote, string destino, string descricao, uint dataHora, SituacaoRemessa situacao);\r\n\r\n    constructor() {}\r\n\r\n    modifier somenteInformacaoValida\r\n    (\r\n        string memory descricao,\r\n        string memory nomeFazenda,\r\n        uint quantidade\r\n    )\r\n    {\r\n        bytes memory descricaoTemp = bytes(descricao);\r\n        bytes memory nomeFazendaTemp = bytes(nomeFazenda);\r\n\r\n        bool informacaoValida = descricaoTemp.length == 0 || nomeFazendaTemp.length == 0 || quantidade == 0;\r\n        require(!informacaoValida, 'informacao invalida');\r\n        _;\r\n    }    \r\n\r\n    modifier somenteLoteValido(uint id) {\r\n        require(id >= 0 && id < _lotes.length, \"lote nao encontrado\");\r\n        _;\r\n    }\r\n\r\n    modifier somenteRemessaValida() {\r\n        _;\r\n    }    \r\n\r\n    function adicionarLote\r\n    (\r\n        string memory descricao,\r\n        string memory nomeFazenda,\r\n        uint quantidade\r\n    )\r\n        public\r\n        somenteInformacaoValida(descricao, nomeFazenda, quantidade)\r\n        returns(uint)\r\n    {\r\n        uint dataHora = block.timestamp;\r\n        \r\n        Lote memory novoLote = Lote(descricao, nomeFazenda, quantidade, dataHora, 0, SituacaoLote.Disponivel);\r\n        _lotes.push(novoLote);\r\n        \r\n        emit LoteAdicionado(descricao, nomeFazenda, quantidade);\r\n        \r\n        return _lotes.length - 1;\r\n    }\r\n\r\n    function obterLote\r\n    (\r\n        uint id\r\n    )\r\n        public\r\n        view\r\n        somenteLoteValido(id)\r\n        returns(string memory descricao, string memory nomeFazenda, uint quantidade, SituacaoLote situacao)\r\n    {\r\n        Lote memory lote = _lotes[id];\r\n        return (lote.Descricao, lote.NomeFazenda, lote.Quantidade, lote.Situacao);\r\n    }\r\n\r\n    function contabilizarLotes() public view returns(uint) {\r\n        return _lotes.length;\r\n    }\r\n\r\n    // function registrarRemessa\r\n    // (\r\n    //     uint idLote,\r\n    //     string memory destino,\r\n    //     string memory descricao,\r\n    //     SituacaoRemessa situacao\r\n    // )\r\n    //     public\r\n    //     somenteLoteValido(idLote)\r\n    //     returns (bool)\r\n    // {\r\n    //     Lote storage lote = _lotes[idLote];\r\n    //     uint dataHora = block.timestamp;\r\n    //     Remessa memory novaRemessa = Remessa(destino, descricao, dataHora, situacao);\r\n\r\n    //     if(situacao == SituacaoRemessa.Iniciada) {\r\n    //         lote.Situacao = SituacaoLote.Transito;\r\n    //     } else if(situacao == SituacaoRemessa.Entregue) {\r\n    //         lote.Situacao = SituacaoLote.Entregue;\r\n    //     }\r\n\r\n    //     //lote.Envio[lote.totalRemessa] = novaRemessa;\r\n    //     _remessa[idLote] = novaRemessa;\r\n    //     lote.TotalRemessa++;\r\n\r\n    //     emit RemessaRegistrada(idLote, destino, descricao, dataHora, situacao);\r\n        \r\n    //     return true;\r\n    // }\r\n\r\n    // function informacaoRemessa() public {\r\n        \r\n    // }\r\n}",
  "sourcePath": "C:/Dev/Projetos/git/smart-contract/contracts/Madeira.sol",
  "compiler": {
    "name": "solc",
    "version": "0.8.9+commit.e5eed63a.Emscripten.clang"
  },
  "schemaVersion": "3.3.4",
  "updatedAt": "2021-10-18T16:35:59.884Z",
  "devdoc": {
    "kind": "dev",
    "methods": {},
    "version": 1
  },
  "userdoc": {
    "kind": "user",
    "methods": {},
    "version": 1
  }
}