{
  "contractName": "Pasta",
  "abi": [
    {
      "inputs": [],
      "stateMutability": "nonpayable",
      "type": "constructor"
    },
    {
      "anonymous": false,
      "inputs": [
        {
          "indexed": false,
          "internalType": "string",
          "name": "hashh",
          "type": "string"
        },
        {
          "indexed": false,
          "internalType": "address",
          "name": "remetente",
          "type": "address"
        }
      ],
      "name": "adicionado",
      "type": "event"
    },
    {
      "inputs": [
        {
          "internalType": "string",
          "name": "hashh",
          "type": "string"
        },
        {
          "internalType": "string",
          "name": "nome",
          "type": "string"
        },
        {
          "internalType": "string",
          "name": "tipo",
          "type": "string"
        },
        {
          "internalType": "uint256",
          "name": "data",
          "type": "uint256"
        }
      ],
      "name": "adicionar",
      "outputs": [],
      "stateMutability": "nonpayable",
      "type": "function"
    },
    {
      "inputs": [],
      "name": "listar",
      "outputs": [
        {
          "internalType": "uint256",
          "name": "",
          "type": "uint256"
        }
      ],
      "stateMutability": "view",
      "type": "function",
      "constant": true
    },
    {
      "inputs": [
        {
          "internalType": "uint256",
          "name": "index",
          "type": "uint256"
        }
      ],
      "name": "ler",
      "outputs": [
        {
          "internalType": "string",
          "name": "hashh",
          "type": "string"
        },
        {
          "internalType": "string",
          "name": "nome",
          "type": "string"
        },
        {
          "internalType": "string",
          "name": "tipo",
          "type": "string"
        },
        {
          "internalType": "uint256",
          "name": "data",
          "type": "uint256"
        }
      ],
      "stateMutability": "view",
      "type": "function",
      "constant": true
    }
  ],
  "bytecode": "0x608060405234801561001057600080fd5b506109db806100206000396000f3fe608060405234801561001057600080fd5b50600436106100415760003560e01c8063124ed12d14610046578063194a81df146100795780634601201814610095575b600080fd5b610060600480360381019061005b9190610660565b6100b3565b6040516100709493929190610714565b60405180910390f35b610093600480360381019061008e91906105a5565b61030a565b005b61009d610434565b6040516100aa919061076e565b60405180910390f35b60608060606000806000803373ffffffffffffffffffffffffffffffffffffffff1673ffffffffffffffffffffffffffffffffffffffff168152602001908152602001600020868154811061010b5761010a61090b565b5b906000526020600020906004020160405180608001604052908160008201805461013490610879565b80601f016020809104026020016040519081016040528092919081815260200182805461016090610879565b80156101ad5780601f10610182576101008083540402835291602001916101ad565b820191906000526020600020905b81548152906001019060200180831161019057829003601f168201915b505050505081526020016001820180546101c690610879565b80601f01602080910402602001604051908101604052809291908181526020018280546101f290610879565b801561023f5780601f106102145761010080835404028352916020019161023f565b820191906000526020600020905b81548152906001019060200180831161022257829003601f168201915b5050505050815260200160028201805461025890610879565b80601f016020809104026020016040519081016040528092919081815260200182805461028490610879565b80156102d15780601f106102a6576101008083540402835291602001916102d1565b820191906000526020600020905b8154815290600101906020018083116102b457829003601f168201915b50505050508152602001600382015481525050905080600001518160200151826040015183606001519450945094509450509193509193565b6000803373ffffffffffffffffffffffffffffffffffffffff1673ffffffffffffffffffffffffffffffffffffffff168152602001908152602001600020604051806080016040528086815260200185815260200184815260200183815250908060018154018082558091505060019003906000526020600020906004020160009091909190915060008201518160000190805190602001906103ae92919061047d565b5060208201518160010190805190602001906103cb92919061047d565b5060408201518160020190805190602001906103e892919061047d565b506060820151816003015550507fb138d86a677a5467f95f4fb65d6e0dc015708a90158342c32f3396d5418af5b484336040516104269291906106e4565b60405180910390a150505050565b60008060003373ffffffffffffffffffffffffffffffffffffffff1673ffffffffffffffffffffffffffffffffffffffff16815260200190815260200160002080549050905090565b82805461048990610879565b90600052602060002090601f0160209004810192826104ab57600085556104f2565b82601f106104c457805160ff19168380011785556104f2565b828001600101855582156104f2579182015b828111156104f15782518255916020019190600101906104d6565b5b5090506104ff9190610503565b5090565b5b8082111561051c576000816000905550600101610504565b5090565b600061053361052e846107ae565b610789565b90508281526020810184848401111561054f5761054e61096e565b5b61055a848285610837565b509392505050565b600082601f83011261057757610576610969565b5b8135610587848260208601610520565b91505092915050565b60008135905061059f8161098e565b92915050565b600080600080608085870312156105bf576105be610978565b5b600085013567ffffffffffffffff8111156105dd576105dc610973565b5b6105e987828801610562565b945050602085013567ffffffffffffffff81111561060a57610609610973565b5b61061687828801610562565b935050604085013567ffffffffffffffff81111561063757610636610973565b5b61064387828801610562565b925050606061065487828801610590565b91505092959194509250565b60006020828403121561067657610675610978565b5b600061068484828501610590565b91505092915050565b610696816107fb565b82525050565b60006106a7826107df565b6106b181856107ea565b93506106c1818560208601610846565b6106ca8161097d565b840191505092915050565b6106de8161082d565b82525050565b600060408201905081810360008301526106fe818561069c565b905061070d602083018461068d565b9392505050565b6000608082019050818103600083015261072e818761069c565b90508181036020830152610742818661069c565b90508181036040830152610756818561069c565b905061076560608301846106d5565b95945050505050565b600060208201905061078360008301846106d5565b92915050565b60006107936107a4565b905061079f82826108ab565b919050565b6000604051905090565b600067ffffffffffffffff8211156107c9576107c861093a565b5b6107d28261097d565b9050602081019050919050565b600081519050919050565b600082825260208201905092915050565b60006108068261080d565b9050919050565b600073ffffffffffffffffffffffffffffffffffffffff82169050919050565b6000819050919050565b82818337600083830152505050565b60005b83811015610864578082015181840152602081019050610849565b83811115610873576000848401525b50505050565b6000600282049050600182168061089157607f821691505b602082108114156108a5576108a46108dc565b5b50919050565b6108b48261097d565b810181811067ffffffffffffffff821117156108d3576108d261093a565b5b80604052505050565b7f4e487b7100000000000000000000000000000000000000000000000000000000600052602260045260246000fd5b7f4e487b7100000000000000000000000000000000000000000000000000000000600052603260045260246000fd5b7f4e487b7100000000000000000000000000000000000000000000000000000000600052604160045260246000fd5b600080fd5b600080fd5b600080fd5b600080fd5b6000601f19601f8301169050919050565b6109978161082d565b81146109a257600080fd5b5056fea26469706673582212202ffca95b62648f7c2b3b1ef639aff7ed749fb70cfc7a663cd6c6745610d8555c64736f6c63430008070033",
  "immutableReferences": {},
  "source": "// SPDX-License-Identifier: GPL-3.0\r\npragma solidity ^0.8.0;\r\n\r\ncontract Pasta {\r\n    struct Arquivo {\r\n        string Hash;\r\n        string Nome;\r\n        string Tipo;\r\n        uint DataEnvio;\r\n    }    \r\n\r\n    mapping(address => Arquivo[]) _arquivos;\r\n\r\n    event adicionado(string hashh, address remetente);\r\n\r\n    constructor() {\r\n\r\n\t}    \r\n\r\n    function adicionar(\r\n        string memory hashh,\r\n        string memory nome,\r\n        string memory tipo,\r\n        uint data\r\n    )\r\n        public\r\n    {\r\n        _arquivos[msg.sender].push(Arquivo({\r\n            Hash: hashh,\r\n            Nome: nome,\r\n            Tipo: tipo,\r\n            DataEnvio: data\r\n        }));\r\n\r\n        emit adicionado(hashh, msg.sender);\r\n    }\r\n\r\n    function listar()\r\n        public\r\n        view\r\n        returns (uint)\r\n    {\r\n        return _arquivos[msg.sender].length;\r\n    }\r\n\r\n    function ler(uint index)\r\n        public\r\n        view\r\n        returns\r\n        (\r\n            string memory hashh,\r\n            string memory nome,\r\n            string memory tipo,\r\n            uint data\r\n        )\r\n    {\r\n        Arquivo memory arquivo = _arquivos[msg.sender][index];\r\n        return (\r\n            arquivo.Hash,\r\n            arquivo.Nome,\r\n            arquivo.Tipo,\r\n            arquivo.DataEnvio\r\n        );\r\n    }\r\n}",
  "sourcePath": "C:/Dev/Projetos/git/smart-contract/contracts/Pasta.sol",
  "compiler": {
    "name": "solc",
    "version": "0.8.7+commit.e28d00a7.Emscripten.clang"
  },
  "schemaVersion": "3.3.4",
  "updatedAt": "2021-08-22T22:36:53.331Z",
  "networkType": "ethereum",
  "devdoc": {
    "kind": "dev",
    "methods": {},
    "version": 1
  },
  "userdoc": {
    "kind": "user",
    "methods": {},
    "version": 1
  }
}