{
  "contractName": "Saudacao",
  "abi": [
    {
      "inputs": [
        {
          "internalType": "string",
          "name": "saudacao",
          "type": "string"
        }
      ],
      "stateMutability": "nonpayable",
      "type": "constructor"
    },
    {
      "anonymous": false,
      "inputs": [
        {
          "indexed": false,
          "internalType": "string",
          "name": "saudacao",
          "type": "string"
        }
      ],
      "name": "SaudacaoEmitida",
      "type": "event"
    },
    {
      "inputs": [],
      "name": "saudar",
      "outputs": [
        {
          "internalType": "string",
          "name": "",
          "type": "string"
        }
      ],
      "stateMutability": "view",
      "type": "function"
    },
    {
      "inputs": [
        {
          "internalType": "string",
          "name": "saudacao",
          "type": "string"
        }
      ],
      "name": "EmitirSaudacao",
      "outputs": [
        {
          "internalType": "string",
          "name": "",
          "type": "string"
        }
      ],
      "stateMutability": "nonpayable",
      "type": "function"
    }
  ],
  "bytecode": "0x60806040523480156200001157600080fd5b506040516200091e3803806200091e8339818101604052810190620000379190620001be565b80600090805190602001906200004f92919062000090565b507fe58e53cf6c4d213c4bea86fa50fcd0e12b3701d4e673a41cf1458a9d74933b868160405162000081919062000250565b60405180910390a15062000414565b8280546200009e9062000325565b90600052602060002090601f016020900481019282620000c257600085556200010e565b82601f10620000dd57805160ff19168380011785556200010e565b828001600101855582156200010e579182015b828111156200010d578251825591602001919060010190620000f0565b5b5090506200011d919062000121565b5090565b5b808211156200013c57600081600090555060010162000122565b5090565b60006200015762000151846200029d565b62000274565b905082815260208101848484011115620001765762000175620003f4565b5b62000183848285620002ef565b509392505050565b600082601f830112620001a357620001a2620003ef565b5b8151620001b584826020860162000140565b91505092915050565b600060208284031215620001d757620001d6620003fe565b5b600082015167ffffffffffffffff811115620001f857620001f7620003f9565b5b62000206848285016200018b565b91505092915050565b60006200021c82620002d3565b620002288185620002de565b93506200023a818560208601620002ef565b620002458162000403565b840191505092915050565b600060208201905081810360008301526200026c81846200020f565b905092915050565b60006200028062000293565b90506200028e82826200035b565b919050565b6000604051905090565b600067ffffffffffffffff821115620002bb57620002ba620003c0565b5b620002c68262000403565b9050602081019050919050565b600081519050919050565b600082825260208201905092915050565b60005b838110156200030f578082015181840152602081019050620002f2565b838111156200031f576000848401525b50505050565b600060028204905060018216806200033e57607f821691505b6020821081141562000355576200035462000391565b5b50919050565b620003668262000403565b810181811067ffffffffffffffff82111715620003885762000387620003c0565b5b80604052505050565b7f4e487b7100000000000000000000000000000000000000000000000000000000600052602260045260246000fd5b7f4e487b7100000000000000000000000000000000000000000000000000000000600052604160045260246000fd5b600080fd5b600080fd5b600080fd5b600080fd5b6000601f19601f8301169050919050565b6104fa80620004246000396000f3fe608060405234801561001057600080fd5b50600436106100365760003560e01c80634de7356f1461003b578063da1da6e614610059575b600080fd5b610043610089565b6040516100509190610308565b60405180910390f35b610073600480360381019061006e9190610286565b61011b565b6040516100809190610308565b60405180910390f35b606060008054610098906103de565b80601f01602080910402602001604051908101604052809291908181526020018280546100c4906103de565b80156101115780601f106100e657610100808354040283529160200191610111565b820191906000526020600020905b8154815290600101906020018083116100f457829003601f168201915b5050505050905090565b60608160009080519060200190610133929190610173565b507fe58e53cf6c4d213c4bea86fa50fcd0e12b3701d4e673a41cf1458a9d74933b86826040516101639190610308565b60405180910390a1819050919050565b82805461017f906103de565b90600052602060002090601f0160209004810192826101a157600085556101e8565b82601f106101ba57805160ff19168380011785556101e8565b828001600101855582156101e8579182015b828111156101e75782518255916020019190600101906101cc565b5b5090506101f591906101f9565b5090565b5b808211156102125760008160009055506001016101fa565b5090565b60006102296102248461034f565b61032a565b905082815260208101848484011115610245576102446104a4565b5b61025084828561039c565b509392505050565b600082601f83011261026d5761026c61049f565b5b813561027d848260208601610216565b91505092915050565b60006020828403121561029c5761029b6104ae565b5b600082013567ffffffffffffffff8111156102ba576102b96104a9565b5b6102c684828501610258565b91505092915050565b60006102da82610380565b6102e4818561038b565b93506102f48185602086016103ab565b6102fd816104b3565b840191505092915050565b6000602082019050818103600083015261032281846102cf565b905092915050565b6000610334610345565b90506103408282610410565b919050565b6000604051905090565b600067ffffffffffffffff82111561036a57610369610470565b5b610373826104b3565b9050602081019050919050565b600081519050919050565b600082825260208201905092915050565b82818337600083830152505050565b60005b838110156103c95780820151818401526020810190506103ae565b838111156103d8576000848401525b50505050565b600060028204905060018216806103f657607f821691505b6020821081141561040a57610409610441565b5b50919050565b610419826104b3565b810181811067ffffffffffffffff8211171561043857610437610470565b5b80604052505050565b7f4e487b7100000000000000000000000000000000000000000000000000000000600052602260045260246000fd5b7f4e487b7100000000000000000000000000000000000000000000000000000000600052604160045260246000fd5b600080fd5b600080fd5b600080fd5b600080fd5b6000601f19601f830116905091905056fea2646970667358221220d7a0c30e782afdb6d66f576779311eb7cbba2fff8405b9ca3788ee49a7da840c64736f6c63430008060033",
  "immutableReferences": {},
  "source": "// SPDX-License-Identifier: MIT\r\npragma solidity ^0.8.0;\r\n\r\ncontract Saudacao {\r\n    string private _saudacao;\r\n    event SaudacaoEmitida(string saudacao\r\n                          //,uint256 saldo\r\n                          );\r\n\r\n    constructor(string memory saudacao) {\r\n        _saudacao = saudacao;\r\n        emit SaudacaoEmitida(saudacao\r\n        //, 0\r\n        );\r\n    }\r\n\r\n    function saudar() public view returns (string memory) {\r\n        return _saudacao;\r\n    }\r\n\r\n    function EmitirSaudacao\r\n    (\r\n        string memory saudacao\r\n    )\r\n        public\r\n        //payable\r\n        returns (string memory\r\n        //, uint256\r\n        )\r\n    {\r\n        //require(msg.value >= 1000);\r\n        _saudacao = saudacao;\r\n        emit SaudacaoEmitida(saudacao\r\n        //, address(this).balance\r\n        );\r\n        return (saudacao\r\n        //, address(this).balance\r\n        );\r\n    }    \r\n}",
  "sourcePath": "C:/Dev/Projetos/git/smart-contract/contracts/Saudacao.sol",
  "compiler": {
    "name": "solc",
    "version": "0.8.6+commit.11564f7e.Emscripten.clang"
  },
  "schemaVersion": "3.3.4",
  "updatedAt": "2021-07-21T22:42:04.843Z",
  "devdoc": {
    "kind": "dev",
    "methods": {},
    "version": 1
  },
  "userdoc": {
    "kind": "user",
    "methods": {},
    "version": 1
  }
}