{
  "contractName": "Store",
  "abi": [
    {
      "inputs": [],
      "stateMutability": "payable",
      "type": "constructor"
    },
    {
      "anonymous": false,
      "inputs": [
        {
          "indexed": false,
          "internalType": "uint256",
          "name": "invoiceNumber",
          "type": "uint256"
        },
        {
          "indexed": false,
          "internalType": "uint256",
          "name": "orderNumber",
          "type": "uint256"
        },
        {
          "indexed": false,
          "internalType": "uint256",
          "name": "deliveryDate",
          "type": "uint256"
        }
      ],
      "name": "InvoiceSent",
      "type": "event"
    },
    {
      "anonymous": false,
      "inputs": [
        {
          "indexed": false,
          "internalType": "uint256",
          "name": "invoiceNumber",
          "type": "uint256"
        },
        {
          "indexed": false,
          "internalType": "uint256",
          "name": "orderNumber",
          "type": "uint256"
        },
        {
          "indexed": false,
          "internalType": "uint256",
          "name": "actualDeliveryDate",
          "type": "uint256"
        }
      ],
      "name": "OrderDelivered",
      "type": "event"
    },
    {
      "anonymous": false,
      "inputs": [
        {
          "indexed": false,
          "internalType": "string",
          "name": "itemMenu",
          "type": "string"
        },
        {
          "indexed": false,
          "internalType": "uint256",
          "name": "quantity",
          "type": "uint256"
        },
        {
          "indexed": false,
          "internalType": "uint256",
          "name": "orderDate",
          "type": "uint256"
        },
        {
          "indexed": false,
          "internalType": "uint256",
          "name": "orderNumber",
          "type": "uint256"
        },
        {
          "indexed": false,
          "internalType": "address",
          "name": "customer",
          "type": "address"
        }
      ],
      "name": "OrderDispatched",
      "type": "event"
    },
    {
      "anonymous": false,
      "inputs": [
        {
          "indexed": true,
          "internalType": "address",
          "name": "previousOwner",
          "type": "address"
        },
        {
          "indexed": true,
          "internalType": "address",
          "name": "newOwner",
          "type": "address"
        }
      ],
      "name": "OwnershipTransferred",
      "type": "event"
    },
    {
      "anonymous": false,
      "inputs": [
        {
          "indexed": false,
          "internalType": "uint256",
          "name": "orderNumber",
          "type": "uint256"
        },
        {
          "indexed": false,
          "internalType": "uint256",
          "name": "value",
          "type": "uint256"
        },
        {
          "indexed": false,
          "internalType": "uint256",
          "name": "now",
          "type": "uint256"
        }
      ],
      "name": "PaymentSent",
      "type": "event"
    },
    {
      "anonymous": false,
      "inputs": [
        {
          "indexed": false,
          "internalType": "uint256",
          "name": "orderNumber",
          "type": "uint256"
        },
        {
          "indexed": false,
          "internalType": "uint256",
          "name": "price",
          "type": "uint256"
        }
      ],
      "name": "PriceSubmitted",
      "type": "event"
    },
    {
      "inputs": [],
      "name": "owner",
      "outputs": [
        {
          "internalType": "address",
          "name": "",
          "type": "address"
        }
      ],
      "stateMutability": "view",
      "type": "function"
    },
    {
      "inputs": [],
      "name": "renounceOwnership",
      "outputs": [],
      "stateMutability": "nonpayable",
      "type": "function"
    },
    {
      "inputs": [
        {
          "internalType": "address",
          "name": "newOwner",
          "type": "address"
        }
      ],
      "name": "transferOwnership",
      "outputs": [],
      "stateMutability": "nonpayable",
      "type": "function"
    },
    {
      "inputs": [
        {
          "internalType": "string",
          "name": "itemMenu",
          "type": "string"
        },
        {
          "internalType": "uint256",
          "name": "quantity",
          "type": "uint256"
        },
        {
          "internalType": "uint256",
          "name": "dateTime",
          "type": "uint256"
        }
      ],
      "name": "sendOrder",
      "outputs": [],
      "stateMutability": "payable",
      "type": "function"
    },
    {
      "inputs": [
        {
          "internalType": "uint256",
          "name": "index",
          "type": "uint256"
        }
      ],
      "name": "checkOrder",
      "outputs": [
        {
          "internalType": "string",
          "name": "itemMenu",
          "type": "string"
        },
        {
          "internalType": "uint256",
          "name": "quantity",
          "type": "uint256"
        },
        {
          "internalType": "uint256",
          "name": "price",
          "type": "uint256"
        },
        {
          "internalType": "uint256",
          "name": "payment",
          "type": "uint256"
        },
        {
          "internalType": "uint256",
          "name": "orderDate",
          "type": "uint256"
        },
        {
          "internalType": "uint256",
          "name": "deliveryDate",
          "type": "uint256"
        },
        {
          "internalType": "uint256",
          "name": "orderId",
          "type": "uint256"
        }
      ],
      "stateMutability": "view",
      "type": "function"
    },
    {
      "inputs": [],
      "name": "total",
      "outputs": [
        {
          "internalType": "uint256",
          "name": "",
          "type": "uint256"
        }
      ],
      "stateMutability": "view",
      "type": "function"
    }
  ],
  "bytecode": "0x608060405261002061001561002560201b60201c565b61002d60201b60201c565b6100f1565b600033905090565b60008060009054906101000a900473ffffffffffffffffffffffffffffffffffffffff169050816000806101000a81548173ffffffffffffffffffffffffffffffffffffffff021916908373ffffffffffffffffffffffffffffffffffffffff1602179055508173ffffffffffffffffffffffffffffffffffffffff168173ffffffffffffffffffffffffffffffffffffffff167f8be0079c531659141344cd1fd0a4f28419497f9722a3daafe3b4186f6b6457e060405160405180910390a35050565b610ee7806101006000396000f3fe6080604052600436106100555760003560e01c80632ddbd13a1461005a5780633e4894d31461008557806348efc672146100a1578063715018a6146100e45780638da5cb5b146100fb578063f2fde38b14610126575b600080fd5b34801561006657600080fd5b5061006f61014f565b60405161007c919061086d565b60405180910390f35b61009f600480360381019061009a9190610a0e565b610199565b005b3480156100ad57600080fd5b506100c860048036038101906100c39190610a7d565b610378565b6040516100db9796959493929190610b32565b60405180910390f35b3480156100f057600080fd5b506100f9610518565b005b34801561010757600080fd5b506101106105a0565b60405161011d9190610be9565b60405180910390f35b34801561013257600080fd5b5061014d60048036038101906101489190610c30565b6105c9565b005b6000600360003373ffffffffffffffffffffffffffffffffffffffff1673ffffffffffffffffffffffffffffffffffffffff16815260200190815260200160002080549050905090565b82826000829050600080825114806101b15750600083145b905080156101f4576040517f08c379a00000000000000000000000000000000000000000000000000000000081526004016101eb90610ca9565b60405180910390fd5b6101fe60016106c1565b600061020a60016106d7565b9050600360003373ffffffffffffffffffffffffffffffffffffffff1673ffffffffffffffffffffffffffffffffffffffff1681526020019081526020016000206040518061010001604052808381526020018a81526020016000815260200189815260200160008152602001888152602001600081526020016001151581525090806001815401808255809150506001900390600052602060002090600802016000909190919091506000820151816000015560208201518160010190805190602001906102da9291906107b1565b5060408201518160020155606082015181600301556080820151816004015560a0820151816005015560c0820151816006015560e08201518160070160006101000a81548160ff02191690831515021790555050507f0f3c6c8776f571e6ed7d0039f20d5affff551ad3999662338ac35c72d3ca26958888888433604051610366959493929190610cc9565b60405180910390a15050505050505050565b60606000806000806000806000600360003373ffffffffffffffffffffffffffffffffffffffff1673ffffffffffffffffffffffffffffffffffffffff16815260200190815260200160002089815481106103d6576103d5610d23565b5b9060005260206000209060080201604051806101000160405290816000820154815260200160018201805461040a90610d81565b80601f016020809104026020016040519081016040528092919081815260200182805461043690610d81565b80156104835780601f1061045857610100808354040283529160200191610483565b820191906000526020600020905b81548152906001019060200180831161046657829003601f168201915b5050505050815260200160028201548152602001600382015481526020016004820154815260200160058201548152602001600682015481526020016007820160009054906101000a900460ff161515151581525050905080602001518160600151826040015183608001518460a001518560c001518660000151975097509750975097509750975050919395979092949650565b6105206106e5565b73ffffffffffffffffffffffffffffffffffffffff1661053e6105a0565b73ffffffffffffffffffffffffffffffffffffffff1614610594576040517f08c379a000000000000000000000000000000000000000000000000000000000815260040161058b90610dff565b60405180910390fd5b61059e60006106ed565b565b60008060009054906101000a900473ffffffffffffffffffffffffffffffffffffffff16905090565b6105d16106e5565b73ffffffffffffffffffffffffffffffffffffffff166105ef6105a0565b73ffffffffffffffffffffffffffffffffffffffff1614610645576040517f08c379a000000000000000000000000000000000000000000000000000000000815260040161063c90610dff565b60405180910390fd5b600073ffffffffffffffffffffffffffffffffffffffff168173ffffffffffffffffffffffffffffffffffffffff1614156106b5576040517f08c379a00000000000000000000000000000000000000000000000000000000081526004016106ac90610e91565b60405180910390fd5b6106be816106ed565b50565b6001816000016000828254019250508190555050565b600081600001549050919050565b600033905090565b60008060009054906101000a900473ffffffffffffffffffffffffffffffffffffffff169050816000806101000a81548173ffffffffffffffffffffffffffffffffffffffff021916908373ffffffffffffffffffffffffffffffffffffffff1602179055508173ffffffffffffffffffffffffffffffffffffffff168173ffffffffffffffffffffffffffffffffffffffff167f8be0079c531659141344cd1fd0a4f28419497f9722a3daafe3b4186f6b6457e060405160405180910390a35050565b8280546107bd90610d81565b90600052602060002090601f0160209004810192826107df5760008555610826565b82601f106107f857805160ff1916838001178555610826565b82800160010185558215610826579182015b8281111561082557825182559160200191906001019061080a565b5b5090506108339190610837565b5090565b5b80821115610850576000816000905550600101610838565b5090565b6000819050919050565b61086781610854565b82525050565b6000602082019050610882600083018461085e565b92915050565b6000604051905090565b600080fd5b600080fd5b600080fd5b600080fd5b6000601f19601f8301169050919050565b7f4e487b7100000000000000000000000000000000000000000000000000000000600052604160045260246000fd5b6108ef826108a6565b810181811067ffffffffffffffff8211171561090e5761090d6108b7565b5b80604052505050565b6000610921610888565b905061092d82826108e6565b919050565b600067ffffffffffffffff82111561094d5761094c6108b7565b5b610956826108a6565b9050602081019050919050565b82818337600083830152505050565b600061098561098084610932565b610917565b9050828152602081018484840111156109a1576109a06108a1565b5b6109ac848285610963565b509392505050565b600082601f8301126109c9576109c861089c565b5b81356109d9848260208601610972565b91505092915050565b6109eb81610854565b81146109f657600080fd5b50565b600081359050610a08816109e2565b92915050565b600080600060608486031215610a2757610a26610892565b5b600084013567ffffffffffffffff811115610a4557610a44610897565b5b610a51868287016109b4565b9350506020610a62868287016109f9565b9250506040610a73868287016109f9565b9150509250925092565b600060208284031215610a9357610a92610892565b5b6000610aa1848285016109f9565b91505092915050565b600081519050919050565b600082825260208201905092915050565b60005b83811015610ae4578082015181840152602081019050610ac9565b83811115610af3576000848401525b50505050565b6000610b0482610aaa565b610b0e8185610ab5565b9350610b1e818560208601610ac6565b610b27816108a6565b840191505092915050565b600060e0820190508181036000830152610b4c818a610af9565b9050610b5b602083018961085e565b610b68604083018861085e565b610b75606083018761085e565b610b82608083018661085e565b610b8f60a083018561085e565b610b9c60c083018461085e565b98975050505050505050565b600073ffffffffffffffffffffffffffffffffffffffff82169050919050565b6000610bd382610ba8565b9050919050565b610be381610bc8565b82525050565b6000602082019050610bfe6000830184610bda565b92915050565b610c0d81610bc8565b8114610c1857600080fd5b50565b600081359050610c2a81610c04565b92915050565b600060208284031215610c4657610c45610892565b5b6000610c5484828501610c1b565b91505092915050565b7f696e666f726d6163616f20696e76616c69646100000000000000000000000000600082015250565b6000610c93601383610ab5565b9150610c9e82610c5d565b602082019050919050565b60006020820190508181036000830152610cc281610c86565b9050919050565b600060a0820190508181036000830152610ce38188610af9565b9050610cf2602083018761085e565b610cff604083018661085e565b610d0c606083018561085e565b610d196080830184610bda565b9695505050505050565b7f4e487b7100000000000000000000000000000000000000000000000000000000600052603260045260246000fd5b7f4e487b7100000000000000000000000000000000000000000000000000000000600052602260045260246000fd5b60006002820490506001821680610d9957607f821691505b60208210811415610dad57610dac610d52565b5b50919050565b7f4f776e61626c653a2063616c6c6572206973206e6f7420746865206f776e6572600082015250565b6000610de9602083610ab5565b9150610df482610db3565b602082019050919050565b60006020820190508181036000830152610e1881610ddc565b9050919050565b7f4f776e61626c653a206e6577206f776e657220697320746865207a65726f206160008201527f6464726573730000000000000000000000000000000000000000000000000000602082015250565b6000610e7b602683610ab5565b9150610e8682610e1f565b604082019050919050565b60006020820190508181036000830152610eaa81610e6e565b905091905056fea26469706673582212203f70c7e55984d4bc7853a81a0841d1fda3d29277de4e7b08a7268ef0ea80625e64736f6c63430008090033",
  "immutableReferences": {},
  "source": "// SPDX-License-Identifier: MIT\r\npragma solidity >=0.4.22 <0.9.0;\r\n\r\nimport \"@openzeppelin/contracts/access/Ownable.sol\";\r\nimport \"@openzeppelin/contracts/utils/Counters.sol\";\r\n\r\ncontract Store is Ownable {\r\n\tusing Counters for Counters.Counter;\r\n    Counters.Counter private _orderSeq;\r\n\tCounters.Counter private _invoiceSeq;\r\n\r\n\tstruct ItemMenu {\r\n\t\tuint Id;\r\n\t}\r\n\r\n    struct Order {\r\n\t\tuint Number;\r\n\t\tstring ItemMenu;\r\n\t\tuint Price;\r\n\t\tuint Quantity;\t\t\r\n\t\tuint Payment;\r\n\t\tuint OrderDate;\r\n\t\tuint DeliveryDate;\r\n\t\tbool Created;\r\n\t}\r\n\r\n    struct Invoice {\r\n\t\tuint Number;\r\n\t\tuint OrderNumber;\r\n\t\tbool Created;\r\n\t}\r\n\r\n\tmapping (address => Order[]) _orders;\r\n\tmapping (address => Invoice[]) _invoices;\r\n    \r\n\tevent OrderDispatched(string itemMenu, uint quantity, uint orderDate, uint orderNumber, address customer);\r\n\tevent PriceSubmitted(uint orderNumber, uint price);     \r\n\tevent PaymentSent(uint orderNumber, uint value, uint now);\r\n\tevent InvoiceSent(uint invoiceNumber, uint orderNumber, uint deliveryDate);\r\n\tevent OrderDelivered(uint invoiceNumber, uint orderNumber, uint actualDeliveryDate);\r\n\r\n    constructor() payable {\r\n\r\n\t}\r\n\r\n\t//TODO: - Criar modificador para validar a data/hora do pedido\r\n\r\n    modifier OnlyOrderValidInformation\r\n    (\r\n        string memory itemMenu,\r\n        uint quantity\r\n    )\r\n    {\r\n        bytes memory itemMenuTemp = bytes(itemMenu);\r\n\r\n        bool informacaoValida = itemMenuTemp.length == 0 || quantity == 0;\r\n        require(!informacaoValida, 'informacao invalida');\r\n        _;\r\n    }\r\n\r\n    function sendOrder\r\n\t(\r\n\t\tstring memory itemMenu,\r\n\t\tuint quantity,\r\n\t\tuint dateTime\r\n\t)\r\n\t\tpayable\r\n\t\tpublic\r\n\t\tOnlyOrderValidInformation(itemMenu, quantity)\r\n\t{\r\n\t\t_orderSeq.increment();\r\n\t\tuint256 newOrderNumber = _orderSeq.current();\r\n\r\n\t\t_orders[msg.sender].push(Order({\r\n\t\t\tNumber: newOrderNumber,\r\n\t\t\tItemMenu: itemMenu,\r\n\t\t\tPrice: 0,\r\n\t\t\tQuantity: quantity,\r\n\t\t\tPayment: 0,\r\n\t\t\tOrderDate: dateTime,\r\n\t\t\tDeliveryDate: 0,\r\n\t\t\tCreated: true\r\n\t\t}));\r\n\r\n\t\temit OrderDispatched(itemMenu, quantity, dateTime, newOrderNumber, msg.sender);\r\n\t}\r\n\r\n    function checkOrder\r\n\t(\r\n\t\tuint index\r\n\t)\r\n\t\tpublic\r\n\t\tview\r\n\t\treturns (\r\n\t\t\tstring memory itemMenu,\r\n\t\t\tuint quantity,\r\n\t\t\tuint price,\r\n\t\t\tuint payment,\r\n\t\t\tuint orderDate,\r\n\t\t\tuint deliveryDate,\r\n\t\t\tuint orderId\r\n\t\t)\r\n\t{\r\n\t\tOrder memory order = _orders[msg.sender][index];\r\n\t\treturn(order.ItemMenu, order.Quantity, order.Price, order.Payment, order.OrderDate, order.DeliveryDate, order.Number);\r\n\t}\r\n\r\n\r\n\t// function sendPrice\r\n\t// (\r\n\t// \t// uint orderId,\r\n\t// \t// uint price\r\n\t// \tuint index,\r\n\t// \tuint price\r\n\t// )\r\n\t// \tpublic\r\n\t// \tonlyOwner\r\n\t// \tpayable\r\n\t// {\r\n\t// \tOrder memory order = _orders[msg.sender][index];\r\n\t// \tOrder memory orderUpdated;\r\n\r\n\t// \torderUpdated.Number = order.Number;\r\n\r\n\r\n\t// \tdelete _orders[msg.sender][index];\r\n\t// \t_orders[msg.sender][index] = orderUpdated;\r\n\r\n\r\n\t// \temit PriceSubmitted(index, price);\r\n\t// }\r\n\r\n    function total()\r\n        public\r\n        view\r\n        returns (uint)\r\n    {\r\n        return _orders[msg.sender].length;\r\n    }\t\r\n\r\n\r\n\r\n    // function enviarPagamentoSeguro\r\n\t// (\r\n\t// \tuint idPedido\r\n\t// )\r\n\t// \tpublic\r\n\t// \tSomenteCliente\r\n\t// \tPedidoExiste(idPedido)\r\n\t// \tpayable\r\n\t// {\r\n\t// \t_pedidos[idPedido].PagamentoSeguro = msg.value;\r\n\t// \temit PagamentoSeguroEnviado(msg.sender, idPedido, msg.value, block.timestamp);\r\n\t// }\r\n\r\n    // function enviarFatura\r\n\t// (\r\n\t// \tuint idPedido,\r\n\t// \tuint dataPedido\r\n\t// )\r\n\t// \tpublic\r\n\t// \tonlyOwner\r\n\t// \tPedidoExiste(idPedido)\r\n\t// \tpayable\r\n\t// {\r\n\t// \t_sequencialFatura++;\r\n\t// \t_faturas[_sequencialFatura] = Fatura(_sequencialFatura, idPedido, true);\r\n\t// \t_pedidos[idPedido].DataPedido = dataPedido;\r\n\t// \temit FaturaEnviada(_cliente, _sequencialFatura, idPedido, dataPedido);\r\n\t// }\r\n\r\n    // function obterFatura\r\n\t// (\r\n\t// \tuint idFatura\r\n\t// )\r\n\t// \tpublic\r\n\t// \tview\r\n\t// \tFaturaExiste(idFatura)\r\n\t// \treturns (address cliente, uint idPedido, uint dataFatura)\r\n\t// {\r\n\t// \tFatura storage fatura = _faturas[idFatura];\r\n\t// \tPedido storage pedido = _pedidos[fatura.IdPedido];\r\n\t// \treturn (_cliente, pedido.Id, pedido.DataPedido);\r\n\t// }\r\n\r\n    // function MarcarPedidoEntregue\r\n\t// (\r\n\t// \tuint idFatura,\r\n\t// \tuint dataEntrega\r\n\t// )\r\n\t// \tpublic\r\n\t// \tSomenteCliente\r\n\t// \tFaturaExiste(idFatura)\r\n\t// \tpayable\r\n\t// {\r\n\t// \tFatura storage fatura = _faturas[idFatura];\r\n\t// \tPedido storage pedido = _pedidos[fatura.IdPedido];\r\n\t// \tpedido.DataEntrega = dataEntrega;\r\n\t// \tpayable(_dono).transfer(pedido.PagamentoSeguro);\r\n\t// \temit PedidoEntregue(_cliente, idFatura, pedido.Id, dataEntrega); \r\n\t// }    \r\n}",
  "sourcePath": "C:/Dev/Projetos/git/smart-contract/contracts/Store.sol",
  "compiler": {
    "name": "solc",
    "version": "0.8.9+commit.e5eed63a.Emscripten.clang"
  },
  "schemaVersion": "3.3.4",
  "updatedAt": "2021-10-20T16:49:36.342Z",
  "devdoc": {
    "kind": "dev",
    "methods": {
      "owner()": {
        "details": "Returns the address of the current owner."
      },
      "renounceOwnership()": {
        "details": "Leaves the contract without owner. It will not be possible to call `onlyOwner` functions anymore. Can only be called by the current owner. NOTE: Renouncing ownership will leave the contract without an owner, thereby removing any functionality that is only available to the owner."
      },
      "transferOwnership(address)": {
        "details": "Transfers ownership of the contract to a new account (`newOwner`). Can only be called by the current owner."
      }
    },
    "version": 1
  },
  "userdoc": {
    "kind": "user",
    "methods": {},
    "version": 1
  }
}