{
  "contractName": "Store",
  "abi": [
    {
      "inputs": [],
      "stateMutability": "payable",
      "type": "constructor"
    },
    {
      "anonymous": false,
      "inputs": [
        {
          "indexed": false,
          "internalType": "uint256",
          "name": "invoiceNumber",
          "type": "uint256"
        },
        {
          "indexed": false,
          "internalType": "uint256",
          "name": "orderNumber",
          "type": "uint256"
        },
        {
          "indexed": false,
          "internalType": "uint256",
          "name": "orderDate",
          "type": "uint256"
        }
      ],
      "name": "InvoiceSent",
      "type": "event"
    },
    {
      "anonymous": false,
      "inputs": [
        {
          "indexed": false,
          "internalType": "uint256",
          "name": "invoiceNumber",
          "type": "uint256"
        },
        {
          "indexed": false,
          "internalType": "uint256",
          "name": "orderNumber",
          "type": "uint256"
        },
        {
          "indexed": false,
          "internalType": "uint256",
          "name": "actualDeliveryDate",
          "type": "uint256"
        }
      ],
      "name": "OrderDelivered",
      "type": "event"
    },
    {
      "anonymous": false,
      "inputs": [
        {
          "indexed": false,
          "internalType": "string",
          "name": "itemMenu",
          "type": "string"
        },
        {
          "indexed": false,
          "internalType": "uint256",
          "name": "quantity",
          "type": "uint256"
        },
        {
          "indexed": false,
          "internalType": "uint256",
          "name": "orderDate",
          "type": "uint256"
        },
        {
          "indexed": false,
          "internalType": "uint256",
          "name": "orderNumber",
          "type": "uint256"
        },
        {
          "indexed": false,
          "internalType": "address",
          "name": "customer",
          "type": "address"
        }
      ],
      "name": "OrderDispatched",
      "type": "event"
    },
    {
      "anonymous": false,
      "inputs": [
        {
          "indexed": true,
          "internalType": "address",
          "name": "previousOwner",
          "type": "address"
        },
        {
          "indexed": true,
          "internalType": "address",
          "name": "newOwner",
          "type": "address"
        }
      ],
      "name": "OwnershipTransferred",
      "type": "event"
    },
    {
      "anonymous": false,
      "inputs": [
        {
          "indexed": false,
          "internalType": "uint256",
          "name": "orderNumber",
          "type": "uint256"
        },
        {
          "indexed": false,
          "internalType": "uint256",
          "name": "payment",
          "type": "uint256"
        },
        {
          "indexed": false,
          "internalType": "uint256",
          "name": "paymentDate",
          "type": "uint256"
        }
      ],
      "name": "PaymentSent",
      "type": "event"
    },
    {
      "anonymous": false,
      "inputs": [
        {
          "indexed": false,
          "internalType": "uint256",
          "name": "orderNumber",
          "type": "uint256"
        },
        {
          "indexed": false,
          "internalType": "uint256",
          "name": "orderPrice",
          "type": "uint256"
        }
      ],
      "name": "PriceSubmitted",
      "type": "event"
    },
    {
      "inputs": [],
      "name": "owner",
      "outputs": [
        {
          "internalType": "address",
          "name": "",
          "type": "address"
        }
      ],
      "stateMutability": "view",
      "type": "function"
    },
    {
      "inputs": [],
      "name": "renounceOwnership",
      "outputs": [],
      "stateMutability": "nonpayable",
      "type": "function"
    },
    {
      "inputs": [
        {
          "internalType": "address",
          "name": "newOwner",
          "type": "address"
        }
      ],
      "name": "transferOwnership",
      "outputs": [],
      "stateMutability": "nonpayable",
      "type": "function"
    },
    {
      "inputs": [
        {
          "internalType": "string",
          "name": "itemMenu",
          "type": "string"
        },
        {
          "internalType": "uint256",
          "name": "quantity",
          "type": "uint256"
        },
        {
          "internalType": "uint256",
          "name": "dateTime",
          "type": "uint256"
        }
      ],
      "name": "sendOrder",
      "outputs": [],
      "stateMutability": "payable",
      "type": "function"
    },
    {
      "inputs": [
        {
          "internalType": "uint256",
          "name": "index",
          "type": "uint256"
        }
      ],
      "name": "checkOrder",
      "outputs": [
        {
          "internalType": "string",
          "name": "itemMenu",
          "type": "string"
        },
        {
          "internalType": "uint256",
          "name": "quantity",
          "type": "uint256"
        },
        {
          "internalType": "uint256",
          "name": "price",
          "type": "uint256"
        },
        {
          "internalType": "uint256",
          "name": "payment",
          "type": "uint256"
        },
        {
          "internalType": "uint256",
          "name": "orderDate",
          "type": "uint256"
        },
        {
          "internalType": "uint256",
          "name": "deliveryDate",
          "type": "uint256"
        }
      ],
      "stateMutability": "view",
      "type": "function"
    },
    {
      "inputs": [
        {
          "internalType": "uint256",
          "name": "index",
          "type": "uint256"
        },
        {
          "internalType": "uint256",
          "name": "price",
          "type": "uint256"
        },
        {
          "internalType": "address",
          "name": "customer",
          "type": "address"
        }
      ],
      "name": "sendPrice",
      "outputs": [],
      "stateMutability": "payable",
      "type": "function"
    },
    {
      "inputs": [
        {
          "internalType": "uint256",
          "name": "index",
          "type": "uint256"
        },
        {
          "internalType": "uint256",
          "name": "paymentDate",
          "type": "uint256"
        }
      ],
      "name": "sendPayment",
      "outputs": [],
      "stateMutability": "payable",
      "type": "function"
    },
    {
      "inputs": [
        {
          "internalType": "uint256",
          "name": "index",
          "type": "uint256"
        },
        {
          "internalType": "uint256",
          "name": "orderDate",
          "type": "uint256"
        }
      ],
      "name": "sendInvoice",
      "outputs": [],
      "stateMutability": "nonpayable",
      "type": "function"
    }
  ],
  "bytecode": "0x608060405261002061001561006660201b60201c565b61006e60201b60201c565b33600160006101000a81548173ffffffffffffffffffffffffffffffffffffffff021916908373ffffffffffffffffffffffffffffffffffffffff160217905550610132565b600033905090565b60008060009054906101000a900473ffffffffffffffffffffffffffffffffffffffff169050816000806101000a81548173ffffffffffffffffffffffffffffffffffffffff021916908373ffffffffffffffffffffffffffffffffffffffff1602179055508173ffffffffffffffffffffffffffffffffffffffff168173ffffffffffffffffffffffffffffffffffffffff167f8be0079c531659141344cd1fd0a4f28419497f9722a3daafe3b4186f6b6457e060405160405180910390a35050565b611941806101416000396000f3fe60806040526004361061007b5760003560e01c8063715018a61161004e578063715018a6146101235780638da5cb5b1461013a578063a03b19a114610165578063f2fde38b146101815761007b565b80632068eee4146100805780633e4894d31461009c57806348efc672146100b85780636e0fa7be146100fa575b600080fd5b61009a6004803603810190610095919061122e565b6101aa565b005b6100b660048036038101906100b191906113b4565b610523565b005b3480156100c457600080fd5b506100df60048036038101906100da9190611423565b610720565b6040516100f1969594939291906114e7565b60405180910390f35b34801561010657600080fd5b50610121600480360381019061011c919061122e565b6108aa565b005b34801561012f57600080fd5b50610138610a59565b005b34801561014657600080fd5b5061014f610ae1565b60405161015c9190611590565b60405180910390f35b61017f600480360381019061017a91906115d7565b610b0a565b005b34801561018d57600080fd5b506101a860048036038101906101a3919061162a565b610efe565b005b6000600260003373ffffffffffffffffffffffffffffffffffffffff1673ffffffffffffffffffffffffffffffffffffffff16815260200190815260200160002083815481106101fd576101fc611657565b5b90600052602060002090600702016040518060e0016040529081600082018054610226906116b5565b80601f0160208091040260200160405190810160405280929190818152602001828054610252906116b5565b801561029f5780601f106102745761010080835404028352916020019161029f565b820191906000526020600020905b81548152906001019060200180831161028257829003601f168201915b5050505050815260200160018201548152602001600282015481526020016003820154815260200160048201548152602001600582015481526020016006820160009054906101000a900460ff16151515158152505090506102ff6110c2565b81600001518160000181905250816020015181602001818152505081604001518160400181815250503481606001818152505081608001518160800181815250508160a001518160a00181815250508160c001518160c0019015159081151581525050600260003373ffffffffffffffffffffffffffffffffffffffff1673ffffffffffffffffffffffffffffffffffffffff16815260200190815260200160002084815481106103b3576103b2611657565b5b9060005260206000209060070201600080820160006103d29190611101565b600182016000905560028201600090556003820160009055600482016000905560058201600090556006820160006101000a81549060ff0219169055505080600260003373ffffffffffffffffffffffffffffffffffffffff1673ffffffffffffffffffffffffffffffffffffffff168152602001908152602001600020858154811061046257610461611657565b5b9060005260206000209060070201600082015181600001908051906020019061048c929190611141565b506020820151816001015560408201518160020155606082015181600301556080820151816004015560a0820151816005015560c08201518160060160006101000a81548160ff0219169083151502179055509050507fcffafba552dc166088a32e7bd805ab2313405094f66efccd4fea2631bcc95945843485604051610515939291906116e7565b60405180910390a150505050565b828260008290506000808251148061053b5750600083145b9050801561057e576040517f08c379a00000000000000000000000000000000000000000000000000000000081526004016105759061176a565b60405180910390fd5b600260003373ffffffffffffffffffffffffffffffffffffffff1673ffffffffffffffffffffffffffffffffffffffff1681526020019081526020016000206040518060e00160405280898152602001600081526020018881526020016000815260200187815260200160008152602001600115158152509080600181540180825580915050600190039060005260206000209060070201600090919091909150600082015181600001908051906020019061063b929190611141565b506020820151816001015560408201518160020155606082015181600301556080820151816004015560a0820151816005015560c08201518160060160006101000a81548160ff02191690831515021790555050506000600260003373ffffffffffffffffffffffffffffffffffffffff1673ffffffffffffffffffffffffffffffffffffffff1681526020019081526020016000208054905090507f0f3c6c8776f571e6ed7d0039f20d5affff551ad3999662338ac35c72d3ca2695888888843360405161070e95949392919061178a565b60405180910390a15050505050505050565b6060600080600080600080600260003373ffffffffffffffffffffffffffffffffffffffff1673ffffffffffffffffffffffffffffffffffffffff168152602001908152602001600020888154811061077c5761077b611657565b5b90600052602060002090600702016040518060e00160405290816000820180546107a5906116b5565b80601f01602080910402602001604051908101604052809291908181526020018280546107d1906116b5565b801561081e5780601f106107f35761010080835404028352916020019161081e565b820191906000526020600020905b81548152906001019060200180831161080157829003601f168201915b5050505050815260200160018201548152602001600282015481526020016003820154815260200160048201548152602001600582015481526020016006820160009054906101000a900460ff1615151515815250509050806000015181604001518260200151836060015184608001518560a001519650965096509650965096505091939550919395565b6108b2610ff6565b73ffffffffffffffffffffffffffffffffffffffff166108d0610ae1565b73ffffffffffffffffffffffffffffffffffffffff1614610926576040517f08c379a000000000000000000000000000000000000000000000000000000000815260040161091d90611830565b60405180910390fd5b600360003373ffffffffffffffffffffffffffffffffffffffff1673ffffffffffffffffffffffffffffffffffffffff16815260200190815260200160002060405180604001604052808481526020016001151581525090806001815401808255809150506001900390600052602060002090600202016000909190919091506000820151816000015560208201518160010160006101000a81548160ff02191690831515021790555050506000600360003373ffffffffffffffffffffffffffffffffffffffff1673ffffffffffffffffffffffffffffffffffffffff1681526020019081526020016000208054905090507fd2e2a5987d22e8d953aa469739cd4c650bbe42acfd0ca0cc77ae6a1d7c237ac6818484604051610a4c939291906116e7565b60405180910390a1505050565b610a61610ff6565b73ffffffffffffffffffffffffffffffffffffffff16610a7f610ae1565b73ffffffffffffffffffffffffffffffffffffffff1614610ad5576040517f08c379a0000000000000000000000000000000000000000000000000000000008152600401610acc90611830565b60405180910390fd5b610adf6000610ffe565b565b60008060009054906101000a900473ffffffffffffffffffffffffffffffffffffffff16905090565b610b12610ff6565b73ffffffffffffffffffffffffffffffffffffffff16610b30610ae1565b73ffffffffffffffffffffffffffffffffffffffff1614610b86576040517f08c379a0000000000000000000000000000000000000000000000000000000008152600401610b7d90611830565b60405180910390fd5b6000600260008373ffffffffffffffffffffffffffffffffffffffff1673ffffffffffffffffffffffffffffffffffffffff1681526020019081526020016000208481548110610bd957610bd8611657565b5b90600052602060002090600702016040518060e0016040529081600082018054610c02906116b5565b80601f0160208091040260200160405190810160405280929190818152602001828054610c2e906116b5565b8015610c7b5780601f10610c5057610100808354040283529160200191610c7b565b820191906000526020600020905b815481529060010190602001808311610c5e57829003601f168201915b5050505050815260200160018201548152602001600282015481526020016003820154815260200160048201548152602001600582015481526020016006820160009054906101000a900460ff1615151515815250509050610cdb6110c2565b81600001518160000181905250838160200181815250508160400151816040018181525050816060015181606001818152505081608001518160800181815250508160a001518160a00181815250508160c001518160c0019015159081151581525050600260008473ffffffffffffffffffffffffffffffffffffffff1673ffffffffffffffffffffffffffffffffffffffff1681526020019081526020016000208581548110610d8f57610d8e611657565b5b906000526020600020906007020160008082016000610dae9190611101565b600182016000905560028201600090556003820160009055600482016000905560058201600090556006820160006101000a81549060ff0219169055505080600260008573ffffffffffffffffffffffffffffffffffffffff1673ffffffffffffffffffffffffffffffffffffffff1681526020019081526020016000208681548110610e3e57610e3d611657565b5b90600052602060002090600702016000820151816000019080519060200190610e68929190611141565b506020820151816001015560408201518160020155606082015181600301556080820151816004015560a0820151816005015560c08201518160060160006101000a81548160ff0219169083151502179055509050507ff1dd0a35a62085f590bb0406bb495ab81f1d193d088515968caba48980556b738585604051610eef929190611850565b60405180910390a15050505050565b610f06610ff6565b73ffffffffffffffffffffffffffffffffffffffff16610f24610ae1565b73ffffffffffffffffffffffffffffffffffffffff1614610f7a576040517f08c379a0000000000000000000000000000000000000000000000000000000008152600401610f7190611830565b60405180910390fd5b600073ffffffffffffffffffffffffffffffffffffffff168173ffffffffffffffffffffffffffffffffffffffff161415610fea576040517f08c379a0000000000000000000000000000000000000000000000000000000008152600401610fe1906118eb565b60405180910390fd5b610ff381610ffe565b50565b600033905090565b60008060009054906101000a900473ffffffffffffffffffffffffffffffffffffffff169050816000806101000a81548173ffffffffffffffffffffffffffffffffffffffff021916908373ffffffffffffffffffffffffffffffffffffffff1602179055508173ffffffffffffffffffffffffffffffffffffffff168173ffffffffffffffffffffffffffffffffffffffff167f8be0079c531659141344cd1fd0a4f28419497f9722a3daafe3b4186f6b6457e060405160405180910390a35050565b6040518060e001604052806060815260200160008152602001600081526020016000815260200160008152602001600081526020016000151581525090565b50805461110d906116b5565b6000825580601f1061111f575061113e565b601f01602090049060005260206000209081019061113d91906111c7565b5b50565b82805461114d906116b5565b90600052602060002090601f01602090048101928261116f57600085556111b6565b82601f1061118857805160ff19168380011785556111b6565b828001600101855582156111b6579182015b828111156111b557825182559160200191906001019061119a565b5b5090506111c391906111c7565b5090565b5b808211156111e05760008160009055506001016111c8565b5090565b6000604051905090565b600080fd5b600080fd5b6000819050919050565b61120b816111f8565b811461121657600080fd5b50565b60008135905061122881611202565b92915050565b60008060408385031215611245576112446111ee565b5b600061125385828601611219565b925050602061126485828601611219565b9150509250929050565b600080fd5b600080fd5b6000601f19601f8301169050919050565b7f4e487b7100000000000000000000000000000000000000000000000000000000600052604160045260246000fd5b6112c182611278565b810181811067ffffffffffffffff821117156112e0576112df611289565b5b80604052505050565b60006112f36111e4565b90506112ff82826112b8565b919050565b600067ffffffffffffffff82111561131f5761131e611289565b5b61132882611278565b9050602081019050919050565b82818337600083830152505050565b600061135761135284611304565b6112e9565b90508281526020810184848401111561137357611372611273565b5b61137e848285611335565b509392505050565b600082601f83011261139b5761139a61126e565b5b81356113ab848260208601611344565b91505092915050565b6000806000606084860312156113cd576113cc6111ee565b5b600084013567ffffffffffffffff8111156113eb576113ea6111f3565b5b6113f786828701611386565b935050602061140886828701611219565b925050604061141986828701611219565b9150509250925092565b600060208284031215611439576114386111ee565b5b600061144784828501611219565b91505092915050565b600081519050919050565b600082825260208201905092915050565b60005b8381101561148a57808201518184015260208101905061146f565b83811115611499576000848401525b50505050565b60006114aa82611450565b6114b4818561145b565b93506114c481856020860161146c565b6114cd81611278565b840191505092915050565b6114e1816111f8565b82525050565b600060c0820190508181036000830152611501818961149f565b905061151060208301886114d8565b61151d60408301876114d8565b61152a60608301866114d8565b61153760808301856114d8565b61154460a08301846114d8565b979650505050505050565b600073ffffffffffffffffffffffffffffffffffffffff82169050919050565b600061157a8261154f565b9050919050565b61158a8161156f565b82525050565b60006020820190506115a56000830184611581565b92915050565b6115b48161156f565b81146115bf57600080fd5b50565b6000813590506115d1816115ab565b92915050565b6000806000606084860312156115f0576115ef6111ee565b5b60006115fe86828701611219565b935050602061160f86828701611219565b9250506040611620868287016115c2565b9150509250925092565b6000602082840312156116405761163f6111ee565b5b600061164e848285016115c2565b91505092915050565b7f4e487b7100000000000000000000000000000000000000000000000000000000600052603260045260246000fd5b7f4e487b7100000000000000000000000000000000000000000000000000000000600052602260045260246000fd5b600060028204905060018216806116cd57607f821691505b602082108114156116e1576116e0611686565b5b50919050565b60006060820190506116fc60008301866114d8565b61170960208301856114d8565b61171660408301846114d8565b949350505050565b7f696e666f726d6163616f20696e76616c69646100000000000000000000000000600082015250565b600061175460138361145b565b915061175f8261171e565b602082019050919050565b6000602082019050818103600083015261178381611747565b9050919050565b600060a08201905081810360008301526117a4818861149f565b90506117b360208301876114d8565b6117c060408301866114d8565b6117cd60608301856114d8565b6117da6080830184611581565b9695505050505050565b7f4f776e61626c653a2063616c6c6572206973206e6f7420746865206f776e6572600082015250565b600061181a60208361145b565b9150611825826117e4565b602082019050919050565b600060208201905081810360008301526118498161180d565b9050919050565b600060408201905061186560008301856114d8565b61187260208301846114d8565b9392505050565b7f4f776e61626c653a206e6577206f776e657220697320746865207a65726f206160008201527f6464726573730000000000000000000000000000000000000000000000000000602082015250565b60006118d560268361145b565b91506118e082611879565b604082019050919050565b60006020820190508181036000830152611904816118c8565b905091905056fea26469706673582212200b0f6560f65456762bf3e4fb2003a759049d0ab8d92ef3b1741577ee4111907564736f6c63430008090033",
  "immutableReferences": {},
  "source": "// SPDX-License-Identifier: MIT\r\npragma solidity >=0.6.0 <0.9.0;\r\n\r\nimport \"@openzeppelin/contracts/access/Ownable.sol\";\r\n\r\ncontract Store is Ownable {\r\n\taddress private _owner;\r\n\r\n    struct Order {\r\n\t\tstring ItemMenu;\r\n\t\tuint Price;\r\n\t\tuint Quantity;\t\t\r\n\t\tuint Payment;\r\n\t\tuint OrderDate;\r\n\t\tuint DeliveryDate;\r\n\t\tbool Created;\r\n\t}\r\n\tmapping (address => Order[]) _orders;\r\n\r\n    struct Invoice {\r\n\t\tuint orderIndex;\r\n\t\tbool Created;\r\n\t}\r\n\tmapping (address => Invoice[]) _invoices;\r\n    \r\n\tevent OrderDispatched(string itemMenu, uint quantity, uint orderDate, uint orderNumber, address customer);\r\n\tevent PriceSubmitted(uint orderNumber, uint orderPrice);     \r\n\tevent PaymentSent(uint orderNumber, uint payment, uint paymentDate);\r\n\tevent InvoiceSent(uint invoiceNumber, uint orderNumber, uint orderDate);\r\n\tevent OrderDelivered(uint invoiceNumber, uint orderNumber, uint actualDeliveryDate);\r\n\r\n    constructor() payable {\r\n\t\t_owner = msg.sender;\r\n\t}\r\n\r\n\t//TODO: - Criar modificador para validar a data/hora do pedido\r\n\r\n    modifier OnlyOrderValidInformation\r\n    (\r\n        string memory itemMenu,\r\n        uint quantity\r\n    )\r\n    {\r\n        bytes memory itemMenuTemp = bytes(itemMenu);\r\n\r\n        bool informacaoValida = itemMenuTemp.length == 0 || quantity == 0;\r\n        require(!informacaoValida, 'informacao invalida');\r\n        _;\r\n    }\r\n\r\n    function sendOrder\r\n\t(\r\n\t\tstring memory itemMenu,\r\n\t\tuint quantity,\r\n\t\tuint dateTime\r\n\t)\r\n\t\tpayable\r\n\t\tpublic\r\n\t\tOnlyOrderValidInformation(itemMenu, quantity)\r\n\t{\r\n\t\t_orders[msg.sender].push(Order({\r\n\t\t\tItemMenu: itemMenu,\r\n\t\t\tPrice: 0,\r\n\t\t\tQuantity: quantity,\r\n\t\t\tPayment: 0,\r\n\t\t\tOrderDate: dateTime,\r\n\t\t\tDeliveryDate: 0,\r\n\t\t\tCreated: true\r\n\t\t}));\r\n\r\n\t\tuint indexOrder = _orders[msg.sender].length;\r\n\r\n\t\temit OrderDispatched(itemMenu, quantity, dateTime, indexOrder, msg.sender);\r\n\t}\r\n\r\n    function checkOrder\r\n\t(\r\n\t\tuint index\r\n\t)\r\n\t\tpublic\r\n\t\tview\r\n\t\treturns (\r\n\t\t\tstring memory itemMenu,\r\n\t\t\tuint quantity,\r\n\t\t\tuint price,\r\n\t\t\tuint payment,\r\n\t\t\tuint orderDate,\r\n\t\t\tuint deliveryDate\r\n\t\t)\r\n\t{\r\n\t\tOrder memory order = _orders[msg.sender][index];\r\n\t\treturn(order.ItemMenu, order.Quantity, order.Price, order.Payment, order.OrderDate, order.DeliveryDate);\r\n\t}\r\n\r\n\r\n\tfunction sendPrice\r\n\t(\r\n\t\tuint index,\r\n\t\tuint price,\r\n\t\taddress customer\r\n\t)\r\n\t\tpublic\r\n\t\tonlyOwner\r\n\t\tpayable\r\n\t{\r\n\t\tOrder memory orderOld = _orders[customer][index];\r\n\t\tOrder memory orderUpdated;\r\n\r\n\t\torderUpdated.ItemMenu = orderOld.ItemMenu;\r\n\t\torderUpdated.Price = price;\r\n\t\torderUpdated.Quantity = orderOld.Quantity;\r\n\t\torderUpdated.Payment = orderOld.Payment;\r\n\t\torderUpdated.OrderDate = orderOld.OrderDate;\r\n\t\torderUpdated.DeliveryDate = orderOld.DeliveryDate;\r\n\t\torderUpdated.Created = orderOld.Created;\r\n\r\n\t\tdelete _orders[customer][index];\r\n\t\t_orders[customer][index] = orderUpdated;\r\n\r\n\t\temit PriceSubmitted(index, price);\r\n\t}\r\n\r\n    function sendPayment\r\n\t(\r\n\t\tuint index,\r\n\t\tuint paymentDate\r\n\t)\r\n\t\tpublic\r\n\t\tpayable\r\n\t{\r\n\t\tOrder memory orderOld = _orders[msg.sender][index];\r\n\t\tOrder memory orderUpdated;\r\n\r\n\t\torderUpdated.ItemMenu = orderOld.ItemMenu;\r\n\t\torderUpdated.Price = orderOld.Price;\r\n\t\torderUpdated.Quantity = orderOld.Quantity;\r\n\t\torderUpdated.Payment = msg.value;\r\n\t\torderUpdated.OrderDate = orderOld.OrderDate;\r\n\t\torderUpdated.DeliveryDate = orderOld.DeliveryDate;\r\n\t\torderUpdated.Created = orderOld.Created;\r\n\r\n\t\tdelete _orders[msg.sender][index];\r\n\t\t_orders[msg.sender][index] = orderUpdated;\t\t\r\n\r\n\t\temit PaymentSent(index, msg.value, paymentDate);\r\n\t}\r\n\r\n    function sendInvoice\r\n\t(\r\n\t\tuint index,\r\n\t\tuint orderDate\r\n\t)\r\n\t\tpublic\r\n\t\tonlyOwner\r\n\t\t// payable\r\n\t{\r\n\t\t_invoices[msg.sender].push(Invoice({\r\n\t\t\torderIndex: index,\r\n\t\t\tCreated: true\r\n\t\t}));\r\n\r\n\t\tuint invoiceIndex = _invoices[msg.sender].length;\r\n\r\n\t\temit InvoiceSent(invoiceIndex, index, orderDate);\r\n\t}\r\n\r\n\r\n\r\n\r\n\r\n\r\n\r\n    // function total()\r\n    //     public\r\n    //     view\r\n    //     returns (uint)\r\n    // {\r\n    //     return _orders[msg.sender].length;\r\n    // }\t\r\n\r\n    // function obterFatura\r\n\t// (\r\n\t// \tuint idFatura\r\n\t// )\r\n\t// \tpublic\r\n\t// \tview\r\n\t// \tFaturaExiste(idFatura)\r\n\t// \treturns (address cliente, uint idPedido, uint dataFatura)\r\n\t// {\r\n\t// \tFatura storage fatura = _faturas[idFatura];\r\n\t// \tPedido storage pedido = _pedidos[fatura.IdPedido];\r\n\t// \treturn (_cliente, pedido.Id, pedido.DataPedido);\r\n\t// }\r\n\r\n    // function MarcarPedidoEntregue\r\n\t// (\r\n\t// \tuint idFatura,\r\n\t// \tuint dataEntrega\r\n\t// )\r\n\t// \tpublic\r\n\t// \tSomenteCliente\r\n\t// \tFaturaExiste(idFatura)\r\n\t// \tpayable\r\n\t// {\r\n\t// \tFatura storage fatura = _faturas[idFatura];\r\n\t// \tPedido storage pedido = _pedidos[fatura.IdPedido];\r\n\t// \tpedido.DataEntrega = dataEntrega;\r\n\t// \tpayable(_dono).transfer(pedido.PagamentoSeguro);\r\n\t// \temit PedidoEntregue(_cliente, idFatura, pedido.Id, dataEntrega); \r\n\t// }    \r\n}",
  "sourcePath": "C:/Dev/Projetos/git/smart-contract/contracts/Store.sol",
  "compiler": {
    "name": "solc",
    "version": "0.8.9+commit.e5eed63a.Emscripten.clang"
  },
  "schemaVersion": "3.3.4",
  "updatedAt": "2021-10-21T16:10:21.549Z",
  "devdoc": {
    "kind": "dev",
    "methods": {
      "owner()": {
        "details": "Returns the address of the current owner."
      },
      "renounceOwnership()": {
        "details": "Leaves the contract without owner. It will not be possible to call `onlyOwner` functions anymore. Can only be called by the current owner. NOTE: Renouncing ownership will leave the contract without an owner, thereby removing any functionality that is only available to the owner."
      },
      "transferOwnership(address)": {
        "details": "Transfers ownership of the contract to a new account (`newOwner`). Can only be called by the current owner."
      }
    },
    "version": 1
  },
  "userdoc": {
    "kind": "user",
    "methods": {},
    "version": 1
  }
}