{
  "contractName": "Store",
  "abi": [
    {
      "inputs": [],
      "stateMutability": "payable",
      "type": "constructor"
    },
    {
      "anonymous": false,
      "inputs": [
        {
          "indexed": false,
          "internalType": "address",
          "name": "customer",
          "type": "address"
        },
        {
          "indexed": false,
          "internalType": "uint256",
          "name": "invoiceId",
          "type": "uint256"
        },
        {
          "indexed": false,
          "internalType": "uint256",
          "name": "orderId",
          "type": "uint256"
        },
        {
          "indexed": false,
          "internalType": "uint256",
          "name": "deliveryDate",
          "type": "uint256"
        }
      ],
      "name": "InvoiceSent",
      "type": "event"
    },
    {
      "anonymous": false,
      "inputs": [
        {
          "indexed": false,
          "internalType": "address",
          "name": "customer",
          "type": "address"
        },
        {
          "indexed": false,
          "internalType": "uint256",
          "name": "invoiceId",
          "type": "uint256"
        },
        {
          "indexed": false,
          "internalType": "uint256",
          "name": "orderId",
          "type": "uint256"
        },
        {
          "indexed": false,
          "internalType": "uint256",
          "name": "actualDeliveryDate",
          "type": "uint256"
        }
      ],
      "name": "OrderDelivered",
      "type": "event"
    },
    {
      "anonymous": false,
      "inputs": [
        {
          "indexed": false,
          "internalType": "address",
          "name": "customer",
          "type": "address"
        },
        {
          "indexed": false,
          "internalType": "string",
          "name": "itemMenu",
          "type": "string"
        },
        {
          "indexed": false,
          "internalType": "uint256",
          "name": "quantity",
          "type": "uint256"
        },
        {
          "indexed": false,
          "internalType": "uint256",
          "name": "orderId",
          "type": "uint256"
        }
      ],
      "name": "OrderDispatched",
      "type": "event"
    },
    {
      "anonymous": false,
      "inputs": [
        {
          "indexed": true,
          "internalType": "address",
          "name": "previousOwner",
          "type": "address"
        },
        {
          "indexed": true,
          "internalType": "address",
          "name": "newOwner",
          "type": "address"
        }
      ],
      "name": "OwnershipTransferred",
      "type": "event"
    },
    {
      "anonymous": false,
      "inputs": [
        {
          "indexed": false,
          "internalType": "address",
          "name": "customer",
          "type": "address"
        },
        {
          "indexed": false,
          "internalType": "uint256",
          "name": "orderId",
          "type": "uint256"
        },
        {
          "indexed": false,
          "internalType": "uint256",
          "name": "value",
          "type": "uint256"
        },
        {
          "indexed": false,
          "internalType": "uint256",
          "name": "now",
          "type": "uint256"
        }
      ],
      "name": "PaymentSent",
      "type": "event"
    },
    {
      "anonymous": false,
      "inputs": [
        {
          "indexed": false,
          "internalType": "address",
          "name": "customer",
          "type": "address"
        },
        {
          "indexed": false,
          "internalType": "uint256",
          "name": "itemMenu",
          "type": "uint256"
        },
        {
          "indexed": false,
          "internalType": "uint256",
          "name": "price",
          "type": "uint256"
        }
      ],
      "name": "PriceSubmitted",
      "type": "event"
    },
    {
      "inputs": [],
      "name": "_owner",
      "outputs": [
        {
          "internalType": "address",
          "name": "",
          "type": "address"
        }
      ],
      "stateMutability": "view",
      "type": "function"
    },
    {
      "inputs": [],
      "name": "owner",
      "outputs": [
        {
          "internalType": "address",
          "name": "",
          "type": "address"
        }
      ],
      "stateMutability": "view",
      "type": "function"
    },
    {
      "inputs": [],
      "name": "renounceOwnership",
      "outputs": [],
      "stateMutability": "nonpayable",
      "type": "function"
    },
    {
      "inputs": [
        {
          "internalType": "address",
          "name": "newOwner",
          "type": "address"
        }
      ],
      "name": "transferOwnership",
      "outputs": [],
      "stateMutability": "nonpayable",
      "type": "function"
    },
    {
      "inputs": [
        {
          "internalType": "string",
          "name": "itemMenu",
          "type": "string"
        },
        {
          "internalType": "uint256",
          "name": "quantity",
          "type": "uint256"
        }
      ],
      "name": "sendOrder",
      "outputs": [],
      "stateMutability": "payable",
      "type": "function"
    }
  ],
  "bytecode": "0x608060405261002061001561006660201b60201c565b61006e60201b60201c565b33600360006101000a81548173ffffffffffffffffffffffffffffffffffffffff021916908373ffffffffffffffffffffffffffffffffffffffff160217905550610132565b600033905090565b60008060009054906101000a900473ffffffffffffffffffffffffffffffffffffffff169050816000806101000a81548173ffffffffffffffffffffffffffffffffffffffff021916908373ffffffffffffffffffffffffffffffffffffffff1602179055508173ffffffffffffffffffffffffffffffffffffffff168173ffffffffffffffffffffffffffffffffffffffff167f8be0079c531659141344cd1fd0a4f28419497f9722a3daafe3b4186f6b6457e060405160405180910390a35050565b610b71806101416000396000f3fe60806040526004361061004a5760003560e01c8063715018a61461004f5780638da5cb5b146100665780639670d69914610091578063b2bdfa7b146100ad578063f2fde38b146100d8575b600080fd5b34801561005b57600080fd5b50610064610101565b005b34801561007257600080fd5b5061007b610189565b604051610088919061062d565b60405180910390f35b6100ab60048036038101906100a691906107d8565b6101b2565b005b3480156100b957600080fd5b506100c261033b565b6040516100cf919061062d565b60405180910390f35b3480156100e457600080fd5b506100ff60048036038101906100fa9190610860565b610361565b005b610109610459565b73ffffffffffffffffffffffffffffffffffffffff16610127610189565b73ffffffffffffffffffffffffffffffffffffffff161461017d576040517f08c379a0000000000000000000000000000000000000000000000000000000008152600401610174906108ea565b60405180910390fd5b6101876000610461565b565b60008060009054906101000a900473ffffffffffffffffffffffffffffffffffffffff16905090565b81816000829050600080825114806101ca5750600083145b9050801561020d576040517f08c379a000000000000000000000000000000000000000000000000000000000815260040161020490610956565b60405180910390fd5b6102176001610525565b6000610223600161053b565b905060405180610100016040528082815260200188815260200187815260200160008152602001600081526020016000815260200160008152602001600115158152506004600083815260200190815260200160002060008201518160000155602082015181600101908051906020019061029f929190610549565b5060408201518160020155606082015181600301556080820151816004015560a0820151816005015560c0820151816006015560e08201518160070160006101000a81548160ff0219169083151502179055509050507f31c0d602875fa9b78d300f0f0178baaafae4ac3a616bff6b70f81e933da608b83388888460405161032a94939291906109fc565b60405180910390a150505050505050565b600360009054906101000a900473ffffffffffffffffffffffffffffffffffffffff1681565b610369610459565b73ffffffffffffffffffffffffffffffffffffffff16610387610189565b73ffffffffffffffffffffffffffffffffffffffff16146103dd576040517f08c379a00000000000000000000000000000000000000000000000000000000081526004016103d4906108ea565b60405180910390fd5b600073ffffffffffffffffffffffffffffffffffffffff168173ffffffffffffffffffffffffffffffffffffffff16141561044d576040517f08c379a000000000000000000000000000000000000000000000000000000000815260040161044490610aba565b60405180910390fd5b61045681610461565b50565b600033905090565b60008060009054906101000a900473ffffffffffffffffffffffffffffffffffffffff169050816000806101000a81548173ffffffffffffffffffffffffffffffffffffffff021916908373ffffffffffffffffffffffffffffffffffffffff1602179055508173ffffffffffffffffffffffffffffffffffffffff168173ffffffffffffffffffffffffffffffffffffffff167f8be0079c531659141344cd1fd0a4f28419497f9722a3daafe3b4186f6b6457e060405160405180910390a35050565b6001816000016000828254019250508190555050565b600081600001549050919050565b82805461055590610b09565b90600052602060002090601f01602090048101928261057757600085556105be565b82601f1061059057805160ff19168380011785556105be565b828001600101855582156105be579182015b828111156105bd5782518255916020019190600101906105a2565b5b5090506105cb91906105cf565b5090565b5b808211156105e85760008160009055506001016105d0565b5090565b600073ffffffffffffffffffffffffffffffffffffffff82169050919050565b6000610617826105ec565b9050919050565b6106278161060c565b82525050565b6000602082019050610642600083018461061e565b92915050565b6000604051905090565b600080fd5b600080fd5b600080fd5b600080fd5b6000601f19601f8301169050919050565b7f4e487b7100000000000000000000000000000000000000000000000000000000600052604160045260246000fd5b6106af82610666565b810181811067ffffffffffffffff821117156106ce576106cd610677565b5b80604052505050565b60006106e1610648565b90506106ed82826106a6565b919050565b600067ffffffffffffffff82111561070d5761070c610677565b5b61071682610666565b9050602081019050919050565b82818337600083830152505050565b6000610745610740846106f2565b6106d7565b90508281526020810184848401111561076157610760610661565b5b61076c848285610723565b509392505050565b600082601f8301126107895761078861065c565b5b8135610799848260208601610732565b91505092915050565b6000819050919050565b6107b5816107a2565b81146107c057600080fd5b50565b6000813590506107d2816107ac565b92915050565b600080604083850312156107ef576107ee610652565b5b600083013567ffffffffffffffff81111561080d5761080c610657565b5b61081985828601610774565b925050602061082a858286016107c3565b9150509250929050565b61083d8161060c565b811461084857600080fd5b50565b60008135905061085a81610834565b92915050565b60006020828403121561087657610875610652565b5b60006108848482850161084b565b91505092915050565b600082825260208201905092915050565b7f4f776e61626c653a2063616c6c6572206973206e6f7420746865206f776e6572600082015250565b60006108d460208361088d565b91506108df8261089e565b602082019050919050565b60006020820190508181036000830152610903816108c7565b9050919050565b7f696e666f726d6163616f20696e76616c69646100000000000000000000000000600082015250565b600061094060138361088d565b915061094b8261090a565b602082019050919050565b6000602082019050818103600083015261096f81610933565b9050919050565b600081519050919050565b60005b8381101561099f578082015181840152602081019050610984565b838111156109ae576000848401525b50505050565b60006109bf82610976565b6109c9818561088d565b93506109d9818560208601610981565b6109e281610666565b840191505092915050565b6109f6816107a2565b82525050565b6000608082019050610a11600083018761061e565b8181036020830152610a2381866109b4565b9050610a3260408301856109ed565b610a3f60608301846109ed565b95945050505050565b7f4f776e61626c653a206e6577206f776e657220697320746865207a65726f206160008201527f6464726573730000000000000000000000000000000000000000000000000000602082015250565b6000610aa460268361088d565b9150610aaf82610a48565b604082019050919050565b60006020820190508181036000830152610ad381610a97565b9050919050565b7f4e487b7100000000000000000000000000000000000000000000000000000000600052602260045260246000fd5b60006002820490506001821680610b2157607f821691505b60208210811415610b3557610b34610ada565b5b5091905056fea2646970667358221220974c5b8fa2d332d986f989b19e99ce4808b6b97527c4c803cc582bf65c1a537a64736f6c63430008090033",
  "immutableReferences": {},
  "source": "// SPDX-License-Identifier: MIT\r\npragma solidity >=0.4.22 <0.9.0;\r\n\r\nimport \"@openzeppelin/contracts/access/Ownable.sol\";\r\nimport \"@openzeppelin/contracts/utils/Counters.sol\";\r\n\r\ncontract Store is Ownable {\r\n\tusing Counters for Counters.Counter;\r\n    Counters.Counter private _orderSeq;\r\n\tCounters.Counter private _invoiceSeq;\r\n\r\n    address public _owner;\r\n\r\n\tstruct ItemMenu {\r\n\t\tuint Id;\r\n\t}\r\n\r\n    struct Order {\r\n\t\tuint Id;\r\n\t\tstring ItemMenu;\r\n\t\tuint Quantity;\t\t\r\n\t\tuint Price;\r\n\t\tuint Payment;\r\n\t\tuint OrderDate;\r\n\t\tuint DeliveryDate;\r\n\t\tbool Created;\r\n\t}\r\n\r\n    struct Invoice {\r\n\t\tuint Id;\r\n\t\tuint OrderId;\r\n\t\tbool Created;\r\n\t}\r\n\r\n\tmapping (uint => Order) _orders;\r\n\tmapping (uint => Invoice) _invoices;\r\n    \r\n\tevent OrderDispatched(address customer, string itemMenu, uint quantity, uint orderId);\r\n\tevent PriceSubmitted(address customer, uint itemMenu, uint price);     \r\n\tevent PaymentSent(address customer, uint orderId, uint value, uint now);\r\n\tevent InvoiceSent(address customer, uint invoiceId, uint orderId, uint deliveryDate);\r\n\tevent OrderDelivered(address customer, uint invoiceId, uint orderId, uint actualDeliveryDate);\r\n\r\n    constructor() payable {\r\n\t\t_owner = msg.sender;\r\n\t}\r\n\r\n    modifier OnlyOrderValidInformation\r\n    (\r\n        string memory itemMenu,\r\n        uint quantity\r\n    )\r\n    {\r\n        bytes memory itemMenuTemp = bytes(itemMenu);\r\n\r\n        bool informacaoValida = itemMenuTemp.length == 0 || quantity == 0;\r\n        require(!informacaoValida, 'informacao invalida');\r\n        _;\r\n    }\r\n\r\n\tmodifier OnlyExistingOrder(uint id) {\r\n\t\trequire(_orders[id].Created,\"pedido nao existe\");\r\n\t\t_;\r\n\t}\r\n\r\n\tmodifier OnlyExistingInvoice(uint id) {\r\n\t\trequire(\r\n\t\t\t_invoices[id].Created,\"fatura nao existe\");\r\n\t\t_;\r\n\t}\t\r\n\r\n    function sendOrder\r\n\t(\r\n\t\tstring memory itemMenu,\r\n\t\tuint quantity\r\n\t)\r\n\t\tpayable\r\n\t\tpublic\r\n\t\tOnlyOrderValidInformation(itemMenu, quantity)\r\n\t{\r\n\t\t_orderSeq.increment();\r\n\t\tuint256 newOrderId = _orderSeq.current();\r\n\r\n\t\t_orders[newOrderId] = Order(newOrderId, itemMenu, quantity, 0, 0, 0, 0, true);\r\n\t\temit OrderDispatched(msg.sender, itemMenu, quantity, newOrderId);\r\n\t}\r\n\r\n    // function verificarPedido\r\n\t// (\r\n\t// \tuint idPedido\r\n\t// )\r\n\t// \tview\r\n\t// \tpublic\r\n\t// \tPedidoExiste(idPedido)\r\n\t// \treturns (address cliente, string memory itemMenu, uint quantidade, uint preco, uint pagmentoSeguro) {\t\t\r\n\t// \treturn(\r\n\t// \t\t_cliente,\r\n\t// \t\t_pedidos[idPedido].ItemMenu,\r\n\t// \t\t_pedidos[idPedido].Quantidade,\r\n\t// \t\t_pedidos[idPedido].Preco,\r\n\t// \t\t_pedidos[idPedido].PagamentoSeguro\r\n\t// \t\t);\r\n\t// }\r\n\r\n\t// function enviarPreco\r\n\t// (\r\n\t// \tuint idPedido,\r\n\t// \tuint preco\r\n\t// )\r\n\t// \tpublic\r\n\t// \tonlyOwner\r\n\t// \tPedidoExiste(idPedido)\r\n\t// \tpayable\r\n\t// {\r\n\t// \t_pedidos[idPedido].Preco = preco;\r\n\t// \temit PrecoEnviado(_cliente, idPedido, preco);\r\n\t// }\r\n\r\n    // function enviarPagamentoSeguro\r\n\t// (\r\n\t// \tuint idPedido\r\n\t// )\r\n\t// \tpublic\r\n\t// \tSomenteCliente\r\n\t// \tPedidoExiste(idPedido)\r\n\t// \tpayable\r\n\t// {\r\n\t// \t_pedidos[idPedido].PagamentoSeguro = msg.value;\r\n\t// \temit PagamentoSeguroEnviado(msg.sender, idPedido, msg.value, block.timestamp);\r\n\t// }\r\n\r\n    // function enviarFatura\r\n\t// (\r\n\t// \tuint idPedido,\r\n\t// \tuint dataPedido\r\n\t// )\r\n\t// \tpublic\r\n\t// \tonlyOwner\r\n\t// \tPedidoExiste(idPedido)\r\n\t// \tpayable\r\n\t// {\r\n\t// \t_sequencialFatura++;\r\n\t// \t_faturas[_sequencialFatura] = Fatura(_sequencialFatura, idPedido, true);\r\n\t// \t_pedidos[idPedido].DataPedido = dataPedido;\r\n\t// \temit FaturaEnviada(_cliente, _sequencialFatura, idPedido, dataPedido);\r\n\t// }\r\n\r\n    // function obterFatura\r\n\t// (\r\n\t// \tuint idFatura\r\n\t// )\r\n\t// \tpublic\r\n\t// \tview\r\n\t// \tFaturaExiste(idFatura)\r\n\t// \treturns (address cliente, uint idPedido, uint dataFatura)\r\n\t// {\r\n\t// \tFatura storage fatura = _faturas[idFatura];\r\n\t// \tPedido storage pedido = _pedidos[fatura.IdPedido];\r\n\t// \treturn (_cliente, pedido.Id, pedido.DataPedido);\r\n\t// }\r\n\r\n    // function MarcarPedidoEntregue\r\n\t// (\r\n\t// \tuint idFatura,\r\n\t// \tuint dataEntrega\r\n\t// )\r\n\t// \tpublic\r\n\t// \tSomenteCliente\r\n\t// \tFaturaExiste(idFatura)\r\n\t// \tpayable\r\n\t// {\r\n\t// \tFatura storage fatura = _faturas[idFatura];\r\n\t// \tPedido storage pedido = _pedidos[fatura.IdPedido];\r\n\t// \tpedido.DataEntrega = dataEntrega;\r\n\t// \tpayable(_dono).transfer(pedido.PagamentoSeguro);\r\n\t// \temit PedidoEntregue(_cliente, idFatura, pedido.Id, dataEntrega); \r\n\t// }    \r\n}",
  "sourcePath": "C:/Dev/Projetos/git/smart-contract/contracts/Store.sol",
  "compiler": {
    "name": "solc",
    "version": "0.8.9+commit.e5eed63a.Emscripten.clang"
  },
  "schemaVersion": "3.3.4",
  "updatedAt": "2021-10-19T15:00:46.020Z",
  "devdoc": {
    "kind": "dev",
    "methods": {
      "owner()": {
        "details": "Returns the address of the current owner."
      },
      "renounceOwnership()": {
        "details": "Leaves the contract without owner. It will not be possible to call `onlyOwner` functions anymore. Can only be called by the current owner. NOTE: Renouncing ownership will leave the contract without an owner, thereby removing any functionality that is only available to the owner."
      },
      "transferOwnership(address)": {
        "details": "Transfers ownership of the contract to a new account (`newOwner`). Can only be called by the current owner."
      }
    },
    "version": 1
  },
  "userdoc": {
    "kind": "user",
    "methods": {},
    "version": 1
  }
}