{
  "contractName": "Store",
  "abi": [
    {
      "inputs": [],
      "stateMutability": "payable",
      "type": "constructor"
    },
    {
      "anonymous": false,
      "inputs": [
        {
          "indexed": false,
          "internalType": "uint256",
          "name": "invoiceNumber",
          "type": "uint256"
        },
        {
          "indexed": false,
          "internalType": "uint256",
          "name": "orderNumber",
          "type": "uint256"
        },
        {
          "indexed": false,
          "internalType": "uint256",
          "name": "deliveryDate",
          "type": "uint256"
        }
      ],
      "name": "InvoiceSent",
      "type": "event"
    },
    {
      "anonymous": false,
      "inputs": [
        {
          "indexed": false,
          "internalType": "uint256",
          "name": "invoiceNumber",
          "type": "uint256"
        },
        {
          "indexed": false,
          "internalType": "uint256",
          "name": "orderNumber",
          "type": "uint256"
        },
        {
          "indexed": false,
          "internalType": "uint256",
          "name": "actualDeliveryDate",
          "type": "uint256"
        }
      ],
      "name": "OrderDelivered",
      "type": "event"
    },
    {
      "anonymous": false,
      "inputs": [
        {
          "indexed": false,
          "internalType": "string",
          "name": "itemMenu",
          "type": "string"
        },
        {
          "indexed": false,
          "internalType": "uint256",
          "name": "quantity",
          "type": "uint256"
        },
        {
          "indexed": false,
          "internalType": "uint256",
          "name": "orderDate",
          "type": "uint256"
        },
        {
          "indexed": false,
          "internalType": "uint256",
          "name": "orderNumber",
          "type": "uint256"
        },
        {
          "indexed": false,
          "internalType": "address",
          "name": "customer",
          "type": "address"
        }
      ],
      "name": "OrderDispatched",
      "type": "event"
    },
    {
      "anonymous": false,
      "inputs": [
        {
          "indexed": true,
          "internalType": "address",
          "name": "previousOwner",
          "type": "address"
        },
        {
          "indexed": true,
          "internalType": "address",
          "name": "newOwner",
          "type": "address"
        }
      ],
      "name": "OwnershipTransferred",
      "type": "event"
    },
    {
      "anonymous": false,
      "inputs": [
        {
          "indexed": false,
          "internalType": "uint256",
          "name": "orderNumber",
          "type": "uint256"
        },
        {
          "indexed": false,
          "internalType": "uint256",
          "name": "payment",
          "type": "uint256"
        },
        {
          "indexed": false,
          "internalType": "uint256",
          "name": "paymentDate",
          "type": "uint256"
        }
      ],
      "name": "PaymentSent",
      "type": "event"
    },
    {
      "anonymous": false,
      "inputs": [
        {
          "indexed": false,
          "internalType": "uint256",
          "name": "orderNumber",
          "type": "uint256"
        },
        {
          "indexed": false,
          "internalType": "uint256",
          "name": "orderPrice",
          "type": "uint256"
        }
      ],
      "name": "PriceSubmitted",
      "type": "event"
    },
    {
      "inputs": [],
      "name": "owner",
      "outputs": [
        {
          "internalType": "address",
          "name": "",
          "type": "address"
        }
      ],
      "stateMutability": "view",
      "type": "function"
    },
    {
      "inputs": [],
      "name": "renounceOwnership",
      "outputs": [],
      "stateMutability": "nonpayable",
      "type": "function"
    },
    {
      "inputs": [
        {
          "internalType": "address",
          "name": "newOwner",
          "type": "address"
        }
      ],
      "name": "transferOwnership",
      "outputs": [],
      "stateMutability": "nonpayable",
      "type": "function"
    },
    {
      "inputs": [
        {
          "internalType": "string",
          "name": "itemMenu",
          "type": "string"
        },
        {
          "internalType": "uint256",
          "name": "quantity",
          "type": "uint256"
        },
        {
          "internalType": "uint256",
          "name": "dateTime",
          "type": "uint256"
        }
      ],
      "name": "sendOrder",
      "outputs": [],
      "stateMutability": "payable",
      "type": "function"
    },
    {
      "inputs": [
        {
          "internalType": "uint256",
          "name": "index",
          "type": "uint256"
        }
      ],
      "name": "checkOrder",
      "outputs": [
        {
          "internalType": "string",
          "name": "itemMenu",
          "type": "string"
        },
        {
          "internalType": "uint256",
          "name": "quantity",
          "type": "uint256"
        },
        {
          "internalType": "uint256",
          "name": "price",
          "type": "uint256"
        },
        {
          "internalType": "uint256",
          "name": "payment",
          "type": "uint256"
        },
        {
          "internalType": "uint256",
          "name": "orderDate",
          "type": "uint256"
        },
        {
          "internalType": "uint256",
          "name": "deliveryDate",
          "type": "uint256"
        }
      ],
      "stateMutability": "view",
      "type": "function"
    },
    {
      "inputs": [
        {
          "internalType": "uint256",
          "name": "index",
          "type": "uint256"
        },
        {
          "internalType": "uint256",
          "name": "price",
          "type": "uint256"
        },
        {
          "internalType": "address",
          "name": "customer",
          "type": "address"
        }
      ],
      "name": "sendPrice",
      "outputs": [],
      "stateMutability": "payable",
      "type": "function"
    },
    {
      "inputs": [
        {
          "internalType": "uint256",
          "name": "index",
          "type": "uint256"
        },
        {
          "internalType": "uint256",
          "name": "paymentDate",
          "type": "uint256"
        }
      ],
      "name": "sendPayment",
      "outputs": [],
      "stateMutability": "payable",
      "type": "function"
    },
    {
      "inputs": [],
      "name": "total",
      "outputs": [
        {
          "internalType": "uint256",
          "name": "",
          "type": "uint256"
        }
      ],
      "stateMutability": "view",
      "type": "function"
    }
  ],
  "bytecode": "0x608060405261002061001561006660201b60201c565b61006e60201b60201c565b33600160006101000a81548173ffffffffffffffffffffffffffffffffffffffff021916908373ffffffffffffffffffffffffffffffffffffffff160217905550610132565b600033905090565b60008060009054906101000a900473ffffffffffffffffffffffffffffffffffffffff169050816000806101000a81548173ffffffffffffffffffffffffffffffffffffffff021916908373ffffffffffffffffffffffffffffffffffffffff1602179055508173ffffffffffffffffffffffffffffffffffffffff168173ffffffffffffffffffffffffffffffffffffffff167f8be0079c531659141344cd1fd0a4f28419497f9722a3daafe3b4186f6b6457e060405160405180910390a35050565b6117f9806101416000396000f3fe60806040526004361061007b5760003560e01c8063715018a61161004e578063715018a6146101255780638da5cb5b1461013c578063a03b19a114610167578063f2fde38b146101835761007b565b80632068eee4146100805780632ddbd13a1461009c5780633e4894d3146100c757806348efc672146100e3575b600080fd5b61009a600480360381019061009591906110cb565b6101ac565b005b3480156100a857600080fd5b506100b1610525565b6040516100be919061111a565b60405180910390f35b6100e160048036038101906100dc919061127b565b61056f565b005b3480156100ef57600080fd5b5061010a600480360381019061010591906112ea565b61076c565b60405161011c9695949392919061139f565b60405180910390f35b34801561013157600080fd5b5061013a6108f6565b005b34801561014857600080fd5b5061015161097e565b60405161015e9190611448565b60405180910390f35b610181600480360381019061017c919061148f565b6109a7565b005b34801561018f57600080fd5b506101aa60048036038101906101a591906114e2565b610d9b565b005b6000600260003373ffffffffffffffffffffffffffffffffffffffff1673ffffffffffffffffffffffffffffffffffffffff16815260200190815260200160002083815481106101ff576101fe61150f565b5b90600052602060002090600702016040518060e00160405290816000820180546102289061156d565b80601f01602080910402602001604051908101604052809291908181526020018280546102549061156d565b80156102a15780601f10610276576101008083540402835291602001916102a1565b820191906000526020600020905b81548152906001019060200180831161028457829003601f168201915b5050505050815260200160018201548152602001600282015481526020016003820154815260200160048201548152602001600582015481526020016006820160009054906101000a900460ff1615151515815250509050610301610f5f565b81600001518160000181905250816020015181602001818152505081604001518160400181815250503481606001818152505081608001518160800181815250508160a001518160a00181815250508160c001518160c0019015159081151581525050600260003373ffffffffffffffffffffffffffffffffffffffff1673ffffffffffffffffffffffffffffffffffffffff16815260200190815260200160002084815481106103b5576103b461150f565b5b9060005260206000209060070201600080820160006103d49190610f9e565b600182016000905560028201600090556003820160009055600482016000905560058201600090556006820160006101000a81549060ff0219169055505080600260003373ffffffffffffffffffffffffffffffffffffffff1673ffffffffffffffffffffffffffffffffffffffff16815260200190815260200160002085815481106104645761046361150f565b5b9060005260206000209060070201600082015181600001908051906020019061048e929190610fde565b506020820151816001015560408201518160020155606082015181600301556080820151816004015560a0820151816005015560c08201518160060160006101000a81548160ff0219169083151502179055509050507fcffafba552dc166088a32e7bd805ab2313405094f66efccd4fea2631bcc959458434856040516105179392919061159f565b60405180910390a150505050565b6000600260003373ffffffffffffffffffffffffffffffffffffffff1673ffffffffffffffffffffffffffffffffffffffff16815260200190815260200160002080549050905090565b82826000829050600080825114806105875750600083145b905080156105ca576040517f08c379a00000000000000000000000000000000000000000000000000000000081526004016105c190611622565b60405180910390fd5b600260003373ffffffffffffffffffffffffffffffffffffffff1673ffffffffffffffffffffffffffffffffffffffff1681526020019081526020016000206040518060e001604052808981526020016000815260200188815260200160008152602001878152602001600081526020016001151581525090806001815401808255809150506001900390600052602060002090600702016000909190919091506000820151816000019080519060200190610687929190610fde565b506020820151816001015560408201518160020155606082015181600301556080820151816004015560a0820151816005015560c08201518160060160006101000a81548160ff02191690831515021790555050506000600260003373ffffffffffffffffffffffffffffffffffffffff1673ffffffffffffffffffffffffffffffffffffffff1681526020019081526020016000208054905090507f0f3c6c8776f571e6ed7d0039f20d5affff551ad3999662338ac35c72d3ca2695888888843360405161075a959493929190611642565b60405180910390a15050505050505050565b6060600080600080600080600260003373ffffffffffffffffffffffffffffffffffffffff1673ffffffffffffffffffffffffffffffffffffffff16815260200190815260200160002088815481106107c8576107c761150f565b5b90600052602060002090600702016040518060e00160405290816000820180546107f19061156d565b80601f016020809104026020016040519081016040528092919081815260200182805461081d9061156d565b801561086a5780601f1061083f5761010080835404028352916020019161086a565b820191906000526020600020905b81548152906001019060200180831161084d57829003601f168201915b5050505050815260200160018201548152602001600282015481526020016003820154815260200160048201548152602001600582015481526020016006820160009054906101000a900460ff1615151515815250509050806000015181604001518260200151836060015184608001518560a001519650965096509650965096505091939550919395565b6108fe610e93565b73ffffffffffffffffffffffffffffffffffffffff1661091c61097e565b73ffffffffffffffffffffffffffffffffffffffff1614610972576040517f08c379a0000000000000000000000000000000000000000000000000000000008152600401610969906116e8565b60405180910390fd5b61097c6000610e9b565b565b60008060009054906101000a900473ffffffffffffffffffffffffffffffffffffffff16905090565b6109af610e93565b73ffffffffffffffffffffffffffffffffffffffff166109cd61097e565b73ffffffffffffffffffffffffffffffffffffffff1614610a23576040517f08c379a0000000000000000000000000000000000000000000000000000000008152600401610a1a906116e8565b60405180910390fd5b6000600260008373ffffffffffffffffffffffffffffffffffffffff1673ffffffffffffffffffffffffffffffffffffffff1681526020019081526020016000208481548110610a7657610a7561150f565b5b90600052602060002090600702016040518060e0016040529081600082018054610a9f9061156d565b80601f0160208091040260200160405190810160405280929190818152602001828054610acb9061156d565b8015610b185780601f10610aed57610100808354040283529160200191610b18565b820191906000526020600020905b815481529060010190602001808311610afb57829003601f168201915b5050505050815260200160018201548152602001600282015481526020016003820154815260200160048201548152602001600582015481526020016006820160009054906101000a900460ff1615151515815250509050610b78610f5f565b81600001518160000181905250838160200181815250508160400151816040018181525050816060015181606001818152505081608001518160800181815250508160a001518160a00181815250508160c001518160c0019015159081151581525050600260008473ffffffffffffffffffffffffffffffffffffffff1673ffffffffffffffffffffffffffffffffffffffff1681526020019081526020016000208581548110610c2c57610c2b61150f565b5b906000526020600020906007020160008082016000610c4b9190610f9e565b600182016000905560028201600090556003820160009055600482016000905560058201600090556006820160006101000a81549060ff0219169055505080600260008573ffffffffffffffffffffffffffffffffffffffff1673ffffffffffffffffffffffffffffffffffffffff1681526020019081526020016000208681548110610cdb57610cda61150f565b5b90600052602060002090600702016000820151816000019080519060200190610d05929190610fde565b506020820151816001015560408201518160020155606082015181600301556080820151816004015560a0820151816005015560c08201518160060160006101000a81548160ff0219169083151502179055509050507ff1dd0a35a62085f590bb0406bb495ab81f1d193d088515968caba48980556b738585604051610d8c929190611708565b60405180910390a15050505050565b610da3610e93565b73ffffffffffffffffffffffffffffffffffffffff16610dc161097e565b73ffffffffffffffffffffffffffffffffffffffff1614610e17576040517f08c379a0000000000000000000000000000000000000000000000000000000008152600401610e0e906116e8565b60405180910390fd5b600073ffffffffffffffffffffffffffffffffffffffff168173ffffffffffffffffffffffffffffffffffffffff161415610e87576040517f08c379a0000000000000000000000000000000000000000000000000000000008152600401610e7e906117a3565b60405180910390fd5b610e9081610e9b565b50565b600033905090565b60008060009054906101000a900473ffffffffffffffffffffffffffffffffffffffff169050816000806101000a81548173ffffffffffffffffffffffffffffffffffffffff021916908373ffffffffffffffffffffffffffffffffffffffff1602179055508173ffffffffffffffffffffffffffffffffffffffff168173ffffffffffffffffffffffffffffffffffffffff167f8be0079c531659141344cd1fd0a4f28419497f9722a3daafe3b4186f6b6457e060405160405180910390a35050565b6040518060e001604052806060815260200160008152602001600081526020016000815260200160008152602001600081526020016000151581525090565b508054610faa9061156d565b6000825580601f10610fbc5750610fdb565b601f016020900490600052602060002090810190610fda9190611064565b5b50565b828054610fea9061156d565b90600052602060002090601f01602090048101928261100c5760008555611053565b82601f1061102557805160ff1916838001178555611053565b82800160010185558215611053579182015b82811115611052578251825591602001919060010190611037565b5b5090506110609190611064565b5090565b5b8082111561107d576000816000905550600101611065565b5090565b6000604051905090565b600080fd5b600080fd5b6000819050919050565b6110a881611095565b81146110b357600080fd5b50565b6000813590506110c58161109f565b92915050565b600080604083850312156110e2576110e161108b565b5b60006110f0858286016110b6565b9250506020611101858286016110b6565b9150509250929050565b61111481611095565b82525050565b600060208201905061112f600083018461110b565b92915050565b600080fd5b600080fd5b6000601f19601f8301169050919050565b7f4e487b7100000000000000000000000000000000000000000000000000000000600052604160045260246000fd5b6111888261113f565b810181811067ffffffffffffffff821117156111a7576111a6611150565b5b80604052505050565b60006111ba611081565b90506111c6828261117f565b919050565b600067ffffffffffffffff8211156111e6576111e5611150565b5b6111ef8261113f565b9050602081019050919050565b82818337600083830152505050565b600061121e611219846111cb565b6111b0565b90508281526020810184848401111561123a5761123961113a565b5b6112458482856111fc565b509392505050565b600082601f83011261126257611261611135565b5b813561127284826020860161120b565b91505092915050565b6000806000606084860312156112945761129361108b565b5b600084013567ffffffffffffffff8111156112b2576112b1611090565b5b6112be8682870161124d565b93505060206112cf868287016110b6565b92505060406112e0868287016110b6565b9150509250925092565b600060208284031215611300576112ff61108b565b5b600061130e848285016110b6565b91505092915050565b600081519050919050565b600082825260208201905092915050565b60005b83811015611351578082015181840152602081019050611336565b83811115611360576000848401525b50505050565b600061137182611317565b61137b8185611322565b935061138b818560208601611333565b6113948161113f565b840191505092915050565b600060c08201905081810360008301526113b98189611366565b90506113c8602083018861110b565b6113d5604083018761110b565b6113e2606083018661110b565b6113ef608083018561110b565b6113fc60a083018461110b565b979650505050505050565b600073ffffffffffffffffffffffffffffffffffffffff82169050919050565b600061143282611407565b9050919050565b61144281611427565b82525050565b600060208201905061145d6000830184611439565b92915050565b61146c81611427565b811461147757600080fd5b50565b60008135905061148981611463565b92915050565b6000806000606084860312156114a8576114a761108b565b5b60006114b6868287016110b6565b93505060206114c7868287016110b6565b92505060406114d88682870161147a565b9150509250925092565b6000602082840312156114f8576114f761108b565b5b60006115068482850161147a565b91505092915050565b7f4e487b7100000000000000000000000000000000000000000000000000000000600052603260045260246000fd5b7f4e487b7100000000000000000000000000000000000000000000000000000000600052602260045260246000fd5b6000600282049050600182168061158557607f821691505b602082108114156115995761159861153e565b5b50919050565b60006060820190506115b4600083018661110b565b6115c1602083018561110b565b6115ce604083018461110b565b949350505050565b7f696e666f726d6163616f20696e76616c69646100000000000000000000000000600082015250565b600061160c601383611322565b9150611617826115d6565b602082019050919050565b6000602082019050818103600083015261163b816115ff565b9050919050565b600060a082019050818103600083015261165c8188611366565b905061166b602083018761110b565b611678604083018661110b565b611685606083018561110b565b6116926080830184611439565b9695505050505050565b7f4f776e61626c653a2063616c6c6572206973206e6f7420746865206f776e6572600082015250565b60006116d2602083611322565b91506116dd8261169c565b602082019050919050565b60006020820190508181036000830152611701816116c5565b9050919050565b600060408201905061171d600083018561110b565b61172a602083018461110b565b9392505050565b7f4f776e61626c653a206e6577206f776e657220697320746865207a65726f206160008201527f6464726573730000000000000000000000000000000000000000000000000000602082015250565b600061178d602683611322565b915061179882611731565b604082019050919050565b600060208201905081810360008301526117bc81611780565b905091905056fea2646970667358221220bb3b5690157f96d485de0d44e7fb709fe7e9c403cf77cdafcb25126721556d3764736f6c63430008090033",
  "immutableReferences": {},
  "source": "// SPDX-License-Identifier: MIT\r\npragma solidity >=0.6.0 <0.9.0;\r\n\r\nimport \"@openzeppelin/contracts/access/Ownable.sol\";\r\n\r\ncontract Store is Ownable {\r\n\taddress private _owner;\r\n\r\n    struct Order {\r\n\t\tstring ItemMenu;\r\n\t\tuint Price;\r\n\t\tuint Quantity;\t\t\r\n\t\tuint Payment;\r\n\t\tuint OrderDate;\r\n\t\tuint DeliveryDate;\r\n\t\tbool Created;\r\n\t}\r\n\tmapping (address => Order[]) _orders;\r\n\r\n    struct Invoice {\r\n\t\tuint OrderNumber;\r\n\t\tbool Created;\r\n\t}\r\n\tmapping (address => Invoice[]) _invoices;\r\n    \r\n\tevent OrderDispatched(string itemMenu, uint quantity, uint orderDate, uint orderNumber, address customer);\r\n\tevent PriceSubmitted(uint orderNumber, uint orderPrice);     \r\n\tevent PaymentSent(uint orderNumber, uint payment, uint paymentDate);\r\n\tevent InvoiceSent(uint invoiceNumber, uint orderNumber, uint deliveryDate);\r\n\tevent OrderDelivered(uint invoiceNumber, uint orderNumber, uint actualDeliveryDate);\r\n\r\n    constructor() payable {\r\n\t\t_owner = msg.sender;\r\n\t}\r\n\r\n\t//TODO: - Criar modificador para validar a data/hora do pedido\r\n\r\n    modifier OnlyOrderValidInformation\r\n    (\r\n        string memory itemMenu,\r\n        uint quantity\r\n    )\r\n    {\r\n        bytes memory itemMenuTemp = bytes(itemMenu);\r\n\r\n        bool informacaoValida = itemMenuTemp.length == 0 || quantity == 0;\r\n        require(!informacaoValida, 'informacao invalida');\r\n        _;\r\n    }\r\n\r\n    function sendOrder\r\n\t(\r\n\t\tstring memory itemMenu,\r\n\t\tuint quantity,\r\n\t\tuint dateTime\r\n\t)\r\n\t\tpayable\r\n\t\tpublic\r\n\t\tOnlyOrderValidInformation(itemMenu, quantity)\r\n\t{\r\n\t\t_orders[msg.sender].push(Order({\r\n\t\t\tItemMenu: itemMenu,\r\n\t\t\tPrice: 0,\r\n\t\t\tQuantity: quantity,\r\n\t\t\tPayment: 0,\r\n\t\t\tOrderDate: dateTime,\r\n\t\t\tDeliveryDate: 0,\r\n\t\t\tCreated: true\r\n\t\t}));\r\n\r\n\t\tuint indexOrder = _orders[msg.sender].length;\r\n\r\n\t\temit OrderDispatched(itemMenu, quantity, dateTime, indexOrder, msg.sender);\r\n\t}\r\n\r\n    function checkOrder\r\n\t(\r\n\t\tuint index\r\n\t)\r\n\t\tpublic\r\n\t\tview\r\n\t\treturns (\r\n\t\t\tstring memory itemMenu,\r\n\t\t\tuint quantity,\r\n\t\t\tuint price,\r\n\t\t\tuint payment,\r\n\t\t\tuint orderDate,\r\n\t\t\tuint deliveryDate\r\n\t\t)\r\n\t{\r\n\t\tOrder memory order = _orders[msg.sender][index];\r\n\t\treturn(order.ItemMenu, order.Quantity, order.Price, order.Payment, order.OrderDate, order.DeliveryDate);\r\n\t}\r\n\r\n\r\n\tfunction sendPrice\r\n\t(\r\n\t\tuint index,\r\n\t\tuint price,\r\n\t\taddress customer\r\n\t)\r\n\t\tpublic\r\n\t\tonlyOwner\r\n\t\tpayable\r\n\t{\r\n\t\tOrder memory orderOld = _orders[customer][index];\r\n\t\tOrder memory orderUpdated;\r\n\r\n\t\torderUpdated.ItemMenu = orderOld.ItemMenu;\r\n\t\torderUpdated.Price = price;\r\n\t\torderUpdated.Quantity = orderOld.Quantity;\r\n\t\torderUpdated.Payment = orderOld.Payment;\r\n\t\torderUpdated.OrderDate = orderOld.OrderDate;\r\n\t\torderUpdated.DeliveryDate = orderOld.DeliveryDate;\r\n\t\torderUpdated.Created = orderOld.Created;\r\n\r\n\t\tdelete _orders[customer][index];\r\n\t\t_orders[customer][index] = orderUpdated;\r\n\r\n\t\temit PriceSubmitted(index, price);\r\n\t}\r\n\r\n    function sendPayment\r\n\t(\r\n\t\tuint index,\r\n\t\tuint paymentDate\r\n\t)\r\n\t\tpublic\r\n\t\tpayable\r\n\t{\r\n\t\tOrder memory orderOld = _orders[msg.sender][index];\r\n\t\tOrder memory orderUpdated;\r\n\r\n\t\torderUpdated.ItemMenu = orderOld.ItemMenu;\r\n\t\torderUpdated.Price = orderOld.Price;\r\n\t\torderUpdated.Quantity = orderOld.Quantity;\r\n\t\torderUpdated.Payment = msg.value;\r\n\t\torderUpdated.OrderDate = orderOld.OrderDate;\r\n\t\torderUpdated.DeliveryDate = orderOld.DeliveryDate;\r\n\t\torderUpdated.Created = orderOld.Created;\r\n\r\n\t\tdelete _orders[msg.sender][index];\r\n\t\t_orders[msg.sender][index] = orderUpdated;\t\t\r\n\r\n\t\temit PaymentSent(index, msg.value, paymentDate);\r\n\t}\r\n\r\n    function total()\r\n        public\r\n        view\r\n        returns (uint)\r\n    {\r\n        return _orders[msg.sender].length;\r\n    }\t\r\n\r\n    // function enviarFatura\r\n\t// (\r\n\t// \tuint idPedido,\r\n\t// \tuint dataPedido\r\n\t// )\r\n\t// \tpublic\r\n\t// \tonlyOwner\r\n\t// \tPedidoExiste(idPedido)\r\n\t// \tpayable\r\n\t// {\r\n\t// \t_sequencialFatura++;\r\n\t// \t_faturas[_sequencialFatura] = Fatura(_sequencialFatura, idPedido, true);\r\n\t// \t_pedidos[idPedido].DataPedido = dataPedido;\r\n\t// \temit FaturaEnviada(_cliente, _sequencialFatura, idPedido, dataPedido);\r\n\t// }\r\n\r\n    // function obterFatura\r\n\t// (\r\n\t// \tuint idFatura\r\n\t// )\r\n\t// \tpublic\r\n\t// \tview\r\n\t// \tFaturaExiste(idFatura)\r\n\t// \treturns (address cliente, uint idPedido, uint dataFatura)\r\n\t// {\r\n\t// \tFatura storage fatura = _faturas[idFatura];\r\n\t// \tPedido storage pedido = _pedidos[fatura.IdPedido];\r\n\t// \treturn (_cliente, pedido.Id, pedido.DataPedido);\r\n\t// }\r\n\r\n    // function MarcarPedidoEntregue\r\n\t// (\r\n\t// \tuint idFatura,\r\n\t// \tuint dataEntrega\r\n\t// )\r\n\t// \tpublic\r\n\t// \tSomenteCliente\r\n\t// \tFaturaExiste(idFatura)\r\n\t// \tpayable\r\n\t// {\r\n\t// \tFatura storage fatura = _faturas[idFatura];\r\n\t// \tPedido storage pedido = _pedidos[fatura.IdPedido];\r\n\t// \tpedido.DataEntrega = dataEntrega;\r\n\t// \tpayable(_dono).transfer(pedido.PagamentoSeguro);\r\n\t// \temit PedidoEntregue(_cliente, idFatura, pedido.Id, dataEntrega); \r\n\t// }    \r\n}",
  "sourcePath": "C:/Dev/Projetos/git/smart-contract/contracts/Store.sol",
  "compiler": {
    "name": "solc",
    "version": "0.8.9+commit.e5eed63a.Emscripten.clang"
  },
  "schemaVersion": "3.3.4",
  "updatedAt": "2021-10-20T21:34:44.018Z",
  "devdoc": {
    "kind": "dev",
    "methods": {
      "owner()": {
        "details": "Returns the address of the current owner."
      },
      "renounceOwnership()": {
        "details": "Leaves the contract without owner. It will not be possible to call `onlyOwner` functions anymore. Can only be called by the current owner. NOTE: Renouncing ownership will leave the contract without an owner, thereby removing any functionality that is only available to the owner."
      },
      "transferOwnership(address)": {
        "details": "Transfers ownership of the contract to a new account (`newOwner`). Can only be called by the current owner."
      }
    },
    "version": 1
  },
  "userdoc": {
    "kind": "user",
    "methods": {},
    "version": 1
  }
}