{
  "contractName": "Store",
  "abi": [
    {
      "inputs": [],
      "stateMutability": "payable",
      "type": "constructor"
    },
    {
      "anonymous": false,
      "inputs": [
        {
          "indexed": false,
          "internalType": "uint256",
          "name": "invoiceIndex",
          "type": "uint256"
        },
        {
          "indexed": false,
          "internalType": "uint256",
          "name": "orderIndex",
          "type": "uint256"
        },
        {
          "indexed": false,
          "internalType": "uint256",
          "name": "invoiceDate",
          "type": "uint256"
        }
      ],
      "name": "InvoiceSent",
      "type": "event"
    },
    {
      "anonymous": false,
      "inputs": [
        {
          "indexed": false,
          "internalType": "uint256",
          "name": "invoiceIndex",
          "type": "uint256"
        },
        {
          "indexed": false,
          "internalType": "uint256",
          "name": "orderIndex",
          "type": "uint256"
        },
        {
          "indexed": false,
          "internalType": "uint256",
          "name": "actualDeliveryDate",
          "type": "uint256"
        }
      ],
      "name": "OrderDelivered",
      "type": "event"
    },
    {
      "anonymous": false,
      "inputs": [
        {
          "indexed": false,
          "internalType": "string",
          "name": "itemMenu",
          "type": "string"
        },
        {
          "indexed": false,
          "internalType": "uint256",
          "name": "quantity",
          "type": "uint256"
        },
        {
          "indexed": false,
          "internalType": "uint256",
          "name": "orderDate",
          "type": "uint256"
        },
        {
          "indexed": false,
          "internalType": "uint256",
          "name": "orderIndex",
          "type": "uint256"
        },
        {
          "indexed": false,
          "internalType": "address",
          "name": "customer",
          "type": "address"
        }
      ],
      "name": "OrderDispatched",
      "type": "event"
    },
    {
      "anonymous": false,
      "inputs": [
        {
          "indexed": true,
          "internalType": "address",
          "name": "previousOwner",
          "type": "address"
        },
        {
          "indexed": true,
          "internalType": "address",
          "name": "newOwner",
          "type": "address"
        }
      ],
      "name": "OwnershipTransferred",
      "type": "event"
    },
    {
      "anonymous": false,
      "inputs": [
        {
          "indexed": false,
          "internalType": "uint256",
          "name": "orderIndex",
          "type": "uint256"
        },
        {
          "indexed": false,
          "internalType": "uint256",
          "name": "payment",
          "type": "uint256"
        },
        {
          "indexed": false,
          "internalType": "uint256",
          "name": "paymentDate",
          "type": "uint256"
        }
      ],
      "name": "PaymentSent",
      "type": "event"
    },
    {
      "anonymous": false,
      "inputs": [
        {
          "indexed": false,
          "internalType": "uint256",
          "name": "orderIndex",
          "type": "uint256"
        },
        {
          "indexed": false,
          "internalType": "uint256",
          "name": "orderPrice",
          "type": "uint256"
        }
      ],
      "name": "PriceSubmitted",
      "type": "event"
    },
    {
      "inputs": [],
      "name": "owner",
      "outputs": [
        {
          "internalType": "address",
          "name": "",
          "type": "address"
        }
      ],
      "stateMutability": "view",
      "type": "function"
    },
    {
      "inputs": [],
      "name": "renounceOwnership",
      "outputs": [],
      "stateMutability": "nonpayable",
      "type": "function"
    },
    {
      "inputs": [
        {
          "internalType": "address",
          "name": "newOwner",
          "type": "address"
        }
      ],
      "name": "transferOwnership",
      "outputs": [],
      "stateMutability": "nonpayable",
      "type": "function"
    },
    {
      "inputs": [
        {
          "internalType": "string",
          "name": "itemMenu",
          "type": "string"
        },
        {
          "internalType": "uint256",
          "name": "quantity",
          "type": "uint256"
        },
        {
          "internalType": "uint256",
          "name": "dateTime",
          "type": "uint256"
        }
      ],
      "name": "sendOrder",
      "outputs": [],
      "stateMutability": "payable",
      "type": "function"
    },
    {
      "inputs": [
        {
          "internalType": "uint256",
          "name": "orderIndex",
          "type": "uint256"
        }
      ],
      "name": "checkOrder",
      "outputs": [
        {
          "internalType": "string",
          "name": "itemMenu",
          "type": "string"
        },
        {
          "internalType": "uint256",
          "name": "quantity",
          "type": "uint256"
        },
        {
          "internalType": "uint256",
          "name": "price",
          "type": "uint256"
        },
        {
          "internalType": "uint256",
          "name": "payment",
          "type": "uint256"
        },
        {
          "internalType": "uint256",
          "name": "orderDate",
          "type": "uint256"
        },
        {
          "internalType": "uint256",
          "name": "deliveryDate",
          "type": "uint256"
        }
      ],
      "stateMutability": "view",
      "type": "function"
    },
    {
      "inputs": [
        {
          "internalType": "uint256",
          "name": "orderIndex",
          "type": "uint256"
        },
        {
          "internalType": "uint256",
          "name": "price",
          "type": "uint256"
        },
        {
          "internalType": "address",
          "name": "customer",
          "type": "address"
        }
      ],
      "name": "sendPrice",
      "outputs": [],
      "stateMutability": "payable",
      "type": "function"
    },
    {
      "inputs": [
        {
          "internalType": "uint256",
          "name": "orderIndex",
          "type": "uint256"
        },
        {
          "internalType": "uint256",
          "name": "paymentDate",
          "type": "uint256"
        }
      ],
      "name": "sendPayment",
      "outputs": [],
      "stateMutability": "payable",
      "type": "function"
    },
    {
      "inputs": [
        {
          "internalType": "uint256",
          "name": "orderIndex",
          "type": "uint256"
        },
        {
          "internalType": "uint256",
          "name": "invoiceDate",
          "type": "uint256"
        },
        {
          "internalType": "address",
          "name": "customer",
          "type": "address"
        }
      ],
      "name": "sendInvoice",
      "outputs": [],
      "stateMutability": "nonpayable",
      "type": "function"
    },
    {
      "inputs": [
        {
          "internalType": "uint256",
          "name": "invoiceIndex",
          "type": "uint256"
        }
      ],
      "name": "checkInvoice",
      "outputs": [
        {
          "internalType": "uint256",
          "name": "orderIndex",
          "type": "uint256"
        },
        {
          "internalType": "uint256",
          "name": "invoiceDate",
          "type": "uint256"
        }
      ],
      "stateMutability": "view",
      "type": "function"
    },
    {
      "inputs": [
        {
          "internalType": "uint256",
          "name": "invoiceIndex",
          "type": "uint256"
        },
        {
          "internalType": "uint256",
          "name": "deliveryDate",
          "type": "uint256"
        }
      ],
      "name": "deliver",
      "outputs": [],
      "stateMutability": "nonpayable",
      "type": "function"
    },
    {
      "inputs": [],
      "name": "totalOrder",
      "outputs": [
        {
          "internalType": "uint256",
          "name": "",
          "type": "uint256"
        }
      ],
      "stateMutability": "view",
      "type": "function"
    },
    {
      "inputs": [],
      "name": "totalInvoice",
      "outputs": [
        {
          "internalType": "uint256",
          "name": "",
          "type": "uint256"
        }
      ],
      "stateMutability": "view",
      "type": "function"
    }
  ],
  "bytecode": "0x608060405261002061001561006660201b60201c565b61006e60201b60201c565b33600160006101000a81548173ffffffffffffffffffffffffffffffffffffffff021916908373ffffffffffffffffffffffffffffffffffffffff160217905550610132565b600033905090565b60008060009054906101000a900473ffffffffffffffffffffffffffffffffffffffff169050816000806101000a81548173ffffffffffffffffffffffffffffffffffffffff021916908373ffffffffffffffffffffffffffffffffffffffff1602179055508173ffffffffffffffffffffffffffffffffffffffff168173ffffffffffffffffffffffffffffffffffffffff167f8be0079c531659141344cd1fd0a4f28419497f9722a3daafe3b4186f6b6457e060405160405180910390a35050565b611fc5806101416000396000f3fe6080604052600436106100a75760003560e01c80638da5cb5b116100645780638da5cb5b14610191578063a03b19a1146101bc578063acd72f05146101d8578063b03b8f2d14610203578063d4f1259714610241578063f2fde38b1461026a576100a7565b80632068eee4146100ac578063216e2a97146100c85780633e4894d3146100f357806348efc6721461010f578063715018a6146101515780637b8ac66b14610168575b600080fd5b6100c660048036038101906100c19190611897565b610293565b005b3480156100d457600080fd5b506100dd61060c565b6040516100ea91906118e6565b60405180910390f35b61010d60048036038101906101089190611a47565b610656565b005b34801561011b57600080fd5b5061013660048036038101906101319190611ab6565b610853565b60405161014896959493929190611b6b565b60405180910390f35b34801561015d57600080fd5b506101666109dd565b005b34801561017457600080fd5b5061018f600480360381019061018a9190611897565b610a65565b005b34801561019d57600080fd5b506101a6610e8c565b6040516101b39190611c14565b60405180910390f35b6101d660048036038101906101d19190611c5b565b610eb5565b005b3480156101e457600080fd5b506101ed6112a9565b6040516101fa91906118e6565b60405180910390f35b34801561020f57600080fd5b5061022a60048036038101906102259190611ab6565b6112f3565b604051610238929190611cae565b60405180910390f35b34801561024d57600080fd5b5061026860048036038101906102639190611c5b565b6113a7565b005b34801561027657600080fd5b50610291600480360381019061028c9190611cd7565b611567565b005b6000600260003373ffffffffffffffffffffffffffffffffffffffff1673ffffffffffffffffffffffffffffffffffffffff16815260200190815260200160002083815481106102e6576102e5611d04565b5b90600052602060002090600702016040518060e001604052908160008201805461030f90611d62565b80601f016020809104026020016040519081016040528092919081815260200182805461033b90611d62565b80156103885780601f1061035d57610100808354040283529160200191610388565b820191906000526020600020905b81548152906001019060200180831161036b57829003601f168201915b5050505050815260200160018201548152602001600282015481526020016003820154815260200160048201548152602001600582015481526020016006820160009054906101000a900460ff16151515158152505090506103e861172b565b81600001518160000181905250816020015181602001818152505081604001518160400181815250503481606001818152505081608001518160800181815250508160a001518160a00181815250508160c001518160c0019015159081151581525050600260003373ffffffffffffffffffffffffffffffffffffffff1673ffffffffffffffffffffffffffffffffffffffff168152602001908152602001600020848154811061049c5761049b611d04565b5b9060005260206000209060070201600080820160006104bb919061176a565b600182016000905560028201600090556003820160009055600482016000905560058201600090556006820160006101000a81549060ff0219169055505080600260003373ffffffffffffffffffffffffffffffffffffffff1673ffffffffffffffffffffffffffffffffffffffff168152602001908152602001600020858154811061054b5761054a611d04565b5b906000526020600020906007020160008201518160000190805190602001906105759291906117aa565b506020820151816001015560408201518160020155606082015181600301556080820151816004015560a0820151816005015560c08201518160060160006101000a81548160ff0219169083151502179055509050507fcffafba552dc166088a32e7bd805ab2313405094f66efccd4fea2631bcc959458434856040516105fe93929190611d94565b60405180910390a150505050565b6000600260003373ffffffffffffffffffffffffffffffffffffffff1673ffffffffffffffffffffffffffffffffffffffff16815260200190815260200160002080549050905090565b828260008290506000808251148061066e5750600083145b905080156106b1576040517f08c379a00000000000000000000000000000000000000000000000000000000081526004016106a890611e17565b60405180910390fd5b600260003373ffffffffffffffffffffffffffffffffffffffff1673ffffffffffffffffffffffffffffffffffffffff1681526020019081526020016000206040518060e00160405280898152602001600081526020018881526020016000815260200187815260200160008152602001600115158152509080600181540180825580915050600190039060005260206000209060070201600090919091909150600082015181600001908051906020019061076e9291906117aa565b506020820151816001015560408201518160020155606082015181600301556080820151816004015560a0820151816005015560c08201518160060160006101000a81548160ff02191690831515021790555050506000600260003373ffffffffffffffffffffffffffffffffffffffff1673ffffffffffffffffffffffffffffffffffffffff1681526020019081526020016000208054905090507f0f3c6c8776f571e6ed7d0039f20d5affff551ad3999662338ac35c72d3ca26958888888433604051610841959493929190611e37565b60405180910390a15050505050505050565b6060600080600080600080600260003373ffffffffffffffffffffffffffffffffffffffff1673ffffffffffffffffffffffffffffffffffffffff16815260200190815260200160002088815481106108af576108ae611d04565b5b90600052602060002090600702016040518060e00160405290816000820180546108d890611d62565b80601f016020809104026020016040519081016040528092919081815260200182805461090490611d62565b80156109515780601f1061092657610100808354040283529160200191610951565b820191906000526020600020905b81548152906001019060200180831161093457829003601f168201915b5050505050815260200160018201548152602001600282015481526020016003820154815260200160048201548152602001600582015481526020016006820160009054906101000a900460ff1615151515815250509050806000015181604001518260200151836060015184608001518560a001519650965096509650965096505091939550919395565b6109e561165f565b73ffffffffffffffffffffffffffffffffffffffff16610a03610e8c565b73ffffffffffffffffffffffffffffffffffffffff1614610a59576040517f08c379a0000000000000000000000000000000000000000000000000000000008152600401610a5090611edd565b60405180910390fd5b610a636000611667565b565b6000600360003373ffffffffffffffffffffffffffffffffffffffff1673ffffffffffffffffffffffffffffffffffffffff1681526020019081526020016000208381548110610ab857610ab7611d04565b5b906000526020600020906003020160405180606001604052908160008201548152602001600182015481526020016002820160009054906101000a900460ff16151515158152505090506000600260003373ffffffffffffffffffffffffffffffffffffffff1673ffffffffffffffffffffffffffffffffffffffff168152602001908152602001600020826000015181548110610b5957610b58611d04565b5b90600052602060002090600702016040518060e0016040529081600082018054610b8290611d62565b80601f0160208091040260200160405190810160405280929190818152602001828054610bae90611d62565b8015610bfb5780601f10610bd057610100808354040283529160200191610bfb565b820191906000526020600020905b815481529060010190602001808311610bde57829003601f168201915b5050505050815260200160018201548152602001600282015481526020016003820154815260200160048201548152602001600582015481526020016006820160009054906101000a900460ff1615151515815250509050610c5b61172b565b816000015181600001819052508160200151816020018181525050816040015181604001818152505081606001518160600181815250508160800151816080018181525050838160a00181815250508160c001518160c0019015159081151581525050600260003373ffffffffffffffffffffffffffffffffffffffff1673ffffffffffffffffffffffffffffffffffffffff168152602001908152602001600020836000015181548110610d1357610d12611d04565b5b906000526020600020906007020160008082016000610d32919061176a565b600182016000905560028201600090556003820160009055600482016000905560058201600090556006820160006101000a81549060ff0219169055505080600260003373ffffffffffffffffffffffffffffffffffffffff1673ffffffffffffffffffffffffffffffffffffffff168152602001908152602001600020846000015181548110610dc657610dc5611d04565b5b90600052602060002090600702016000820151816000019080519060200190610df09291906117aa565b506020820151816001015560408201518160020155606082015181600301556080820151816004015560a0820151816005015560c08201518160060160006101000a81548160ff0219169083151502179055509050507f83b2c68a0456dd92032b9b6cd8acce2677566a26ccfd4263c10cdbf533b105a685846000015186604051610e7d93929190611d94565b60405180910390a15050505050565b60008060009054906101000a900473ffffffffffffffffffffffffffffffffffffffff16905090565b610ebd61165f565b73ffffffffffffffffffffffffffffffffffffffff16610edb610e8c565b73ffffffffffffffffffffffffffffffffffffffff1614610f31576040517f08c379a0000000000000000000000000000000000000000000000000000000008152600401610f2890611edd565b60405180910390fd5b6000600260008373ffffffffffffffffffffffffffffffffffffffff1673ffffffffffffffffffffffffffffffffffffffff1681526020019081526020016000208481548110610f8457610f83611d04565b5b90600052602060002090600702016040518060e0016040529081600082018054610fad90611d62565b80601f0160208091040260200160405190810160405280929190818152602001828054610fd990611d62565b80156110265780601f10610ffb57610100808354040283529160200191611026565b820191906000526020600020905b81548152906001019060200180831161100957829003601f168201915b5050505050815260200160018201548152602001600282015481526020016003820154815260200160048201548152602001600582015481526020016006820160009054906101000a900460ff161515151581525050905061108661172b565b81600001518160000181905250838160200181815250508160400151816040018181525050816060015181606001818152505081608001518160800181815250508160a001518160a00181815250508160c001518160c0019015159081151581525050600260008473ffffffffffffffffffffffffffffffffffffffff1673ffffffffffffffffffffffffffffffffffffffff168152602001908152602001600020858154811061113a57611139611d04565b5b906000526020600020906007020160008082016000611159919061176a565b600182016000905560028201600090556003820160009055600482016000905560058201600090556006820160006101000a81549060ff0219169055505080600260008573ffffffffffffffffffffffffffffffffffffffff1673ffffffffffffffffffffffffffffffffffffffff16815260200190815260200160002086815481106111e9576111e8611d04565b5b906000526020600020906007020160008201518160000190805190602001906112139291906117aa565b506020820151816001015560408201518160020155606082015181600301556080820151816004015560a0820151816005015560c08201518160060160006101000a81548160ff0219169083151502179055509050507ff1dd0a35a62085f590bb0406bb495ab81f1d193d088515968caba48980556b73858560405161129a929190611cae565b60405180910390a15050505050565b6000600360003373ffffffffffffffffffffffffffffffffffffffff1673ffffffffffffffffffffffffffffffffffffffff16815260200190815260200160002080549050905090565b6000806000600360003373ffffffffffffffffffffffffffffffffffffffff1673ffffffffffffffffffffffffffffffffffffffff168152602001908152602001600020848154811061134957611348611d04565b5b906000526020600020906003020160405180606001604052908160008201548152602001600182015481526020016002820160009054906101000a900460ff1615151515815250509050806000015181602001519250925050915091565b6113af61165f565b73ffffffffffffffffffffffffffffffffffffffff166113cd610e8c565b73ffffffffffffffffffffffffffffffffffffffff1614611423576040517f08c379a000000000000000000000000000000000000000000000000000000000815260040161141a90611edd565b60405180910390fd5b600360008273ffffffffffffffffffffffffffffffffffffffff1673ffffffffffffffffffffffffffffffffffffffff1681526020019081526020016000206040518060600160405280858152602001848152602001600115158152509080600181540180825580915050600190039060005260206000209060030201600090919091909150600082015181600001556020820151816001015560408201518160020160006101000a81548160ff02191690831515021790555050506000600360008373ffffffffffffffffffffffffffffffffffffffff1673ffffffffffffffffffffffffffffffffffffffff1681526020019081526020016000208054905090507fd2e2a5987d22e8d953aa469739cd4c650bbe42acfd0ca0cc77ae6a1d7c237ac681858560405161155993929190611d94565b60405180910390a150505050565b61156f61165f565b73ffffffffffffffffffffffffffffffffffffffff1661158d610e8c565b73ffffffffffffffffffffffffffffffffffffffff16146115e3576040517f08c379a00000000000000000000000000000000000000000000000000000000081526004016115da90611edd565b60405180910390fd5b600073ffffffffffffffffffffffffffffffffffffffff168173ffffffffffffffffffffffffffffffffffffffff161415611653576040517f08c379a000000000000000000000000000000000000000000000000000000000815260040161164a90611f6f565b60405180910390fd5b61165c81611667565b50565b600033905090565b60008060009054906101000a900473ffffffffffffffffffffffffffffffffffffffff169050816000806101000a81548173ffffffffffffffffffffffffffffffffffffffff021916908373ffffffffffffffffffffffffffffffffffffffff1602179055508173ffffffffffffffffffffffffffffffffffffffff168173ffffffffffffffffffffffffffffffffffffffff167f8be0079c531659141344cd1fd0a4f28419497f9722a3daafe3b4186f6b6457e060405160405180910390a35050565b6040518060e001604052806060815260200160008152602001600081526020016000815260200160008152602001600081526020016000151581525090565b50805461177690611d62565b6000825580601f1061178857506117a7565b601f0160209004906000526020600020908101906117a69190611830565b5b50565b8280546117b690611d62565b90600052602060002090601f0160209004810192826117d8576000855561181f565b82601f106117f157805160ff191683800117855561181f565b8280016001018555821561181f579182015b8281111561181e578251825591602001919060010190611803565b5b50905061182c9190611830565b5090565b5b80821115611849576000816000905550600101611831565b5090565b6000604051905090565b600080fd5b600080fd5b6000819050919050565b61187481611861565b811461187f57600080fd5b50565b6000813590506118918161186b565b92915050565b600080604083850312156118ae576118ad611857565b5b60006118bc85828601611882565b92505060206118cd85828601611882565b9150509250929050565b6118e081611861565b82525050565b60006020820190506118fb60008301846118d7565b92915050565b600080fd5b600080fd5b6000601f19601f8301169050919050565b7f4e487b7100000000000000000000000000000000000000000000000000000000600052604160045260246000fd5b6119548261190b565b810181811067ffffffffffffffff821117156119735761197261191c565b5b80604052505050565b600061198661184d565b9050611992828261194b565b919050565b600067ffffffffffffffff8211156119b2576119b161191c565b5b6119bb8261190b565b9050602081019050919050565b82818337600083830152505050565b60006119ea6119e584611997565b61197c565b905082815260208101848484011115611a0657611a05611906565b5b611a118482856119c8565b509392505050565b600082601f830112611a2e57611a2d611901565b5b8135611a3e8482602086016119d7565b91505092915050565b600080600060608486031215611a6057611a5f611857565b5b600084013567ffffffffffffffff811115611a7e57611a7d61185c565b5b611a8a86828701611a19565b9350506020611a9b86828701611882565b9250506040611aac86828701611882565b9150509250925092565b600060208284031215611acc57611acb611857565b5b6000611ada84828501611882565b91505092915050565b600081519050919050565b600082825260208201905092915050565b60005b83811015611b1d578082015181840152602081019050611b02565b83811115611b2c576000848401525b50505050565b6000611b3d82611ae3565b611b478185611aee565b9350611b57818560208601611aff565b611b608161190b565b840191505092915050565b600060c0820190508181036000830152611b858189611b32565b9050611b9460208301886118d7565b611ba160408301876118d7565b611bae60608301866118d7565b611bbb60808301856118d7565b611bc860a08301846118d7565b979650505050505050565b600073ffffffffffffffffffffffffffffffffffffffff82169050919050565b6000611bfe82611bd3565b9050919050565b611c0e81611bf3565b82525050565b6000602082019050611c296000830184611c05565b92915050565b611c3881611bf3565b8114611c4357600080fd5b50565b600081359050611c5581611c2f565b92915050565b600080600060608486031215611c7457611c73611857565b5b6000611c8286828701611882565b9350506020611c9386828701611882565b9250506040611ca486828701611c46565b9150509250925092565b6000604082019050611cc360008301856118d7565b611cd060208301846118d7565b9392505050565b600060208284031215611ced57611cec611857565b5b6000611cfb84828501611c46565b91505092915050565b7f4e487b7100000000000000000000000000000000000000000000000000000000600052603260045260246000fd5b7f4e487b7100000000000000000000000000000000000000000000000000000000600052602260045260246000fd5b60006002820490506001821680611d7a57607f821691505b60208210811415611d8e57611d8d611d33565b5b50919050565b6000606082019050611da960008301866118d7565b611db660208301856118d7565b611dc360408301846118d7565b949350505050565b7f696e666f726d6163616f20696e76616c69646100000000000000000000000000600082015250565b6000611e01601383611aee565b9150611e0c82611dcb565b602082019050919050565b60006020820190508181036000830152611e3081611df4565b9050919050565b600060a0820190508181036000830152611e518188611b32565b9050611e6060208301876118d7565b611e6d60408301866118d7565b611e7a60608301856118d7565b611e876080830184611c05565b9695505050505050565b7f4f776e61626c653a2063616c6c6572206973206e6f7420746865206f776e6572600082015250565b6000611ec7602083611aee565b9150611ed282611e91565b602082019050919050565b60006020820190508181036000830152611ef681611eba565b9050919050565b7f4f776e61626c653a206e6577206f776e657220697320746865207a65726f206160008201527f6464726573730000000000000000000000000000000000000000000000000000602082015250565b6000611f59602683611aee565b9150611f6482611efd565b604082019050919050565b60006020820190508181036000830152611f8881611f4c565b905091905056fea26469706673582212204e35723203f71bc00da7cd8c05208de8738bae1c934a54cb237c9ce9ce9348b764736f6c63430008090033",
  "immutableReferences": {},
  "source": "// SPDX-License-Identifier: MIT\r\npragma solidity >=0.6.0 <0.9.0;\r\n\r\nimport \"@openzeppelin/contracts/access/Ownable.sol\";\r\n\r\ncontract Store is Ownable {\r\n\taddress private _owner;\r\n\r\n    struct Order {\r\n\t\tstring ItemMenu;\r\n\t\tuint Price;\r\n\t\tuint Quantity;\t\t\r\n\t\tuint Payment;\r\n\t\tuint OrderDate;\r\n\t\tuint DeliveryDate;\r\n\t\tbool Created;\r\n\t}\r\n\tmapping (address => Order[]) _orders;\r\n\r\n    struct Invoice {\r\n\t\tuint OrderIndex;\r\n\t\tuint InvoiceDate;\r\n\t\tbool Created;\r\n\t}\r\n\tmapping (address => Invoice[]) _invoices;\r\n    \r\n\tevent OrderDispatched(string itemMenu, uint quantity, uint orderDate, uint orderIndex, address customer);\r\n\tevent PriceSubmitted(uint orderIndex, uint orderPrice);     \r\n\tevent PaymentSent(uint orderIndex, uint payment, uint paymentDate);\r\n\tevent InvoiceSent(uint invoiceIndex, uint orderIndex, uint invoiceDate);\r\n\tevent OrderDelivered(uint invoiceIndex, uint orderIndex, uint actualDeliveryDate);\r\n\r\n    constructor() payable {\r\n\t\t_owner = msg.sender;\r\n\t}\r\n\r\n\t//TODO: - Criar modificador para validar a data/hora do pedido\r\n\r\n    modifier OnlyOrderValidInformation\r\n    (\r\n        string memory itemMenu,\r\n        uint quantity\r\n    )\r\n    {\r\n        bytes memory itemMenuTemp = bytes(itemMenu);\r\n\r\n        bool informacaoValida = itemMenuTemp.length == 0 || quantity == 0;\r\n        require(!informacaoValida, 'informacao invalida');\r\n        _;\r\n    }\r\n\r\n    function sendOrder\r\n\t(\r\n\t\tstring memory itemMenu,\r\n\t\tuint quantity,\r\n\t\tuint dateTime\r\n\t)\r\n\t\tpayable\r\n\t\tpublic\r\n\t\tOnlyOrderValidInformation(itemMenu, quantity)\r\n\t{\r\n\t\t_orders[msg.sender].push(Order({\r\n\t\t\tItemMenu: itemMenu,\r\n\t\t\tPrice: 0,\r\n\t\t\tQuantity: quantity,\r\n\t\t\tPayment: 0,\r\n\t\t\tOrderDate: dateTime,\r\n\t\t\tDeliveryDate: 0,\r\n\t\t\tCreated: true\r\n\t\t}));\r\n\r\n\t\tuint orderIndex = _orders[msg.sender].length;\r\n\r\n\t\temit OrderDispatched(itemMenu, quantity, dateTime, orderIndex, msg.sender);\r\n\t}\r\n\r\n    function checkOrder\r\n\t(\r\n\t\tuint orderIndex\r\n\t)\r\n\t\tpublic\r\n\t\tview\r\n\t\treturns (\r\n\t\t\tstring memory itemMenu,\r\n\t\t\tuint quantity,\r\n\t\t\tuint price,\r\n\t\t\tuint payment,\r\n\t\t\tuint orderDate,\r\n\t\t\tuint deliveryDate\r\n\t\t)\r\n\t{\r\n\t\tOrder memory order = _orders[msg.sender][orderIndex];\r\n\t\treturn(order.ItemMenu, order.Quantity, order.Price, order.Payment, order.OrderDate, order.DeliveryDate);\r\n\t}\r\n\r\n\tfunction sendPrice\r\n\t(\r\n\t\tuint orderIndex,\r\n\t\tuint price,\r\n\t\taddress customer\r\n\t)\r\n\t\tpublic\r\n\t\tonlyOwner\r\n\t\tpayable\r\n\t{\r\n\t\tOrder memory orderOld = _orders[customer][orderIndex];\r\n\t\tOrder memory orderUpdated;\r\n\r\n\t\torderUpdated.ItemMenu = orderOld.ItemMenu;\r\n\t\torderUpdated.Price = price;\r\n\t\torderUpdated.Quantity = orderOld.Quantity;\r\n\t\torderUpdated.Payment = orderOld.Payment;\r\n\t\torderUpdated.OrderDate = orderOld.OrderDate;\r\n\t\torderUpdated.DeliveryDate = orderOld.DeliveryDate;\r\n\t\torderUpdated.Created = orderOld.Created;\r\n\r\n\t\tdelete _orders[customer][orderIndex];\r\n\t\t_orders[customer][orderIndex] = orderUpdated;\r\n\r\n\t\temit PriceSubmitted(orderIndex, price);\r\n\t}\r\n\r\n    function sendPayment\r\n\t(\r\n\t\tuint orderIndex,\r\n\t\tuint paymentDate\r\n\t)\r\n\t\tpublic\r\n\t\tpayable\r\n\t{\r\n\t\tOrder memory orderOld = _orders[msg.sender][orderIndex];\r\n\t\tOrder memory orderUpdated;\r\n\r\n\t\torderUpdated.ItemMenu = orderOld.ItemMenu;\r\n\t\torderUpdated.Price = orderOld.Price;\r\n\t\torderUpdated.Quantity = orderOld.Quantity;\r\n\t\torderUpdated.Payment = msg.value;\r\n\t\torderUpdated.OrderDate = orderOld.OrderDate;\r\n\t\torderUpdated.DeliveryDate = orderOld.DeliveryDate;\r\n\t\torderUpdated.Created = orderOld.Created;\r\n\r\n\t\tdelete _orders[msg.sender][orderIndex];\r\n\t\t_orders[msg.sender][orderIndex] = orderUpdated;\t\t\r\n\r\n\t\temit PaymentSent(orderIndex, msg.value, paymentDate);\r\n\t}\r\n\r\n    function sendInvoice\r\n\t(\r\n\t\tuint orderIndex,\r\n\t\tuint invoiceDate,\r\n\t\taddress customer\r\n\t)\r\n\t\tpublic\r\n\t\tonlyOwner\r\n\t{\r\n\t\t_invoices[customer].push(Invoice({\r\n\t\t\tOrderIndex: orderIndex,\r\n\t\t\tInvoiceDate: invoiceDate,\r\n\t\t\tCreated: true\r\n\t\t}));\r\n\r\n\t\tuint invoiceIndex = _invoices[customer].length;\r\n\r\n\t\temit InvoiceSent(invoiceIndex, orderIndex, invoiceDate);\r\n\t}\r\n\r\n\tfunction checkInvoice\r\n\t(\r\n\t\tuint invoiceIndex\r\n\t)\r\n\t\tpublic\r\n\t\tview\r\n\t\treturns (\r\n\t\t\tuint orderIndex,\r\n\t\t\tuint invoiceDate\r\n\t\t)\r\n\t{\r\n\t\tInvoice memory invoice = _invoices[msg.sender][invoiceIndex];\r\n\t\treturn(invoice.OrderIndex, invoice.InvoiceDate);\r\n\t}\r\n\r\n\tfunction deliver\r\n\t(\r\n\t\tuint invoiceIndex,\r\n\t\tuint deliveryDate\r\n\t)\r\n\t\tpublic\r\n\t{\r\n\t\tInvoice memory invoice = _invoices[msg.sender][invoiceIndex];\r\n\t\tOrder memory orderOld = _orders[msg.sender][invoice.OrderIndex];\r\n\r\n\t\tOrder memory orderUpdated;\r\n\r\n\t\torderUpdated.ItemMenu = orderOld.ItemMenu;\r\n\t\torderUpdated.Price = orderOld.Price;\r\n\t\torderUpdated.Quantity = orderOld.Quantity;\r\n\t\torderUpdated.Payment = orderOld.Payment;\r\n\t\torderUpdated.OrderDate = orderOld.OrderDate;\r\n\t\torderUpdated.DeliveryDate = deliveryDate;\r\n\t\torderUpdated.Created = orderOld.Created;\r\n\r\n\t\tdelete _orders[msg.sender][invoice.OrderIndex];\r\n\t\t_orders[msg.sender][invoice.OrderIndex] = orderUpdated;\r\n\r\n\t\temit OrderDelivered(invoiceIndex, invoice.OrderIndex, deliveryDate);\r\n\t}\r\n\r\n    function totalOrder()\r\n        public\r\n        view\r\n        returns (uint)\r\n    {\r\n        return _orders[msg.sender].length;\r\n    }\r\n\r\n    function totalInvoice()\r\n        public\r\n        view\r\n        returns (uint)\r\n    {\r\n        return _invoices[msg.sender].length;\r\n    }\t\r\n}",
  "sourcePath": "C:/Dev/Projetos/git/smart-contract/contracts/Store.sol",
  "compiler": {
    "name": "solc",
    "version": "0.8.9+commit.e5eed63a.Emscripten.clang"
  },
  "schemaVersion": "3.3.4",
  "updatedAt": "2021-10-22T12:14:10.399Z",
  "devdoc": {
    "kind": "dev",
    "methods": {
      "owner()": {
        "details": "Returns the address of the current owner."
      },
      "renounceOwnership()": {
        "details": "Leaves the contract without owner. It will not be possible to call `onlyOwner` functions anymore. Can only be called by the current owner. NOTE: Renouncing ownership will leave the contract without an owner, thereby removing any functionality that is only available to the owner."
      },
      "transferOwnership(address)": {
        "details": "Transfers ownership of the contract to a new account (`newOwner`). Can only be called by the current owner."
      }
    },
    "version": 1
  },
  "userdoc": {
    "kind": "user",
    "methods": {},
    "version": 1
  }
}