{
  "contractName": "Teste",
  "abi": [
    {
      "inputs": [
        {
          "internalType": "uint256",
          "name": "numero",
          "type": "uint256"
        }
      ],
      "name": "adicionar",
      "outputs": [
        {
          "internalType": "uint256",
          "name": "",
          "type": "uint256"
        }
      ],
      "stateMutability": "nonpayable",
      "type": "function"
    },
    {
      "inputs": [
        {
          "internalType": "uint256",
          "name": "index",
          "type": "uint256"
        },
        {
          "internalType": "uint256",
          "name": "numero",
          "type": "uint256"
        }
      ],
      "name": "alterar",
      "outputs": [
        {
          "internalType": "uint256",
          "name": "",
          "type": "uint256"
        }
      ],
      "stateMutability": "nonpayable",
      "type": "function"
    },
    {
      "inputs": [
        {
          "internalType": "uint256",
          "name": "index",
          "type": "uint256"
        }
      ],
      "name": "ler",
      "outputs": [
        {
          "internalType": "uint256",
          "name": "numero",
          "type": "uint256"
        }
      ],
      "stateMutability": "view",
      "type": "function"
    },
    {
      "inputs": [],
      "name": "listar",
      "outputs": [
        {
          "internalType": "uint256",
          "name": "",
          "type": "uint256"
        }
      ],
      "stateMutability": "view",
      "type": "function"
    }
  ],
  "bytecode": "0x608060405234801561001057600080fd5b506105f5806100206000396000f3fe608060405234801561001057600080fd5b506004361061004c5760003560e01c8063124ed12d14610051578063460120181461008157806384a9c9101461009f578063d6367310146100cf575b600080fd5b61006b60048036038101906100669190610470565b6100ff565b60405161007891906104ec565b60405180910390f35b610089610180565b60405161009691906104ec565b60405180910390f35b6100b960048036038101906100b4919061049d565b6101c9565b6040516100c691906104ec565b60405180910390f35b6100e960048036038101906100e49190610470565b610311565b6040516100f691906104ec565b60405180910390f35b6000806000803373ffffffffffffffffffffffffffffffffffffffff1673ffffffffffffffffffffffffffffffffffffffff168152602001908152602001600020838154811061015257610151610574565b5b9060005260206000200160405180602001604052908160008201548152505090508060000151915050919050565b60008060003373ffffffffffffffffffffffffffffffffffffffff1673ffffffffffffffffffffffffffffffffffffffff16815260200190815260200160002080549050905090565b60006101d3610448565b828160000181815250506000803373ffffffffffffffffffffffffffffffffffffffff1673ffffffffffffffffffffffffffffffffffffffff168152602001908152602001600020848154811061022d5761022c610574565b5b906000526020600020016000808201600090555050806000803373ffffffffffffffffffffffffffffffffffffffff1673ffffffffffffffffffffffffffffffffffffffff168152602001908152602001600020858154811061029357610292610574565b5b90600052602060002001600082015181600001559050506000803373ffffffffffffffffffffffffffffffffffffffff1673ffffffffffffffffffffffffffffffffffffffff16815260200190815260200160002084815481106102fa576102f9610574565b5b906000526020600020016000015491505092915050565b600061031b610448565b828160000181815250506000803373ffffffffffffffffffffffffffffffffffffffff1673ffffffffffffffffffffffffffffffffffffffff16815260200190815260200160002081908060018154018082558091505060019003906000526020600020016000909190919091506000820151816000015550506000803373ffffffffffffffffffffffffffffffffffffffff1673ffffffffffffffffffffffffffffffffffffffff16815260200190815260200160002060016000803373ffffffffffffffffffffffffffffffffffffffff1673ffffffffffffffffffffffffffffffffffffffff168152602001908152602001600020805490506104219190610507565b8154811061043257610431610574565b5b9060005260206000200160000154915050919050565b6040518060200160405280600081525090565b60008135905061046a816105a8565b92915050565b600060208284031215610486576104856105a3565b5b60006104948482850161045b565b91505092915050565b600080604083850312156104b4576104b36105a3565b5b60006104c28582860161045b565b92505060206104d38582860161045b565b9150509250929050565b6104e68161053b565b82525050565b600060208201905061050160008301846104dd565b92915050565b60006105128261053b565b915061051d8361053b565b9250828210156105305761052f610545565b5b828203905092915050565b6000819050919050565b7f4e487b7100000000000000000000000000000000000000000000000000000000600052601160045260246000fd5b7f4e487b7100000000000000000000000000000000000000000000000000000000600052603260045260246000fd5b600080fd5b6105b18161053b565b81146105bc57600080fd5b5056fea26469706673582212204b1c4210e77707c0e56b9943c7e9e19d530553bb5a4247aeb08041096f1e893364736f6c63430008070033",
  "immutableReferences": {},
  "source": "// SPDX-License-Identifier: GPL-3.0\r\npragma solidity ^0.8.0;\r\n\r\ncontract Teste {\r\n    struct Estrutura {\r\n        uint Numero;\r\n    }\r\n    mapping(address => Estrutura[]) _estruturas;\r\n\r\n    function adicionar\r\n    (\r\n        uint numero\r\n    )\r\n        public\r\n        returns (uint )\r\n    {\r\n        Estrutura memory estrutura;\r\n        estrutura.Numero = numero;\r\n        _estruturas[msg.sender].push(estrutura);\r\n\r\n        return _estruturas[msg.sender][_estruturas[msg.sender].length -1].Numero;\r\n    }\r\n\r\n    function alterar\r\n    (\r\n        uint index,\r\n        uint numero\r\n    )\r\n        public\r\n        returns(uint)\r\n    {\r\n        Estrutura memory estrutura;\r\n        estrutura.Numero = numero;\r\n\r\n        delete _estruturas[msg.sender][index];\r\n        _estruturas[msg.sender][index] = estrutura;\r\n\r\n        return _estruturas[msg.sender][index].Numero;\r\n    }\r\n\r\n    function ler\r\n    (\r\n        uint index\r\n    )\r\n        public\r\n        view\r\n        returns\r\n        (\r\n            uint numero\r\n        )\r\n    {\r\n        Estrutura memory estrutura = _estruturas[msg.sender][index];\r\n        return (estrutura.Numero);\r\n    }\r\n\r\n    function listar()\r\n        public\r\n        view\r\n        returns\r\n        (\r\n            uint\r\n        )\r\n    {\r\n        return _estruturas[msg.sender].length;\r\n    }    \r\n}",
  "sourcePath": "C:/Dev/Projetos/git/smart-contract/contracts/Teste.sol",
  "compiler": {
    "name": "solc",
    "version": "0.8.7+commit.e28d00a7.Emscripten.clang"
  },
  "schemaVersion": "3.3.4",
  "updatedAt": "2021-09-18T22:51:22.776Z",
  "devdoc": {
    "kind": "dev",
    "methods": {},
    "version": 1
  },
  "userdoc": {
    "kind": "user",
    "methods": {},
    "version": 1
  }
}