{
  "contractName": "TokenVendor",
  "abi": [
    {
      "inputs": [
        {
          "internalType": "address",
          "name": "tokenAddress",
          "type": "address"
        }
      ],
      "stateMutability": "nonpayable",
      "type": "constructor"
    },
    {
      "anonymous": false,
      "inputs": [
        {
          "indexed": true,
          "internalType": "address",
          "name": "previousOwner",
          "type": "address"
        },
        {
          "indexed": true,
          "internalType": "address",
          "name": "newOwner",
          "type": "address"
        }
      ],
      "name": "OwnershipTransferred",
      "type": "event"
    },
    {
      "anonymous": false,
      "inputs": [
        {
          "indexed": false,
          "internalType": "address",
          "name": "buyer",
          "type": "address"
        },
        {
          "indexed": false,
          "internalType": "uint256",
          "name": "ethAmount",
          "type": "uint256"
        },
        {
          "indexed": false,
          "internalType": "uint256",
          "name": "tknAmount",
          "type": "uint256"
        }
      ],
      "name": "PurchasedToken",
      "type": "event"
    },
    {
      "anonymous": false,
      "inputs": [
        {
          "indexed": false,
          "internalType": "address",
          "name": "vendedor",
          "type": "address"
        },
        {
          "indexed": false,
          "internalType": "uint256",
          "name": "tknAmount",
          "type": "uint256"
        },
        {
          "indexed": false,
          "internalType": "uint256",
          "name": "ethAmount",
          "type": "uint256"
        }
      ],
      "name": "SoldToken",
      "type": "event"
    },
    {
      "inputs": [],
      "name": "_parity",
      "outputs": [
        {
          "internalType": "uint256",
          "name": "",
          "type": "uint256"
        }
      ],
      "stateMutability": "view",
      "type": "function"
    },
    {
      "inputs": [],
      "name": "owner",
      "outputs": [
        {
          "internalType": "address",
          "name": "",
          "type": "address"
        }
      ],
      "stateMutability": "view",
      "type": "function"
    },
    {
      "inputs": [],
      "name": "renounceOwnership",
      "outputs": [],
      "stateMutability": "nonpayable",
      "type": "function"
    },
    {
      "inputs": [
        {
          "internalType": "address",
          "name": "newOwner",
          "type": "address"
        }
      ],
      "name": "transferOwnership",
      "outputs": [],
      "stateMutability": "nonpayable",
      "type": "function"
    },
    {
      "inputs": [],
      "name": "buy",
      "outputs": [
        {
          "internalType": "uint256",
          "name": "",
          "type": "uint256"
        }
      ],
      "stateMutability": "payable",
      "type": "function"
    },
    {
      "inputs": [
        {
          "internalType": "uint256",
          "name": "amount",
          "type": "uint256"
        }
      ],
      "name": "sell",
      "outputs": [],
      "stateMutability": "nonpayable",
      "type": "function"
    },
    {
      "inputs": [],
      "name": "withdraw",
      "outputs": [],
      "stateMutability": "nonpayable",
      "type": "function"
    }
  ],
  "bytecode": "0x608060405260646002553480156200001657600080fd5b50604051620018643803806200186483398181016040528101906200003c9190620001da565b6200005c62000050620000a460201b60201c565b620000ac60201b60201c565b80600160006101000a81548173ffffffffffffffffffffffffffffffffffffffff021916908373ffffffffffffffffffffffffffffffffffffffff160217905550506200020c565b600033905090565b60008060009054906101000a900473ffffffffffffffffffffffffffffffffffffffff169050816000806101000a81548173ffffffffffffffffffffffffffffffffffffffff021916908373ffffffffffffffffffffffffffffffffffffffff1602179055508173ffffffffffffffffffffffffffffffffffffffff168173ffffffffffffffffffffffffffffffffffffffff167f8be0079c531659141344cd1fd0a4f28419497f9722a3daafe3b4186f6b6457e060405160405180910390a35050565b600080fd5b600073ffffffffffffffffffffffffffffffffffffffff82169050919050565b6000620001a28262000175565b9050919050565b620001b48162000195565b8114620001c057600080fd5b50565b600081519050620001d481620001a9565b92915050565b600060208284031215620001f357620001f262000170565b5b60006200020384828501620001c3565b91505092915050565b611648806200021c6000396000f3fe6080604052600436106100705760003560e01c80638da5cb5b1161004e5780638da5cb5b146100ce578063a6f2ae3a146100f9578063e4849b3214610117578063f2fde38b1461014057610070565b80633ccfd60b14610075578063715018a61461008c578063885cd2f2146100a3575b600080fd5b34801561008157600080fd5b5061008a610169565b005b34801561009857600080fd5b506100a16102dd565b005b3480156100af57600080fd5b506100b8610365565b6040516100c59190610c72565b60405180910390f35b3480156100da57600080fd5b506100e361036b565b6040516100f09190610cce565b60405180910390f35b610101610394565b60405161010e9190610c72565b60405180910390f35b34801561012357600080fd5b5061013e60048036038101906101399190610d1a565b6106d9565b005b34801561014c57600080fd5b5061016760048036038101906101629190610d73565b610a95565b005b610171610b8d565b73ffffffffffffffffffffffffffffffffffffffff1661018f61036b565b73ffffffffffffffffffffffffffffffffffffffff16146101e5576040517f08c379a00000000000000000000000000000000000000000000000000000000081526004016101dc90610dfd565b60405180910390fd5b60004790506000811161022d576040517f08c379a000000000000000000000000000000000000000000000000000000000815260040161022490610e69565b60405180910390fd5b60003373ffffffffffffffffffffffffffffffffffffffff164760405161025390610eba565b60006040518083038185875af1925050503d8060008114610290576040519150601f19603f3d011682016040523d82523d6000602084013e610295565b606091505b50509050806102d9576040517f08c379a00000000000000000000000000000000000000000000000000000000081526004016102d090610f1b565b60405180910390fd5b5050565b6102e5610b8d565b73ffffffffffffffffffffffffffffffffffffffff1661030361036b565b73ffffffffffffffffffffffffffffffffffffffff1614610359576040517f08c379a000000000000000000000000000000000000000000000000000000000815260040161035090610dfd565b60405180910390fd5b6103636000610b95565b565b60025481565b60008060009054906101000a900473ffffffffffffffffffffffffffffffffffffffff16905090565b60008034116103d8576040517f08c379a00000000000000000000000000000000000000000000000000000000081526004016103cf90610f87565b60405180910390fd5b6000600160009054906101000a900473ffffffffffffffffffffffffffffffffffffffff1673ffffffffffffffffffffffffffffffffffffffff166370a08231306040518263ffffffff1660e01b81526004016104359190610cce565b602060405180830381865afa158015610452573d6000803e3d6000fd5b505050506040513d601f19601f820116820180604052508101906104769190610fbc565b9050600081116104bb576040517f08c379a00000000000000000000000000000000000000000000000000000000081526004016104b290611035565b60405180910390fd5b6000600254346104cb9190611084565b90506000600160009054906101000a900473ffffffffffffffffffffffffffffffffffffffff1673ffffffffffffffffffffffffffffffffffffffff166370a08231306040518263ffffffff1660e01b815260040161052a9190610cce565b602060405180830381865afa158015610547573d6000803e3d6000fd5b505050506040513d601f19601f8201168201806040525081019061056b9190610fbc565b9050818110156105b0576040517f08c379a00000000000000000000000000000000000000000000000000000000081526004016105a790611150565b60405180910390fd5b6000600160009054906101000a900473ffffffffffffffffffffffffffffffffffffffff1673ffffffffffffffffffffffffffffffffffffffff1663a9059cbb33856040518363ffffffff1660e01b815260040161060f929190611170565b6020604051808303816000875af115801561062e573d6000803e3d6000fd5b505050506040513d601f19601f8201168201806040525081019061065291906111d1565b905080610694576040517f08c379a000000000000000000000000000000000000000000000000000000000815260040161068b9061124a565b60405180910390fd5b7f3bb4697fb26f146f2cc87c9ca9d3a035c697424e8cbfe173bcc7fc43bd3e3ee03334856040516106c79392919061126a565b60405180910390a18294505050505090565b6000600160009054906101000a900473ffffffffffffffffffffffffffffffffffffffff1673ffffffffffffffffffffffffffffffffffffffff166370a08231306040518263ffffffff1660e01b81526004016107369190610cce565b602060405180830381865afa158015610753573d6000803e3d6000fd5b505050506040513d601f19601f820116820180604052508101906107779190610fbc565b9050600081116107bc576040517f08c379a00000000000000000000000000000000000000000000000000000000081526004016107b390611035565b60405180910390fd5b816000600160009054906101000a900473ffffffffffffffffffffffffffffffffffffffff1673ffffffffffffffffffffffffffffffffffffffff166370a08231336040518263ffffffff1660e01b815260040161081a9190610cce565b602060405180830381865afa158015610837573d6000803e3d6000fd5b505050506040513d601f19601f8201168201806040525081019061085b9190610fbc565b9050818110156108a0576040517f08c379a000000000000000000000000000000000000000000000000000000000815260040161089790611313565b60405180910390fd5b6000600254856108b09190611362565b90506000479050818110156108fa576040517f08c379a00000000000000000000000000000000000000000000000000000000081526004016108f19061142b565b60405180910390fd5b6000600160009054906101000a900473ffffffffffffffffffffffffffffffffffffffff1673ffffffffffffffffffffffffffffffffffffffff166323b872dd33308a6040518463ffffffff1660e01b815260040161095b9392919061144b565b6020604051808303816000875af115801561097a573d6000803e3d6000fd5b505050506040513d601f19601f8201168201806040525081019061099e91906111d1565b9050806109e0576040517f08c379a00000000000000000000000000000000000000000000000000000000081526004016109d7906114f4565b60405180910390fd5b3373ffffffffffffffffffffffffffffffffffffffff1683604051610a0490610eba565b60006040518083038185875af1925050503d8060008114610a41576040519150601f19603f3d011682016040523d82523d6000602084013e610a46565b606091505b50508091505080610a8c576040517f08c379a0000000000000000000000000000000000000000000000000000000008152600401610a8390611560565b60405180910390fd5b50505050505050565b610a9d610b8d565b73ffffffffffffffffffffffffffffffffffffffff16610abb61036b565b73ffffffffffffffffffffffffffffffffffffffff1614610b11576040517f08c379a0000000000000000000000000000000000000000000000000000000008152600401610b0890610dfd565b60405180910390fd5b600073ffffffffffffffffffffffffffffffffffffffff168173ffffffffffffffffffffffffffffffffffffffff161415610b81576040517f08c379a0000000000000000000000000000000000000000000000000000000008152600401610b78906115f2565b60405180910390fd5b610b8a81610b95565b50565b600033905090565b60008060009054906101000a900473ffffffffffffffffffffffffffffffffffffffff169050816000806101000a81548173ffffffffffffffffffffffffffffffffffffffff021916908373ffffffffffffffffffffffffffffffffffffffff1602179055508173ffffffffffffffffffffffffffffffffffffffff168173ffffffffffffffffffffffffffffffffffffffff167f8be0079c531659141344cd1fd0a4f28419497f9722a3daafe3b4186f6b6457e060405160405180910390a35050565b6000819050919050565b610c6c81610c59565b82525050565b6000602082019050610c876000830184610c63565b92915050565b600073ffffffffffffffffffffffffffffffffffffffff82169050919050565b6000610cb882610c8d565b9050919050565b610cc881610cad565b82525050565b6000602082019050610ce36000830184610cbf565b92915050565b600080fd5b610cf781610c59565b8114610d0257600080fd5b50565b600081359050610d1481610cee565b92915050565b600060208284031215610d3057610d2f610ce9565b5b6000610d3e84828501610d05565b91505092915050565b610d5081610cad565b8114610d5b57600080fd5b50565b600081359050610d6d81610d47565b92915050565b600060208284031215610d8957610d88610ce9565b5b6000610d9784828501610d5e565b91505092915050565b600082825260208201905092915050565b7f4f776e61626c653a2063616c6c6572206973206e6f7420746865206f776e6572600082015250565b6000610de7602083610da0565b9150610df282610db1565b602082019050919050565b60006020820190508181036000830152610e1681610dda565b9050919050565b7f73656d2073616c646f2070617261207361717565000000000000000000000000600082015250565b6000610e53601483610da0565b9150610e5e82610e1d565b602082019050919050565b60006020820190508181036000830152610e8281610e46565b9050919050565b600081905092915050565b50565b6000610ea4600083610e89565b9150610eaf82610e94565b600082019050919050565b6000610ec582610e97565b9150819050919050565b7f66616c686120616f207265616c697a6172207361717565000000000000000000600082015250565b6000610f05601783610da0565b9150610f1082610ecf565b602082019050919050565b60006020820190508181036000830152610f3481610ef8565b9050919050565b7f7175616e7469646164652064652045544820696e737566696369656e74650000600082015250565b6000610f71601e83610da0565b9150610f7c82610f3b565b602082019050919050565b60006020820190508181036000830152610fa081610f64565b9050919050565b600081519050610fb681610cee565b92915050565b600060208284031215610fd257610fd1610ce9565b5b6000610fe084828501610fa7565b91505092915050565b7f7175616e74696461646520646520544b4e20696e737566696369656e74650000600082015250565b600061101f601e83610da0565b915061102a82610fe9565b602082019050919050565b6000602082019050818103600083015261104e81611012565b9050919050565b7f4e487b7100000000000000000000000000000000000000000000000000000000600052601160045260246000fd5b600061108f82610c59565b915061109a83610c59565b9250817fffffffffffffffffffffffffffffffffffffffffffffffffffffffffffffffff04831182151516156110d3576110d2611055565b5b828202905092915050565b7f73616c646f20646f20646973747269627569646f7220696e737566696369656e60008201527f7465000000000000000000000000000000000000000000000000000000000000602082015250565b600061113a602283610da0565b9150611145826110de565b604082019050919050565b600060208201905081810360008301526111698161112d565b9050919050565b60006040820190506111856000830185610cbf565b6111926020830184610c63565b9392505050565b60008115159050919050565b6111ae81611199565b81146111b957600080fd5b50565b6000815190506111cb816111a5565b92915050565b6000602082840312156111e7576111e6610ce9565b5b60006111f5848285016111bc565b91505092915050565b7f66616c686120616f207472616e73666572697220746f6b656e73000000000000600082015250565b6000611234601a83610da0565b915061123f826111fe565b602082019050919050565b6000602082019050818103600083015261126381611227565b9050919050565b600060608201905061127f6000830186610cbf565b61128c6020830185610c63565b6112996040830184610c63565b949350505050565b7f73616c646f20696e666572696f722061207175616e746964616465206465207460008201527f6f6b656e732071756520646573616a612076656e646572000000000000000000602082015250565b60006112fd603783610da0565b9150611308826112a1565b604082019050919050565b6000602082019050818103600083015261132c816112f0565b9050919050565b7f4e487b7100000000000000000000000000000000000000000000000000000000600052601260045260246000fd5b600061136d82610c59565b915061137883610c59565b92508261138857611387611333565b5b828204905092915050565b7f446973747269627569646f72206e616f20706f737375692066756e646f73207360008201527f7566696369656e7465207061726120616365697461722073756120726571756960208201527f736963616f000000000000000000000000000000000000000000000000000000604082015250565b6000611415604583610da0565b915061142082611393565b606082019050919050565b6000602082019050818103600083015261144481611408565b9050919050565b60006060820190506114606000830186610cbf565b61146d6020830185610cbf565b61147a6040830184610c63565b949350505050565b7f66616c686120616f207472616e73666572697220544b4e20646f20757375617260008201527f696f2070617261206f20646973747269627569646f7200000000000000000000602082015250565b60006114de603683610da0565b91506114e982611482565b604082019050919050565b6000602082019050818103600083015261150d816114d1565b9050919050565b7f4661696c656420746f2073656e642045544820746f2074686520757365720000600082015250565b600061154a601e83610da0565b915061155582611514565b602082019050919050565b600060208201905081810360008301526115798161153d565b9050919050565b7f4f776e61626c653a206e6577206f776e657220697320746865207a65726f206160008201527f6464726573730000000000000000000000000000000000000000000000000000602082015250565b60006115dc602683610da0565b91506115e782611580565b604082019050919050565b6000602082019050818103600083015261160b816115cf565b905091905056fea264697066735822122014e5489a985c58f4096af8539dcef7b12aac87859ea2f1acb7dd4526a3add19d64736f6c634300080a0033",
  "immutableReferences": {},
  "source": "// SPDX-License-Identifier: MIT\r\npragma solidity >=0.8.0 <0.9.0;\r\n\r\nimport \"./Token.sol\";\r\nimport \"@openzeppelin/contracts/access/Ownable.sol\";\r\n\r\ncontract TokenVendor is Ownable {\r\n    Token _token;\r\n    uint256 public _parity = 100; // - 100 tkn = 1 eth\r\n\r\n    event PurchasedToken(address buyer, uint256 ethAmount, uint256 tknAmount);\r\n    event SoldToken(address vendedor, uint256 tknAmount, uint256 ethAmount);\r\n\r\n    constructor(address tokenAddress) {\r\n        _token = Token(tokenAddress);\r\n    }\r\n\r\n    modifier onlyValidAmountOfETH()\r\n    {\r\n        require(msg.value > 0, \"quantidade de ETH insuficiente\");\r\n        _;\r\n    }\r\n\r\n    modifier onlyValidAmountOfTKN()\r\n    {\r\n        uint256 vendorBalance = _token.balanceOf(address(this));\r\n        require(vendorBalance > 0, \"quantidade de TKN insuficiente\");\r\n        _;\r\n    }\r\n\r\n    modifier onlyValidTokenBalance(uint amount)\r\n    {\r\n        uint256 userBalance = _token.balanceOf(msg.sender);\r\n        require(userBalance >= amount,\"saldo inferior a quantidade de tokens que desaja vender\");\r\n        _;\r\n    }\r\n\r\n    modifier onlyValidBalance()\r\n    {\r\n        uint256 saldoDono = address(this).balance;\r\n        require(saldoDono > 0, \"sem saldo para saque\");\r\n        _;\r\n    }\r\n\r\n    function buy( )\r\n        public\r\n        payable\r\n        onlyValidAmountOfETH()\r\n        onlyValidAmountOfTKN()\r\n        returns (uint256)\r\n    {\r\n        // require(msg.value > 0, \"quantidade de ETH insuficiente\");\r\n\r\n        uint256 amountToBuy = msg.value * _parity;\r\n        uint256 vendorBalance = _token.balanceOf(address(this));\r\n\r\n        require(vendorBalance >= amountToBuy, \"saldo do distribuidor insuficiente\");\r\n\r\n        (bool sent) = _token.transfer(msg.sender, amountToBuy);\r\n        require(sent, \"falha ao transferir tokens\");\r\n\r\n         emit PurchasedToken(msg.sender, msg.value, amountToBuy);\r\n\r\n         return amountToBuy;\r\n    }\r\n\r\n    function sell\r\n    (\r\n        uint256 amount\r\n    )\r\n        public\r\n        onlyValidAmountOfTKN()\r\n        onlyValidTokenBalance(amount)\r\n    {\r\n        // require(quantidade > 0, \"quantidade insuficiente\");\r\n\r\n        // uint256 userBalance = _token.balanceOf(msg.sender);\r\n        // require(userBalance >= amount,\"saldo inferior a quantidade de tokens que desaja vender\");\r\n\r\n        uint256 amountOfETHToTransfer = amount / _parity;\r\n        uint256 ownerETHBalance = address(this).balance;\r\n        require(ownerETHBalance >= amountOfETHToTransfer, \"Distribuidor nao possui fundos suficiente para aceitar sua requisicao\");\r\n\r\n        (bool sent) = _token.transferFrom(msg.sender, address(this), amount);\r\n        require(sent, \"falha ao transferir TKN do usuario para o distribuidor\");\r\n\r\n        (sent,) = msg.sender.call{value: amountOfETHToTransfer}(\"\");\r\n        require(sent, \"Failed to send ETH to the user\");        \r\n    }\r\n\r\n    function withdraw()\r\n        public\r\n        onlyOwner\r\n        onlyValidBalance()\r\n    {\r\n        // uint256 saldoDono = address(this).balance;\r\n        // require(saldoDono > 0, \"sem saldo para saque\");\r\n\r\n        (bool sent,) = msg.sender.call{value: address(this).balance}(\"\");\r\n        require(sent, \"falha ao realizar saque\");\r\n    }    \r\n}",
  "sourcePath": "C:/Dev/Projetos/git/smart-contract/contracts/TokenVendor.sol",
  "compiler": {
    "name": "solc",
    "version": "0.8.10+commit.fc410830.Emscripten.clang"
  },
  "schemaVersion": "3.3.4",
  "updatedAt": "2021-11-13T14:41:38.031Z",
  "devdoc": {
    "kind": "dev",
    "methods": {
      "owner()": {
        "details": "Returns the address of the current owner."
      },
      "renounceOwnership()": {
        "details": "Leaves the contract without owner. It will not be possible to call `onlyOwner` functions anymore. Can only be called by the current owner. NOTE: Renouncing ownership will leave the contract without an owner, thereby removing any functionality that is only available to the owner."
      },
      "transferOwnership(address)": {
        "details": "Transfers ownership of the contract to a new account (`newOwner`). Can only be called by the current owner."
      }
    },
    "version": 1
  },
  "userdoc": {
    "kind": "user",
    "methods": {},
    "version": 1
  }
}