{
  "contractName": "TokenVendor",
  "abi": [
    {
      "inputs": [
        {
          "internalType": "address",
          "name": "tokenAddress",
          "type": "address"
        }
      ],
      "stateMutability": "nonpayable",
      "type": "constructor"
    },
    {
      "anonymous": false,
      "inputs": [
        {
          "indexed": true,
          "internalType": "address",
          "name": "previousOwner",
          "type": "address"
        },
        {
          "indexed": true,
          "internalType": "address",
          "name": "newOwner",
          "type": "address"
        }
      ],
      "name": "OwnershipTransferred",
      "type": "event"
    },
    {
      "anonymous": false,
      "inputs": [
        {
          "indexed": false,
          "internalType": "address",
          "name": "buyer",
          "type": "address"
        },
        {
          "indexed": false,
          "internalType": "uint256",
          "name": "ethAmount",
          "type": "uint256"
        },
        {
          "indexed": false,
          "internalType": "uint256",
          "name": "tknAmount",
          "type": "uint256"
        }
      ],
      "name": "purchasedToken",
      "type": "event"
    },
    {
      "anonymous": false,
      "inputs": [
        {
          "indexed": false,
          "internalType": "address",
          "name": "vendedor",
          "type": "address"
        },
        {
          "indexed": false,
          "internalType": "uint256",
          "name": "tknAmount",
          "type": "uint256"
        },
        {
          "indexed": false,
          "internalType": "uint256",
          "name": "ethAmount",
          "type": "uint256"
        }
      ],
      "name": "soldToken",
      "type": "event"
    },
    {
      "inputs": [],
      "name": "_parity",
      "outputs": [
        {
          "internalType": "uint256",
          "name": "",
          "type": "uint256"
        }
      ],
      "stateMutability": "view",
      "type": "function"
    },
    {
      "inputs": [],
      "name": "owner",
      "outputs": [
        {
          "internalType": "address",
          "name": "",
          "type": "address"
        }
      ],
      "stateMutability": "view",
      "type": "function"
    },
    {
      "inputs": [],
      "name": "renounceOwnership",
      "outputs": [],
      "stateMutability": "nonpayable",
      "type": "function"
    },
    {
      "inputs": [
        {
          "internalType": "address",
          "name": "newOwner",
          "type": "address"
        }
      ],
      "name": "transferOwnership",
      "outputs": [],
      "stateMutability": "nonpayable",
      "type": "function"
    },
    {
      "inputs": [],
      "name": "buy",
      "outputs": [
        {
          "internalType": "uint256",
          "name": "",
          "type": "uint256"
        }
      ],
      "stateMutability": "payable",
      "type": "function"
    },
    {
      "inputs": [
        {
          "internalType": "uint256",
          "name": "amount",
          "type": "uint256"
        }
      ],
      "name": "sell",
      "outputs": [],
      "stateMutability": "nonpayable",
      "type": "function"
    },
    {
      "inputs": [],
      "name": "withdraw",
      "outputs": [],
      "stateMutability": "nonpayable",
      "type": "function"
    }
  ],
  "bytecode": "0x608060405260646002553480156200001657600080fd5b50604051620018be380380620018be83398181016040528101906200003c9190620001da565b6200005c62000050620000a460201b60201c565b620000ac60201b60201c565b80600160006101000a81548173ffffffffffffffffffffffffffffffffffffffff021916908373ffffffffffffffffffffffffffffffffffffffff160217905550506200020c565b600033905090565b60008060009054906101000a900473ffffffffffffffffffffffffffffffffffffffff169050816000806101000a81548173ffffffffffffffffffffffffffffffffffffffff021916908373ffffffffffffffffffffffffffffffffffffffff1602179055508173ffffffffffffffffffffffffffffffffffffffff168173ffffffffffffffffffffffffffffffffffffffff167f8be0079c531659141344cd1fd0a4f28419497f9722a3daafe3b4186f6b6457e060405160405180910390a35050565b600080fd5b600073ffffffffffffffffffffffffffffffffffffffff82169050919050565b6000620001a28262000175565b9050919050565b620001b48162000195565b8114620001c057600080fd5b50565b600081519050620001d481620001a9565b92915050565b600060208284031215620001f357620001f262000170565b5b60006200020384828501620001c3565b91505092915050565b6116a2806200021c6000396000f3fe6080604052600436106100705760003560e01c80638da5cb5b1161004e5780638da5cb5b146100ce578063a6f2ae3a146100f9578063e4849b3214610117578063f2fde38b1461014057610070565b80633ccfd60b14610075578063715018a61461008c578063885cd2f2146100a3575b600080fd5b34801561008157600080fd5b5061008a610169565b005b34801561009857600080fd5b506100a16102dd565b005b3480156100af57600080fd5b506100b8610365565b6040516100c59190610ccc565b60405180910390f35b3480156100da57600080fd5b506100e361036b565b6040516100f09190610d28565b60405180910390f35b610101610394565b60405161010e9190610ccc565b60405180910390f35b34801561012357600080fd5b5061013e60048036038101906101399190610d74565b610706565b005b34801561014c57600080fd5b5061016760048036038101906101629190610dcd565b610aef565b005b610171610be7565b73ffffffffffffffffffffffffffffffffffffffff1661018f61036b565b73ffffffffffffffffffffffffffffffffffffffff16146101e5576040517f08c379a00000000000000000000000000000000000000000000000000000000081526004016101dc90610e57565b60405180910390fd5b60004790506000811161022d576040517f08c379a000000000000000000000000000000000000000000000000000000000815260040161022490610ec3565b60405180910390fd5b60003373ffffffffffffffffffffffffffffffffffffffff164760405161025390610f14565b60006040518083038185875af1925050503d8060008114610290576040519150601f19603f3d011682016040523d82523d6000602084013e610295565b606091505b50509050806102d9576040517f08c379a00000000000000000000000000000000000000000000000000000000081526004016102d090610f75565b60405180910390fd5b5050565b6102e5610be7565b73ffffffffffffffffffffffffffffffffffffffff1661030361036b565b73ffffffffffffffffffffffffffffffffffffffff1614610359576040517f08c379a000000000000000000000000000000000000000000000000000000000815260040161035090610e57565b60405180910390fd5b6103636000610bef565b565b60025481565b60008060009054906101000a900473ffffffffffffffffffffffffffffffffffffffff16905090565b60008034116103d8576040517f08c379a00000000000000000000000000000000000000000000000000000000081526004016103cf90610fe1565b60405180910390fd5b6000600160009054906101000a900473ffffffffffffffffffffffffffffffffffffffff1673ffffffffffffffffffffffffffffffffffffffff166370a08231306040518263ffffffff1660e01b81526004016104359190610d28565b60206040518083038186803b15801561044d57600080fd5b505afa158015610461573d6000803e3d6000fd5b505050506040513d601f19601f820116820180604052508101906104859190611016565b9050600081116104ca576040517f08c379a00000000000000000000000000000000000000000000000000000000081526004016104c19061108f565b60405180910390fd5b6000600254346104da91906110de565b90506000600160009054906101000a900473ffffffffffffffffffffffffffffffffffffffff1673ffffffffffffffffffffffffffffffffffffffff166370a08231306040518263ffffffff1660e01b81526004016105399190610d28565b60206040518083038186803b15801561055157600080fd5b505afa158015610565573d6000803e3d6000fd5b505050506040513d601f19601f820116820180604052508101906105899190611016565b9050818110156105ce576040517f08c379a00000000000000000000000000000000000000000000000000000000081526004016105c5906111aa565b60405180910390fd5b6000600160009054906101000a900473ffffffffffffffffffffffffffffffffffffffff1673ffffffffffffffffffffffffffffffffffffffff1663a9059cbb33856040518363ffffffff1660e01b815260040161062d9291906111ca565b602060405180830381600087803b15801561064757600080fd5b505af115801561065b573d6000803e3d6000fd5b505050506040513d601f19601f8201168201806040525081019061067f919061122b565b9050806106c1576040517f08c379a00000000000000000000000000000000000000000000000000000000081526004016106b8906112a4565b60405180910390fd5b7f46ea8b9d04c2ad17d8c924d56a390f78ae6cfc87791e432f0a2ad80e4729dca13334856040516106f4939291906112c4565b60405180910390a18294505050505090565b6000600160009054906101000a900473ffffffffffffffffffffffffffffffffffffffff1673ffffffffffffffffffffffffffffffffffffffff166370a08231306040518263ffffffff1660e01b81526004016107639190610d28565b60206040518083038186803b15801561077b57600080fd5b505afa15801561078f573d6000803e3d6000fd5b505050506040513d601f19601f820116820180604052508101906107b39190611016565b9050600081116107f8576040517f08c379a00000000000000000000000000000000000000000000000000000000081526004016107ef9061108f565b60405180910390fd5b816000600160009054906101000a900473ffffffffffffffffffffffffffffffffffffffff1673ffffffffffffffffffffffffffffffffffffffff166370a08231336040518263ffffffff1660e01b81526004016108569190610d28565b60206040518083038186803b15801561086e57600080fd5b505afa158015610882573d6000803e3d6000fd5b505050506040513d601f19601f820116820180604052508101906108a69190611016565b9050818110156108eb576040517f08c379a00000000000000000000000000000000000000000000000000000000081526004016108e29061136d565b60405180910390fd5b6000600254856108fb91906113bc565b9050600047905081811015610945576040517f08c379a000000000000000000000000000000000000000000000000000000000815260040161093c90611485565b60405180910390fd5b6000600160009054906101000a900473ffffffffffffffffffffffffffffffffffffffff1673ffffffffffffffffffffffffffffffffffffffff166323b872dd33308a6040518463ffffffff1660e01b81526004016109a6939291906114a5565b602060405180830381600087803b1580156109c057600080fd5b505af11580156109d4573d6000803e3d6000fd5b505050506040513d601f19601f820116820180604052508101906109f8919061122b565b905080610a3a576040517f08c379a0000000000000000000000000000000000000000000000000000000008152600401610a319061154e565b60405180910390fd5b3373ffffffffffffffffffffffffffffffffffffffff1683604051610a5e90610f14565b60006040518083038185875af1925050503d8060008114610a9b576040519150601f19603f3d011682016040523d82523d6000602084013e610aa0565b606091505b50508091505080610ae6576040517f08c379a0000000000000000000000000000000000000000000000000000000008152600401610add906115ba565b60405180910390fd5b50505050505050565b610af7610be7565b73ffffffffffffffffffffffffffffffffffffffff16610b1561036b565b73ffffffffffffffffffffffffffffffffffffffff1614610b6b576040517f08c379a0000000000000000000000000000000000000000000000000000000008152600401610b6290610e57565b60405180910390fd5b600073ffffffffffffffffffffffffffffffffffffffff168173ffffffffffffffffffffffffffffffffffffffff161415610bdb576040517f08c379a0000000000000000000000000000000000000000000000000000000008152600401610bd29061164c565b60405180910390fd5b610be481610bef565b50565b600033905090565b60008060009054906101000a900473ffffffffffffffffffffffffffffffffffffffff169050816000806101000a81548173ffffffffffffffffffffffffffffffffffffffff021916908373ffffffffffffffffffffffffffffffffffffffff1602179055508173ffffffffffffffffffffffffffffffffffffffff168173ffffffffffffffffffffffffffffffffffffffff167f8be0079c531659141344cd1fd0a4f28419497f9722a3daafe3b4186f6b6457e060405160405180910390a35050565b6000819050919050565b610cc681610cb3565b82525050565b6000602082019050610ce16000830184610cbd565b92915050565b600073ffffffffffffffffffffffffffffffffffffffff82169050919050565b6000610d1282610ce7565b9050919050565b610d2281610d07565b82525050565b6000602082019050610d3d6000830184610d19565b92915050565b600080fd5b610d5181610cb3565b8114610d5c57600080fd5b50565b600081359050610d6e81610d48565b92915050565b600060208284031215610d8a57610d89610d43565b5b6000610d9884828501610d5f565b91505092915050565b610daa81610d07565b8114610db557600080fd5b50565b600081359050610dc781610da1565b92915050565b600060208284031215610de357610de2610d43565b5b6000610df184828501610db8565b91505092915050565b600082825260208201905092915050565b7f4f776e61626c653a2063616c6c6572206973206e6f7420746865206f776e6572600082015250565b6000610e41602083610dfa565b9150610e4c82610e0b565b602082019050919050565b60006020820190508181036000830152610e7081610e34565b9050919050565b7f73656d2073616c646f2070617261207361717565000000000000000000000000600082015250565b6000610ead601483610dfa565b9150610eb882610e77565b602082019050919050565b60006020820190508181036000830152610edc81610ea0565b9050919050565b600081905092915050565b50565b6000610efe600083610ee3565b9150610f0982610eee565b600082019050919050565b6000610f1f82610ef1565b9150819050919050565b7f66616c686120616f207265616c697a6172207361717565000000000000000000600082015250565b6000610f5f601783610dfa565b9150610f6a82610f29565b602082019050919050565b60006020820190508181036000830152610f8e81610f52565b9050919050565b7f7175616e7469646164652064652045544820696e737566696369656e74650000600082015250565b6000610fcb601e83610dfa565b9150610fd682610f95565b602082019050919050565b60006020820190508181036000830152610ffa81610fbe565b9050919050565b60008151905061101081610d48565b92915050565b60006020828403121561102c5761102b610d43565b5b600061103a84828501611001565b91505092915050565b7f7175616e74696461646520646520544b4e20696e737566696369656e74650000600082015250565b6000611079601e83610dfa565b915061108482611043565b602082019050919050565b600060208201905081810360008301526110a88161106c565b9050919050565b7f4e487b7100000000000000000000000000000000000000000000000000000000600052601160045260246000fd5b60006110e982610cb3565b91506110f483610cb3565b9250817fffffffffffffffffffffffffffffffffffffffffffffffffffffffffffffffff048311821515161561112d5761112c6110af565b5b828202905092915050565b7f73616c646f20646f20646973747269627569646f7220696e737566696369656e60008201527f7465000000000000000000000000000000000000000000000000000000000000602082015250565b6000611194602283610dfa565b915061119f82611138565b604082019050919050565b600060208201905081810360008301526111c381611187565b9050919050565b60006040820190506111df6000830185610d19565b6111ec6020830184610cbd565b9392505050565b60008115159050919050565b611208816111f3565b811461121357600080fd5b50565b600081519050611225816111ff565b92915050565b60006020828403121561124157611240610d43565b5b600061124f84828501611216565b91505092915050565b7f66616c686120616f207472616e73666572697220746f6b656e73000000000000600082015250565b600061128e601a83610dfa565b915061129982611258565b602082019050919050565b600060208201905081810360008301526112bd81611281565b9050919050565b60006060820190506112d96000830186610d19565b6112e66020830185610cbd565b6112f36040830184610cbd565b949350505050565b7f73616c646f20696e666572696f722061207175616e746964616465206465207460008201527f6f6b656e732071756520646573616a612076656e646572000000000000000000602082015250565b6000611357603783610dfa565b9150611362826112fb565b604082019050919050565b600060208201905081810360008301526113868161134a565b9050919050565b7f4e487b7100000000000000000000000000000000000000000000000000000000600052601260045260246000fd5b60006113c782610cb3565b91506113d283610cb3565b9250826113e2576113e161138d565b5b828204905092915050565b7f446973747269627569646f72206e616f20706f737375692066756e646f73207360008201527f7566696369656e7465207061726120616365697461722073756120726571756960208201527f736963616f000000000000000000000000000000000000000000000000000000604082015250565b600061146f604583610dfa565b915061147a826113ed565b606082019050919050565b6000602082019050818103600083015261149e81611462565b9050919050565b60006060820190506114ba6000830186610d19565b6114c76020830185610d19565b6114d46040830184610cbd565b949350505050565b7f66616c686120616f207472616e73666572697220544b4e20646f20757375617260008201527f696f2070617261206f20646973747269627569646f7200000000000000000000602082015250565b6000611538603683610dfa565b9150611543826114dc565b604082019050919050565b600060208201905081810360008301526115678161152b565b9050919050565b7f4661696c656420746f2073656e642045544820746f2074686520757365720000600082015250565b60006115a4601e83610dfa565b91506115af8261156e565b602082019050919050565b600060208201905081810360008301526115d381611597565b9050919050565b7f4f776e61626c653a206e6577206f776e657220697320746865207a65726f206160008201527f6464726573730000000000000000000000000000000000000000000000000000602082015250565b6000611636602683610dfa565b9150611641826115da565b604082019050919050565b6000602082019050818103600083015261166581611629565b905091905056fea26469706673582212201523443a42187d5b6ed77c4d549aa62f63e1d59a1816dd39044458b0adbd65f964736f6c63430008090033",
  "immutableReferences": {},
  "source": "// SPDX-License-Identifier: MIT\r\npragma solidity >=0.8.0 <0.9.0;\r\n\r\nimport \"./Token.sol\";\r\nimport \"@openzeppelin/contracts/access/Ownable.sol\";\r\n\r\ncontract TokenVendor is Ownable {\r\n    Token _token;\r\n    uint256 public _parity = 100; // - 100 tkn = 1 eth\r\n\r\n    event purchasedToken(address buyer, uint256 ethAmount, uint256 tknAmount);\r\n    event soldToken(address vendedor, uint256 tknAmount, uint256 ethAmount);\r\n\r\n    constructor(address tokenAddress) {\r\n        _token = Token(tokenAddress);\r\n    }\r\n\r\n    modifier onlyValidAmountOfETH()\r\n    {\r\n        require(msg.value > 0, \"quantidade de ETH insuficiente\");\r\n        _;\r\n    }\r\n\r\n    modifier onlyValidAmountOfTKN()\r\n    {\r\n        uint256 vendorBalance = _token.balanceOf(address(this));\r\n        require(vendorBalance > 0, \"quantidade de TKN insuficiente\");\r\n        _;\r\n    }\r\n\r\n    modifier onlyValidTokenBalance(uint amount)\r\n    {\r\n        uint256 userBalance = _token.balanceOf(msg.sender);\r\n        require(userBalance >= amount,\"saldo inferior a quantidade de tokens que desaja vender\");\r\n        _;\r\n    }\r\n\r\n    modifier onlyValidBalance()\r\n    {\r\n        uint256 saldoDono = address(this).balance;\r\n        require(saldoDono > 0, \"sem saldo para saque\");\r\n        _;\r\n    }\r\n\r\n    function buy( )\r\n        public\r\n        payable\r\n        onlyValidAmountOfETH()\r\n        onlyValidAmountOfTKN()\r\n        returns (uint256)\r\n    {\r\n        // require(msg.value > 0, \"quantidade de ETH insuficiente\");\r\n\r\n        uint256 amountToBuy = msg.value * _parity;\r\n        uint256 vendorBalance = _token.balanceOf(address(this));\r\n\r\n        require(vendorBalance >= amountToBuy, \"saldo do distribuidor insuficiente\");\r\n\r\n        (bool sent) = _token.transfer(msg.sender, amountToBuy);\r\n        require(sent, \"falha ao transferir tokens\");\r\n\r\n         emit purchasedToken(msg.sender, msg.value, amountToBuy);\r\n\r\n         return amountToBuy;\r\n    }\r\n\r\n    function sell\r\n    (\r\n        uint256 amount\r\n    )\r\n        public\r\n        onlyValidAmountOfTKN()\r\n        onlyValidTokenBalance(amount)\r\n    {\r\n        // require(quantidade > 0, \"quantidade insuficiente\");\r\n\r\n        // uint256 userBalance = _token.balanceOf(msg.sender);\r\n        // require(userBalance >= amount,\"saldo inferior a quantidade de tokens que desaja vender\");\r\n\r\n        uint256 amountOfETHToTransfer = amount / _parity;\r\n        uint256 ownerETHBalance = address(this).balance;\r\n        require(ownerETHBalance >= amountOfETHToTransfer, \"Distribuidor nao possui fundos suficiente para aceitar sua requisicao\");\r\n\r\n        (bool sent) = _token.transferFrom(msg.sender, address(this), amount);\r\n        require(sent, \"falha ao transferir TKN do usuario para o distribuidor\");\r\n\r\n        (sent,) = msg.sender.call{value: amountOfETHToTransfer}(\"\");\r\n        require(sent, \"Failed to send ETH to the user\");        \r\n    }\r\n\r\n    function withdraw()\r\n        public\r\n        onlyOwner\r\n        onlyValidBalance()\r\n    {\r\n        // uint256 saldoDono = address(this).balance;\r\n        // require(saldoDono > 0, \"sem saldo para saque\");\r\n\r\n        (bool sent,) = msg.sender.call{value: address(this).balance}(\"\");\r\n        require(sent, \"falha ao realizar saque\");\r\n    }    \r\n}",
  "sourcePath": "C:/Dev/Projetos/git/smart-contract/contracts/TokenVendor.sol",
  "compiler": {
    "name": "solc",
    "version": "0.8.9+commit.e5eed63a.Emscripten.clang"
  },
  "schemaVersion": "3.3.4",
  "updatedAt": "2021-10-22T16:40:07.402Z",
  "devdoc": {
    "kind": "dev",
    "methods": {
      "owner()": {
        "details": "Returns the address of the current owner."
      },
      "renounceOwnership()": {
        "details": "Leaves the contract without owner. It will not be possible to call `onlyOwner` functions anymore. Can only be called by the current owner. NOTE: Renouncing ownership will leave the contract without an owner, thereby removing any functionality that is only available to the owner."
      },
      "transferOwnership(address)": {
        "details": "Transfers ownership of the contract to a new account (`newOwner`). Can only be called by the current owner."
      }
    },
    "version": 1
  },
  "userdoc": {
    "kind": "user",
    "methods": {},
    "version": 1
  }
}