{
  "contractName": "Traceability",
  "abi": [
    {
      "inputs": [],
      "stateMutability": "nonpayable",
      "type": "constructor"
    },
    {
      "anonymous": false,
      "inputs": [
        {
          "indexed": true,
          "internalType": "address",
          "name": "owner",
          "type": "address"
        },
        {
          "indexed": true,
          "internalType": "address",
          "name": "approved",
          "type": "address"
        },
        {
          "indexed": true,
          "internalType": "uint256",
          "name": "tokenId",
          "type": "uint256"
        }
      ],
      "name": "Approval",
      "type": "event"
    },
    {
      "anonymous": false,
      "inputs": [
        {
          "indexed": true,
          "internalType": "address",
          "name": "owner",
          "type": "address"
        },
        {
          "indexed": true,
          "internalType": "address",
          "name": "operator",
          "type": "address"
        },
        {
          "indexed": false,
          "internalType": "bool",
          "name": "approved",
          "type": "bool"
        }
      ],
      "name": "ApprovalForAll",
      "type": "event"
    },
    {
      "anonymous": false,
      "inputs": [
        {
          "indexed": true,
          "internalType": "address",
          "name": "owner",
          "type": "address"
        },
        {
          "indexed": false,
          "internalType": "string",
          "name": "tokenURI",
          "type": "string"
        },
        {
          "indexed": false,
          "internalType": "uint256",
          "name": "newTokenId",
          "type": "uint256"
        }
      ],
      "name": "TokenCreation",
      "type": "event"
    },
    {
      "anonymous": false,
      "inputs": [
        {
          "indexed": false,
          "internalType": "uint256",
          "name": "tokenId",
          "type": "uint256"
        },
        {
          "indexed": false,
          "internalType": "uint256",
          "name": "tokenOrigin",
          "type": "uint256"
        }
      ],
      "name": "TokenOrigin",
      "type": "event"
    },
    {
      "anonymous": false,
      "inputs": [
        {
          "indexed": true,
          "internalType": "address",
          "name": "from",
          "type": "address"
        },
        {
          "indexed": true,
          "internalType": "address",
          "name": "to",
          "type": "address"
        },
        {
          "indexed": true,
          "internalType": "uint256",
          "name": "tokenId",
          "type": "uint256"
        }
      ],
      "name": "Transfer",
      "type": "event"
    },
    {
      "inputs": [
        {
          "internalType": "address",
          "name": "to",
          "type": "address"
        },
        {
          "internalType": "uint256",
          "name": "tokenId",
          "type": "uint256"
        }
      ],
      "name": "approve",
      "outputs": [],
      "stateMutability": "nonpayable",
      "type": "function"
    },
    {
      "inputs": [
        {
          "internalType": "address",
          "name": "owner",
          "type": "address"
        }
      ],
      "name": "balanceOf",
      "outputs": [
        {
          "internalType": "uint256",
          "name": "",
          "type": "uint256"
        }
      ],
      "stateMutability": "view",
      "type": "function"
    },
    {
      "inputs": [
        {
          "internalType": "uint256",
          "name": "tokenId",
          "type": "uint256"
        }
      ],
      "name": "getApproved",
      "outputs": [
        {
          "internalType": "address",
          "name": "",
          "type": "address"
        }
      ],
      "stateMutability": "view",
      "type": "function"
    },
    {
      "inputs": [
        {
          "internalType": "address",
          "name": "owner",
          "type": "address"
        },
        {
          "internalType": "address",
          "name": "operator",
          "type": "address"
        }
      ],
      "name": "isApprovedForAll",
      "outputs": [
        {
          "internalType": "bool",
          "name": "",
          "type": "bool"
        }
      ],
      "stateMutability": "view",
      "type": "function"
    },
    {
      "inputs": [],
      "name": "name",
      "outputs": [
        {
          "internalType": "string",
          "name": "",
          "type": "string"
        }
      ],
      "stateMutability": "view",
      "type": "function"
    },
    {
      "inputs": [
        {
          "internalType": "uint256",
          "name": "tokenId",
          "type": "uint256"
        }
      ],
      "name": "ownerOf",
      "outputs": [
        {
          "internalType": "address",
          "name": "",
          "type": "address"
        }
      ],
      "stateMutability": "view",
      "type": "function"
    },
    {
      "inputs": [
        {
          "internalType": "address",
          "name": "from",
          "type": "address"
        },
        {
          "internalType": "address",
          "name": "to",
          "type": "address"
        },
        {
          "internalType": "uint256",
          "name": "tokenId",
          "type": "uint256"
        }
      ],
      "name": "safeTransferFrom",
      "outputs": [],
      "stateMutability": "nonpayable",
      "type": "function"
    },
    {
      "inputs": [
        {
          "internalType": "address",
          "name": "from",
          "type": "address"
        },
        {
          "internalType": "address",
          "name": "to",
          "type": "address"
        },
        {
          "internalType": "uint256",
          "name": "tokenId",
          "type": "uint256"
        },
        {
          "internalType": "bytes",
          "name": "_data",
          "type": "bytes"
        }
      ],
      "name": "safeTransferFrom",
      "outputs": [],
      "stateMutability": "nonpayable",
      "type": "function"
    },
    {
      "inputs": [
        {
          "internalType": "address",
          "name": "operator",
          "type": "address"
        },
        {
          "internalType": "bool",
          "name": "approved",
          "type": "bool"
        }
      ],
      "name": "setApprovalForAll",
      "outputs": [],
      "stateMutability": "nonpayable",
      "type": "function"
    },
    {
      "inputs": [
        {
          "internalType": "bytes4",
          "name": "interfaceId",
          "type": "bytes4"
        }
      ],
      "name": "supportsInterface",
      "outputs": [
        {
          "internalType": "bool",
          "name": "",
          "type": "bool"
        }
      ],
      "stateMutability": "view",
      "type": "function"
    },
    {
      "inputs": [],
      "name": "symbol",
      "outputs": [
        {
          "internalType": "string",
          "name": "",
          "type": "string"
        }
      ],
      "stateMutability": "view",
      "type": "function"
    },
    {
      "inputs": [
        {
          "internalType": "uint256",
          "name": "tokenId",
          "type": "uint256"
        }
      ],
      "name": "tokenURI",
      "outputs": [
        {
          "internalType": "string",
          "name": "",
          "type": "string"
        }
      ],
      "stateMutability": "view",
      "type": "function"
    },
    {
      "inputs": [
        {
          "internalType": "address",
          "name": "from",
          "type": "address"
        },
        {
          "internalType": "address",
          "name": "to",
          "type": "address"
        },
        {
          "internalType": "uint256",
          "name": "tokenId",
          "type": "uint256"
        }
      ],
      "name": "transferFrom",
      "outputs": [],
      "stateMutability": "nonpayable",
      "type": "function"
    },
    {
      "inputs": [
        {
          "internalType": "address",
          "name": "owner",
          "type": "address"
        },
        {
          "internalType": "string",
          "name": "tokenURI",
          "type": "string"
        }
      ],
      "name": "createToken",
      "outputs": [
        {
          "internalType": "uint256",
          "name": "id",
          "type": "uint256"
        }
      ],
      "stateMutability": "nonpayable",
      "type": "function"
    },
    {
      "inputs": [
        {
          "internalType": "uint256",
          "name": "_tokenId",
          "type": "uint256"
        },
        {
          "internalType": "uint256",
          "name": "_originTokenId",
          "type": "uint256"
        }
      ],
      "name": "addOrginToken",
      "outputs": [
        {
          "internalType": "bool",
          "name": "",
          "type": "bool"
        }
      ],
      "stateMutability": "nonpayable",
      "type": "function"
    },
    {
      "inputs": [
        {
          "internalType": "uint256",
          "name": "_tokenId",
          "type": "uint256"
        },
        {
          "internalType": "uint256",
          "name": "indexOfOrigin",
          "type": "uint256"
        }
      ],
      "name": "getOrginToken",
      "outputs": [
        {
          "internalType": "uint256",
          "name": "originId",
          "type": "uint256"
        }
      ],
      "stateMutability": "view",
      "type": "function"
    },
    {
      "inputs": [
        {
          "internalType": "uint256",
          "name": "_tokenId",
          "type": "uint256"
        }
      ],
      "name": "getTotalOriginToken",
      "outputs": [
        {
          "internalType": "uint256",
          "name": "",
          "type": "uint256"
        }
      ],
      "stateMutability": "view",
      "type": "function"
    }
  ],
  "bytecode": "0x60806040523480156200001157600080fd5b506040518060400160405280601181526020017f54726163656162696c697479546f6b656e0000000000000000000000000000008152506040518060400160405280600381526020017f5054540000000000000000000000000000000000000000000000000000000000815250816000908051906020019062000096929190620000b8565b508060019080519060200190620000af929190620000b8565b505050620001cd565b828054620000c69062000197565b90600052602060002090601f016020900481019282620000ea576000855562000136565b82601f106200010557805160ff191683800117855562000136565b8280016001018555821562000136579182015b828111156200013557825182559160200191906001019062000118565b5b50905062000145919062000149565b5090565b5b80821115620001645760008160009055506001016200014a565b5090565b7f4e487b7100000000000000000000000000000000000000000000000000000000600052602260045260246000fd5b60006002820490506001821680620001b057607f821691505b60208210811415620001c757620001c662000168565b5b50919050565b6131cf80620001dd6000396000f3fe608060405234801561001057600080fd5b506004361061010b5760003560e01c80636352211e116100a2578063acae0cdc11610071578063acae0cdc146102dc578063b88d4fde1461030c578063c87b56dd14610328578063e985e9c514610358578063ed7defb6146103885761010b565b80636352211e1461024257806370a082311461027257806395d89b41146102a2578063a22cb465146102c05761010b565b8063095ea7b3116100de578063095ea7b3146101be57806323b872dd146101da57806342842e0e146101f65780635bab4026146102125761010b565b8063013828071461011057806301ffc9a71461014057806306fdde0314610170578063081812fc1461018e575b600080fd5b61012a60048036038101906101259190611e2e565b6103b8565b6040516101379190611ea3565b60405180910390f35b61015a60048036038101906101559190611f16565b610440565b6040516101679190611f5e565b60405180910390f35b610178610522565b6040516101859190612001565b60405180910390f35b6101a860048036038101906101a3919061204f565b6105b4565b6040516101b5919061208b565b60405180910390f35b6101d860048036038101906101d391906120a6565b610639565b005b6101f460048036038101906101ef91906120e6565b610751565b005b610210600480360381019061020b91906120e6565b6107b1565b005b61022c60048036038101906102279190612139565b6107d1565b6040516102399190611ea3565b60405180910390f35b61025c6004803603810190610257919061204f565b6108b2565b604051610269919061208b565b60405180910390f35b61028c60048036038101906102879190612179565b610964565b6040516102999190611ea3565b60405180910390f35b6102aa610a1c565b6040516102b79190612001565b60405180910390f35b6102da60048036038101906102d591906121d2565b610aae565b005b6102f660048036038101906102f1919061204f565b610c2f565b6040516103039190611ea3565b60405180910390f35b610326600480360381019061032191906122b3565b610c94565b005b610342600480360381019061033d919061204f565b610cf6565b60405161034f9190612001565b60405180910390f35b610372600480360381019061036d9190612336565b610e48565b60405161037f9190611f5e565b60405180910390f35b6103a2600480360381019061039d9190612139565b610edc565b6040516103af9190611f5e565b60405180910390f35b60006103c46007611081565b60006103d06007611097565b90506103dc84826110a5565b6103e68184611273565b8373ffffffffffffffffffffffffffffffffffffffff167f447f16f343ee2f9f0e4e19efabe7bcccf0d512587281e88e099b7f86cffccee2848360405161042e929190612376565b60405180910390a28091505092915050565b60007f80ac58cd000000000000000000000000000000000000000000000000000000007bffffffffffffffffffffffffffffffffffffffffffffffffffffffff1916827bffffffffffffffffffffffffffffffffffffffffffffffffffffffff1916148061050b57507f5b5e139f000000000000000000000000000000000000000000000000000000007bffffffffffffffffffffffffffffffffffffffffffffffffffffffff1916827bffffffffffffffffffffffffffffffffffffffffffffffffffffffff1916145b8061051b575061051a826112e7565b5b9050919050565b606060008054610531906123d5565b80601f016020809104026020016040519081016040528092919081815260200182805461055d906123d5565b80156105aa5780601f1061057f576101008083540402835291602001916105aa565b820191906000526020600020905b81548152906001019060200180831161058d57829003601f168201915b5050505050905090565b60006105bf82611351565b6105fe576040517f08c379a00000000000000000000000000000000000000000000000000000000081526004016105f590612479565b60405180910390fd5b6004600083815260200190815260200160002060009054906101000a900473ffffffffffffffffffffffffffffffffffffffff169050919050565b6000610644826108b2565b90508073ffffffffffffffffffffffffffffffffffffffff168373ffffffffffffffffffffffffffffffffffffffff1614156106b5576040517f08c379a00000000000000000000000000000000000000000000000000000000081526004016106ac9061250b565b60405180910390fd5b8073ffffffffffffffffffffffffffffffffffffffff166106d46113bd565b73ffffffffffffffffffffffffffffffffffffffff1614806107035750610702816106fd6113bd565b610e48565b5b610742576040517f08c379a00000000000000000000000000000000000000000000000000000000081526004016107399061259d565b60405180910390fd5b61074c83836113c5565b505050565b61076261075c6113bd565b8261147e565b6107a1576040517f08c379a00000000000000000000000000000000000000000000000000000000081526004016107989061262f565b60405180910390fd5b6107ac83838361155c565b505050565b6107cc83838360405180602001604052806000815250610c94565b505050565b60006107dc83611351565b61081b576040517f08c379a0000000000000000000000000000000000000000000000000000000008152600401610812906126c1565b60405180910390fd5b600082101561085f576040517f08c379a000000000000000000000000000000000000000000000000000000000815260040161085690612753565b60405180910390fd5b6000600960008581526020019081526020016000205411156108a7576008600084815260200190815260200160002060008381526020019081526020016000205490506108ac565b600090505b92915050565b6000806002600084815260200190815260200160002060009054906101000a900473ffffffffffffffffffffffffffffffffffffffff169050600073ffffffffffffffffffffffffffffffffffffffff168173ffffffffffffffffffffffffffffffffffffffff16141561095b576040517f08c379a0000000000000000000000000000000000000000000000000000000008152600401610952906127e5565b60405180910390fd5b80915050919050565b60008073ffffffffffffffffffffffffffffffffffffffff168273ffffffffffffffffffffffffffffffffffffffff1614156109d5576040517f08c379a00000000000000000000000000000000000000000000000000000000081526004016109cc90612877565b60405180910390fd5b600360008373ffffffffffffffffffffffffffffffffffffffff1673ffffffffffffffffffffffffffffffffffffffff168152602001908152602001600020549050919050565b606060018054610a2b906123d5565b80601f0160208091040260200160405190810160405280929190818152602001828054610a57906123d5565b8015610aa45780601f10610a7957610100808354040283529160200191610aa4565b820191906000526020600020905b815481529060010190602001808311610a8757829003601f168201915b5050505050905090565b610ab66113bd565b73ffffffffffffffffffffffffffffffffffffffff168273ffffffffffffffffffffffffffffffffffffffff161415610b24576040517f08c379a0000000000000000000000000000000000000000000000000000000008152600401610b1b906128e3565b60405180910390fd5b8060056000610b316113bd565b73ffffffffffffffffffffffffffffffffffffffff1673ffffffffffffffffffffffffffffffffffffffff16815260200190815260200160002060008473ffffffffffffffffffffffffffffffffffffffff1673ffffffffffffffffffffffffffffffffffffffff16815260200190815260200160002060006101000a81548160ff0219169083151502179055508173ffffffffffffffffffffffffffffffffffffffff16610bde6113bd565b73ffffffffffffffffffffffffffffffffffffffff167f17307eab39ab6107e8899845ad3d59bd9653f200f220920489ca2b5937696c3183604051610c239190611f5e565b60405180910390a35050565b6000610c3a82611351565b610c79576040517f08c379a0000000000000000000000000000000000000000000000000000000008152600401610c70906126c1565b60405180910390fd5b60096000838152602001908152602001600020549050919050565b610ca5610c9f6113bd565b8361147e565b610ce4576040517f08c379a0000000000000000000000000000000000000000000000000000000008152600401610cdb9061262f565b60405180910390fd5b610cf0848484846117b8565b50505050565b6060610d0182611351565b610d40576040517f08c379a0000000000000000000000000000000000000000000000000000000008152600401610d3790612975565b60405180910390fd5b6000600660008481526020019081526020016000208054610d60906123d5565b80601f0160208091040260200160405190810160405280929190818152602001828054610d8c906123d5565b8015610dd95780601f10610dae57610100808354040283529160200191610dd9565b820191906000526020600020905b815481529060010190602001808311610dbc57829003601f168201915b505050505090506000610dea611814565b9050600081511415610e00578192505050610e43565b600082511115610e35578082604051602001610e1d9291906129d1565b60405160208183030381529060405292505050610e43565b610e3e8461182b565b925050505b919050565b6000600560008473ffffffffffffffffffffffffffffffffffffffff1673ffffffffffffffffffffffffffffffffffffffff16815260200190815260200160002060008373ffffffffffffffffffffffffffffffffffffffff1673ffffffffffffffffffffffffffffffffffffffff16815260200190815260200160002060009054906101000a900460ff16905092915050565b6000610ee783611351565b610f26576040517f08c379a0000000000000000000000000000000000000000000000000000000008152600401610f1d906126c1565b60405180910390fd5b610f2f82611351565b610f6e576040517f08c379a0000000000000000000000000000000000000000000000000000000008152600401610f6590612a67565b60405180910390fd5b600060096000858152602001908152602001600020541115610ffb576000600960008581526020019081526020016000205490506000600182610fb19190612ab6565b90508360086000878152602001908152602001600020600084815260200190815260200160002081905550806009600087815260200190815260200160002081905550505061103e565b8160086000858152602001908152602001600020600080815260200190815260200160002081905550600160096000858152602001908152602001600020819055505b7f72d8fc1b0cdbc31a064dfb04a20fbf451aaeecc6534f28d04c2cedb65484209b838360405161106f929190612b0c565b60405180910390a16001905092915050565b6001816000016000828254019250508190555050565b600081600001549050919050565b600073ffffffffffffffffffffffffffffffffffffffff168273ffffffffffffffffffffffffffffffffffffffff161415611115576040517f08c379a000000000000000000000000000000000000000000000000000000000815260040161110c90612b81565b60405180910390fd5b61111e81611351565b1561115e576040517f08c379a000000000000000000000000000000000000000000000000000000000815260040161115590612bed565b60405180910390fd5b61116a600083836118d2565b6001600360008473ffffffffffffffffffffffffffffffffffffffff1673ffffffffffffffffffffffffffffffffffffffff16815260200190815260200160002060008282546111ba9190612ab6565b92505081905550816002600083815260200190815260200160002060006101000a81548173ffffffffffffffffffffffffffffffffffffffff021916908373ffffffffffffffffffffffffffffffffffffffff160217905550808273ffffffffffffffffffffffffffffffffffffffff16600073ffffffffffffffffffffffffffffffffffffffff167fddf252ad1be2c89b69c2b068fc378daa952ba7f163c4a11628f55a4df523b3ef60405160405180910390a45050565b61127c82611351565b6112bb576040517f08c379a00000000000000000000000000000000000000000000000000000000081526004016112b290612c7f565b60405180910390fd5b806006600084815260200190815260200160002090805190602001906112e2929190611bd3565b505050565b60007f01ffc9a7000000000000000000000000000000000000000000000000000000007bffffffffffffffffffffffffffffffffffffffffffffffffffffffff1916827bffffffffffffffffffffffffffffffffffffffffffffffffffffffff1916149050919050565b60008073ffffffffffffffffffffffffffffffffffffffff166002600084815260200190815260200160002060009054906101000a900473ffffffffffffffffffffffffffffffffffffffff1673ffffffffffffffffffffffffffffffffffffffff1614159050919050565b600033905090565b816004600083815260200190815260200160002060006101000a81548173ffffffffffffffffffffffffffffffffffffffff021916908373ffffffffffffffffffffffffffffffffffffffff160217905550808273ffffffffffffffffffffffffffffffffffffffff16611438836108b2565b73ffffffffffffffffffffffffffffffffffffffff167f8c5be1e5ebec7d5bd14f71427d1e84f3dd0314c0f7b2291e5b200ac8c7c3b92560405160405180910390a45050565b600061148982611351565b6114c8576040517f08c379a00000000000000000000000000000000000000000000000000000000081526004016114bf90612d11565b60405180910390fd5b60006114d3836108b2565b90508073ffffffffffffffffffffffffffffffffffffffff168473ffffffffffffffffffffffffffffffffffffffff16148061154257508373ffffffffffffffffffffffffffffffffffffffff1661152a846105b4565b73ffffffffffffffffffffffffffffffffffffffff16145b8061155357506115528185610e48565b5b91505092915050565b8273ffffffffffffffffffffffffffffffffffffffff1661157c826108b2565b73ffffffffffffffffffffffffffffffffffffffff16146115d2576040517f08c379a00000000000000000000000000000000000000000000000000000000081526004016115c990612da3565b60405180910390fd5b600073ffffffffffffffffffffffffffffffffffffffff168273ffffffffffffffffffffffffffffffffffffffff161415611642576040517f08c379a000000000000000000000000000000000000000000000000000000000815260040161163990612e35565b60405180910390fd5b61164d8383836118d2565b6116586000826113c5565b6001600360008573ffffffffffffffffffffffffffffffffffffffff1673ffffffffffffffffffffffffffffffffffffffff16815260200190815260200160002060008282546116a89190612e55565b925050819055506001600360008473ffffffffffffffffffffffffffffffffffffffff1673ffffffffffffffffffffffffffffffffffffffff16815260200190815260200160002060008282546116ff9190612ab6565b92505081905550816002600083815260200190815260200160002060006101000a81548173ffffffffffffffffffffffffffffffffffffffff021916908373ffffffffffffffffffffffffffffffffffffffff160217905550808273ffffffffffffffffffffffffffffffffffffffff168473ffffffffffffffffffffffffffffffffffffffff167fddf252ad1be2c89b69c2b068fc378daa952ba7f163c4a11628f55a4df523b3ef60405160405180910390a4505050565b6117c384848461155c565b6117cf848484846118d7565b61180e576040517f08c379a000000000000000000000000000000000000000000000000000000000815260040161180590612efb565b60405180910390fd5b50505050565b606060405180602001604052806000815250905090565b606061183682611351565b611875576040517f08c379a000000000000000000000000000000000000000000000000000000000815260040161186c90612f8d565b60405180910390fd5b600061187f611814565b9050600081511161189f57604051806020016040528060008152506118ca565b806118a984611a5f565b6040516020016118ba9291906129d1565b6040516020818303038152906040525b915050919050565b505050565b60006118f88473ffffffffffffffffffffffffffffffffffffffff16611bc0565b15611a52578373ffffffffffffffffffffffffffffffffffffffff1663150b7a026119216113bd565b8786866040518563ffffffff1660e01b81526004016119439493929190613002565b6020604051808303816000875af192505050801561197f57506040513d601f19601f8201168201806040525081019061197c9190613063565b60015b611a02573d80600081146119af576040519150601f19603f3d011682016040523d82523d6000602084013e6119b4565b606091505b506000815114156119fa576040517f08c379a00000000000000000000000000000000000000000000000000000000081526004016119f190612efb565b60405180910390fd5b805181602001fd5b63150b7a0260e01b7bffffffffffffffffffffffffffffffffffffffffffffffffffffffff1916817bffffffffffffffffffffffffffffffffffffffffffffffffffffffff191614915050611a57565b600190505b949350505050565b60606000821415611aa7576040518060400160405280600181526020017f30000000000000000000000000000000000000000000000000000000000000008152509050611bbb565b600082905060005b60008214611ad9578080611ac290613090565b915050600a82611ad29190613108565b9150611aaf565b60008167ffffffffffffffff811115611af557611af4611d03565b5b6040519080825280601f01601f191660200182016040528015611b275781602001600182028036833780820191505090505b5090505b60008514611bb457600182611b409190612e55565b9150600a85611b4f9190613139565b6030611b5b9190612ab6565b60f81b818381518110611b7157611b7061316a565b5b60200101907effffffffffffffffffffffffffffffffffffffffffffffffffffffffffffff1916908160001a905350600a85611bad9190613108565b9450611b2b565b8093505050505b919050565b600080823b905060008111915050919050565b828054611bdf906123d5565b90600052602060002090601f016020900481019282611c015760008555611c48565b82601f10611c1a57805160ff1916838001178555611c48565b82800160010185558215611c48579182015b82811115611c47578251825591602001919060010190611c2c565b5b509050611c559190611c59565b5090565b5b80821115611c72576000816000905550600101611c5a565b5090565b6000604051905090565b600080fd5b600080fd5b600073ffffffffffffffffffffffffffffffffffffffff82169050919050565b6000611cb582611c8a565b9050919050565b611cc581611caa565b8114611cd057600080fd5b50565b600081359050611ce281611cbc565b92915050565b600080fd5b600080fd5b6000601f19601f8301169050919050565b7f4e487b7100000000000000000000000000000000000000000000000000000000600052604160045260246000fd5b611d3b82611cf2565b810181811067ffffffffffffffff82111715611d5a57611d59611d03565b5b80604052505050565b6000611d6d611c76565b9050611d798282611d32565b919050565b600067ffffffffffffffff821115611d9957611d98611d03565b5b611da282611cf2565b9050602081019050919050565b82818337600083830152505050565b6000611dd1611dcc84611d7e565b611d63565b905082815260208101848484011115611ded57611dec611ced565b5b611df8848285611daf565b509392505050565b600082601f830112611e1557611e14611ce8565b5b8135611e25848260208601611dbe565b91505092915050565b60008060408385031215611e4557611e44611c80565b5b6000611e5385828601611cd3565b925050602083013567ffffffffffffffff811115611e7457611e73611c85565b5b611e8085828601611e00565b9150509250929050565b6000819050919050565b611e9d81611e8a565b82525050565b6000602082019050611eb86000830184611e94565b92915050565b60007fffffffff0000000000000000000000000000000000000000000000000000000082169050919050565b611ef381611ebe565b8114611efe57600080fd5b50565b600081359050611f1081611eea565b92915050565b600060208284031215611f2c57611f2b611c80565b5b6000611f3a84828501611f01565b91505092915050565b60008115159050919050565b611f5881611f43565b82525050565b6000602082019050611f736000830184611f4f565b92915050565b600081519050919050565b600082825260208201905092915050565b60005b83811015611fb3578082015181840152602081019050611f98565b83811115611fc2576000848401525b50505050565b6000611fd382611f79565b611fdd8185611f84565b9350611fed818560208601611f95565b611ff681611cf2565b840191505092915050565b6000602082019050818103600083015261201b8184611fc8565b905092915050565b61202c81611e8a565b811461203757600080fd5b50565b60008135905061204981612023565b92915050565b60006020828403121561206557612064611c80565b5b60006120738482850161203a565b91505092915050565b61208581611caa565b82525050565b60006020820190506120a0600083018461207c565b92915050565b600080604083850312156120bd576120bc611c80565b5b60006120cb85828601611cd3565b92505060206120dc8582860161203a565b9150509250929050565b6000806000606084860312156120ff576120fe611c80565b5b600061210d86828701611cd3565b935050602061211e86828701611cd3565b925050604061212f8682870161203a565b9150509250925092565b600080604083850312156121505761214f611c80565b5b600061215e8582860161203a565b925050602061216f8582860161203a565b9150509250929050565b60006020828403121561218f5761218e611c80565b5b600061219d84828501611cd3565b91505092915050565b6121af81611f43565b81146121ba57600080fd5b50565b6000813590506121cc816121a6565b92915050565b600080604083850312156121e9576121e8611c80565b5b60006121f785828601611cd3565b9250506020612208858286016121bd565b9150509250929050565b600067ffffffffffffffff82111561222d5761222c611d03565b5b61223682611cf2565b9050602081019050919050565b600061225661225184612212565b611d63565b90508281526020810184848401111561227257612271611ced565b5b61227d848285611daf565b509392505050565b600082601f83011261229a57612299611ce8565b5b81356122aa848260208601612243565b91505092915050565b600080600080608085870312156122cd576122cc611c80565b5b60006122db87828801611cd3565b94505060206122ec87828801611cd3565b93505060406122fd8782880161203a565b925050606085013567ffffffffffffffff81111561231e5761231d611c85565b5b61232a87828801612285565b91505092959194509250565b6000806040838503121561234d5761234c611c80565b5b600061235b85828601611cd3565b925050602061236c85828601611cd3565b9150509250929050565b600060408201905081810360008301526123908185611fc8565b905061239f6020830184611e94565b9392505050565b7f4e487b7100000000000000000000000000000000000000000000000000000000600052602260045260246000fd5b600060028204905060018216806123ed57607f821691505b60208210811415612401576124006123a6565b5b50919050565b7f4552433732313a20617070726f76656420717565727920666f72206e6f6e657860008201527f697374656e7420746f6b656e0000000000000000000000000000000000000000602082015250565b6000612463602c83611f84565b915061246e82612407565b604082019050919050565b6000602082019050818103600083015261249281612456565b9050919050565b7f4552433732313a20617070726f76616c20746f2063757272656e74206f776e6560008201527f7200000000000000000000000000000000000000000000000000000000000000602082015250565b60006124f5602183611f84565b915061250082612499565b604082019050919050565b60006020820190508181036000830152612524816124e8565b9050919050565b7f4552433732313a20617070726f76652063616c6c6572206973206e6f74206f7760008201527f6e6572206e6f7220617070726f76656420666f7220616c6c0000000000000000602082015250565b6000612587603883611f84565b91506125928261252b565b604082019050919050565b600060208201905081810360008301526125b68161257a565b9050919050565b7f4552433732313a207472616e736665722063616c6c6572206973206e6f74206f60008201527f776e6572206e6f7220617070726f766564000000000000000000000000000000602082015250565b6000612619603183611f84565b9150612624826125bd565b604082019050919050565b600060208201905081810360008301526126488161260c565b9050919050565b7f4552433732315f54726163656162696c6974793a20746f6b656e496420646f6560008201527f73206e6f74206578697374000000000000000000000000000000000000000000602082015250565b60006126ab602b83611f84565b91506126b68261264f565b604082019050919050565b600060208201905081810360008301526126da8161269e565b9050919050565b7f4552433732315f54726163656162696c6974793a20696e646578206973206e6f60008201527f7420636f72726563740000000000000000000000000000000000000000000000602082015250565b600061273d602983611f84565b9150612748826126e1565b604082019050919050565b6000602082019050818103600083015261276c81612730565b9050919050565b7f4552433732313a206f776e657220717565727920666f72206e6f6e657869737460008201527f656e7420746f6b656e0000000000000000000000000000000000000000000000602082015250565b60006127cf602983611f84565b91506127da82612773565b604082019050919050565b600060208201905081810360008301526127fe816127c2565b9050919050565b7f4552433732313a2062616c616e636520717565727920666f7220746865207a6560008201527f726f206164647265737300000000000000000000000000000000000000000000602082015250565b6000612861602a83611f84565b915061286c82612805565b604082019050919050565b6000602082019050818103600083015261289081612854565b9050919050565b7f4552433732313a20617070726f766520746f2063616c6c657200000000000000600082015250565b60006128cd601983611f84565b91506128d882612897565b602082019050919050565b600060208201905081810360008301526128fc816128c0565b9050919050565b7f45524337323155524953746f726167653a2055524920717565727920666f722060008201527f6e6f6e6578697374656e7420746f6b656e000000000000000000000000000000602082015250565b600061295f603183611f84565b915061296a82612903565b604082019050919050565b6000602082019050818103600083015261298e81612952565b9050919050565b600081905092915050565b60006129ab82611f79565b6129b58185612995565b93506129c5818560208601611f95565b80840191505092915050565b60006129dd82856129a0565b91506129e982846129a0565b91508190509392505050565b7f4552433732315f54726163656162696c6974793a20746f6b656e4964206f662060008201527f6f726967696e20646f6573206e6f742065786973740000000000000000000000602082015250565b6000612a51603583611f84565b9150612a5c826129f5565b604082019050919050565b60006020820190508181036000830152612a8081612a44565b9050919050565b7f4e487b7100000000000000000000000000000000000000000000000000000000600052601160045260246000fd5b6000612ac182611e8a565b9150612acc83611e8a565b9250827fffffffffffffffffffffffffffffffffffffffffffffffffffffffffffffffff03821115612b0157612b00612a87565b5b828201905092915050565b6000604082019050612b216000830185611e94565b612b2e6020830184611e94565b9392505050565b7f4552433732313a206d696e7420746f20746865207a65726f2061646472657373600082015250565b6000612b6b602083611f84565b9150612b7682612b35565b602082019050919050565b60006020820190508181036000830152612b9a81612b5e565b9050919050565b7f4552433732313a20746f6b656e20616c7265616479206d696e74656400000000600082015250565b6000612bd7601c83611f84565b9150612be282612ba1565b602082019050919050565b60006020820190508181036000830152612c0681612bca565b9050919050565b7f45524337323155524953746f726167653a2055524920736574206f66206e6f6e60008201527f6578697374656e7420746f6b656e000000000000000000000000000000000000602082015250565b6000612c69602e83611f84565b9150612c7482612c0d565b604082019050919050565b60006020820190508181036000830152612c9881612c5c565b9050919050565b7f4552433732313a206f70657261746f7220717565727920666f72206e6f6e657860008201527f697374656e7420746f6b656e0000000000000000000000000000000000000000602082015250565b6000612cfb602c83611f84565b9150612d0682612c9f565b604082019050919050565b60006020820190508181036000830152612d2a81612cee565b9050919050565b7f4552433732313a207472616e73666572206f6620746f6b656e2074686174206960008201527f73206e6f74206f776e0000000000000000000000000000000000000000000000602082015250565b6000612d8d602983611f84565b9150612d9882612d31565b604082019050919050565b60006020820190508181036000830152612dbc81612d80565b9050919050565b7f4552433732313a207472616e7366657220746f20746865207a65726f2061646460008201527f7265737300000000000000000000000000000000000000000000000000000000602082015250565b6000612e1f602483611f84565b9150612e2a82612dc3565b604082019050919050565b60006020820190508181036000830152612e4e81612e12565b9050919050565b6000612e6082611e8a565b9150612e6b83611e8a565b925082821015612e7e57612e7d612a87565b5b828203905092915050565b7f4552433732313a207472616e7366657220746f206e6f6e20455243373231526560008201527f63656976657220696d706c656d656e7465720000000000000000000000000000602082015250565b6000612ee5603283611f84565b9150612ef082612e89565b604082019050919050565b60006020820190508181036000830152612f1481612ed8565b9050919050565b7f4552433732314d657461646174613a2055524920717565727920666f72206e6f60008201527f6e6578697374656e7420746f6b656e0000000000000000000000000000000000602082015250565b6000612f77602f83611f84565b9150612f8282612f1b565b604082019050919050565b60006020820190508181036000830152612fa681612f6a565b9050919050565b600081519050919050565b600082825260208201905092915050565b6000612fd482612fad565b612fde8185612fb8565b9350612fee818560208601611f95565b612ff781611cf2565b840191505092915050565b6000608082019050613017600083018761207c565b613024602083018661207c565b6130316040830185611e94565b81810360608301526130438184612fc9565b905095945050505050565b60008151905061305d81611eea565b92915050565b60006020828403121561307957613078611c80565b5b60006130878482850161304e565b91505092915050565b600061309b82611e8a565b91507fffffffffffffffffffffffffffffffffffffffffffffffffffffffffffffffff8214156130ce576130cd612a87565b5b600182019050919050565b7f4e487b7100000000000000000000000000000000000000000000000000000000600052601260045260246000fd5b600061311382611e8a565b915061311e83611e8a565b92508261312e5761312d6130d9565b5b828204905092915050565b600061314482611e8a565b915061314f83611e8a565b92508261315f5761315e6130d9565b5b828206905092915050565b7f4e487b7100000000000000000000000000000000000000000000000000000000600052603260045260246000fdfea2646970667358221220f5cf3dc4776da4118a49e5a59b314896b16a001ade0b999355a7b81e7d07298164736f6c634300080a0033",
  "immutableReferences": {},
  "source": "// SPDX-License-Identifier: GPL-3.0\r\npragma solidity ^0.8.0;\r\n\r\nimport \"@openzeppelin/contracts/token/ERC721/extensions/ERC721URIStorage.sol\";\r\nimport \"@openzeppelin/contracts/utils/Counters.sol\";\r\n\r\ncontract Traceability is ERC721URIStorage {\r\n    using Counters for Counters.Counter;\r\n    Counters.Counter private _idToken;\r\n    using Strings for uint256;\r\n\r\n    mapping(uint256 => mapping(uint256 => uint256)) private _tokenOriginList;               // - mapping from tokenID to list of origin tokens\r\n    mapping(uint256 => uint256) private _tokenOriginCount ;                                 // - mapping from tokenID to the total number of origin tokens\r\n\r\n    event TokenCreation(address indexed owner, string tokenURI, uint256 newTokenId);        // - Event to log the token creation, the owner address and the token ID are logged in this event.\r\n    event TokenOrigin(uint256 tokenId, uint256 tokenOrigin);                                // - Event to log each token origin, The token ID and the origin Token ID are logged in this event.\r\n\r\n    constructor() ERC721( \"TraceabilityToken\", \"PTT\") {}\r\n\r\n    function createToken\r\n    (\r\n        address owner,\r\n        string memory tokenURI\r\n    )\r\n        public\r\n        returns (uint256 id)\r\n    {\r\n        _idToken.increment();\r\n        uint256 newTokenId = _idToken.current();\r\n\r\n        _mint(owner, newTokenId);\r\n        _setTokenURI(newTokenId, tokenURI);\r\n\r\n        emit TokenCreation(owner, tokenURI, newTokenId);\r\n        \r\n        return newTokenId;\r\n    }\r\n\r\n    function addOrginToken\r\n    (\r\n        uint256 _tokenId,\r\n        uint256 _originTokenId\r\n    )\r\n        public\r\n        returns (bool)\r\n    {\r\n        require(_exists(_tokenId), \"ERC721_Traceability: tokenId does not exist\");\r\n        require(_exists(_originTokenId), \"ERC721_Traceability: tokenId of origin does not exist\");\r\n\r\n        if (_tokenOriginCount[_tokenId] > 0)\r\n        {\r\n            uint256 index = _tokenOriginCount[_tokenId];\r\n            uint256 totalCount = index + 1;\r\n            _tokenOriginList[_tokenId][index] = _originTokenId;\r\n            _tokenOriginCount[_tokenId] = totalCount;\r\n        } else {\r\n            _tokenOriginList[_tokenId][0] = _originTokenId;\r\n            _tokenOriginCount[_tokenId] = 1;\r\n        }\r\n\r\n        emit TokenOrigin( _tokenId, _originTokenId);\r\n        \r\n        return true;\r\n    }\r\n\r\n    function getOrginToken\r\n    (\r\n        uint256 _tokenId,\r\n        uint256 indexOfOrigin\r\n    )\r\n        public\r\n        view\r\n        returns (uint256 originId)\r\n    {\r\n        require(_exists(_tokenId), \"ERC721_Traceability: tokenId does not exist\");\r\n        require( indexOfOrigin >= 0, \"ERC721_Traceability: index is not correct\");\r\n\r\n        if( _tokenOriginCount[_tokenId] > 0)\r\n        {\r\n            return _tokenOriginList[_tokenId][indexOfOrigin];\r\n        } else {\r\n            return 0;\r\n        }\r\n    }\r\n\r\n    function getTotalOriginToken\r\n    (\r\n        uint256 _tokenId\r\n    )\r\n        public\r\n        view\r\n        returns(uint256)\r\n    {\r\n        require(_exists(_tokenId), \"ERC721_Traceability: tokenId does not exist\");\r\n\r\n        return _tokenOriginCount[_tokenId];\r\n    }    \r\n}",
  "sourcePath": "C:/Dev/Projetos/git/smart-contract/contracts/Traceability.sol",
  "compiler": {
    "name": "solc",
    "version": "0.8.10+commit.fc410830.Emscripten.clang"
  },
  "schemaVersion": "3.3.4",
  "updatedAt": "2021-11-13T14:41:38.042Z",
  "devdoc": {
    "kind": "dev",
    "methods": {
      "approve(address,uint256)": {
        "details": "See {IERC721-approve}."
      },
      "balanceOf(address)": {
        "details": "See {IERC721-balanceOf}."
      },
      "getApproved(uint256)": {
        "details": "See {IERC721-getApproved}."
      },
      "isApprovedForAll(address,address)": {
        "details": "See {IERC721-isApprovedForAll}."
      },
      "name()": {
        "details": "See {IERC721Metadata-name}."
      },
      "ownerOf(uint256)": {
        "details": "See {IERC721-ownerOf}."
      },
      "safeTransferFrom(address,address,uint256)": {
        "details": "See {IERC721-safeTransferFrom}."
      },
      "safeTransferFrom(address,address,uint256,bytes)": {
        "details": "See {IERC721-safeTransferFrom}."
      },
      "setApprovalForAll(address,bool)": {
        "details": "See {IERC721-setApprovalForAll}."
      },
      "supportsInterface(bytes4)": {
        "details": "See {IERC165-supportsInterface}."
      },
      "symbol()": {
        "details": "See {IERC721Metadata-symbol}."
      },
      "tokenURI(uint256)": {
        "details": "See {IERC721Metadata-tokenURI}."
      },
      "transferFrom(address,address,uint256)": {
        "details": "See {IERC721-transferFrom}."
      }
    },
    "version": 1
  },
  "userdoc": {
    "kind": "user",
    "methods": {},
    "version": 1
  }
}