{
  "contractName": "Traceability",
  "abi": [
    {
      "inputs": [],
      "stateMutability": "nonpayable",
      "type": "constructor"
    },
    {
      "anonymous": false,
      "inputs": [
        {
          "indexed": true,
          "internalType": "address",
          "name": "owner",
          "type": "address"
        },
        {
          "indexed": true,
          "internalType": "address",
          "name": "approved",
          "type": "address"
        },
        {
          "indexed": true,
          "internalType": "uint256",
          "name": "tokenId",
          "type": "uint256"
        }
      ],
      "name": "Approval",
      "type": "event"
    },
    {
      "anonymous": false,
      "inputs": [
        {
          "indexed": true,
          "internalType": "address",
          "name": "owner",
          "type": "address"
        },
        {
          "indexed": true,
          "internalType": "address",
          "name": "operator",
          "type": "address"
        },
        {
          "indexed": false,
          "internalType": "bool",
          "name": "approved",
          "type": "bool"
        }
      ],
      "name": "ApprovalForAll",
      "type": "event"
    },
    {
      "anonymous": false,
      "inputs": [
        {
          "indexed": true,
          "internalType": "address",
          "name": "owner",
          "type": "address"
        },
        {
          "indexed": false,
          "internalType": "string",
          "name": "tokenURI",
          "type": "string"
        },
        {
          "indexed": false,
          "internalType": "uint256",
          "name": "newTokenId",
          "type": "uint256"
        }
      ],
      "name": "TokenCreation",
      "type": "event"
    },
    {
      "anonymous": false,
      "inputs": [
        {
          "indexed": false,
          "internalType": "uint256",
          "name": "tokenId",
          "type": "uint256"
        },
        {
          "indexed": false,
          "internalType": "uint256",
          "name": "tokenOrigin",
          "type": "uint256"
        }
      ],
      "name": "TokenOrigin",
      "type": "event"
    },
    {
      "anonymous": false,
      "inputs": [
        {
          "indexed": true,
          "internalType": "address",
          "name": "from",
          "type": "address"
        },
        {
          "indexed": true,
          "internalType": "address",
          "name": "to",
          "type": "address"
        },
        {
          "indexed": true,
          "internalType": "uint256",
          "name": "tokenId",
          "type": "uint256"
        }
      ],
      "name": "Transfer",
      "type": "event"
    },
    {
      "inputs": [
        {
          "internalType": "address",
          "name": "to",
          "type": "address"
        },
        {
          "internalType": "uint256",
          "name": "tokenId",
          "type": "uint256"
        }
      ],
      "name": "approve",
      "outputs": [],
      "stateMutability": "nonpayable",
      "type": "function"
    },
    {
      "inputs": [
        {
          "internalType": "address",
          "name": "owner",
          "type": "address"
        }
      ],
      "name": "balanceOf",
      "outputs": [
        {
          "internalType": "uint256",
          "name": "",
          "type": "uint256"
        }
      ],
      "stateMutability": "view",
      "type": "function"
    },
    {
      "inputs": [
        {
          "internalType": "uint256",
          "name": "tokenId",
          "type": "uint256"
        }
      ],
      "name": "getApproved",
      "outputs": [
        {
          "internalType": "address",
          "name": "",
          "type": "address"
        }
      ],
      "stateMutability": "view",
      "type": "function"
    },
    {
      "inputs": [
        {
          "internalType": "address",
          "name": "owner",
          "type": "address"
        },
        {
          "internalType": "address",
          "name": "operator",
          "type": "address"
        }
      ],
      "name": "isApprovedForAll",
      "outputs": [
        {
          "internalType": "bool",
          "name": "",
          "type": "bool"
        }
      ],
      "stateMutability": "view",
      "type": "function"
    },
    {
      "inputs": [],
      "name": "name",
      "outputs": [
        {
          "internalType": "string",
          "name": "",
          "type": "string"
        }
      ],
      "stateMutability": "view",
      "type": "function"
    },
    {
      "inputs": [
        {
          "internalType": "uint256",
          "name": "tokenId",
          "type": "uint256"
        }
      ],
      "name": "ownerOf",
      "outputs": [
        {
          "internalType": "address",
          "name": "",
          "type": "address"
        }
      ],
      "stateMutability": "view",
      "type": "function"
    },
    {
      "inputs": [
        {
          "internalType": "address",
          "name": "from",
          "type": "address"
        },
        {
          "internalType": "address",
          "name": "to",
          "type": "address"
        },
        {
          "internalType": "uint256",
          "name": "tokenId",
          "type": "uint256"
        }
      ],
      "name": "safeTransferFrom",
      "outputs": [],
      "stateMutability": "nonpayable",
      "type": "function"
    },
    {
      "inputs": [
        {
          "internalType": "address",
          "name": "from",
          "type": "address"
        },
        {
          "internalType": "address",
          "name": "to",
          "type": "address"
        },
        {
          "internalType": "uint256",
          "name": "tokenId",
          "type": "uint256"
        },
        {
          "internalType": "bytes",
          "name": "_data",
          "type": "bytes"
        }
      ],
      "name": "safeTransferFrom",
      "outputs": [],
      "stateMutability": "nonpayable",
      "type": "function"
    },
    {
      "inputs": [
        {
          "internalType": "address",
          "name": "operator",
          "type": "address"
        },
        {
          "internalType": "bool",
          "name": "approved",
          "type": "bool"
        }
      ],
      "name": "setApprovalForAll",
      "outputs": [],
      "stateMutability": "nonpayable",
      "type": "function"
    },
    {
      "inputs": [
        {
          "internalType": "bytes4",
          "name": "interfaceId",
          "type": "bytes4"
        }
      ],
      "name": "supportsInterface",
      "outputs": [
        {
          "internalType": "bool",
          "name": "",
          "type": "bool"
        }
      ],
      "stateMutability": "view",
      "type": "function"
    },
    {
      "inputs": [],
      "name": "symbol",
      "outputs": [
        {
          "internalType": "string",
          "name": "",
          "type": "string"
        }
      ],
      "stateMutability": "view",
      "type": "function"
    },
    {
      "inputs": [
        {
          "internalType": "uint256",
          "name": "tokenId",
          "type": "uint256"
        }
      ],
      "name": "tokenURI",
      "outputs": [
        {
          "internalType": "string",
          "name": "",
          "type": "string"
        }
      ],
      "stateMutability": "view",
      "type": "function"
    },
    {
      "inputs": [
        {
          "internalType": "address",
          "name": "from",
          "type": "address"
        },
        {
          "internalType": "address",
          "name": "to",
          "type": "address"
        },
        {
          "internalType": "uint256",
          "name": "tokenId",
          "type": "uint256"
        }
      ],
      "name": "transferFrom",
      "outputs": [],
      "stateMutability": "nonpayable",
      "type": "function"
    },
    {
      "inputs": [
        {
          "internalType": "address",
          "name": "owner",
          "type": "address"
        },
        {
          "internalType": "string",
          "name": "tokenURI",
          "type": "string"
        }
      ],
      "name": "createToken",
      "outputs": [
        {
          "internalType": "uint256",
          "name": "id",
          "type": "uint256"
        }
      ],
      "stateMutability": "nonpayable",
      "type": "function"
    },
    {
      "inputs": [
        {
          "internalType": "uint256",
          "name": "_tokenId",
          "type": "uint256"
        },
        {
          "internalType": "uint256",
          "name": "_originTokenId",
          "type": "uint256"
        }
      ],
      "name": "addOrginToken",
      "outputs": [
        {
          "internalType": "bool",
          "name": "",
          "type": "bool"
        }
      ],
      "stateMutability": "nonpayable",
      "type": "function"
    },
    {
      "inputs": [
        {
          "internalType": "uint256",
          "name": "_tokenId",
          "type": "uint256"
        },
        {
          "internalType": "uint256",
          "name": "indexOfOrigin",
          "type": "uint256"
        }
      ],
      "name": "getOrginToken",
      "outputs": [
        {
          "internalType": "uint256",
          "name": "originId",
          "type": "uint256"
        }
      ],
      "stateMutability": "view",
      "type": "function"
    },
    {
      "inputs": [
        {
          "internalType": "uint256",
          "name": "_tokenId",
          "type": "uint256"
        }
      ],
      "name": "getTotalOriginToken",
      "outputs": [
        {
          "internalType": "uint256",
          "name": "",
          "type": "uint256"
        }
      ],
      "stateMutability": "view",
      "type": "function"
    }
  ],
  "bytecode": "0x60806040523480156200001157600080fd5b506040518060400160405280601181526020017f54726163656162696c697479546f6b656e0000000000000000000000000000008152506040518060400160405280600381526020017f5054540000000000000000000000000000000000000000000000000000000000815250816000908051906020019062000096929190620000b8565b508060019080519060200190620000af929190620000b8565b505050620001cd565b828054620000c69062000168565b90600052602060002090601f016020900481019282620000ea576000855562000136565b82601f106200010557805160ff191683800117855562000136565b8280016001018555821562000136579182015b828111156200013557825182559160200191906001019062000118565b5b50905062000145919062000149565b5090565b5b80821115620001645760008160009055506001016200014a565b5090565b600060028204905060018216806200018157607f821691505b602082108114156200019857620001976200019e565b5b50919050565b7f4e487b7100000000000000000000000000000000000000000000000000000000600052602260045260246000fd5b6131de80620001dd6000396000f3fe608060405234801561001057600080fd5b506004361061010b5760003560e01c80636352211e116100a2578063acae0cdc11610071578063acae0cdc146102dc578063b88d4fde1461030c578063c87b56dd14610328578063e985e9c514610358578063ed7defb6146103885761010b565b80636352211e1461024257806370a082311461027257806395d89b41146102a2578063a22cb465146102c05761010b565b8063095ea7b3116100de578063095ea7b3146101be57806323b872dd146101da57806342842e0e146101f65780635bab4026146102125761010b565b8063013828071461011057806301ffc9a71461014057806306fdde0314610170578063081812fc1461018e575b600080fd5b61012a60048036038101906101259190611f51565b6103b8565b6040516101379190612775565b60405180910390f35b61015a60048036038101906101559190611fed565b610440565b60405161016791906124a8565b60405180910390f35b610178610522565b60405161018591906124c3565b60405180910390f35b6101a860048036038101906101a39190612047565b6105b4565b6040516101b59190612441565b60405180910390f35b6101d860048036038101906101d39190611fad565b610639565b005b6101f460048036038101906101ef9190611e3b565b610751565b005b610210600480360381019061020b9190611e3b565b6107b1565b005b61022c60048036038101906102279190612074565b6107d1565b6040516102399190612775565b60405180910390f35b61025c60048036038101906102579190612047565b6108b2565b6040516102699190612441565b60405180910390f35b61028c60048036038101906102879190611dce565b610964565b6040516102999190612775565b60405180910390f35b6102aa610a1c565b6040516102b791906124c3565b60405180910390f35b6102da60048036038101906102d59190611f11565b610aae565b005b6102f660048036038101906102f19190612047565b610c2f565b6040516103039190612775565b60405180910390f35b61032660048036038101906103219190611e8e565b610c94565b005b610342600480360381019061033d9190612047565b610cf6565b60405161034f91906124c3565b60405180910390f35b610372600480360381019061036d9190611dfb565b610e48565b60405161037f91906124a8565b60405180910390f35b6103a2600480360381019061039d9190612074565b610edc565b6040516103af91906124a8565b60405180910390f35b60006103c46007611081565b60006103d06007611097565b90506103dc84826110a5565b6103e68184611273565b8373ffffffffffffffffffffffffffffffffffffffff167f447f16f343ee2f9f0e4e19efabe7bcccf0d512587281e88e099b7f86cffccee2848360405161042e9291906124e5565b60405180910390a28091505092915050565b60007f80ac58cd000000000000000000000000000000000000000000000000000000007bffffffffffffffffffffffffffffffffffffffffffffffffffffffff1916827bffffffffffffffffffffffffffffffffffffffffffffffffffffffff1916148061050b57507f5b5e139f000000000000000000000000000000000000000000000000000000007bffffffffffffffffffffffffffffffffffffffffffffffffffffffff1916827bffffffffffffffffffffffffffffffffffffffffffffffffffffffff1916145b8061051b575061051a826112e7565b5b9050919050565b606060008054610531906129f4565b80601f016020809104026020016040519081016040528092919081815260200182805461055d906129f4565b80156105aa5780601f1061057f576101008083540402835291602001916105aa565b820191906000526020600020905b81548152906001019060200180831161058d57829003601f168201915b5050505050905090565b60006105bf82611351565b6105fe576040517f08c379a00000000000000000000000000000000000000000000000000000000081526004016105f5906126b5565b60405180910390fd5b6004600083815260200190815260200160002060009054906101000a900473ffffffffffffffffffffffffffffffffffffffff169050919050565b6000610644826108b2565b90508073ffffffffffffffffffffffffffffffffffffffff168373ffffffffffffffffffffffffffffffffffffffff1614156106b5576040517f08c379a00000000000000000000000000000000000000000000000000000000081526004016106ac90612715565b60405180910390fd5b8073ffffffffffffffffffffffffffffffffffffffff166106d46113bd565b73ffffffffffffffffffffffffffffffffffffffff1614806107035750610702816106fd6113bd565b610e48565b5b610742576040517f08c379a0000000000000000000000000000000000000000000000000000000008152600401610739906125d5565b60405180910390fd5b61074c83836113c5565b505050565b61076261075c6113bd565b8261147e565b6107a1576040517f08c379a000000000000000000000000000000000000000000000000000000000815260040161079890612735565b60405180910390fd5b6107ac83838361155c565b505050565b6107cc83838360405180602001604052806000815250610c94565b505050565b60006107dc83611351565b61081b576040517f08c379a000000000000000000000000000000000000000000000000000000000815260040161081290612755565b60405180910390fd5b600082101561085f576040517f08c379a000000000000000000000000000000000000000000000000000000000815260040161085690612695565b60405180910390fd5b6000600960008581526020019081526020016000205411156108a7576008600084815260200190815260200160002060008381526020019081526020016000205490506108ac565b600090505b92915050565b6000806002600084815260200190815260200160002060009054906101000a900473ffffffffffffffffffffffffffffffffffffffff169050600073ffffffffffffffffffffffffffffffffffffffff168173ffffffffffffffffffffffffffffffffffffffff16141561095b576040517f08c379a000000000000000000000000000000000000000000000000000000000815260040161095290612615565b60405180910390fd5b80915050919050565b60008073ffffffffffffffffffffffffffffffffffffffff168273ffffffffffffffffffffffffffffffffffffffff1614156109d5576040517f08c379a00000000000000000000000000000000000000000000000000000000081526004016109cc906125f5565b60405180910390fd5b600360008373ffffffffffffffffffffffffffffffffffffffff1673ffffffffffffffffffffffffffffffffffffffff168152602001908152602001600020549050919050565b606060018054610a2b906129f4565b80601f0160208091040260200160405190810160405280929190818152602001828054610a57906129f4565b8015610aa45780601f10610a7957610100808354040283529160200191610aa4565b820191906000526020600020905b815481529060010190602001808311610a8757829003601f168201915b5050505050905090565b610ab66113bd565b73ffffffffffffffffffffffffffffffffffffffff168273ffffffffffffffffffffffffffffffffffffffff161415610b24576040517f08c379a0000000000000000000000000000000000000000000000000000000008152600401610b1b90612575565b60405180910390fd5b8060056000610b316113bd565b73ffffffffffffffffffffffffffffffffffffffff1673ffffffffffffffffffffffffffffffffffffffff16815260200190815260200160002060008473ffffffffffffffffffffffffffffffffffffffff1673ffffffffffffffffffffffffffffffffffffffff16815260200190815260200160002060006101000a81548160ff0219169083151502179055508173ffffffffffffffffffffffffffffffffffffffff16610bde6113bd565b73ffffffffffffffffffffffffffffffffffffffff167f17307eab39ab6107e8899845ad3d59bd9653f200f220920489ca2b5937696c3183604051610c2391906124a8565b60405180910390a35050565b6000610c3a82611351565b610c79576040517f08c379a0000000000000000000000000000000000000000000000000000000008152600401610c7090612755565b60405180910390fd5b60096000838152602001908152602001600020549050919050565b610ca5610c9f6113bd565b8361147e565b610ce4576040517f08c379a0000000000000000000000000000000000000000000000000000000008152600401610cdb90612735565b60405180910390fd5b610cf0848484846117b8565b50505050565b6060610d0182611351565b610d40576040517f08c379a0000000000000000000000000000000000000000000000000000000008152600401610d3790612675565b60405180910390fd5b6000600660008481526020019081526020016000208054610d60906129f4565b80601f0160208091040260200160405190810160405280929190818152602001828054610d8c906129f4565b8015610dd95780601f10610dae57610100808354040283529160200191610dd9565b820191906000526020600020905b815481529060010190602001808311610dbc57829003601f168201915b505050505090506000610dea611814565b9050600081511415610e00578192505050610e43565b600082511115610e35578082604051602001610e1d92919061241d565b60405160208183030381529060405292505050610e43565b610e3e8461182b565b925050505b919050565b6000600560008473ffffffffffffffffffffffffffffffffffffffff1673ffffffffffffffffffffffffffffffffffffffff16815260200190815260200160002060008373ffffffffffffffffffffffffffffffffffffffff1673ffffffffffffffffffffffffffffffffffffffff16815260200190815260200160002060009054906101000a900460ff16905092915050565b6000610ee783611351565b610f26576040517f08c379a0000000000000000000000000000000000000000000000000000000008152600401610f1d90612755565b60405180910390fd5b610f2f82611351565b610f6e576040517f08c379a0000000000000000000000000000000000000000000000000000000008152600401610f65906125b5565b60405180910390fd5b600060096000858152602001908152602001600020541115610ffb576000600960008581526020019081526020016000205490506000600182610fb19190612883565b90508360086000878152602001908152602001600020600084815260200190815260200160002081905550806009600087815260200190815260200160002081905550505061103e565b8160086000858152602001908152602001600020600080815260200190815260200160002081905550600160096000858152602001908152602001600020819055505b7f72d8fc1b0cdbc31a064dfb04a20fbf451aaeecc6534f28d04c2cedb65484209b838360405161106f929190612790565b60405180910390a16001905092915050565b6001816000016000828254019250508190555050565b600081600001549050919050565b600073ffffffffffffffffffffffffffffffffffffffff168273ffffffffffffffffffffffffffffffffffffffff161415611115576040517f08c379a000000000000000000000000000000000000000000000000000000000815260040161110c90612655565b60405180910390fd5b61111e81611351565b1561115e576040517f08c379a000000000000000000000000000000000000000000000000000000000815260040161115590612535565b60405180910390fd5b61116a600083836118d2565b6001600360008473ffffffffffffffffffffffffffffffffffffffff1673ffffffffffffffffffffffffffffffffffffffff16815260200190815260200160002060008282546111ba9190612883565b92505081905550816002600083815260200190815260200160002060006101000a81548173ffffffffffffffffffffffffffffffffffffffff021916908373ffffffffffffffffffffffffffffffffffffffff160217905550808273ffffffffffffffffffffffffffffffffffffffff16600073ffffffffffffffffffffffffffffffffffffffff167fddf252ad1be2c89b69c2b068fc378daa952ba7f163c4a11628f55a4df523b3ef60405160405180910390a45050565b61127c82611351565b6112bb576040517f08c379a00000000000000000000000000000000000000000000000000000000081526004016112b290612635565b60405180910390fd5b806006600084815260200190815260200160002090805190602001906112e2929190611be2565b505050565b60007f01ffc9a7000000000000000000000000000000000000000000000000000000007bffffffffffffffffffffffffffffffffffffffffffffffffffffffff1916827bffffffffffffffffffffffffffffffffffffffffffffffffffffffff1916149050919050565b60008073ffffffffffffffffffffffffffffffffffffffff166002600084815260200190815260200160002060009054906101000a900473ffffffffffffffffffffffffffffffffffffffff1673ffffffffffffffffffffffffffffffffffffffff1614159050919050565b600033905090565b816004600083815260200190815260200160002060006101000a81548173ffffffffffffffffffffffffffffffffffffffff021916908373ffffffffffffffffffffffffffffffffffffffff160217905550808273ffffffffffffffffffffffffffffffffffffffff16611438836108b2565b73ffffffffffffffffffffffffffffffffffffffff167f8c5be1e5ebec7d5bd14f71427d1e84f3dd0314c0f7b2291e5b200ac8c7c3b92560405160405180910390a45050565b600061148982611351565b6114c8576040517f08c379a00000000000000000000000000000000000000000000000000000000081526004016114bf90612595565b60405180910390fd5b60006114d3836108b2565b90508073ffffffffffffffffffffffffffffffffffffffff168473ffffffffffffffffffffffffffffffffffffffff16148061154257508373ffffffffffffffffffffffffffffffffffffffff1661152a846105b4565b73ffffffffffffffffffffffffffffffffffffffff16145b8061155357506115528185610e48565b5b91505092915050565b8273ffffffffffffffffffffffffffffffffffffffff1661157c826108b2565b73ffffffffffffffffffffffffffffffffffffffff16146115d2576040517f08c379a00000000000000000000000000000000000000000000000000000000081526004016115c9906126d5565b60405180910390fd5b600073ffffffffffffffffffffffffffffffffffffffff168273ffffffffffffffffffffffffffffffffffffffff161415611642576040517f08c379a000000000000000000000000000000000000000000000000000000000815260040161163990612555565b60405180910390fd5b61164d8383836118d2565b6116586000826113c5565b6001600360008573ffffffffffffffffffffffffffffffffffffffff1673ffffffffffffffffffffffffffffffffffffffff16815260200190815260200160002060008282546116a8919061290a565b925050819055506001600360008473ffffffffffffffffffffffffffffffffffffffff1673ffffffffffffffffffffffffffffffffffffffff16815260200190815260200160002060008282546116ff9190612883565b92505081905550816002600083815260200190815260200160002060006101000a81548173ffffffffffffffffffffffffffffffffffffffff021916908373ffffffffffffffffffffffffffffffffffffffff160217905550808273ffffffffffffffffffffffffffffffffffffffff168473ffffffffffffffffffffffffffffffffffffffff167fddf252ad1be2c89b69c2b068fc378daa952ba7f163c4a11628f55a4df523b3ef60405160405180910390a4505050565b6117c384848461155c565b6117cf848484846118d7565b61180e576040517f08c379a000000000000000000000000000000000000000000000000000000000815260040161180590612515565b60405180910390fd5b50505050565b606060405180602001604052806000815250905090565b606061183682611351565b611875576040517f08c379a000000000000000000000000000000000000000000000000000000000815260040161186c906126f5565b60405180910390fd5b600061187f611814565b9050600081511161189f57604051806020016040528060008152506118ca565b806118a984611a6e565b6040516020016118ba92919061241d565b6040516020818303038152906040525b915050919050565b505050565b60006118f88473ffffffffffffffffffffffffffffffffffffffff16611bcf565b15611a61578373ffffffffffffffffffffffffffffffffffffffff1663150b7a026119216113bd565b8786866040518563ffffffff1660e01b8152600401611943949392919061245c565b602060405180830381600087803b15801561195d57600080fd5b505af192505050801561198e57506040513d601f19601f8201168201806040525081019061198b919061201a565b60015b611a11573d80600081146119be576040519150601f19603f3d011682016040523d82523d6000602084013e6119c3565b606091505b50600081511415611a09576040517f08c379a0000000000000000000000000000000000000000000000000000000008152600401611a0090612515565b60405180910390fd5b805181602001fd5b63150b7a0260e01b7bffffffffffffffffffffffffffffffffffffffffffffffffffffffff1916817bffffffffffffffffffffffffffffffffffffffffffffffffffffffff191614915050611a66565b600190505b949350505050565b60606000821415611ab6576040518060400160405280600181526020017f30000000000000000000000000000000000000000000000000000000000000008152509050611bca565b600082905060005b60008214611ae8578080611ad190612a57565b915050600a82611ae191906128d9565b9150611abe565b60008167ffffffffffffffff811115611b0457611b03612b8d565b5b6040519080825280601f01601f191660200182016040528015611b365781602001600182028036833780820191505090505b5090505b60008514611bc357600182611b4f919061290a565b9150600a85611b5e9190612aa0565b6030611b6a9190612883565b60f81b818381518110611b8057611b7f612b5e565b5b60200101907effffffffffffffffffffffffffffffffffffffffffffffffffffffffffffff1916908160001a905350600a85611bbc91906128d9565b9450611b3a565b8093505050505b919050565b600080823b905060008111915050919050565b828054611bee906129f4565b90600052602060002090601f016020900481019282611c105760008555611c57565b82601f10611c2957805160ff1916838001178555611c57565b82800160010185558215611c57579182015b82811115611c56578251825591602001919060010190611c3b565b5b509050611c649190611c68565b5090565b5b80821115611c81576000816000905550600101611c69565b5090565b6000611c98611c93846127de565b6127b9565b905082815260208101848484011115611cb457611cb3612bc1565b5b611cbf8482856129b2565b509392505050565b6000611cda611cd58461280f565b6127b9565b905082815260208101848484011115611cf657611cf5612bc1565b5b611d018482856129b2565b509392505050565b600081359050611d188161314c565b92915050565b600081359050611d2d81613163565b92915050565b600081359050611d428161317a565b92915050565b600081519050611d578161317a565b92915050565b600082601f830112611d7257611d71612bbc565b5b8135611d82848260208601611c85565b91505092915050565b600082601f830112611da057611d9f612bbc565b5b8135611db0848260208601611cc7565b91505092915050565b600081359050611dc881613191565b92915050565b600060208284031215611de457611de3612bcb565b5b6000611df284828501611d09565b91505092915050565b60008060408385031215611e1257611e11612bcb565b5b6000611e2085828601611d09565b9250506020611e3185828601611d09565b9150509250929050565b600080600060608486031215611e5457611e53612bcb565b5b6000611e6286828701611d09565b9350506020611e7386828701611d09565b9250506040611e8486828701611db9565b9150509250925092565b60008060008060808587031215611ea857611ea7612bcb565b5b6000611eb687828801611d09565b9450506020611ec787828801611d09565b9350506040611ed887828801611db9565b925050606085013567ffffffffffffffff811115611ef957611ef8612bc6565b5b611f0587828801611d5d565b91505092959194509250565b60008060408385031215611f2857611f27612bcb565b5b6000611f3685828601611d09565b9250506020611f4785828601611d1e565b9150509250929050565b60008060408385031215611f6857611f67612bcb565b5b6000611f7685828601611d09565b925050602083013567ffffffffffffffff811115611f9757611f96612bc6565b5b611fa385828601611d8b565b9150509250929050565b60008060408385031215611fc457611fc3612bcb565b5b6000611fd285828601611d09565b9250506020611fe385828601611db9565b9150509250929050565b60006020828403121561200357612002612bcb565b5b600061201184828501611d33565b91505092915050565b6000602082840312156120305761202f612bcb565b5b600061203e84828501611d48565b91505092915050565b60006020828403121561205d5761205c612bcb565b5b600061206b84828501611db9565b91505092915050565b6000806040838503121561208b5761208a612bcb565b5b600061209985828601611db9565b92505060206120aa85828601611db9565b9150509250929050565b6120bd8161293e565b82525050565b6120cc81612950565b82525050565b60006120dd82612840565b6120e78185612856565b93506120f78185602086016129c1565b61210081612bd0565b840191505092915050565b60006121168261284b565b6121208185612867565b93506121308185602086016129c1565b61213981612bd0565b840191505092915050565b600061214f8261284b565b6121598185612878565b93506121698185602086016129c1565b80840191505092915050565b6000612182603283612867565b915061218d82612be1565b604082019050919050565b60006121a5601c83612867565b91506121b082612c30565b602082019050919050565b60006121c8602483612867565b91506121d382612c59565b604082019050919050565b60006121eb601983612867565b91506121f682612ca8565b602082019050919050565b600061220e602c83612867565b915061221982612cd1565b604082019050919050565b6000612231603583612867565b915061223c82612d20565b604082019050919050565b6000612254603883612867565b915061225f82612d6f565b604082019050919050565b6000612277602a83612867565b915061228282612dbe565b604082019050919050565b600061229a602983612867565b91506122a582612e0d565b604082019050919050565b60006122bd602e83612867565b91506122c882612e5c565b604082019050919050565b60006122e0602083612867565b91506122eb82612eab565b602082019050919050565b6000612303603183612867565b915061230e82612ed4565b604082019050919050565b6000612326602983612867565b915061233182612f23565b604082019050919050565b6000612349602c83612867565b915061235482612f72565b604082019050919050565b600061236c602983612867565b915061237782612fc1565b604082019050919050565b600061238f602f83612867565b915061239a82613010565b604082019050919050565b60006123b2602183612867565b91506123bd8261305f565b604082019050919050565b60006123d5603183612867565b91506123e0826130ae565b604082019050919050565b60006123f8602b83612867565b9150612403826130fd565b604082019050919050565b612417816129a8565b82525050565b60006124298285612144565b91506124358284612144565b91508190509392505050565b600060208201905061245660008301846120b4565b92915050565b600060808201905061247160008301876120b4565b61247e60208301866120b4565b61248b604083018561240e565b818103606083015261249d81846120d2565b905095945050505050565b60006020820190506124bd60008301846120c3565b92915050565b600060208201905081810360008301526124dd818461210b565b905092915050565b600060408201905081810360008301526124ff818561210b565b905061250e602083018461240e565b9392505050565b6000602082019050818103600083015261252e81612175565b9050919050565b6000602082019050818103600083015261254e81612198565b9050919050565b6000602082019050818103600083015261256e816121bb565b9050919050565b6000602082019050818103600083015261258e816121de565b9050919050565b600060208201905081810360008301526125ae81612201565b9050919050565b600060208201905081810360008301526125ce81612224565b9050919050565b600060208201905081810360008301526125ee81612247565b9050919050565b6000602082019050818103600083015261260e8161226a565b9050919050565b6000602082019050818103600083015261262e8161228d565b9050919050565b6000602082019050818103600083015261264e816122b0565b9050919050565b6000602082019050818103600083015261266e816122d3565b9050919050565b6000602082019050818103600083015261268e816122f6565b9050919050565b600060208201905081810360008301526126ae81612319565b9050919050565b600060208201905081810360008301526126ce8161233c565b9050919050565b600060208201905081810360008301526126ee8161235f565b9050919050565b6000602082019050818103600083015261270e81612382565b9050919050565b6000602082019050818103600083015261272e816123a5565b9050919050565b6000602082019050818103600083015261274e816123c8565b9050919050565b6000602082019050818103600083015261276e816123eb565b9050919050565b600060208201905061278a600083018461240e565b92915050565b60006040820190506127a5600083018561240e565b6127b2602083018461240e565b9392505050565b60006127c36127d4565b90506127cf8282612a26565b919050565b6000604051905090565b600067ffffffffffffffff8211156127f9576127f8612b8d565b5b61280282612bd0565b9050602081019050919050565b600067ffffffffffffffff82111561282a57612829612b8d565b5b61283382612bd0565b9050602081019050919050565b600081519050919050565b600081519050919050565b600082825260208201905092915050565b600082825260208201905092915050565b600081905092915050565b600061288e826129a8565b9150612899836129a8565b9250827fffffffffffffffffffffffffffffffffffffffffffffffffffffffffffffffff038211156128ce576128cd612ad1565b5b828201905092915050565b60006128e4826129a8565b91506128ef836129a8565b9250826128ff576128fe612b00565b5b828204905092915050565b6000612915826129a8565b9150612920836129a8565b92508282101561293357612932612ad1565b5b828203905092915050565b600061294982612988565b9050919050565b60008115159050919050565b60007fffffffff0000000000000000000000000000000000000000000000000000000082169050919050565b600073ffffffffffffffffffffffffffffffffffffffff82169050919050565b6000819050919050565b82818337600083830152505050565b60005b838110156129df5780820151818401526020810190506129c4565b838111156129ee576000848401525b50505050565b60006002820490506001821680612a0c57607f821691505b60208210811415612a2057612a1f612b2f565b5b50919050565b612a2f82612bd0565b810181811067ffffffffffffffff82111715612a4e57612a4d612b8d565b5b80604052505050565b6000612a62826129a8565b91507fffffffffffffffffffffffffffffffffffffffffffffffffffffffffffffffff821415612a9557612a94612ad1565b5b600182019050919050565b6000612aab826129a8565b9150612ab6836129a8565b925082612ac657612ac5612b00565b5b828206905092915050565b7f4e487b7100000000000000000000000000000000000000000000000000000000600052601160045260246000fd5b7f4e487b7100000000000000000000000000000000000000000000000000000000600052601260045260246000fd5b7f4e487b7100000000000000000000000000000000000000000000000000000000600052602260045260246000fd5b7f4e487b7100000000000000000000000000000000000000000000000000000000600052603260045260246000fd5b7f4e487b7100000000000000000000000000000000000000000000000000000000600052604160045260246000fd5b600080fd5b600080fd5b600080fd5b600080fd5b6000601f19601f8301169050919050565b7f4552433732313a207472616e7366657220746f206e6f6e20455243373231526560008201527f63656976657220696d706c656d656e7465720000000000000000000000000000602082015250565b7f4552433732313a20746f6b656e20616c7265616479206d696e74656400000000600082015250565b7f4552433732313a207472616e7366657220746f20746865207a65726f2061646460008201527f7265737300000000000000000000000000000000000000000000000000000000602082015250565b7f4552433732313a20617070726f766520746f2063616c6c657200000000000000600082015250565b7f4552433732313a206f70657261746f7220717565727920666f72206e6f6e657860008201527f697374656e7420746f6b656e0000000000000000000000000000000000000000602082015250565b7f4552433732315f54726163656162696c6974793a20746f6b656e4964206f662060008201527f6f726967696e20646f6573206e6f742065786973740000000000000000000000602082015250565b7f4552433732313a20617070726f76652063616c6c6572206973206e6f74206f7760008201527f6e6572206e6f7220617070726f76656420666f7220616c6c0000000000000000602082015250565b7f4552433732313a2062616c616e636520717565727920666f7220746865207a6560008201527f726f206164647265737300000000000000000000000000000000000000000000602082015250565b7f4552433732313a206f776e657220717565727920666f72206e6f6e657869737460008201527f656e7420746f6b656e0000000000000000000000000000000000000000000000602082015250565b7f45524337323155524953746f726167653a2055524920736574206f66206e6f6e60008201527f6578697374656e7420746f6b656e000000000000000000000000000000000000602082015250565b7f4552433732313a206d696e7420746f20746865207a65726f2061646472657373600082015250565b7f45524337323155524953746f726167653a2055524920717565727920666f722060008201527f6e6f6e6578697374656e7420746f6b656e000000000000000000000000000000602082015250565b7f4552433732315f54726163656162696c6974793a20696e646578206973206e6f60008201527f7420636f72726563740000000000000000000000000000000000000000000000602082015250565b7f4552433732313a20617070726f76656420717565727920666f72206e6f6e657860008201527f697374656e7420746f6b656e0000000000000000000000000000000000000000602082015250565b7f4552433732313a207472616e73666572206f6620746f6b656e2074686174206960008201527f73206e6f74206f776e0000000000000000000000000000000000000000000000602082015250565b7f4552433732314d657461646174613a2055524920717565727920666f72206e6f60008201527f6e6578697374656e7420746f6b656e0000000000000000000000000000000000602082015250565b7f4552433732313a20617070726f76616c20746f2063757272656e74206f776e6560008201527f7200000000000000000000000000000000000000000000000000000000000000602082015250565b7f4552433732313a207472616e736665722063616c6c6572206973206e6f74206f60008201527f776e6572206e6f7220617070726f766564000000000000000000000000000000602082015250565b7f4552433732315f54726163656162696c6974793a20746f6b656e496420646f6560008201527f73206e6f74206578697374000000000000000000000000000000000000000000602082015250565b6131558161293e565b811461316057600080fd5b50565b61316c81612950565b811461317757600080fd5b50565b6131838161295c565b811461318e57600080fd5b50565b61319a816129a8565b81146131a557600080fd5b5056fea2646970667358221220318bd3e8be6933addd258b6c081954b7a23e0cee7124fb5252d5e9a97ba4129d64736f6c63430008070033",
  "immutableReferences": {},
  "source": "// SPDX-License-Identifier: GPL-3.0\r\npragma solidity ^0.8.0;\r\n\r\nimport \"@openzeppelin/contracts/token/ERC721/extensions/ERC721URIStorage.sol\";\r\nimport \"@openzeppelin/contracts/utils/Counters.sol\";\r\n\r\ncontract Traceability is ERC721URIStorage {\r\n    using Counters for Counters.Counter;\r\n    Counters.Counter private _idToken;\r\n    using Strings for uint256;\r\n\r\n    mapping(uint256 => mapping(uint256 => uint256)) private _tokenOriginList;               // - mapping from tokenID to list of origin tokens\r\n    mapping(uint256 => uint256) private _tokenOriginCount ;                                 // - mapping from tokenID to the total number of origin tokens\r\n\r\n    event TokenCreation(address indexed owner, string tokenURI, uint256 newTokenId);        // - Event to log the token creation, the owner address and the token ID are logged in this event.\r\n    event TokenOrigin(uint256 tokenId, uint256 tokenOrigin);                                // - Event to log each token origin, The token ID and the origin Token ID are logged in this event.\r\n\r\n    constructor() ERC721( \"TraceabilityToken\", \"PTT\") {}\r\n\r\n    function createToken\r\n    (\r\n        address owner,\r\n        string memory tokenURI\r\n    )\r\n        public\r\n        returns (uint256 id)\r\n    {\r\n        _idToken.increment();\r\n        uint256 newTokenId = _idToken.current();\r\n\r\n        _mint(owner, newTokenId);\r\n        _setTokenURI(newTokenId, tokenURI);\r\n\r\n        emit TokenCreation(owner, tokenURI, newTokenId);\r\n        \r\n        return newTokenId;\r\n    }\r\n\r\n    function addOrginToken\r\n    (\r\n        uint256 _tokenId,\r\n        uint256 _originTokenId\r\n    )\r\n        public\r\n        returns (bool)\r\n    {\r\n        require(_exists(_tokenId), \"ERC721_Traceability: tokenId does not exist\");\r\n        require(_exists(_originTokenId), \"ERC721_Traceability: tokenId of origin does not exist\");\r\n\r\n        if (_tokenOriginCount[_tokenId] > 0)\r\n        {\r\n            uint256 index = _tokenOriginCount[_tokenId];\r\n            uint256 totalCount = index + 1;\r\n            _tokenOriginList[_tokenId][index] = _originTokenId;\r\n            _tokenOriginCount[_tokenId] = totalCount;\r\n        } else {\r\n            _tokenOriginList[_tokenId][0] = _originTokenId;\r\n            _tokenOriginCount[_tokenId] = 1;\r\n        }\r\n\r\n        emit TokenOrigin( _tokenId, _originTokenId);\r\n        \r\n        return true;\r\n    }\r\n\r\n    function getOrginToken\r\n    (\r\n        uint256 _tokenId,\r\n        uint256 indexOfOrigin\r\n    )\r\n        public\r\n        view\r\n        returns (uint256 originId)\r\n    {\r\n        require(_exists(_tokenId), \"ERC721_Traceability: tokenId does not exist\");\r\n        require( indexOfOrigin >= 0, \"ERC721_Traceability: index is not correct\");\r\n\r\n        if( _tokenOriginCount[_tokenId] > 0)\r\n        {\r\n            return _tokenOriginList[_tokenId][indexOfOrigin];\r\n        } else {\r\n            return 0;\r\n        }\r\n    }\r\n\r\n    function getTotalOriginToken\r\n    (\r\n        uint256 _tokenId\r\n    )\r\n        public\r\n        view\r\n        returns(uint256)\r\n    {\r\n        require(_exists(_tokenId), \"ERC721_Traceability: tokenId does not exist\");\r\n\r\n        return _tokenOriginCount[_tokenId];\r\n    }    \r\n}",
  "sourcePath": "C:/Dev/Projetos/git/smart-contract/contracts/Traceability.sol",
  "compiler": {
    "name": "solc",
    "version": "0.8.7+commit.e28d00a7.Emscripten.clang"
  },
  "schemaVersion": "3.3.4",
  "updatedAt": "2021-09-18T22:51:22.779Z",
  "devdoc": {
    "kind": "dev",
    "methods": {
      "approve(address,uint256)": {
        "details": "See {IERC721-approve}."
      },
      "balanceOf(address)": {
        "details": "See {IERC721-balanceOf}."
      },
      "getApproved(uint256)": {
        "details": "See {IERC721-getApproved}."
      },
      "isApprovedForAll(address,address)": {
        "details": "See {IERC721-isApprovedForAll}."
      },
      "name()": {
        "details": "See {IERC721Metadata-name}."
      },
      "ownerOf(uint256)": {
        "details": "See {IERC721-ownerOf}."
      },
      "safeTransferFrom(address,address,uint256)": {
        "details": "See {IERC721-safeTransferFrom}."
      },
      "safeTransferFrom(address,address,uint256,bytes)": {
        "details": "See {IERC721-safeTransferFrom}."
      },
      "setApprovalForAll(address,bool)": {
        "details": "See {IERC721-setApprovalForAll}."
      },
      "supportsInterface(bytes4)": {
        "details": "See {IERC165-supportsInterface}."
      },
      "symbol()": {
        "details": "See {IERC721Metadata-symbol}."
      },
      "tokenURI(uint256)": {
        "details": "See {IERC721Metadata-tokenURI}."
      },
      "transferFrom(address,address,uint256)": {
        "details": "See {IERC721-transferFrom}."
      }
    },
    "version": 1
  },
  "userdoc": {
    "kind": "user",
    "methods": {},
    "version": 1
  }
}