{
  "contractName": "Vendor",
  "abi": [
    {
      "inputs": [
        {
          "internalType": "address",
          "name": "enderecoToken",
          "type": "address"
        }
      ],
      "stateMutability": "nonpayable",
      "type": "constructor"
    },
    {
      "anonymous": false,
      "inputs": [
        {
          "indexed": false,
          "internalType": "address",
          "name": "comprador",
          "type": "address"
        },
        {
          "indexed": false,
          "internalType": "uint256",
          "name": "quantidadeETH",
          "type": "uint256"
        },
        {
          "indexed": false,
          "internalType": "uint256",
          "name": "quantidadeGLD",
          "type": "uint256"
        }
      ],
      "name": "ComprarToken",
      "type": "event"
    },
    {
      "anonymous": false,
      "inputs": [
        {
          "indexed": true,
          "internalType": "address",
          "name": "previousOwner",
          "type": "address"
        },
        {
          "indexed": true,
          "internalType": "address",
          "name": "newOwner",
          "type": "address"
        }
      ],
      "name": "OwnershipTransferred",
      "type": "event"
    },
    {
      "anonymous": false,
      "inputs": [
        {
          "indexed": false,
          "internalType": "address",
          "name": "vendedor",
          "type": "address"
        },
        {
          "indexed": false,
          "internalType": "uint256",
          "name": "quantidadeGLD",
          "type": "uint256"
        },
        {
          "indexed": false,
          "internalType": "uint256",
          "name": "quantidadeETH",
          "type": "uint256"
        }
      ],
      "name": "VenderToken",
      "type": "event"
    },
    {
      "inputs": [],
      "name": "_paridade",
      "outputs": [
        {
          "internalType": "uint256",
          "name": "",
          "type": "uint256"
        }
      ],
      "stateMutability": "view",
      "type": "function"
    },
    {
      "inputs": [],
      "name": "owner",
      "outputs": [
        {
          "internalType": "address",
          "name": "",
          "type": "address"
        }
      ],
      "stateMutability": "view",
      "type": "function"
    },
    {
      "inputs": [],
      "name": "renounceOwnership",
      "outputs": [],
      "stateMutability": "nonpayable",
      "type": "function"
    },
    {
      "inputs": [
        {
          "internalType": "address",
          "name": "newOwner",
          "type": "address"
        }
      ],
      "name": "transferOwnership",
      "outputs": [],
      "stateMutability": "nonpayable",
      "type": "function"
    },
    {
      "inputs": [],
      "name": "comprar",
      "outputs": [
        {
          "internalType": "uint256",
          "name": "",
          "type": "uint256"
        }
      ],
      "stateMutability": "payable",
      "type": "function"
    },
    {
      "inputs": [
        {
          "internalType": "uint256",
          "name": "quantidade",
          "type": "uint256"
        }
      ],
      "name": "vender",
      "outputs": [],
      "stateMutability": "nonpayable",
      "type": "function"
    },
    {
      "inputs": [],
      "name": "sacar",
      "outputs": [],
      "stateMutability": "nonpayable",
      "type": "function"
    }
  ],
  "bytecode": "0x608060405260646002553480156200001657600080fd5b50604051620017193803806200171983398181016040528101906200003c919062000187565b6200005c62000050620000a460201b60201c565b620000ac60201b60201c565b80600160006101000a81548173ffffffffffffffffffffffffffffffffffffffff021916908373ffffffffffffffffffffffffffffffffffffffff160217905550506200020c565b600033905090565b60008060009054906101000a900473ffffffffffffffffffffffffffffffffffffffff169050816000806101000a81548173ffffffffffffffffffffffffffffffffffffffff021916908373ffffffffffffffffffffffffffffffffffffffff1602179055508173ffffffffffffffffffffffffffffffffffffffff168173ffffffffffffffffffffffffffffffffffffffff167f8be0079c531659141344cd1fd0a4f28419497f9722a3daafe3b4186f6b6457e060405160405180910390a35050565b6000815190506200018181620001f2565b92915050565b600060208284031215620001a0576200019f620001ed565b5b6000620001b08482850162000170565b91505092915050565b6000620001c682620001cd565b9050919050565b600073ffffffffffffffffffffffffffffffffffffffff82169050919050565b600080fd5b620001fd81620001b9565b81146200020957600080fd5b50565b6114fd806200021c6000396000f3fe6080604052600436106100705760003560e01c806379879d301161004e57806379879d30146100e05780638da5cb5b146100fe578063a51068c814610129578063f2fde38b1461014057610070565b806309baa07d14610075578063715018a61461009e57806378a90cac146100b5575b600080fd5b34801561008157600080fd5b5061009c60048036038101906100979190610bbc565b610169565b005b3480156100aa57600080fd5b506100b36104a0565b005b3480156100c157600080fd5b506100ca610528565b6040516100d79190611042565b60405180910390f35b6100e861052e565b6040516100f59190611042565b60405180910390f35b34801561010a57600080fd5b506101136107ad565b6040516101209190610e10565b60405180910390f35b34801561013557600080fd5b5061013e6107d6565b005b34801561014c57600080fd5b5061016760048036038101906101629190610b62565b61094a565b005b600081116101ac576040517f08c379a00000000000000000000000000000000000000000000000000000000081526004016101a390610f22565b60405180910390fd5b6000600160009054906101000a900473ffffffffffffffffffffffffffffffffffffffff1673ffffffffffffffffffffffffffffffffffffffff166370a08231336040518263ffffffff1660e01b81526004016102099190610e10565b60206040518083038186803b15801561022157600080fd5b505afa158015610235573d6000803e3d6000fd5b505050506040513d601f19601f820116820180604052508101906102599190610be9565b90508181101561029e576040517f08c379a000000000000000000000000000000000000000000000000000000000815260040161029590610f62565b60405180910390fd5b6000600254836102ae9190611079565b90506000479050818110156102f8576040517f08c379a00000000000000000000000000000000000000000000000000000000081526004016102ef90610ec2565b60405180910390fd5b6000600160009054906101000a900473ffffffffffffffffffffffffffffffffffffffff1673ffffffffffffffffffffffffffffffffffffffff166323b872dd3330886040518463ffffffff1660e01b815260040161035993929190610e2b565b602060405180830381600087803b15801561037357600080fd5b505af1158015610387573d6000803e3d6000fd5b505050506040513d601f19601f820116820180604052508101906103ab9190610b8f565b9050806103ed576040517f08c379a00000000000000000000000000000000000000000000000000000000081526004016103e490610f42565b60405180910390fd5b3373ffffffffffffffffffffffffffffffffffffffff168360405161041190610dfb565b60006040518083038185875af1925050503d806000811461044e576040519150601f19603f3d011682016040523d82523d6000602084013e610453565b606091505b50508091505080610499576040517f08c379a000000000000000000000000000000000000000000000000000000000815260040161049090611002565b60405180910390fd5b5050505050565b6104a8610a42565b73ffffffffffffffffffffffffffffffffffffffff166104c66107ad565b73ffffffffffffffffffffffffffffffffffffffff161461051c576040517f08c379a000000000000000000000000000000000000000000000000000000000815260040161051390610fa2565b60405180910390fd5b6105266000610a4a565b565b60025481565b6000803411610572576040517f08c379a000000000000000000000000000000000000000000000000000000000815260040161056990610fe2565b60405180910390fd5b60006002543461058291906110aa565b90506000600160009054906101000a900473ffffffffffffffffffffffffffffffffffffffff1673ffffffffffffffffffffffffffffffffffffffff166370a08231306040518263ffffffff1660e01b81526004016105e19190610e10565b60206040518083038186803b1580156105f957600080fd5b505afa15801561060d573d6000803e3d6000fd5b505050506040513d601f19601f820116820180604052508101906106319190610be9565b905081811015610676576040517f08c379a000000000000000000000000000000000000000000000000000000000815260040161066d90610fc2565b60405180910390fd5b6000600160009054906101000a900473ffffffffffffffffffffffffffffffffffffffff1673ffffffffffffffffffffffffffffffffffffffff1663a9059cbb33856040518363ffffffff1660e01b81526004016106d5929190610e62565b602060405180830381600087803b1580156106ef57600080fd5b505af1158015610703573d6000803e3d6000fd5b505050506040513d601f19601f820116820180604052508101906107279190610b8f565b905080610769576040517f08c379a000000000000000000000000000000000000000000000000000000000815260040161076090611022565b60405180910390fd5b7fcb2413778596b4fcaef06a676ccf6cdc2de425672e0d458371129d854b1d1e8033348560405161079c93929190610e8b565b60405180910390a182935050505090565b60008060009054906101000a900473ffffffffffffffffffffffffffffffffffffffff16905090565b6107de610a42565b73ffffffffffffffffffffffffffffffffffffffff166107fc6107ad565b73ffffffffffffffffffffffffffffffffffffffff1614610852576040517f08c379a000000000000000000000000000000000000000000000000000000000815260040161084990610fa2565b60405180910390fd5b60004790506000811161089a576040517f08c379a000000000000000000000000000000000000000000000000000000000815260040161089190610f02565b60405180910390fd5b60003373ffffffffffffffffffffffffffffffffffffffff16476040516108c090610dfb565b60006040518083038185875af1925050503d80600081146108fd576040519150601f19603f3d011682016040523d82523d6000602084013e610902565b606091505b5050905080610946576040517f08c379a000000000000000000000000000000000000000000000000000000000815260040161093d90610f82565b60405180910390fd5b5050565b610952610a42565b73ffffffffffffffffffffffffffffffffffffffff166109706107ad565b73ffffffffffffffffffffffffffffffffffffffff16146109c6576040517f08c379a00000000000000000000000000000000000000000000000000000000081526004016109bd90610fa2565b60405180910390fd5b600073ffffffffffffffffffffffffffffffffffffffff168173ffffffffffffffffffffffffffffffffffffffff161415610a36576040517f08c379a0000000000000000000000000000000000000000000000000000000008152600401610a2d90610ee2565b60405180910390fd5b610a3f81610a4a565b50565b600033905090565b60008060009054906101000a900473ffffffffffffffffffffffffffffffffffffffff169050816000806101000a81548173ffffffffffffffffffffffffffffffffffffffff021916908373ffffffffffffffffffffffffffffffffffffffff1602179055508173ffffffffffffffffffffffffffffffffffffffff168173ffffffffffffffffffffffffffffffffffffffff167f8be0079c531659141344cd1fd0a4f28419497f9722a3daafe3b4186f6b6457e060405160405180910390a35050565b600081359050610b1d81611482565b92915050565b600081519050610b3281611499565b92915050565b600081359050610b47816114b0565b92915050565b600081519050610b5c816114b0565b92915050565b600060208284031215610b7857610b776111aa565b5b6000610b8684828501610b0e565b91505092915050565b600060208284031215610ba557610ba46111aa565b5b6000610bb384828501610b23565b91505092915050565b600060208284031215610bd257610bd16111aa565b5b6000610be084828501610b38565b91505092915050565b600060208284031215610bff57610bfe6111aa565b5b6000610c0d84828501610b4d565b91505092915050565b610c1f81611104565b82525050565b6000610c32603683611068565b9150610c3d826111af565b604082019050919050565b6000610c55602683611068565b9150610c60826111fe565b604082019050919050565b6000610c78601483611068565b9150610c838261124d565b602082019050919050565b6000610c9b601783611068565b9150610ca682611276565b602082019050919050565b6000610cbe602d83611068565b9150610cc98261129f565b604082019050919050565b6000610ce1603783611068565b9150610cec826112ee565b604082019050919050565b6000610d04603983611068565b9150610d0f8261133d565b604082019050919050565b6000610d27602083611068565b9150610d328261138c565b602082019050919050565b6000610d4a602283611068565b9150610d55826113b5565b604082019050919050565b6000610d6d60008361105d565b9150610d7882611404565b600082019050919050565b6000610d90601e83611068565b9150610d9b82611407565b602082019050919050565b6000610db3601e83611068565b9150610dbe82611430565b602082019050919050565b6000610dd6601a83611068565b9150610de182611459565b602082019050919050565b610df581611142565b82525050565b6000610e0682610d60565b9150819050919050565b6000602082019050610e256000830184610c16565b92915050565b6000606082019050610e406000830186610c16565b610e4d6020830185610c16565b610e5a6040830184610dec565b949350505050565b6000604082019050610e776000830185610c16565b610e846020830184610dec565b9392505050565b6000606082019050610ea06000830186610c16565b610ead6020830185610dec565b610eba6040830184610dec565b949350505050565b60006020820190508181036000830152610edb81610c25565b9050919050565b60006020820190508181036000830152610efb81610c48565b9050919050565b60006020820190508181036000830152610f1b81610c6b565b9050919050565b60006020820190508181036000830152610f3b81610c8e565b9050919050565b60006020820190508181036000830152610f5b81610cb1565b9050919050565b60006020820190508181036000830152610f7b81610cd4565b9050919050565b60006020820190508181036000830152610f9b81610cf7565b9050919050565b60006020820190508181036000830152610fbb81610d1a565b9050919050565b60006020820190508181036000830152610fdb81610d3d565b9050919050565b60006020820190508181036000830152610ffb81610d83565b9050919050565b6000602082019050818103600083015261101b81610da6565b9050919050565b6000602082019050818103600083015261103b81610dc9565b9050919050565b60006020820190506110576000830184610dec565b92915050565b600081905092915050565b600082825260208201905092915050565b600061108482611142565b915061108f83611142565b92508261109f5761109e61117b565b5b828204905092915050565b60006110b582611142565b91506110c083611142565b9250817fffffffffffffffffffffffffffffffffffffffffffffffffffffffffffffffff04831182151516156110f9576110f861114c565b5b828202905092915050565b600061110f82611122565b9050919050565b60008115159050919050565b600073ffffffffffffffffffffffffffffffffffffffff82169050919050565b6000819050919050565b7f4e487b7100000000000000000000000000000000000000000000000000000000600052601160045260246000fd5b7f4e487b7100000000000000000000000000000000000000000000000000000000600052601260045260246000fd5b600080fd5b7f56656e646f7220686173206e6f7420656e6f7567682066756e647320746f206160008201527f6363657074207468652073656c6c207265717565737400000000000000000000602082015250565b7f4f776e61626c653a206e6577206f776e657220697320746865207a65726f206160008201527f6464726573730000000000000000000000000000000000000000000000000000602082015250565b7f73656d2073616c646f2070617261207361717565000000000000000000000000600082015250565b7f7175616e74696461646520696e737566696369656e7465000000000000000000600082015250565b7f4661696c656420746f207472616e7366657220746f6b656e732066726f6d207560008201527f73657220746f2076656e646f7200000000000000000000000000000000000000602082015250565b7f73616c646f20696e666572696f722061207175616e746964616465206465207460008201527f6f6b656e732071756520646573616a612076656e646572000000000000000000602082015250565b7f66616c686120616f20656e766961722073616c646f20646f207573756172696f60008201527f20646520766f6c746120616f2070726f70726965746172696f00000000000000602082015250565b7f4f776e61626c653a2063616c6c6572206973206e6f7420746865206f776e6572600082015250565b7f73616c646f20646f20646973747269627569646f7220696e737566696369656e60008201527f7465000000000000000000000000000000000000000000000000000000000000602082015250565b50565b7f7175616e7469646164652064652045544820696e737566696369656e74650000600082015250565b7f4661696c656420746f2073656e642045544820746f2074686520757365720000600082015250565b7f66616c686120616f207472616e73666572697220746f6b656e73000000000000600082015250565b61148b81611104565b811461149657600080fd5b50565b6114a281611116565b81146114ad57600080fd5b50565b6114b981611142565b81146114c457600080fd5b5056fea26469706673582212200dc687befa8a3918a39f091b543ff9997d2066829f8eff453d1ce5064729dd8c64736f6c63430008070033",
  "immutableReferences": {},
  "source": "// SPDX-License-Identifier: MIT\r\npragma solidity ^0.8.0;\r\n\r\nimport \"./Gold.sol\";\r\nimport \"@openzeppelin/contracts/access/Ownable.sol\";\r\n\r\ncontract Vendor is Ownable {\r\n    Gold _gold;\r\n    uint256 public _paridade = 100; //100 gold = 1 eth\r\n\r\n    event ComprarToken(address comprador, uint256 quantidadeETH, uint256 quantidadeGLD);\r\n    event VenderToken(address vendedor, uint256 quantidadeGLD, uint256 quantidadeETH);\r\n\r\n    constructor(address enderecoToken) {\r\n        _gold = Gold(enderecoToken);\r\n    }\r\n\r\n    function comprar() public payable returns (uint256) {\r\n        require(msg.value > 0, \"quantidade de ETH insuficiente\");\r\n\r\n        uint256 quantidadeParaComprar = msg.value * _paridade;\r\n        uint256 saldoVendor = _gold.balanceOf(address(this));\r\n\r\n        require(saldoVendor >= quantidadeParaComprar, \"saldo do distribuidor insuficiente\");\r\n\r\n        (bool sent) = _gold.transfer(msg.sender, quantidadeParaComprar);\r\n        require(sent, \"falha ao transferir tokens\");\r\n\r\n         emit ComprarToken(msg.sender, msg.value, quantidadeParaComprar);\r\n\r\n         return quantidadeParaComprar;\r\n    }\r\n\r\n    function vender(uint256 quantidade) public {\r\n        require(quantidade > 0, \"quantidade insuficiente\");\r\n\r\n        uint256 saldoUsuario = _gold.balanceOf(msg.sender);\r\n        require(saldoUsuario >= quantidade,\"saldo inferior a quantidade de tokens que desaja vender\");\r\n\r\n        uint256 amountOfETHToTransfer = quantidade / _paridade;\r\n        uint256 ownerETHBalance = address(this).balance;\r\n        require(ownerETHBalance >= amountOfETHToTransfer, \"Vendor has not enough funds to accept the sell request\");\r\n\r\n        (bool sent) = _gold.transferFrom(msg.sender, address(this), quantidade);\r\n        require(sent, \"Failed to transfer tokens from user to vendor\");\r\n\r\n        (sent,) = msg.sender.call{value: amountOfETHToTransfer}(\"\");\r\n        require(sent, \"Failed to send ETH to the user\");        \r\n    }\r\n\r\n    function sacar() public onlyOwner {\r\n        uint256 saldoDono = address(this).balance;\r\n        require(saldoDono > 0, \"sem saldo para saque\");\r\n\r\n        (bool sent,) = msg.sender.call{value: address(this).balance}(\"\");\r\n        require(sent, \"falha ao enviar saldo do usuario de volta ao proprietario\");\r\n    }    \r\n}",
  "sourcePath": "C:/Dev/Projetos/git/smart-contract/contracts/Vendor.sol",
  "compiler": {
    "name": "solc",
    "version": "0.8.7+commit.e28d00a7.Emscripten.clang"
  },
  "schemaVersion": "3.3.4",
  "updatedAt": "2021-09-18T22:51:22.791Z",
  "devdoc": {
    "kind": "dev",
    "methods": {
      "owner()": {
        "details": "Returns the address of the current owner."
      },
      "renounceOwnership()": {
        "details": "Leaves the contract without owner. It will not be possible to call `onlyOwner` functions anymore. Can only be called by the current owner. NOTE: Renouncing ownership will leave the contract without an owner, thereby removing any functionality that is only available to the owner."
      },
      "transferOwnership(address)": {
        "details": "Transfers ownership of the contract to a new account (`newOwner`). Can only be called by the current owner."
      }
    },
    "version": 1
  },
  "userdoc": {
    "kind": "user",
    "methods": {},
    "version": 1
  }
}